{
	"contracts/charityNFT.sol": {
		"CharityToken": {
			"abi": [
				{
					"inputs": [],
					"stateMutability": "nonpayable",
					"type": "constructor"
				},
				{
					"anonymous": false,
					"inputs": [
						{
							"indexed": true,
							"internalType": "address",
							"name": "owner",
							"type": "address"
						},
						{
							"indexed": true,
							"internalType": "address",
							"name": "approved",
							"type": "address"
						},
						{
							"indexed": true,
							"internalType": "uint256",
							"name": "tokenId",
							"type": "uint256"
						}
					],
					"name": "Approval",
					"type": "event"
				},
				{
					"anonymous": false,
					"inputs": [
						{
							"indexed": true,
							"internalType": "address",
							"name": "owner",
							"type": "address"
						},
						{
							"indexed": true,
							"internalType": "address",
							"name": "operator",
							"type": "address"
						},
						{
							"indexed": false,
							"internalType": "bool",
							"name": "approved",
							"type": "bool"
						}
					],
					"name": "ApprovalForAll",
					"type": "event"
				},
				{
					"anonymous": false,
					"inputs": [
						{
							"indexed": true,
							"internalType": "address",
							"name": "previousOwner",
							"type": "address"
						},
						{
							"indexed": true,
							"internalType": "address",
							"name": "newOwner",
							"type": "address"
						}
					],
					"name": "OwnershipTransferred",
					"type": "event"
				},
				{
					"anonymous": false,
					"inputs": [
						{
							"indexed": false,
							"internalType": "address",
							"name": "account",
							"type": "address"
						}
					],
					"name": "Paused",
					"type": "event"
				},
				{
					"anonymous": false,
					"inputs": [
						{
							"indexed": true,
							"internalType": "address",
							"name": "from",
							"type": "address"
						},
						{
							"indexed": true,
							"internalType": "address",
							"name": "to",
							"type": "address"
						},
						{
							"indexed": true,
							"internalType": "uint256",
							"name": "tokenId",
							"type": "uint256"
						}
					],
					"name": "Transfer",
					"type": "event"
				},
				{
					"anonymous": false,
					"inputs": [
						{
							"indexed": false,
							"internalType": "address",
							"name": "account",
							"type": "address"
						}
					],
					"name": "Unpaused",
					"type": "event"
				},
				{
					"anonymous": false,
					"inputs": [
						{
							"indexed": false,
							"internalType": "uint256",
							"name": "",
							"type": "uint256"
						},
						{
							"indexed": false,
							"internalType": "string",
							"name": "",
							"type": "string"
						}
					],
					"name": "listedForFixedPrice",
					"type": "event"
				},
				{
					"anonymous": false,
					"inputs": [
						{
							"indexed": false,
							"internalType": "uint256",
							"name": "",
							"type": "uint256"
						},
						{
							"indexed": false,
							"internalType": "uint256",
							"name": "",
							"type": "uint256"
						},
						{
							"indexed": false,
							"internalType": "string",
							"name": "",
							"type": "string"
						}
					],
					"name": "nftPriceUpdated",
					"type": "event"
				},
				{
					"inputs": [
						{
							"internalType": "address",
							"name": "to",
							"type": "address"
						},
						{
							"internalType": "uint256",
							"name": "tokenId",
							"type": "uint256"
						}
					],
					"name": "approve",
					"outputs": [],
					"stateMutability": "nonpayable",
					"type": "function"
				},
				{
					"inputs": [
						{
							"internalType": "address",
							"name": "owner",
							"type": "address"
						}
					],
					"name": "balanceOf",
					"outputs": [
						{
							"internalType": "uint256",
							"name": "",
							"type": "uint256"
						}
					],
					"stateMutability": "view",
					"type": "function"
				},
				{
					"inputs": [
						{
							"internalType": "uint256",
							"name": "tokenId",
							"type": "uint256"
						}
					],
					"name": "burn",
					"outputs": [],
					"stateMutability": "nonpayable",
					"type": "function"
				},
				{
					"inputs": [
						{
							"internalType": "uint256",
							"name": "tokenId",
							"type": "uint256"
						}
					],
					"name": "getApproved",
					"outputs": [
						{
							"internalType": "address",
							"name": "",
							"type": "address"
						}
					],
					"stateMutability": "view",
					"type": "function"
				},
				{
					"inputs": [
						{
							"internalType": "uint256",
							"name": "nftId",
							"type": "uint256"
						}
					],
					"name": "getNftPrice",
					"outputs": [
						{
							"internalType": "uint256",
							"name": "",
							"type": "uint256"
						}
					],
					"stateMutability": "view",
					"type": "function"
				},
				{
					"inputs": [
						{
							"internalType": "address",
							"name": "owner",
							"type": "address"
						},
						{
							"internalType": "address",
							"name": "operator",
							"type": "address"
						}
					],
					"name": "isApprovedForAll",
					"outputs": [
						{
							"internalType": "bool",
							"name": "",
							"type": "bool"
						}
					],
					"stateMutability": "view",
					"type": "function"
				},
				{
					"inputs": [],
					"name": "name",
					"outputs": [
						{
							"internalType": "string",
							"name": "",
							"type": "string"
						}
					],
					"stateMutability": "view",
					"type": "function"
				},
				{
					"inputs": [],
					"name": "owner",
					"outputs": [
						{
							"internalType": "address",
							"name": "",
							"type": "address"
						}
					],
					"stateMutability": "view",
					"type": "function"
				},
				{
					"inputs": [
						{
							"internalType": "uint256",
							"name": "tokenId",
							"type": "uint256"
						}
					],
					"name": "ownerOf",
					"outputs": [
						{
							"internalType": "address",
							"name": "",
							"type": "address"
						}
					],
					"stateMutability": "view",
					"type": "function"
				},
				{
					"inputs": [],
					"name": "pause",
					"outputs": [],
					"stateMutability": "nonpayable",
					"type": "function"
				},
				{
					"inputs": [],
					"name": "paused",
					"outputs": [
						{
							"internalType": "bool",
							"name": "",
							"type": "bool"
						}
					],
					"stateMutability": "view",
					"type": "function"
				},
				{
					"inputs": [
						{
							"internalType": "uint256",
							"name": "nftId",
							"type": "uint256"
						},
						{
							"internalType": "uint256",
							"name": "priceOfNFT",
							"type": "uint256"
						}
					],
					"name": "placeNftForFixedPrice",
					"outputs": [],
					"stateMutability": "nonpayable",
					"type": "function"
				},
				{
					"inputs": [],
					"name": "renounceOwnership",
					"outputs": [],
					"stateMutability": "nonpayable",
					"type": "function"
				},
				{
					"inputs": [
						{
							"internalType": "address",
							"name": "to",
							"type": "address"
						}
					],
					"name": "safeMint",
					"outputs": [],
					"stateMutability": "nonpayable",
					"type": "function"
				},
				{
					"inputs": [
						{
							"internalType": "address",
							"name": "from",
							"type": "address"
						},
						{
							"internalType": "address",
							"name": "to",
							"type": "address"
						},
						{
							"internalType": "uint256",
							"name": "tokenId",
							"type": "uint256"
						}
					],
					"name": "safeTransferFrom",
					"outputs": [],
					"stateMutability": "nonpayable",
					"type": "function"
				},
				{
					"inputs": [
						{
							"internalType": "address",
							"name": "from",
							"type": "address"
						},
						{
							"internalType": "address",
							"name": "to",
							"type": "address"
						},
						{
							"internalType": "uint256",
							"name": "tokenId",
							"type": "uint256"
						},
						{
							"internalType": "bytes",
							"name": "data",
							"type": "bytes"
						}
					],
					"name": "safeTransferFrom",
					"outputs": [],
					"stateMutability": "nonpayable",
					"type": "function"
				},
				{
					"inputs": [
						{
							"internalType": "address",
							"name": "operator",
							"type": "address"
						},
						{
							"internalType": "bool",
							"name": "approved",
							"type": "bool"
						}
					],
					"name": "setApprovalForAll",
					"outputs": [],
					"stateMutability": "nonpayable",
					"type": "function"
				},
				{
					"inputs": [
						{
							"internalType": "bytes4",
							"name": "interfaceId",
							"type": "bytes4"
						}
					],
					"name": "supportsInterface",
					"outputs": [
						{
							"internalType": "bool",
							"name": "",
							"type": "bool"
						}
					],
					"stateMutability": "view",
					"type": "function"
				},
				{
					"inputs": [],
					"name": "symbol",
					"outputs": [
						{
							"internalType": "string",
							"name": "",
							"type": "string"
						}
					],
					"stateMutability": "view",
					"type": "function"
				},
				{
					"inputs": [
						{
							"internalType": "uint256",
							"name": "tokenId",
							"type": "uint256"
						}
					],
					"name": "tokenURI",
					"outputs": [
						{
							"internalType": "string",
							"name": "",
							"type": "string"
						}
					],
					"stateMutability": "view",
					"type": "function"
				},
				{
					"inputs": [
						{
							"internalType": "address",
							"name": "from",
							"type": "address"
						},
						{
							"internalType": "address",
							"name": "to",
							"type": "address"
						},
						{
							"internalType": "uint256",
							"name": "tokenId",
							"type": "uint256"
						}
					],
					"name": "transferFrom",
					"outputs": [],
					"stateMutability": "nonpayable",
					"type": "function"
				},
				{
					"inputs": [
						{
							"internalType": "address",
							"name": "newOwner",
							"type": "address"
						}
					],
					"name": "transferOwnership",
					"outputs": [],
					"stateMutability": "nonpayable",
					"type": "function"
				},
				{
					"inputs": [],
					"name": "unpause",
					"outputs": [],
					"stateMutability": "nonpayable",
					"type": "function"
				},
				{
					"inputs": [
						{
							"internalType": "uint256",
							"name": "nftId",
							"type": "uint256"
						},
						{
							"internalType": "uint256",
							"name": "price",
							"type": "uint256"
						}
					],
					"name": "updateNFTPrice",
					"outputs": [],
					"stateMutability": "nonpayable",
					"type": "function"
				}
			],
			"devdoc": {
				"events": {
					"Approval(address,address,uint256)": {
						"details": "Emitted when `owner` enables `approved` to manage the `tokenId` token."
					},
					"ApprovalForAll(address,address,bool)": {
						"details": "Emitted when `owner` enables or disables (`approved`) `operator` to manage all of its assets."
					},
					"Paused(address)": {
						"details": "Emitted when the pause is triggered by `account`."
					},
					"Transfer(address,address,uint256)": {
						"details": "Emitted when `tokenId` token is transferred from `from` to `to`."
					},
					"Unpaused(address)": {
						"details": "Emitted when the pause is lifted by `account`."
					}
				},
				"kind": "dev",
				"methods": {
					"approve(address,uint256)": {
						"details": "See {IERC721-approve}."
					},
					"balanceOf(address)": {
						"details": "See {IERC721-balanceOf}."
					},
					"burn(uint256)": {
						"details": "Burns `tokenId`. See {ERC721-_burn}. Requirements: - The caller must own `tokenId` or be an approved operator."
					},
					"getApproved(uint256)": {
						"details": "See {IERC721-getApproved}."
					},
					"isApprovedForAll(address,address)": {
						"details": "See {IERC721-isApprovedForAll}."
					},
					"name()": {
						"details": "See {IERC721Metadata-name}."
					},
					"owner()": {
						"details": "Returns the address of the current owner."
					},
					"ownerOf(uint256)": {
						"details": "See {IERC721-ownerOf}."
					},
					"paused()": {
						"details": "Returns true if the contract is paused, and false otherwise."
					},
					"renounceOwnership()": {
						"details": "Leaves the contract without owner. It will not be possible to call `onlyOwner` functions. Can only be called by the current owner. NOTE: Renouncing ownership will leave the contract without an owner, thereby disabling any functionality that is only available to the owner."
					},
					"safeTransferFrom(address,address,uint256)": {
						"details": "See {IERC721-safeTransferFrom}."
					},
					"safeTransferFrom(address,address,uint256,bytes)": {
						"details": "See {IERC721-safeTransferFrom}."
					},
					"setApprovalForAll(address,bool)": {
						"details": "See {IERC721-setApprovalForAll}."
					},
					"supportsInterface(bytes4)": {
						"details": "See {IERC165-supportsInterface}."
					},
					"symbol()": {
						"details": "See {IERC721Metadata-symbol}."
					},
					"tokenURI(uint256)": {
						"details": "See {IERC721Metadata-tokenURI}."
					},
					"transferFrom(address,address,uint256)": {
						"details": "See {IERC721-transferFrom}."
					},
					"transferOwnership(address)": {
						"details": "Transfers ownership of the contract to a new account (`newOwner`). Can only be called by the current owner."
					}
				},
				"version": 1
			},
			"evm": {
				"assembly": "    /* \"contracts/charityNFT.sol\":655:2696  contract CharityToken is ERC721, Pausable, Ownable, ERC721Burnable {... */\n  mstore(0x40, 0x80)\n    /* \"contracts/charityNFT.sol\":1071:1119  constructor() ERC721(\"CharityToken\", \"CHTKN\") {} */\n  callvalue\n  dup1\n  iszero\n  tag_1\n  jumpi\n  0x00\n  dup1\n  revert\ntag_1:\n  pop\n    /* \"@openzeppelin/contracts/token/ERC721/ERC721.sol\":1390:1503  constructor(string memory name_, string memory symbol_) {... */\n  mload(0x40)\n  dup1\n  0x40\n  add\n  0x40\n  mstore\n  dup1\n  0x0c\n  dup2\n  mstore\n  0x20\n  add\n  shl(0xa1, 0x21b430b934ba3caa37b5b2b7)\n  dup2\n  mstore\n  pop\n  mload(0x40)\n  dup1\n  0x40\n  add\n  0x40\n  mstore\n  dup1\n  0x05\n  dup2\n  mstore\n  0x20\n  add\n  shl(0xd9, 0x21a42a25a7)\n  dup2\n  mstore\n  pop\n    /* \"@openzeppelin/contracts/token/ERC721/ERC721.sol\":1464:1469  name_ */\n  dup2\n    /* \"@openzeppelin/contracts/token/ERC721/ERC721.sol\":1456:1461  _name */\n  0x00\n    /* \"@openzeppelin/contracts/token/ERC721/ERC721.sol\":1456:1469  _name = name_ */\n  swap1\n  dup2\n  tag_7\n  swap2\n  swap1\n  tag_8\n  jump\t// in\ntag_7:\n  pop\n    /* \"@openzeppelin/contracts/token/ERC721/ERC721.sol\":1479:1486  _symbol */\n  0x01\n    /* \"@openzeppelin/contracts/token/ERC721/ERC721.sol\":1479:1496  _symbol = symbol_ */\n  tag_9\n    /* \"@openzeppelin/contracts/token/ERC721/ERC721.sol\":1489:1496  symbol_ */\n  dup3\n    /* \"@openzeppelin/contracts/token/ERC721/ERC721.sol\":1479:1486  _symbol */\n  dup3\n    /* \"@openzeppelin/contracts/token/ERC721/ERC721.sol\":1479:1496  _symbol = symbol_ */\n  tag_8\n  jump\t// in\ntag_9:\n  pop\n  pop\n    /* \"@openzeppelin/contracts/security/Pausable.sol\":996:1003  _paused */\n  0x06\n    /* \"@openzeppelin/contracts/security/Pausable.sol\":996:1011  _paused = false */\n  dup1\n  sload\n  not(0xff)\n  and\n  swap1\n  sstore\n  pop\n    /* \"@openzeppelin/contracts/access/Ownable.sol\":936:968  _transferOwnership(_msgSender()) */\n  tag_12\n    /* \"@openzeppelin/contracts/utils/Context.sol\":719:729  msg.sender */\n  caller\n    /* \"@openzeppelin/contracts/access/Ownable.sol\":936:954  _transferOwnership */\n  tag_15\n    /* \"@openzeppelin/contracts/access/Ownable.sol\":936:968  _transferOwnership(_msgSender()) */\n  jump\t// in\ntag_12:\n    /* \"contracts/charityNFT.sol\":655:2696  contract CharityToken is ERC721, Pausable, Ownable, ERC721Burnable {... */\n  jump(tag_25)\n    /* \"@openzeppelin/contracts/access/Ownable.sol\":2426:2613  function _transferOwnership(address newOwner) internal virtual {... */\ntag_15:\n    /* \"@openzeppelin/contracts/access/Ownable.sol\":2518:2524  _owner */\n  0x06\n  dup1\n  sload\n  sub(shl(0xa0, 0x01), 0x01)\n    /* \"@openzeppelin/contracts/access/Ownable.sol\":2534:2551  _owner = newOwner */\n  dup4\n  dup2\n  and\n    /* \"@openzeppelin/contracts/access/Ownable.sol\":2518:2524  _owner */\n  0x0100\n    /* \"@openzeppelin/contracts/access/Ownable.sol\":2534:2551  _owner = newOwner */\n  dup2\n  dup2\n  mul\n  not(sub(shl(0xa8, 0x01), 0x0100))\n  dup6\n  and\n  or\n  swap1\n  swap5\n  sstore\n    /* \"@openzeppelin/contracts/access/Ownable.sol\":2566:2606  OwnershipTransferred(oldOwner, newOwner) */\n  mload(0x40)\n    /* \"@openzeppelin/contracts/access/Ownable.sol\":2518:2524  _owner */\n  swap4\n  swap1\n  swap3\n  div\n  and\n  swap2\n  dup3\n  swap1\n    /* \"@openzeppelin/contracts/access/Ownable.sol\":2566:2606  OwnershipTransferred(oldOwner, newOwner) */\n  0x8be0079c531659141344cd1fd0a4f28419497f9722a3daafe3b4186f6b6457e0\n  swap1\n    /* \"@openzeppelin/contracts/access/Ownable.sol\":2499:2515  address oldOwner */\n  0x00\n  swap1\n    /* \"@openzeppelin/contracts/access/Ownable.sol\":2566:2606  OwnershipTransferred(oldOwner, newOwner) */\n  log3\n    /* \"@openzeppelin/contracts/access/Ownable.sol\":2489:2613  {... */\n  pop\n    /* \"@openzeppelin/contracts/access/Ownable.sol\":2426:2613  function _transferOwnership(address newOwner) internal virtual {... */\n  pop\n  jump\t// out\n    /* \"#utility.yul\":14:141   */\ntag_20:\n    /* \"#utility.yul\":75:85   */\n  0x4e487b71\n    /* \"#utility.yul\":70:73   */\n  0xe0\n    /* \"#utility.yul\":66:86   */\n  shl\n    /* \"#utility.yul\":63:64   */\n  0x00\n    /* \"#utility.yul\":56:87   */\n  mstore\n    /* \"#utility.yul\":106:110   */\n  0x41\n    /* \"#utility.yul\":103:104   */\n  0x04\n    /* \"#utility.yul\":96:111   */\n  mstore\n    /* \"#utility.yul\":130:134   */\n  0x24\n    /* \"#utility.yul\":127:128   */\n  0x00\n    /* \"#utility.yul\":120:135   */\n  revert\n    /* \"#utility.yul\":146:526   */\ntag_21:\n    /* \"#utility.yul\":225:226   */\n  0x01\n    /* \"#utility.yul\":221:233   */\n  dup2\n  dup2\n  shr\n  swap1\n    /* \"#utility.yul\":268:280   */\n  dup3\n  and\n  dup1\n    /* \"#utility.yul\":289:350   */\n  tag_28\n  jumpi\n    /* \"#utility.yul\":343:347   */\n  0x7f\n    /* \"#utility.yul\":335:341   */\n  dup3\n    /* \"#utility.yul\":331:348   */\n  and\n    /* \"#utility.yul\":321:348   */\n  swap2\n  pop\n    /* \"#utility.yul\":289:350   */\ntag_28:\n    /* \"#utility.yul\":396:398   */\n  0x20\n    /* \"#utility.yul\":388:394   */\n  dup3\n    /* \"#utility.yul\":385:399   */\n  lt\n    /* \"#utility.yul\":365:383   */\n  dup2\n    /* \"#utility.yul\":362:400   */\n  sub\n    /* \"#utility.yul\":359:520   */\n  tag_29\n  jumpi\n    /* \"#utility.yul\":442:452   */\n  0x4e487b71\n    /* \"#utility.yul\":437:440   */\n  0xe0\n    /* \"#utility.yul\":433:453   */\n  shl\n    /* \"#utility.yul\":430:431   */\n  0x00\n    /* \"#utility.yul\":423:454   */\n  mstore\n    /* \"#utility.yul\":477:481   */\n  0x22\n    /* \"#utility.yul\":474:475   */\n  0x04\n    /* \"#utility.yul\":467:482   */\n  mstore\n    /* \"#utility.yul\":505:509   */\n  0x24\n    /* \"#utility.yul\":502:503   */\n  0x00\n    /* \"#utility.yul\":495:510   */\n  revert\n    /* \"#utility.yul\":359:520   */\ntag_29:\n  pop\n    /* \"#utility.yul\":146:526   */\n  swap2\n  swap1\n  pop\n  jump\t// out\n    /* \"#utility.yul\":657:1202   */\ntag_23:\n    /* \"#utility.yul\":759:761   */\n  0x1f\n    /* \"#utility.yul\":754:757   */\n  dup3\n    /* \"#utility.yul\":751:762   */\n  gt\n    /* \"#utility.yul\":748:1196   */\n  iszero\n  tag_32\n  jumpi\n    /* \"#utility.yul\":795:796   */\n  0x00\n    /* \"#utility.yul\":820:825   */\n  dup2\n    /* \"#utility.yul\":816:818   */\n  dup2\n    /* \"#utility.yul\":809:826   */\n  mstore\n    /* \"#utility.yul\":865:869   */\n  0x20\n    /* \"#utility.yul\":861:863   */\n  dup2\n    /* \"#utility.yul\":851:870   */\n  keccak256\n    /* \"#utility.yul\":935:937   */\n  0x1f\n    /* \"#utility.yul\":923:933   */\n  dup6\n    /* \"#utility.yul\":919:938   */\n  add\n    /* \"#utility.yul\":916:917   */\n  0x05\n    /* \"#utility.yul\":912:939   */\n  shr\n    /* \"#utility.yul\":906:910   */\n  dup2\n    /* \"#utility.yul\":902:940   */\n  add\n    /* \"#utility.yul\":971:975   */\n  0x20\n    /* \"#utility.yul\":959:969   */\n  dup7\n    /* \"#utility.yul\":956:976   */\n  lt\n    /* \"#utility.yul\":953:1000   */\n  iszero\n  tag_33\n  jumpi\n  pop\n    /* \"#utility.yul\":994:998   */\n  dup1\n    /* \"#utility.yul\":953:1000   */\ntag_33:\n    /* \"#utility.yul\":1049:1051   */\n  0x1f\n    /* \"#utility.yul\":1044:1047   */\n  dup6\n    /* \"#utility.yul\":1040:1052   */\n  add\n    /* \"#utility.yul\":1037:1038   */\n  0x05\n    /* \"#utility.yul\":1033:1053   */\n  shr\n    /* \"#utility.yul\":1027:1031   */\n  dup3\n    /* \"#utility.yul\":1023:1054   */\n  add\n    /* \"#utility.yul\":1013:1054   */\n  swap2\n  pop\n    /* \"#utility.yul\":1104:1186   */\ntag_34:\n    /* \"#utility.yul\":1122:1124   */\n  dup2\n    /* \"#utility.yul\":1115:1120   */\n  dup2\n    /* \"#utility.yul\":1112:1125   */\n  lt\n    /* \"#utility.yul\":1104:1186   */\n  iszero\n  tag_36\n  jumpi\n    /* \"#utility.yul\":1167:1184   */\n  dup3\n  dup2\n  sstore\n    /* \"#utility.yul\":1148:1149   */\n  0x01\n    /* \"#utility.yul\":1137:1150   */\n  add\n    /* \"#utility.yul\":1104:1186   */\n  jump(tag_34)\ntag_36:\n    /* \"#utility.yul\":1108:1111   */\n  pop\n  pop\n  pop\n    /* \"#utility.yul\":748:1196   */\ntag_32:\n    /* \"#utility.yul\":657:1202   */\n  pop\n  pop\n  pop\n  jump\t// out\n    /* \"#utility.yul\":1378:2730   */\ntag_8:\n    /* \"#utility.yul\":1498:1508   */\n  dup2\n  mload\n  sub(shl(0x40, 0x01), 0x01)\n    /* \"#utility.yul\":1520:1550   */\n  dup2\n  gt\n    /* \"#utility.yul\":1517:1573   */\n  iszero\n  tag_40\n  jumpi\n    /* \"#utility.yul\":1553:1571   */\n  tag_40\n  tag_20\n  jump\t// in\ntag_40:\n    /* \"#utility.yul\":1582:1679   */\n  tag_41\n    /* \"#utility.yul\":1672:1678   */\n  dup2\n    /* \"#utility.yul\":1632:1670   */\n  tag_42\n    /* \"#utility.yul\":1664:1668   */\n  dup5\n    /* \"#utility.yul\":1658:1669   */\n  sload\n    /* \"#utility.yul\":1632:1670   */\n  tag_21\n  jump\t// in\ntag_42:\n    /* \"#utility.yul\":1626:1630   */\n  dup5\n    /* \"#utility.yul\":1582:1679   */\n  tag_23\n  jump\t// in\ntag_41:\n    /* \"#utility.yul\":1734:1738   */\n  0x20\n  dup1\n    /* \"#utility.yul\":1798:1800   */\n  0x1f\n    /* \"#utility.yul\":1787:1801   */\n  dup4\n  gt\n    /* \"#utility.yul\":1815:1816   */\n  0x01\n    /* \"#utility.yul\":1810:2473   */\n  dup2\n  eq\n  tag_44\n  jumpi\n    /* \"#utility.yul\":2517:2518   */\n  0x00\n    /* \"#utility.yul\":2534:2540   */\n  dup5\n    /* \"#utility.yul\":2531:2620   */\n  iszero\n  tag_45\n  jumpi\n  pop\n    /* \"#utility.yul\":2586:2605   */\n  dup6\n  dup4\n  add\n    /* \"#utility.yul\":2580:2606   */\n  mload\n    /* \"#utility.yul\":2531:2620   */\ntag_45:\n  not(0x00)\n    /* \"#utility.yul\":1335:1336   */\n  0x03\n    /* \"#utility.yul\":1331:1342   */\n  dup7\n  swap1\n  shl\n    /* \"#utility.yul\":1327:1351   */\n  shr\n    /* \"#utility.yul\":1323:1352   */\n  not\n    /* \"#utility.yul\":1313:1353   */\n  and\n    /* \"#utility.yul\":1359:1360   */\n  0x01\n    /* \"#utility.yul\":1355:1366   */\n  dup6\n  swap1\n  shl\n    /* \"#utility.yul\":1310:1367   */\n  or\n    /* \"#utility.yul\":2633:2714   */\n  dup6\n  sstore\n    /* \"#utility.yul\":1780:2724   */\n  jump(tag_36)\n    /* \"#utility.yul\":1810:2473   */\ntag_44:\n    /* \"#utility.yul\":604:605   */\n  0x00\n    /* \"#utility.yul\":597:611   */\n  dup6\n  dup2\n  mstore\n    /* \"#utility.yul\":641:645   */\n  0x20\n    /* \"#utility.yul\":628:646   */\n  dup2\n  keccak256\n  not(0x1f)\n    /* \"#utility.yul\":1846:1866   */\n  dup7\n  and\n  swap2\n    /* \"#utility.yul\":1964:2200   */\ntag_48:\n    /* \"#utility.yul\":1978:1985   */\n  dup3\n    /* \"#utility.yul\":1975:1976   */\n  dup2\n    /* \"#utility.yul\":1972:1986   */\n  lt\n    /* \"#utility.yul\":1964:2200   */\n  iszero\n  tag_50\n  jumpi\n    /* \"#utility.yul\":2067:2086   */\n  dup9\n  dup7\n  add\n    /* \"#utility.yul\":2061:2087   */\n  mload\n    /* \"#utility.yul\":2046:2088   */\n  dup3\n  sstore\n    /* \"#utility.yul\":2159:2186   */\n  swap5\n  dup5\n  add\n  swap5\n    /* \"#utility.yul\":2127:2128   */\n  0x01\n    /* \"#utility.yul\":2115:2129   */\n  swap1\n  swap2\n  add\n  swap1\n    /* \"#utility.yul\":1994:2013   */\n  dup5\n  add\n    /* \"#utility.yul\":1964:2200   */\n  jump(tag_48)\ntag_50:\n    /* \"#utility.yul\":1968:1971   */\n  pop\n    /* \"#utility.yul\":2228:2234   */\n  dup6\n    /* \"#utility.yul\":2219:2226   */\n  dup3\n    /* \"#utility.yul\":2216:2235   */\n  lt\n    /* \"#utility.yul\":2213:2414   */\n  iszero\n  tag_51\n  jumpi\n    /* \"#utility.yul\":2289:2308   */\n  dup8\n  dup6\n  add\n    /* \"#utility.yul\":2283:2309   */\n  mload\n  not(0x00)\n    /* \"#utility.yul\":2372:2373   */\n  0x03\n    /* \"#utility.yul\":2368:2382   */\n  dup9\n  swap1\n  shl\n    /* \"#utility.yul\":2384:2387   */\n  0xf8\n    /* \"#utility.yul\":2364:2388   */\n  and\n    /* \"#utility.yul\":2360:2397   */\n  shr\n    /* \"#utility.yul\":2356:2398   */\n  not\n    /* \"#utility.yul\":2341:2399   */\n  and\n    /* \"#utility.yul\":2326:2400   */\n  dup2\n  sstore\n    /* \"#utility.yul\":2213:2414   */\ntag_51:\n  pop\n  pop\n  pop\n  pop\n  pop\n    /* \"#utility.yul\":2460:2461   */\n  0x01\n    /* \"#utility.yul\":2444:2458   */\n  swap1\n  dup2\n  shl\n    /* \"#utility.yul\":2440:2462   */\n  add\n    /* \"#utility.yul\":2427:2463   */\n  swap1\n  sstore\n  pop\n    /* \"#utility.yul\":1378:2730   */\n  jump\t// out\ntag_25:\n    /* \"contracts/charityNFT.sol\":655:2696  contract CharityToken is ERC721, Pausable, Ownable, ERC721Burnable {... */\n  dataSize(sub_0)\n  dup1\n  dataOffset(sub_0)\n  0x00\n  codecopy\n  0x00\n  return\nstop\n\nsub_0: assembly {\n        /* \"contracts/charityNFT.sol\":655:2696  contract CharityToken is ERC721, Pausable, Ownable, ERC721Burnable {... */\n      mstore(0x40, 0x80)\n      callvalue\n      dup1\n      iszero\n      tag_1\n      jumpi\n      0x00\n      dup1\n      revert\n    tag_1:\n      pop\n      jumpi(tag_2, lt(calldatasize, 0x04))\n      shr(0xe0, calldataload(0x00))\n      dup1\n      0x70a08231\n      gt\n      tag_27\n      jumpi\n      dup1\n      0xa22cb465\n      gt\n      tag_28\n      jumpi\n      dup1\n      0xa22cb465\n      eq\n      tag_21\n      jumpi\n      dup1\n      0xb88d4fde\n      eq\n      tag_22\n      jumpi\n      dup1\n      0xc87b56dd\n      eq\n      tag_23\n      jumpi\n      dup1\n      0xe985e9c5\n      eq\n      tag_24\n      jumpi\n      dup1\n      0xeec5f9f0\n      eq\n      tag_25\n      jumpi\n      dup1\n      0xf2fde38b\n      eq\n      tag_26\n      jumpi\n      0x00\n      dup1\n      revert\n    tag_28:\n      dup1\n      0x70a08231\n      eq\n      tag_15\n      jumpi\n      dup1\n      0x715018a6\n      eq\n      tag_16\n      jumpi\n      dup1\n      0x7bf0989a\n      eq\n      tag_17\n      jumpi\n      dup1\n      0x8456cb59\n      eq\n      tag_18\n      jumpi\n      dup1\n      0x8da5cb5b\n      eq\n      tag_19\n      jumpi\n      dup1\n      0x95d89b41\n      eq\n      tag_20\n      jumpi\n      0x00\n      dup1\n      revert\n    tag_27:\n      dup1\n      0x40d097c3\n      gt\n      tag_29\n      jumpi\n      dup1\n      0x40d097c3\n      eq\n      tag_9\n      jumpi\n      dup1\n      0x42842e0e\n      eq\n      tag_10\n      jumpi\n      dup1\n      0x42966c68\n      eq\n      tag_11\n      jumpi\n      dup1\n      0x4ac0123d\n      eq\n      tag_12\n      jumpi\n      dup1\n      0x5c975abb\n      eq\n      tag_13\n      jumpi\n      dup1\n      0x6352211e\n      eq\n      tag_14\n      jumpi\n      0x00\n      dup1\n      revert\n    tag_29:\n      dup1\n      0x01ffc9a7\n      eq\n      tag_3\n      jumpi\n      dup1\n      0x06fdde03\n      eq\n      tag_4\n      jumpi\n      dup1\n      0x081812fc\n      eq\n      tag_5\n      jumpi\n      dup1\n      0x095ea7b3\n      eq\n      tag_6\n      jumpi\n      dup1\n      0x23b872dd\n      eq\n      tag_7\n      jumpi\n      dup1\n      0x3f4ba83a\n      eq\n      tag_8\n      jumpi\n    tag_2:\n      0x00\n      dup1\n      revert\n        /* \"@openzeppelin/contracts/token/ERC721/ERC721.sol\":1570:1870  function supportsInterface(bytes4 interfaceId) public view virtual override(ERC165, IERC165) returns (bool) {... */\n    tag_3:\n      tag_30\n      tag_31\n      calldatasize\n      0x04\n      tag_32\n      jump\t// in\n    tag_31:\n      tag_33\n      jump\t// in\n    tag_30:\n      mload(0x40)\n        /* \"#utility.yul\":565:579   */\n      swap1\n      iszero\n        /* \"#utility.yul\":558:580   */\n      iszero\n        /* \"#utility.yul\":540:581   */\n      dup2\n      mstore\n        /* \"#utility.yul\":528:530   */\n      0x20\n        /* \"#utility.yul\":513:531   */\n      add\n        /* \"@openzeppelin/contracts/token/ERC721/ERC721.sol\":1570:1870  function supportsInterface(bytes4 interfaceId) public view virtual override(ERC165, IERC165) returns (bool) {... */\n    tag_34:\n      mload(0x40)\n      dup1\n      swap2\n      sub\n      swap1\n      return\n        /* \"@openzeppelin/contracts/token/ERC721/ERC721.sol\":2471:2569  function name() public view virtual override returns (string memory) {... */\n    tag_4:\n      tag_36\n      tag_37\n      jump\t// in\n    tag_36:\n      mload(0x40)\n      tag_34\n      swap2\n      swap1\n      tag_39\n      jump\t// in\n        /* \"@openzeppelin/contracts/token/ERC721/ERC721.sol\":3935:4102  function getApproved(uint256 tokenId) public view virtual override returns (address) {... */\n    tag_5:\n      tag_40\n      tag_41\n      calldatasize\n      0x04\n      tag_42\n      jump\t// in\n    tag_41:\n      tag_43\n      jump\t// in\n    tag_40:\n      mload(0x40)\n      sub(shl(0xa0, 0x01), 0x01)\n        /* \"#utility.yul\":1697:1729   */\n      swap1\n      swap2\n      and\n        /* \"#utility.yul\":1679:1730   */\n      dup2\n      mstore\n        /* \"#utility.yul\":1667:1669   */\n      0x20\n        /* \"#utility.yul\":1652:1670   */\n      add\n        /* \"@openzeppelin/contracts/token/ERC721/ERC721.sol\":3935:4102  function getApproved(uint256 tokenId) public view virtual override returns (address) {... */\n      tag_34\n        /* \"#utility.yul\":1533:1736   */\n      jump\n        /* \"@openzeppelin/contracts/token/ERC721/ERC721.sol\":3468:3874  function approve(address to, uint256 tokenId) public virtual override {... */\n    tag_6:\n      tag_46\n      tag_47\n      calldatasize\n      0x04\n      tag_48\n      jump\t// in\n    tag_47:\n      tag_49\n      jump\t// in\n    tag_46:\n      stop\n        /* \"@openzeppelin/contracts/token/ERC721/ERC721.sol\":4612:4908  function transferFrom(address from, address to, uint256 tokenId) public virtual override {... */\n    tag_7:\n      tag_46\n      tag_51\n      calldatasize\n      0x04\n      tag_52\n      jump\t// in\n    tag_51:\n      tag_53\n      jump\t// in\n        /* \"contracts/charityNFT.sol\":1190:1253  function unpause() public onlyOwner {... */\n    tag_8:\n      tag_46\n      tag_55\n      jump\t// in\n        /* \"contracts/charityNFT.sol\":1259:1435  function safeMint(address to) public onlyOwner {... */\n    tag_9:\n      tag_46\n      tag_57\n      calldatasize\n      0x04\n      tag_58\n      jump\t// in\n    tag_57:\n      tag_59\n      jump\t// in\n        /* \"@openzeppelin/contracts/token/ERC721/ERC721.sol\":4974:5123  function safeTransferFrom(address from, address to, uint256 tokenId) public virtual override {... */\n    tag_10:\n      tag_46\n      tag_61\n      calldatasize\n      0x04\n      tag_52\n      jump\t// in\n    tag_61:\n      tag_62\n      jump\t// in\n        /* \"@openzeppelin/contracts/token/ERC721/extensions/ERC721Burnable.sol\":531:769  function burn(uint256 tokenId) public virtual {... */\n    tag_11:\n      tag_46\n      tag_64\n      calldatasize\n      0x04\n      tag_42\n      jump\t// in\n    tag_64:\n      tag_65\n      jump\t// in\n        /* \"contracts/charityNFT.sol\":2120:2478  function updateNFTPrice(uint nftId, uint price) public onlyOwner {... */\n    tag_12:\n      tag_46\n      tag_67\n      calldatasize\n      0x04\n      tag_68\n      jump\t// in\n    tag_67:\n      tag_69\n      jump\t// in\n        /* \"@openzeppelin/contracts/security/Pausable.sol\":1615:1699  function paused() public view virtual returns (bool) {... */\n    tag_13:\n        /* \"@openzeppelin/contracts/security/Pausable.sol\":1685:1692  _paused */\n      and(0xff, sload(0x06))\n        /* \"@openzeppelin/contracts/security/Pausable.sol\":1615:1699  function paused() public view virtual returns (bool) {... */\n      jump(tag_30)\n        /* \"@openzeppelin/contracts/token/ERC721/ERC721.sol\":2190:2409  function ownerOf(uint256 tokenId) public view virtual override returns (address) {... */\n    tag_14:\n      tag_40\n      tag_74\n      calldatasize\n      0x04\n      tag_42\n      jump\t// in\n    tag_74:\n      tag_75\n      jump\t// in\n        /* \"@openzeppelin/contracts/token/ERC721/ERC721.sol\":1929:2133  function balanceOf(address owner) public view virtual override returns (uint256) {... */\n    tag_15:\n      tag_77\n      tag_78\n      calldatasize\n      0x04\n      tag_58\n      jump\t// in\n    tag_78:\n      tag_79\n      jump\t// in\n    tag_77:\n      mload(0x40)\n        /* \"#utility.yul\":3101:3126   */\n      swap1\n      dup2\n      mstore\n        /* \"#utility.yul\":3089:3091   */\n      0x20\n        /* \"#utility.yul\":3074:3092   */\n      add\n        /* \"@openzeppelin/contracts/token/ERC721/ERC721.sol\":1929:2133  function balanceOf(address owner) public view virtual override returns (uint256) {... */\n      tag_34\n        /* \"#utility.yul\":2955:3132   */\n      jump\n        /* \"@openzeppelin/contracts/access/Ownable.sol\":1824:1925  function renounceOwnership() public virtual onlyOwner {... */\n    tag_16:\n      tag_46\n      tag_83\n      jump\t// in\n        /* \"contracts/charityNFT.sol\":2484:2594  function getNftPrice(uint nftId) public view returns (uint) {... */\n    tag_17:\n      tag_77\n      tag_85\n      calldatasize\n      0x04\n      tag_42\n      jump\t// in\n    tag_85:\n        /* \"contracts/charityNFT.sol\":2538:2542  uint */\n      0x00\n        /* \"contracts/charityNFT.sol\":2561:2578  NftDetails[nftId] */\n      swap1\n      dup2\n      mstore\n        /* \"contracts/charityNFT.sol\":2561:2571  NftDetails */\n      0x08\n        /* \"contracts/charityNFT.sol\":2561:2578  NftDetails[nftId] */\n      0x20\n      mstore\n      0x40\n      swap1\n      keccak256\n        /* \"contracts/charityNFT.sol\":2561:2587  NftDetails[nftId].NftPrice */\n      sload\n      swap1\n        /* \"contracts/charityNFT.sol\":2484:2594  function getNftPrice(uint nftId) public view returns (uint) {... */\n      jump\n        /* \"contracts/charityNFT.sol\":1125:1184  function pause() public onlyOwner {... */\n    tag_18:\n      tag_46\n      tag_89\n      jump\t// in\n        /* \"@openzeppelin/contracts/access/Ownable.sol\":1201:1286  function owner() public view virtual returns (address) {... */\n    tag_19:\n        /* \"@openzeppelin/contracts/access/Ownable.sol\":1273:1279  _owner */\n      sload(0x06)\n      0x0100\n      swap1\n      div\n      sub(shl(0xa0, 0x01), 0x01)\n      and\n        /* \"@openzeppelin/contracts/access/Ownable.sol\":1201:1286  function owner() public view virtual returns (address) {... */\n      jump(tag_40)\n        /* \"@openzeppelin/contracts/token/ERC721/ERC721.sol\":2633:2735  function symbol() public view virtual override returns (string memory) {... */\n    tag_20:\n      tag_36\n      tag_94\n      jump\t// in\n        /* \"@openzeppelin/contracts/token/ERC721/ERC721.sol\":4169:4322  function setApprovalForAll(address operator, bool approved) public virtual override {... */\n    tag_21:\n      tag_46\n      tag_97\n      calldatasize\n      0x04\n      tag_98\n      jump\t// in\n    tag_97:\n      tag_99\n      jump\t// in\n        /* \"@openzeppelin/contracts/token/ERC721/ERC721.sol\":5189:5465  function safeTransferFrom(address from, address to, uint256 tokenId, bytes memory data) public virtual override {... */\n    tag_22:\n      tag_46\n      tag_101\n      calldatasize\n      0x04\n      tag_102\n      jump\t// in\n    tag_101:\n      tag_103\n      jump\t// in\n        /* \"@openzeppelin/contracts/token/ERC721/ERC721.sol\":2801:3077  function tokenURI(uint256 tokenId) public view virtual override returns (string memory) {... */\n    tag_23:\n      tag_36\n      tag_105\n      calldatasize\n      0x04\n      tag_42\n      jump\t// in\n    tag_105:\n      tag_106\n      jump\t// in\n        /* \"@openzeppelin/contracts/token/ERC721/ERC721.sol\":4388:4550  function isApprovedForAll(address owner, address operator) public view virtual override returns (bool) {... */\n    tag_24:\n      tag_30\n      tag_109\n      calldatasize\n      0x04\n      tag_110\n      jump\t// in\n    tag_109:\n      tag_111\n      jump\t// in\n        /* \"contracts/charityNFT.sol\":1672:2113  function placeNftForFixedPrice(uint nftId, uint priceOfNFT) public onlyOwner {... */\n    tag_25:\n      tag_46\n      tag_114\n      calldatasize\n      0x04\n      tag_68\n      jump\t// in\n    tag_114:\n      tag_115\n      jump\t// in\n        /* \"@openzeppelin/contracts/access/Ownable.sol\":2074:2272  function transferOwnership(address newOwner) public virtual onlyOwner {... */\n    tag_26:\n      tag_46\n      tag_117\n      calldatasize\n      0x04\n      tag_58\n      jump\t// in\n    tag_117:\n      tag_118\n      jump\t// in\n        /* \"@openzeppelin/contracts/token/ERC721/ERC721.sol\":1570:1870  function supportsInterface(bytes4 interfaceId) public view virtual override(ERC165, IERC165) returns (bool) {... */\n    tag_33:\n        /* \"@openzeppelin/contracts/token/ERC721/ERC721.sol\":1672:1676  bool */\n      0x00\n      not(sub(shl(0xe0, 0x01), 0x01))\n        /* \"@openzeppelin/contracts/token/ERC721/ERC721.sol\":1707:1747  interfaceId == type(IERC721).interfaceId */\n      dup3\n      and\n      shl(0xe0, 0x80ac58cd)\n      eq\n      dup1\n        /* \"@openzeppelin/contracts/token/ERC721/ERC721.sol\":1707:1811  interfaceId == type(IERC721).interfaceId ||... */\n      tag_120\n      jumpi\n      pop\n      not(sub(shl(0xe0, 0x01), 0x01))\n        /* \"@openzeppelin/contracts/token/ERC721/ERC721.sol\":1763:1811  interfaceId == type(IERC721Metadata).interfaceId */\n      dup3\n      and\n      shl(0xe0, 0x5b5e139f)\n      eq\n        /* \"@openzeppelin/contracts/token/ERC721/ERC721.sol\":1707:1811  interfaceId == type(IERC721).interfaceId ||... */\n    tag_120:\n        /* \"@openzeppelin/contracts/token/ERC721/ERC721.sol\":1707:1863  interfaceId == type(IERC721).interfaceId ||... */\n      dup1\n      tag_122\n      jumpi\n      pop\n      shl(0xe0, 0x01ffc9a7)\n      not(sub(shl(0xe0, 0x01), 0x01))\n        /* \"@openzeppelin/contracts/utils/introspection/ERC165.sol\":937:977  interfaceId == type(IERC165).interfaceId */\n      dup4\n      and\n      eq\n        /* \"@openzeppelin/contracts/token/ERC721/ERC721.sol\":1827:1863  super.supportsInterface(interfaceId) */\n    tag_122:\n        /* \"@openzeppelin/contracts/token/ERC721/ERC721.sol\":1688:1863  return... */\n      swap3\n        /* \"@openzeppelin/contracts/token/ERC721/ERC721.sol\":1570:1870  function supportsInterface(bytes4 interfaceId) public view virtual override(ERC165, IERC165) returns (bool) {... */\n      swap2\n      pop\n      pop\n      jump\t// out\n        /* \"@openzeppelin/contracts/token/ERC721/ERC721.sol\":2471:2569  function name() public view virtual override returns (string memory) {... */\n    tag_37:\n        /* \"@openzeppelin/contracts/token/ERC721/ERC721.sol\":2525:2538  string memory */\n      0x60\n        /* \"@openzeppelin/contracts/token/ERC721/ERC721.sol\":2557:2562  _name */\n      0x00\n        /* \"@openzeppelin/contracts/token/ERC721/ERC721.sol\":2550:2562  return _name */\n      dup1\n      sload\n      tag_125\n      swap1\n      tag_126\n      jump\t// in\n    tag_125:\n      dup1\n      0x1f\n      add\n      0x20\n      dup1\n      swap2\n      div\n      mul\n      0x20\n      add\n      mload(0x40)\n      swap1\n      dup2\n      add\n      0x40\n      mstore\n      dup1\n      swap3\n      swap2\n      swap1\n      dup2\n      dup2\n      mstore\n      0x20\n      add\n      dup3\n      dup1\n      sload\n      tag_127\n      swap1\n      tag_126\n      jump\t// in\n    tag_127:\n      dup1\n      iszero\n      tag_128\n      jumpi\n      dup1\n      0x1f\n      lt\n      tag_129\n      jumpi\n      0x0100\n      dup1\n      dup4\n      sload\n      div\n      mul\n      dup4\n      mstore\n      swap2\n      0x20\n      add\n      swap2\n      jump(tag_128)\n    tag_129:\n      dup3\n      add\n      swap2\n      swap1\n      0x00\n      mstore\n      keccak256(0x00, 0x20)\n      swap1\n    tag_130:\n      dup2\n      sload\n      dup2\n      mstore\n      swap1\n      0x01\n      add\n      swap1\n      0x20\n      add\n      dup1\n      dup4\n      gt\n      tag_130\n      jumpi\n      dup3\n      swap1\n      sub\n      0x1f\n      and\n      dup3\n      add\n      swap2\n    tag_128:\n      pop\n      pop\n      pop\n      pop\n      pop\n      swap1\n      pop\n        /* \"@openzeppelin/contracts/token/ERC721/ERC721.sol\":2471:2569  function name() public view virtual override returns (string memory) {... */\n      swap1\n      jump\t// out\n        /* \"@openzeppelin/contracts/token/ERC721/ERC721.sol\":3935:4102  function getApproved(uint256 tokenId) public view virtual override returns (address) {... */\n    tag_43:\n        /* \"@openzeppelin/contracts/token/ERC721/ERC721.sol\":4011:4018  address */\n      0x00\n        /* \"@openzeppelin/contracts/token/ERC721/ERC721.sol\":4030:4053  _requireMinted(tokenId) */\n      tag_132\n        /* \"@openzeppelin/contracts/token/ERC721/ERC721.sol\":4045:4052  tokenId */\n      dup3\n        /* \"@openzeppelin/contracts/token/ERC721/ERC721.sol\":4030:4044  _requireMinted */\n      tag_133\n        /* \"@openzeppelin/contracts/token/ERC721/ERC721.sol\":4030:4053  _requireMinted(tokenId) */\n      jump\t// in\n    tag_132:\n      pop\n        /* \"@openzeppelin/contracts/token/ERC721/ERC721.sol\":4071:4095  _tokenApprovals[tokenId] */\n      0x00\n      swap1\n      dup2\n      mstore\n        /* \"@openzeppelin/contracts/token/ERC721/ERC721.sol\":4071:4086  _tokenApprovals */\n      0x04\n        /* \"@openzeppelin/contracts/token/ERC721/ERC721.sol\":4071:4095  _tokenApprovals[tokenId] */\n      0x20\n      mstore\n      0x40\n      swap1\n      keccak256\n      sload\n      sub(shl(0xa0, 0x01), 0x01)\n      and\n      swap1\n        /* \"@openzeppelin/contracts/token/ERC721/ERC721.sol\":3935:4102  function getApproved(uint256 tokenId) public view virtual override returns (address) {... */\n      jump\t// out\n        /* \"@openzeppelin/contracts/token/ERC721/ERC721.sol\":3468:3874  function approve(address to, uint256 tokenId) public virtual override {... */\n    tag_49:\n        /* \"@openzeppelin/contracts/token/ERC721/ERC721.sol\":3548:3561  address owner */\n      0x00\n        /* \"@openzeppelin/contracts/token/ERC721/ERC721.sol\":3564:3587  ERC721.ownerOf(tokenId) */\n      tag_135\n        /* \"@openzeppelin/contracts/token/ERC721/ERC721.sol\":3579:3586  tokenId */\n      dup3\n        /* \"@openzeppelin/contracts/token/ERC721/ERC721.sol\":3564:3578  ERC721.ownerOf */\n      tag_75\n        /* \"@openzeppelin/contracts/token/ERC721/ERC721.sol\":3564:3587  ERC721.ownerOf(tokenId) */\n      jump\t// in\n    tag_135:\n        /* \"@openzeppelin/contracts/token/ERC721/ERC721.sol\":3548:3587  address owner = ERC721.ownerOf(tokenId) */\n      swap1\n      pop\n        /* \"@openzeppelin/contracts/token/ERC721/ERC721.sol\":3611:3616  owner */\n      dup1\n      sub(shl(0xa0, 0x01), 0x01)\n        /* \"@openzeppelin/contracts/token/ERC721/ERC721.sol\":3605:3616  to != owner */\n      and\n        /* \"@openzeppelin/contracts/token/ERC721/ERC721.sol\":3605:3607  to */\n      dup4\n      sub(shl(0xa0, 0x01), 0x01)\n        /* \"@openzeppelin/contracts/token/ERC721/ERC721.sol\":3605:3616  to != owner */\n      and\n      sub\n        /* \"@openzeppelin/contracts/token/ERC721/ERC721.sol\":3597:3654  require(to != owner, \"ERC721: approval to current owner\") */\n      tag_136\n      jumpi\n      mload(0x40)\n      shl(0xe5, 0x461bcd)\n      dup2\n      mstore\n        /* \"#utility.yul\":5616:5618   */\n      0x20\n        /* \"@openzeppelin/contracts/token/ERC721/ERC721.sol\":3597:3654  require(to != owner, \"ERC721: approval to current owner\") */\n      0x04\n      dup3\n      add\n        /* \"#utility.yul\":5598:5619   */\n      mstore\n        /* \"#utility.yul\":5655:5657   */\n      0x21\n        /* \"#utility.yul\":5635:5653   */\n      0x24\n      dup3\n      add\n        /* \"#utility.yul\":5628:5658   */\n      mstore\n        /* \"#utility.yul\":5694:5728   */\n      0x4552433732313a20617070726f76616c20746f2063757272656e74206f776e65\n        /* \"#utility.yul\":5674:5692   */\n      0x44\n      dup3\n      add\n        /* \"#utility.yul\":5667:5729   */\n      mstore\n      shl(0xf9, 0x39)\n        /* \"#utility.yul\":5745:5763   */\n      0x64\n      dup3\n      add\n        /* \"#utility.yul\":5738:5769   */\n      mstore\n        /* \"#utility.yul\":5786:5805   */\n      0x84\n      add\n        /* \"@openzeppelin/contracts/token/ERC721/ERC721.sol\":3597:3654  require(to != owner, \"ERC721: approval to current owner\") */\n    tag_137:\n      mload(0x40)\n      dup1\n      swap2\n      sub\n      swap1\n      revert\n    tag_136:\n        /* \"@openzeppelin/contracts/utils/Context.sol\":719:729  msg.sender */\n      caller\n      sub(shl(0xa0, 0x01), 0x01)\n        /* \"@openzeppelin/contracts/token/ERC721/ERC721.sol\":3686:3707  _msgSender() == owner */\n      dup3\n      and\n      eq\n      dup1\n        /* \"@openzeppelin/contracts/token/ERC721/ERC721.sol\":3686:3748  _msgSender() == owner || isApprovedForAll(owner, _msgSender()) */\n      tag_142\n      jumpi\n      pop\n        /* \"@openzeppelin/contracts/token/ERC721/ERC721.sol\":3711:3748  isApprovedForAll(owner, _msgSender()) */\n      tag_142\n        /* \"@openzeppelin/contracts/token/ERC721/ERC721.sol\":3728:3733  owner */\n      dup2\n        /* \"@openzeppelin/contracts/utils/Context.sol\":719:729  msg.sender */\n      caller\n        /* \"@openzeppelin/contracts/token/ERC721/ERC721.sol\":4388:4550  function isApprovedForAll(address owner, address operator) public view virtual override returns (bool) {... */\n      tag_111\n      jump\t// in\n        /* \"@openzeppelin/contracts/token/ERC721/ERC721.sol\":3711:3748  isApprovedForAll(owner, _msgSender()) */\n    tag_142:\n        /* \"@openzeppelin/contracts/token/ERC721/ERC721.sol\":3665:3835  require(... */\n      tag_144\n      jumpi\n      mload(0x40)\n      shl(0xe5, 0x461bcd)\n      dup2\n      mstore\n        /* \"#utility.yul\":6018:6020   */\n      0x20\n        /* \"@openzeppelin/contracts/token/ERC721/ERC721.sol\":3665:3835  require(... */\n      0x04\n      dup3\n      add\n        /* \"#utility.yul\":6000:6021   */\n      mstore\n        /* \"#utility.yul\":6057:6059   */\n      0x3d\n        /* \"#utility.yul\":6037:6055   */\n      0x24\n      dup3\n      add\n        /* \"#utility.yul\":6030:6060   */\n      mstore\n        /* \"#utility.yul\":6096:6130   */\n      0x4552433732313a20617070726f76652063616c6c6572206973206e6f7420746f\n        /* \"#utility.yul\":6076:6094   */\n      0x44\n      dup3\n      add\n        /* \"#utility.yul\":6069:6131   */\n      mstore\n        /* \"#utility.yul\":6167:6198   */\n      0x6b656e206f776e6572206f7220617070726f76656420666f7220616c6c000000\n        /* \"#utility.yul\":6147:6165   */\n      0x64\n      dup3\n      add\n        /* \"#utility.yul\":6140:6199   */\n      mstore\n        /* \"#utility.yul\":6216:6235   */\n      0x84\n      add\n        /* \"@openzeppelin/contracts/token/ERC721/ERC721.sol\":3665:3835  require(... */\n      tag_137\n        /* \"#utility.yul\":5816:6241   */\n      jump\n        /* \"@openzeppelin/contracts/token/ERC721/ERC721.sol\":3665:3835  require(... */\n    tag_144:\n        /* \"@openzeppelin/contracts/token/ERC721/ERC721.sol\":3846:3867  _approve(to, tokenId) */\n      tag_147\n        /* \"@openzeppelin/contracts/token/ERC721/ERC721.sol\":3855:3857  to */\n      dup4\n        /* \"@openzeppelin/contracts/token/ERC721/ERC721.sol\":3859:3866  tokenId */\n      dup4\n        /* \"@openzeppelin/contracts/token/ERC721/ERC721.sol\":3846:3854  _approve */\n      tag_148\n        /* \"@openzeppelin/contracts/token/ERC721/ERC721.sol\":3846:3867  _approve(to, tokenId) */\n      jump\t// in\n    tag_147:\n        /* \"@openzeppelin/contracts/token/ERC721/ERC721.sol\":3538:3874  {... */\n      pop\n        /* \"@openzeppelin/contracts/token/ERC721/ERC721.sol\":3468:3874  function approve(address to, uint256 tokenId) public virtual override {... */\n      pop\n      pop\n      jump\t// out\n        /* \"@openzeppelin/contracts/token/ERC721/ERC721.sol\":4612:4908  function transferFrom(address from, address to, uint256 tokenId) public virtual override {... */\n    tag_53:\n        /* \"@openzeppelin/contracts/token/ERC721/ERC721.sol\":4771:4812  _isApprovedOrOwner(_msgSender(), tokenId) */\n      tag_150\n        /* \"@openzeppelin/contracts/utils/Context.sol\":719:729  msg.sender */\n      caller\n        /* \"@openzeppelin/contracts/token/ERC721/ERC721.sol\":4790:4802  _msgSender() */\n    tag_151:\n        /* \"@openzeppelin/contracts/token/ERC721/ERC721.sol\":4804:4811  tokenId */\n      dup3\n        /* \"@openzeppelin/contracts/token/ERC721/ERC721.sol\":4771:4789  _isApprovedOrOwner */\n      tag_152\n        /* \"@openzeppelin/contracts/token/ERC721/ERC721.sol\":4771:4812  _isApprovedOrOwner(_msgSender(), tokenId) */\n      jump\t// in\n    tag_150:\n        /* \"@openzeppelin/contracts/token/ERC721/ERC721.sol\":4763:4862  require(_isApprovedOrOwner(_msgSender(), tokenId), \"ERC721: caller is not token owner or approved\") */\n      tag_153\n      jumpi\n      mload(0x40)\n      shl(0xe5, 0x461bcd)\n      dup2\n      mstore\n      0x04\n      add\n      tag_137\n      swap1\n      tag_155\n      jump\t// in\n    tag_153:\n        /* \"@openzeppelin/contracts/token/ERC721/ERC721.sol\":4873:4901  _transfer(from, to, tokenId) */\n      tag_147\n        /* \"@openzeppelin/contracts/token/ERC721/ERC721.sol\":4883:4887  from */\n      dup4\n        /* \"@openzeppelin/contracts/token/ERC721/ERC721.sol\":4889:4891  to */\n      dup4\n        /* \"@openzeppelin/contracts/token/ERC721/ERC721.sol\":4893:4900  tokenId */\n      dup4\n        /* \"@openzeppelin/contracts/token/ERC721/ERC721.sol\":4873:4882  _transfer */\n      tag_157\n        /* \"@openzeppelin/contracts/token/ERC721/ERC721.sol\":4873:4901  _transfer(from, to, tokenId) */\n      jump\t// in\n        /* \"contracts/charityNFT.sol\":1190:1253  function unpause() public onlyOwner {... */\n    tag_55:\n        /* \"@openzeppelin/contracts/access/Ownable.sol\":1094:1107  _checkOwner() */\n      tag_159\n        /* \"@openzeppelin/contracts/access/Ownable.sol\":1094:1105  _checkOwner */\n      tag_160\n        /* \"@openzeppelin/contracts/access/Ownable.sol\":1094:1107  _checkOwner() */\n      jump\t// in\n    tag_159:\n        /* \"contracts/charityNFT.sol\":1236:1246  _unpause() */\n      tag_162\n        /* \"contracts/charityNFT.sol\":1236:1244  _unpause */\n      tag_163\n        /* \"contracts/charityNFT.sol\":1236:1246  _unpause() */\n      jump\t// in\n    tag_162:\n        /* \"contracts/charityNFT.sol\":1190:1253  function unpause() public onlyOwner {... */\n      jump\t// out\n        /* \"contracts/charityNFT.sol\":1259:1435  function safeMint(address to) public onlyOwner {... */\n    tag_59:\n        /* \"@openzeppelin/contracts/access/Ownable.sol\":1094:1107  _checkOwner() */\n      tag_165\n        /* \"@openzeppelin/contracts/access/Ownable.sol\":1094:1105  _checkOwner */\n      tag_160\n        /* \"@openzeppelin/contracts/access/Ownable.sol\":1094:1107  _checkOwner() */\n      jump\t// in\n    tag_165:\n        /* \"contracts/charityNFT.sol\":1316:1331  uint256 tokenId */\n      0x00\n        /* \"contracts/charityNFT.sol\":1334:1359  _tokenIdCounter.current() */\n      tag_167\n        /* \"contracts/charityNFT.sol\":1334:1349  _tokenIdCounter */\n      0x07\n        /* \"@openzeppelin/contracts/utils/Counters.sol\":918:932  counter._value */\n      sload\n      swap1\n        /* \"@openzeppelin/contracts/utils/Counters.sol\":827:939  function current(Counter storage counter) internal view returns (uint256) {... */\n      jump\n        /* \"contracts/charityNFT.sol\":1334:1359  _tokenIdCounter.current() */\n    tag_167:\n        /* \"contracts/charityNFT.sol\":1316:1359  uint256 tokenId = _tokenIdCounter.current() */\n      swap1\n      pop\n        /* \"contracts/charityNFT.sol\":1369:1396  _tokenIdCounter.increment() */\n      tag_169\n        /* \"contracts/charityNFT.sol\":1369:1384  _tokenIdCounter */\n      0x07\n        /* \"@openzeppelin/contracts/utils/Counters.sol\":1032:1051  counter._value += 1 */\n      dup1\n      sload\n        /* \"@openzeppelin/contracts/utils/Counters.sol\":1050:1051  1 */\n      0x01\n        /* \"@openzeppelin/contracts/utils/Counters.sol\":1032:1051  counter._value += 1 */\n      add\n      swap1\n      sstore\n        /* \"@openzeppelin/contracts/utils/Counters.sol\":945:1068  function increment(Counter storage counter) internal {... */\n      jump\n        /* \"contracts/charityNFT.sol\":1369:1396  _tokenIdCounter.increment() */\n    tag_169:\n        /* \"contracts/charityNFT.sol\":1406:1428  _safeMint(to, tokenId) */\n      tag_171\n        /* \"contracts/charityNFT.sol\":1416:1418  to */\n      dup3\n        /* \"contracts/charityNFT.sol\":1420:1427  tokenId */\n      dup3\n        /* \"contracts/charityNFT.sol\":1406:1415  _safeMint */\n      tag_172\n        /* \"contracts/charityNFT.sol\":1406:1428  _safeMint(to, tokenId) */\n      jump\t// in\n    tag_171:\n        /* \"contracts/charityNFT.sol\":1306:1435  {... */\n      pop\n        /* \"contracts/charityNFT.sol\":1259:1435  function safeMint(address to) public onlyOwner {... */\n      pop\n      jump\t// out\n        /* \"@openzeppelin/contracts/token/ERC721/ERC721.sol\":4974:5123  function safeTransferFrom(address from, address to, uint256 tokenId) public virtual override {... */\n    tag_62:\n        /* \"@openzeppelin/contracts/token/ERC721/ERC721.sol\":5077:5116  safeTransferFrom(from, to, tokenId, \"\") */\n      tag_147\n        /* \"@openzeppelin/contracts/token/ERC721/ERC721.sol\":5094:5098  from */\n      dup4\n        /* \"@openzeppelin/contracts/token/ERC721/ERC721.sol\":5100:5102  to */\n      dup4\n        /* \"@openzeppelin/contracts/token/ERC721/ERC721.sol\":5104:5111  tokenId */\n      dup4\n        /* \"@openzeppelin/contracts/token/ERC721/ERC721.sol\":5077:5116  safeTransferFrom(from, to, tokenId, \"\") */\n      mload(0x40)\n      dup1\n      0x20\n      add\n      0x40\n      mstore\n      dup1\n      0x00\n      dup2\n      mstore\n      pop\n        /* \"@openzeppelin/contracts/token/ERC721/ERC721.sol\":5077:5093  safeTransferFrom */\n      tag_103\n        /* \"@openzeppelin/contracts/token/ERC721/ERC721.sol\":5077:5116  safeTransferFrom(from, to, tokenId, \"\") */\n      jump\t// in\n        /* \"@openzeppelin/contracts/token/ERC721/extensions/ERC721Burnable.sol\":531:769  function burn(uint256 tokenId) public virtual {... */\n    tag_65:\n        /* \"@openzeppelin/contracts/token/ERC721/extensions/ERC721Burnable.sol\":647:688  _isApprovedOrOwner(_msgSender(), tokenId) */\n      tag_176\n        /* \"@openzeppelin/contracts/utils/Context.sol\":719:729  msg.sender */\n      caller\n        /* \"@openzeppelin/contracts/token/ERC721/extensions/ERC721Burnable.sol\":666:678  _msgSender() */\n      tag_151\n        /* \"@openzeppelin/contracts/utils/Context.sol\":640:736  function _msgSender() internal view virtual returns (address) {... */\n      jump\n        /* \"@openzeppelin/contracts/token/ERC721/extensions/ERC721Burnable.sol\":647:688  _isApprovedOrOwner(_msgSender(), tokenId) */\n    tag_176:\n        /* \"@openzeppelin/contracts/token/ERC721/extensions/ERC721Burnable.sol\":639:738  require(_isApprovedOrOwner(_msgSender(), tokenId), \"ERC721: caller is not token owner or approved\") */\n      tag_178\n      jumpi\n      mload(0x40)\n      shl(0xe5, 0x461bcd)\n      dup2\n      mstore\n      0x04\n      add\n      tag_137\n      swap1\n      tag_155\n      jump\t// in\n    tag_178:\n        /* \"@openzeppelin/contracts/token/ERC721/extensions/ERC721Burnable.sol\":748:762  _burn(tokenId) */\n      tag_180\n        /* \"@openzeppelin/contracts/token/ERC721/extensions/ERC721Burnable.sol\":754:761  tokenId */\n      dup2\n        /* \"@openzeppelin/contracts/token/ERC721/extensions/ERC721Burnable.sol\":748:753  _burn */\n      tag_181\n        /* \"@openzeppelin/contracts/token/ERC721/extensions/ERC721Burnable.sol\":748:762  _burn(tokenId) */\n      jump\t// in\n    tag_180:\n        /* \"@openzeppelin/contracts/token/ERC721/extensions/ERC721Burnable.sol\":531:769  function burn(uint256 tokenId) public virtual {... */\n      pop\n      jump\t// out\n        /* \"contracts/charityNFT.sol\":2120:2478  function updateNFTPrice(uint nftId, uint price) public onlyOwner {... */\n    tag_69:\n        /* \"@openzeppelin/contracts/access/Ownable.sol\":1094:1107  _checkOwner() */\n      tag_183\n        /* \"@openzeppelin/contracts/access/Ownable.sol\":1094:1105  _checkOwner */\n      tag_160\n        /* \"@openzeppelin/contracts/access/Ownable.sol\":1094:1107  _checkOwner() */\n      jump\t// in\n    tag_183:\n        /* \"@openzeppelin/contracts/token/ERC721/ERC721.sol\":7185:7189  bool */\n      0x00\n        /* \"@openzeppelin/contracts/token/ERC721/ERC721.sol\":6794:6810  _owners[tokenId] */\n      dup3\n      dup2\n      mstore\n        /* \"@openzeppelin/contracts/token/ERC721/ERC721.sol\":6794:6801  _owners */\n      0x02\n        /* \"@openzeppelin/contracts/token/ERC721/ERC721.sol\":6794:6810  _owners[tokenId] */\n      0x20\n      mstore\n      0x40\n      swap1\n      keccak256\n      sload\n      sub(shl(0xa0, 0x01), 0x01)\n      and\n        /* \"contracts/charityNFT.sol\":2204:2248  require(_exists(nftId) , \"NFT Does't Exist\") */\n      tag_187\n      jumpi\n      mload(0x40)\n      shl(0xe5, 0x461bcd)\n      dup2\n      mstore\n        /* \"#utility.yul\":6862:6864   */\n      0x20\n        /* \"contracts/charityNFT.sol\":2204:2248  require(_exists(nftId) , \"NFT Does't Exist\") */\n      0x04\n      dup3\n      add\n        /* \"#utility.yul\":6844:6865   */\n      mstore\n        /* \"#utility.yul\":6901:6903   */\n      0x10\n        /* \"#utility.yul\":6881:6899   */\n      0x24\n      dup3\n      add\n        /* \"#utility.yul\":6874:6904   */\n      mstore\n      shl(0x82, 0x13919508111bd95cc9dd08115e1a5cdd)\n        /* \"#utility.yul\":6920:6938   */\n      0x44\n      dup3\n      add\n        /* \"#utility.yul\":6913:6959   */\n      mstore\n        /* \"#utility.yul\":6976:6994   */\n      0x64\n      add\n        /* \"contracts/charityNFT.sol\":2204:2248  require(_exists(nftId) , \"NFT Does't Exist\") */\n      tag_137\n        /* \"#utility.yul\":6660:7000   */\n      jump\n        /* \"contracts/charityNFT.sol\":2204:2248  require(_exists(nftId) , \"NFT Does't Exist\") */\n    tag_187:\n        /* \"contracts/charityNFT.sol\":2297:2313  status.NotOnSale */\n      0x00\n        /* \"contracts/charityNFT.sol\":2266:2283  NftDetails[nftId] */\n      dup3\n      dup2\n      mstore\n        /* \"contracts/charityNFT.sol\":2266:2276  NftDetails */\n      0x08\n        /* \"contracts/charityNFT.sol\":2266:2283  NftDetails[nftId] */\n      0x20\n      mstore\n      0x40\n      dup2\n      keccak256\n        /* \"contracts/charityNFT.sol\":2266:2293  NftDetails[nftId].Nftstatus */\n      0x01\n      swap1\n      dup2\n      add\n      sload\n      0xff\n      and\n      swap1\n        /* \"contracts/charityNFT.sol\":2266:2313  NftDetails[nftId].Nftstatus == status.NotOnSale */\n      dup2\n      gt\n      iszero\n      tag_194\n      jumpi\n      tag_194\n      tag_192\n      jump\t// in\n    tag_194:\n      eq\n        /* \"contracts/charityNFT.sol\":2258:2347  require(NftDetails[nftId].Nftstatus == status.NotOnSale, \"NFT is Already on Fixed Price\") */\n      tag_195\n      jumpi\n      mload(0x40)\n      shl(0xe5, 0x461bcd)\n      dup2\n      mstore\n        /* \"#utility.yul\":7339:7341   */\n      0x20\n        /* \"contracts/charityNFT.sol\":2258:2347  require(NftDetails[nftId].Nftstatus == status.NotOnSale, \"NFT is Already on Fixed Price\") */\n      0x04\n      dup3\n      add\n        /* \"#utility.yul\":7321:7342   */\n      mstore\n        /* \"#utility.yul\":7378:7380   */\n      0x1d\n        /* \"#utility.yul\":7358:7376   */\n      0x24\n      dup3\n      add\n        /* \"#utility.yul\":7351:7381   */\n      mstore\n        /* \"#utility.yul\":7417:7448   */\n      0x4e465420697320416c7265616479206f6e204669786564205072696365000000\n        /* \"#utility.yul\":7397:7415   */\n      0x44\n      dup3\n      add\n        /* \"#utility.yul\":7390:7449   */\n      mstore\n        /* \"#utility.yul\":7466:7484   */\n      0x64\n      add\n        /* \"contracts/charityNFT.sol\":2258:2347  require(NftDetails[nftId].Nftstatus == status.NotOnSale, \"NFT is Already on Fixed Price\") */\n      tag_137\n        /* \"#utility.yul\":7137:7490   */\n      jump\n        /* \"contracts/charityNFT.sol\":2258:2347  require(NftDetails[nftId].Nftstatus == status.NotOnSale, \"NFT is Already on Fixed Price\") */\n    tag_195:\n        /* \"contracts/charityNFT.sol\":2386:2402  price * 10 ** 18 */\n      tag_198\n        /* \"contracts/charityNFT.sol\":2386:2391  price */\n      dup2\n        /* \"contracts/charityNFT.sol\":2394:2402  10 ** 18 */\n      0x0de0b6b3a7640000\n        /* \"contracts/charityNFT.sol\":2386:2402  price * 10 ** 18 */\n      tag_199\n      jump\t// in\n    tag_198:\n        /* \"contracts/charityNFT.sol\":2357:2374  NftDetails[nftId] */\n      0x00\n      dup4\n      dup2\n      mstore\n        /* \"contracts/charityNFT.sol\":2357:2367  NftDetails */\n      0x08\n        /* \"contracts/charityNFT.sol\":2357:2374  NftDetails[nftId] */\n      0x20\n      swap1\n      dup2\n      mstore\n      0x40\n      swap2\n      dup3\n      swap1\n      keccak256\n        /* \"contracts/charityNFT.sol\":2357:2402  NftDetails[nftId].NftPrice = price * 10 ** 18 */\n      swap3\n      swap1\n      swap3\n      sstore\n        /* \"contracts/charityNFT.sol\":2418:2469  nftPriceUpdated (nftId, price, \"NFT Price Updated\") */\n      dup1\n      mload\n        /* \"#utility.yul\":8005:8030   */\n      dup5\n      dup2\n      mstore\n        /* \"#utility.yul\":8046:8064   */\n      swap2\n      dup3\n      add\n        /* \"#utility.yul\":8039:8073   */\n      dup4\n      swap1\n      mstore\n        /* \"#utility.yul\":8109:8111   */\n      0x60\n        /* \"#utility.yul\":8089:8107   */\n      swap1\n      dup3\n      add\n        /* \"#utility.yul\":8082:8112   */\n      dup2\n      swap1\n      mstore\n        /* \"#utility.yul\":8148:8150   */\n      0x11\n        /* \"#utility.yul\":8128:8146   */\n      swap1\n      dup3\n      add\n        /* \"#utility.yul\":8121:8151   */\n      mstore\n      shl(0x7a, 0x13919508141c9a58d948155c19185d1959)\n        /* \"#utility.yul\":8182:8185   */\n      0x80\n        /* \"#utility.yul\":8167:8186   */\n      dup3\n      add\n        /* \"#utility.yul\":8160:8208   */\n      mstore\n        /* \"contracts/charityNFT.sol\":2418:2469  nftPriceUpdated (nftId, price, \"NFT Price Updated\") */\n      0xb9d5f1c6d4c27c05a03631c464c6e47c357fbe053c30e817e9853d499a7d45f4\n      swap1\n        /* \"#utility.yul\":8240:8243   */\n      0xa0\n        /* \"#utility.yul\":8225:8244   */\n      add\n        /* \"contracts/charityNFT.sol\":2418:2469  nftPriceUpdated (nftId, price, \"NFT Price Updated\") */\n    tag_200:\n      mload(0x40)\n      dup1\n      swap2\n      sub\n      swap1\n      log1\n        /* \"contracts/charityNFT.sol\":2120:2478  function updateNFTPrice(uint nftId, uint price) public onlyOwner {... */\n      pop\n      pop\n      jump\t// out\n        /* \"@openzeppelin/contracts/token/ERC721/ERC721.sol\":2190:2409  function ownerOf(uint256 tokenId) public view virtual override returns (address) {... */\n    tag_75:\n        /* \"@openzeppelin/contracts/token/ERC721/ERC721.sol\":2262:2269  address */\n      0x00\n        /* \"@openzeppelin/contracts/token/ERC721/ERC721.sol\":6794:6810  _owners[tokenId] */\n      dup2\n      dup2\n      mstore\n        /* \"@openzeppelin/contracts/token/ERC721/ERC721.sol\":6794:6801  _owners */\n      0x02\n        /* \"@openzeppelin/contracts/token/ERC721/ERC721.sol\":6794:6810  _owners[tokenId] */\n      0x20\n      mstore\n      0x40\n      dup2\n      keccak256\n      sload\n      sub(shl(0xa0, 0x01), 0x01)\n      and\n      dup1\n        /* \"@openzeppelin/contracts/token/ERC721/ERC721.sol\":2324:2380  require(owner != address(0), \"ERC721: invalid token ID\") */\n      tag_122\n      jumpi\n      mload(0x40)\n      shl(0xe5, 0x461bcd)\n      dup2\n      mstore\n        /* \"#utility.yul\":8457:8459   */\n      0x20\n        /* \"@openzeppelin/contracts/token/ERC721/ERC721.sol\":2324:2380  require(owner != address(0), \"ERC721: invalid token ID\") */\n      0x04\n      dup3\n      add\n        /* \"#utility.yul\":8439:8460   */\n      mstore\n        /* \"#utility.yul\":8496:8498   */\n      0x18\n        /* \"#utility.yul\":8476:8494   */\n      0x24\n      dup3\n      add\n        /* \"#utility.yul\":8469:8499   */\n      mstore\n      shl(0x42, 0x115490cdcc8c4e881a5b9d985b1a59081d1bdad95b881251)\n        /* \"#utility.yul\":8515:8533   */\n      0x44\n      dup3\n      add\n        /* \"#utility.yul\":8508:8562   */\n      mstore\n        /* \"#utility.yul\":8579:8597   */\n      0x64\n      add\n        /* \"@openzeppelin/contracts/token/ERC721/ERC721.sol\":2324:2380  require(owner != address(0), \"ERC721: invalid token ID\") */\n      tag_137\n        /* \"#utility.yul\":8255:8603   */\n      jump\n        /* \"@openzeppelin/contracts/token/ERC721/ERC721.sol\":1929:2133  function balanceOf(address owner) public view virtual override returns (uint256) {... */\n    tag_79:\n        /* \"@openzeppelin/contracts/token/ERC721/ERC721.sol\":2001:2008  uint256 */\n      0x00\n      sub(shl(0xa0, 0x01), 0x01)\n        /* \"@openzeppelin/contracts/token/ERC721/ERC721.sol\":2028:2047  owner != address(0) */\n      dup3\n      and\n        /* \"@openzeppelin/contracts/token/ERC721/ERC721.sol\":2020:2093  require(owner != address(0), \"ERC721: address zero is not a valid owner\") */\n      tag_210\n      jumpi\n      mload(0x40)\n      shl(0xe5, 0x461bcd)\n      dup2\n      mstore\n        /* \"#utility.yul\":8810:8812   */\n      0x20\n        /* \"@openzeppelin/contracts/token/ERC721/ERC721.sol\":2020:2093  require(owner != address(0), \"ERC721: address zero is not a valid owner\") */\n      0x04\n      dup3\n      add\n        /* \"#utility.yul\":8792:8813   */\n      mstore\n        /* \"#utility.yul\":8849:8851   */\n      0x29\n        /* \"#utility.yul\":8829:8847   */\n      0x24\n      dup3\n      add\n        /* \"#utility.yul\":8822:8852   */\n      mstore\n        /* \"#utility.yul\":8888:8922   */\n      0x4552433732313a2061646472657373207a65726f206973206e6f742061207661\n        /* \"#utility.yul\":8868:8886   */\n      0x44\n      dup3\n      add\n        /* \"#utility.yul\":8861:8923   */\n      mstore\n      shl(0xb9, 0x3634b21037bbb732b9)\n        /* \"#utility.yul\":8939:8957   */\n      0x64\n      dup3\n      add\n        /* \"#utility.yul\":8932:8971   */\n      mstore\n        /* \"#utility.yul\":8988:9007   */\n      0x84\n      add\n        /* \"@openzeppelin/contracts/token/ERC721/ERC721.sol\":2020:2093  require(owner != address(0), \"ERC721: address zero is not a valid owner\") */\n      tag_137\n        /* \"#utility.yul\":8608:9013   */\n      jump\n        /* \"@openzeppelin/contracts/token/ERC721/ERC721.sol\":2020:2093  require(owner != address(0), \"ERC721: address zero is not a valid owner\") */\n    tag_210:\n      pop\n      sub(shl(0xa0, 0x01), 0x01)\n        /* \"@openzeppelin/contracts/token/ERC721/ERC721.sol\":2110:2126  _balances[owner] */\n      and\n      0x00\n      swap1\n      dup2\n      mstore\n        /* \"@openzeppelin/contracts/token/ERC721/ERC721.sol\":2110:2119  _balances */\n      0x03\n        /* \"@openzeppelin/contracts/token/ERC721/ERC721.sol\":2110:2126  _balances[owner] */\n      0x20\n      mstore\n      0x40\n      swap1\n      keccak256\n      sload\n      swap1\n        /* \"@openzeppelin/contracts/token/ERC721/ERC721.sol\":1929:2133  function balanceOf(address owner) public view virtual override returns (uint256) {... */\n      jump\t// out\n        /* \"@openzeppelin/contracts/access/Ownable.sol\":1824:1925  function renounceOwnership() public virtual onlyOwner {... */\n    tag_83:\n        /* \"@openzeppelin/contracts/access/Ownable.sol\":1094:1107  _checkOwner() */\n      tag_214\n        /* \"@openzeppelin/contracts/access/Ownable.sol\":1094:1105  _checkOwner */\n      tag_160\n        /* \"@openzeppelin/contracts/access/Ownable.sol\":1094:1107  _checkOwner() */\n      jump\t// in\n    tag_214:\n        /* \"@openzeppelin/contracts/access/Ownable.sol\":1888:1918  _transferOwnership(address(0)) */\n      tag_162\n        /* \"@openzeppelin/contracts/access/Ownable.sol\":1915:1916  0 */\n      0x00\n        /* \"@openzeppelin/contracts/access/Ownable.sol\":1888:1906  _transferOwnership */\n      tag_217\n        /* \"@openzeppelin/contracts/access/Ownable.sol\":1888:1918  _transferOwnership(address(0)) */\n      jump\t// in\n        /* \"contracts/charityNFT.sol\":1125:1184  function pause() public onlyOwner {... */\n    tag_89:\n        /* \"@openzeppelin/contracts/access/Ownable.sol\":1094:1107  _checkOwner() */\n      tag_220\n        /* \"@openzeppelin/contracts/access/Ownable.sol\":1094:1105  _checkOwner */\n      tag_160\n        /* \"@openzeppelin/contracts/access/Ownable.sol\":1094:1107  _checkOwner() */\n      jump\t// in\n    tag_220:\n        /* \"contracts/charityNFT.sol\":1169:1177  _pause() */\n      tag_162\n        /* \"contracts/charityNFT.sol\":1169:1175  _pause */\n      tag_223\n        /* \"contracts/charityNFT.sol\":1169:1177  _pause() */\n      jump\t// in\n        /* \"@openzeppelin/contracts/token/ERC721/ERC721.sol\":2633:2735  function symbol() public view virtual override returns (string memory) {... */\n    tag_94:\n        /* \"@openzeppelin/contracts/token/ERC721/ERC721.sol\":2689:2702  string memory */\n      0x60\n        /* \"@openzeppelin/contracts/token/ERC721/ERC721.sol\":2721:2728  _symbol */\n      0x01\n        /* \"@openzeppelin/contracts/token/ERC721/ERC721.sol\":2714:2728  return _symbol */\n      dup1\n      sload\n      tag_125\n      swap1\n      tag_126\n      jump\t// in\n        /* \"@openzeppelin/contracts/token/ERC721/ERC721.sol\":4169:4322  function setApprovalForAll(address operator, bool approved) public virtual override {... */\n    tag_99:\n        /* \"@openzeppelin/contracts/token/ERC721/ERC721.sol\":4263:4315  _setApprovalForAll(_msgSender(), operator, approved) */\n      tag_171\n        /* \"@openzeppelin/contracts/utils/Context.sol\":719:729  msg.sender */\n      caller\n        /* \"@openzeppelin/contracts/token/ERC721/ERC721.sol\":4296:4304  operator */\n      dup4\n        /* \"@openzeppelin/contracts/token/ERC721/ERC721.sol\":4306:4314  approved */\n      dup4\n        /* \"@openzeppelin/contracts/token/ERC721/ERC721.sol\":4263:4281  _setApprovalForAll */\n      tag_234\n        /* \"@openzeppelin/contracts/token/ERC721/ERC721.sol\":4263:4315  _setApprovalForAll(_msgSender(), operator, approved) */\n      jump\t// in\n        /* \"@openzeppelin/contracts/token/ERC721/ERC721.sol\":5189:5465  function safeTransferFrom(address from, address to, uint256 tokenId, bytes memory data) public virtual override {... */\n    tag_103:\n        /* \"@openzeppelin/contracts/token/ERC721/ERC721.sol\":5319:5360  _isApprovedOrOwner(_msgSender(), tokenId) */\n      tag_236\n        /* \"@openzeppelin/contracts/utils/Context.sol\":719:729  msg.sender */\n      caller\n        /* \"@openzeppelin/contracts/token/ERC721/ERC721.sol\":5352:5359  tokenId */\n      dup4\n        /* \"@openzeppelin/contracts/token/ERC721/ERC721.sol\":5319:5337  _isApprovedOrOwner */\n      tag_152\n        /* \"@openzeppelin/contracts/token/ERC721/ERC721.sol\":5319:5360  _isApprovedOrOwner(_msgSender(), tokenId) */\n      jump\t// in\n    tag_236:\n        /* \"@openzeppelin/contracts/token/ERC721/ERC721.sol\":5311:5410  require(_isApprovedOrOwner(_msgSender(), tokenId), \"ERC721: caller is not token owner or approved\") */\n      tag_238\n      jumpi\n      mload(0x40)\n      shl(0xe5, 0x461bcd)\n      dup2\n      mstore\n      0x04\n      add\n      tag_137\n      swap1\n      tag_155\n      jump\t// in\n    tag_238:\n        /* \"@openzeppelin/contracts/token/ERC721/ERC721.sol\":5420:5458  _safeTransfer(from, to, tokenId, data) */\n      tag_240\n        /* \"@openzeppelin/contracts/token/ERC721/ERC721.sol\":5434:5438  from */\n      dup5\n        /* \"@openzeppelin/contracts/token/ERC721/ERC721.sol\":5440:5442  to */\n      dup5\n        /* \"@openzeppelin/contracts/token/ERC721/ERC721.sol\":5444:5451  tokenId */\n      dup5\n        /* \"@openzeppelin/contracts/token/ERC721/ERC721.sol\":5453:5457  data */\n      dup5\n        /* \"@openzeppelin/contracts/token/ERC721/ERC721.sol\":5420:5433  _safeTransfer */\n      tag_241\n        /* \"@openzeppelin/contracts/token/ERC721/ERC721.sol\":5420:5458  _safeTransfer(from, to, tokenId, data) */\n      jump\t// in\n    tag_240:\n        /* \"@openzeppelin/contracts/token/ERC721/ERC721.sol\":5189:5465  function safeTransferFrom(address from, address to, uint256 tokenId, bytes memory data) public virtual override {... */\n      pop\n      pop\n      pop\n      pop\n      jump\t// out\n        /* \"@openzeppelin/contracts/token/ERC721/ERC721.sol\":2801:3077  function tokenURI(uint256 tokenId) public view virtual override returns (string memory) {... */\n    tag_106:\n        /* \"@openzeppelin/contracts/token/ERC721/ERC721.sol\":2874:2887  string memory */\n      0x60\n        /* \"@openzeppelin/contracts/token/ERC721/ERC721.sol\":2899:2922  _requireMinted(tokenId) */\n      tag_243\n        /* \"@openzeppelin/contracts/token/ERC721/ERC721.sol\":2914:2921  tokenId */\n      dup3\n        /* \"@openzeppelin/contracts/token/ERC721/ERC721.sol\":2899:2913  _requireMinted */\n      tag_133\n        /* \"@openzeppelin/contracts/token/ERC721/ERC721.sol\":2899:2922  _requireMinted(tokenId) */\n      jump\t// in\n    tag_243:\n        /* \"@openzeppelin/contracts/token/ERC721/ERC721.sol\":2933:2954  string memory baseURI */\n      0x00\n        /* \"@openzeppelin/contracts/token/ERC721/ERC721.sol\":2957:2967  _baseURI() */\n      tag_244\n        /* \"@openzeppelin/contracts/token/ERC721/ERC721.sol\":3395:3404  return \"\" */\n      0x40\n      dup1\n      mload\n      0x20\n      dup2\n      add\n      swap1\n      swap2\n      mstore\n      0x00\n      dup2\n      mstore\n      swap1\n        /* \"@openzeppelin/contracts/token/ERC721/ERC721.sol\":3319:3411  function _baseURI() internal view virtual returns (string memory) {... */\n      jump\n        /* \"@openzeppelin/contracts/token/ERC721/ERC721.sol\":2957:2967  _baseURI() */\n    tag_244:\n        /* \"@openzeppelin/contracts/token/ERC721/ERC721.sol\":2933:2967  string memory baseURI = _baseURI() */\n      swap1\n      pop\n        /* \"@openzeppelin/contracts/token/ERC721/ERC721.sol\":3008:3009  0 */\n      0x00\n        /* \"@openzeppelin/contracts/token/ERC721/ERC721.sol\":2990:2997  baseURI */\n      dup2\n        /* \"@openzeppelin/contracts/token/ERC721/ERC721.sol\":2984:3005  bytes(baseURI).length */\n      mload\n        /* \"@openzeppelin/contracts/token/ERC721/ERC721.sol\":2984:3009  bytes(baseURI).length > 0 */\n      gt\n        /* \"@openzeppelin/contracts/token/ERC721/ERC721.sol\":2984:3070  bytes(baseURI).length > 0 ? string(abi.encodePacked(baseURI, tokenId.toString())) : \"\" */\n      tag_246\n      jumpi\n      mload(0x40)\n      dup1\n      0x20\n      add\n      0x40\n      mstore\n      dup1\n      0x00\n      dup2\n      mstore\n      pop\n      jump(tag_247)\n    tag_246:\n        /* \"@openzeppelin/contracts/token/ERC721/ERC721.sol\":3036:3043  baseURI */\n      dup1\n        /* \"@openzeppelin/contracts/token/ERC721/ERC721.sol\":3045:3063  tokenId.toString() */\n      tag_248\n        /* \"@openzeppelin/contracts/token/ERC721/ERC721.sol\":3045:3052  tokenId */\n      dup5\n        /* \"@openzeppelin/contracts/token/ERC721/ERC721.sol\":3045:3061  tokenId.toString */\n      tag_249\n        /* \"@openzeppelin/contracts/token/ERC721/ERC721.sol\":3045:3063  tokenId.toString() */\n      jump\t// in\n    tag_248:\n        /* \"@openzeppelin/contracts/token/ERC721/ERC721.sol\":3019:3064  abi.encodePacked(baseURI, tokenId.toString()) */\n      add(0x20, mload(0x40))\n      tag_250\n      swap3\n      swap2\n      swap1\n      tag_251\n      jump\t// in\n    tag_250:\n      mload(0x40)\n      0x20\n      dup2\n      dup4\n      sub\n      sub\n      dup2\n      mstore\n      swap1\n      0x40\n      mstore\n        /* \"@openzeppelin/contracts/token/ERC721/ERC721.sol\":2984:3070  bytes(baseURI).length > 0 ? string(abi.encodePacked(baseURI, tokenId.toString())) : \"\" */\n    tag_247:\n        /* \"@openzeppelin/contracts/token/ERC721/ERC721.sol\":2977:3070  return bytes(baseURI).length > 0 ? string(abi.encodePacked(baseURI, tokenId.toString())) : \"\" */\n      swap4\n        /* \"@openzeppelin/contracts/token/ERC721/ERC721.sol\":2801:3077  function tokenURI(uint256 tokenId) public view virtual override returns (string memory) {... */\n      swap3\n      pop\n      pop\n      pop\n      jump\t// out\n        /* \"@openzeppelin/contracts/token/ERC721/ERC721.sol\":4388:4550  function isApprovedForAll(address owner, address operator) public view virtual override returns (bool) {... */\n    tag_111:\n      sub(shl(0xa0, 0x01), 0x01)\n        /* \"@openzeppelin/contracts/token/ERC721/ERC721.sol\":4508:4533  _operatorApprovals[owner] */\n      swap2\n      dup3\n      and\n        /* \"@openzeppelin/contracts/token/ERC721/ERC721.sol\":4485:4489  bool */\n      0x00\n        /* \"@openzeppelin/contracts/token/ERC721/ERC721.sol\":4508:4533  _operatorApprovals[owner] */\n      swap1\n      dup2\n      mstore\n        /* \"@openzeppelin/contracts/token/ERC721/ERC721.sol\":4508:4526  _operatorApprovals */\n      0x05\n        /* \"@openzeppelin/contracts/token/ERC721/ERC721.sol\":4508:4533  _operatorApprovals[owner] */\n      0x20\n      swap1\n      dup2\n      mstore\n      0x40\n      dup1\n      dup4\n      keccak256\n        /* \"@openzeppelin/contracts/token/ERC721/ERC721.sol\":4508:4543  _operatorApprovals[owner][operator] */\n      swap4\n      swap1\n      swap5\n      and\n      dup3\n      mstore\n      swap2\n      swap1\n      swap2\n      mstore\n      keccak256\n      sload\n      0xff\n      and\n      swap1\n        /* \"@openzeppelin/contracts/token/ERC721/ERC721.sol\":4388:4550  function isApprovedForAll(address owner, address operator) public view virtual override returns (bool) {... */\n      jump\t// out\n        /* \"contracts/charityNFT.sol\":1672:2113  function placeNftForFixedPrice(uint nftId, uint priceOfNFT) public onlyOwner {... */\n    tag_115:\n        /* \"@openzeppelin/contracts/access/Ownable.sol\":1094:1107  _checkOwner() */\n      tag_254\n        /* \"@openzeppelin/contracts/access/Ownable.sol\":1094:1105  _checkOwner */\n      tag_160\n        /* \"@openzeppelin/contracts/access/Ownable.sol\":1094:1107  _checkOwner() */\n      jump\t// in\n    tag_254:\n        /* \"@openzeppelin/contracts/token/ERC721/ERC721.sol\":7185:7189  bool */\n      0x00\n        /* \"@openzeppelin/contracts/token/ERC721/ERC721.sol\":6794:6810  _owners[tokenId] */\n      dup3\n      dup2\n      mstore\n        /* \"@openzeppelin/contracts/token/ERC721/ERC721.sol\":6794:6801  _owners */\n      0x02\n        /* \"@openzeppelin/contracts/token/ERC721/ERC721.sol\":6794:6810  _owners[tokenId] */\n      0x20\n      mstore\n      0x40\n      swap1\n      keccak256\n      sload\n      sub(shl(0xa0, 0x01), 0x01)\n      and\n        /* \"contracts/charityNFT.sol\":1768:1812  require(_exists(nftId) , \"NFT Does't Exist\") */\n      tag_257\n      jumpi\n      mload(0x40)\n      shl(0xe5, 0x461bcd)\n      dup2\n      mstore\n        /* \"#utility.yul\":6862:6864   */\n      0x20\n        /* \"contracts/charityNFT.sol\":1768:1812  require(_exists(nftId) , \"NFT Does't Exist\") */\n      0x04\n      dup3\n      add\n        /* \"#utility.yul\":6844:6865   */\n      mstore\n        /* \"#utility.yul\":6901:6903   */\n      0x10\n        /* \"#utility.yul\":6881:6899   */\n      0x24\n      dup3\n      add\n        /* \"#utility.yul\":6874:6904   */\n      mstore\n      shl(0x82, 0x13919508111bd95cc9dd08115e1a5cdd)\n        /* \"#utility.yul\":6920:6938   */\n      0x44\n      dup3\n      add\n        /* \"#utility.yul\":6913:6959   */\n      mstore\n        /* \"#utility.yul\":6976:6994   */\n      0x64\n      add\n        /* \"contracts/charityNFT.sol\":1768:1812  require(_exists(nftId) , \"NFT Does't Exist\") */\n      tag_137\n        /* \"#utility.yul\":6660:7000   */\n      jump\n        /* \"contracts/charityNFT.sol\":1768:1812  require(_exists(nftId) , \"NFT Does't Exist\") */\n    tag_257:\n        /* \"contracts/charityNFT.sol\":1861:1877  status.NotOnSale */\n      0x00\n        /* \"contracts/charityNFT.sol\":1830:1847  NftDetails[nftId] */\n      dup3\n      dup2\n      mstore\n        /* \"contracts/charityNFT.sol\":1830:1840  NftDetails */\n      0x08\n        /* \"contracts/charityNFT.sol\":1830:1847  NftDetails[nftId] */\n      0x20\n      mstore\n      0x40\n      dup2\n      keccak256\n        /* \"contracts/charityNFT.sol\":1830:1857  NftDetails[nftId].Nftstatus */\n      0x01\n      swap1\n      dup2\n      add\n      sload\n      0xff\n      and\n      swap1\n        /* \"contracts/charityNFT.sol\":1830:1877  NftDetails[nftId].Nftstatus == status.NotOnSale */\n      dup2\n      gt\n      iszero\n      tag_262\n      jumpi\n      tag_262\n      tag_192\n      jump\t// in\n    tag_262:\n      eq\n        /* \"contracts/charityNFT.sol\":1822:1911  require(NftDetails[nftId].Nftstatus == status.NotOnSale, \"NFT is Already on Fixed Price\") */\n      tag_263\n      jumpi\n      mload(0x40)\n      shl(0xe5, 0x461bcd)\n      dup2\n      mstore\n        /* \"#utility.yul\":7339:7341   */\n      0x20\n        /* \"contracts/charityNFT.sol\":1822:1911  require(NftDetails[nftId].Nftstatus == status.NotOnSale, \"NFT is Already on Fixed Price\") */\n      0x04\n      dup3\n      add\n        /* \"#utility.yul\":7321:7342   */\n      mstore\n        /* \"#utility.yul\":7378:7380   */\n      0x1d\n        /* \"#utility.yul\":7358:7376   */\n      0x24\n      dup3\n      add\n        /* \"#utility.yul\":7351:7381   */\n      mstore\n        /* \"#utility.yul\":7417:7448   */\n      0x4e465420697320416c7265616479206f6e204669786564205072696365000000\n        /* \"#utility.yul\":7397:7415   */\n      0x44\n      dup3\n      add\n        /* \"#utility.yul\":7390:7449   */\n      mstore\n        /* \"#utility.yul\":7466:7484   */\n      0x64\n      add\n        /* \"contracts/charityNFT.sol\":1822:1911  require(NftDetails[nftId].Nftstatus == status.NotOnSale, \"NFT is Already on Fixed Price\") */\n      tag_137\n        /* \"#utility.yul\":7137:7490   */\n      jump\n        /* \"contracts/charityNFT.sol\":1822:1911  require(NftDetails[nftId].Nftstatus == status.NotOnSale, \"NFT is Already on Fixed Price\") */\n    tag_263:\n        /* \"contracts/charityNFT.sol\":1950:1971  priceOfNFT * 10 ** 18 */\n      tag_265\n        /* \"contracts/charityNFT.sol\":1950:1960  priceOfNFT */\n      dup2\n        /* \"contracts/charityNFT.sol\":1963:1971  10 ** 18 */\n      0x0de0b6b3a7640000\n        /* \"contracts/charityNFT.sol\":1950:1971  priceOfNFT * 10 ** 18 */\n      tag_199\n      jump\t// in\n    tag_265:\n        /* \"contracts/charityNFT.sol\":1921:1938  NftDetails[nftId] */\n      0x00\n      dup4\n      dup2\n      mstore\n        /* \"contracts/charityNFT.sol\":1921:1931  NftDetails */\n      0x08\n        /* \"contracts/charityNFT.sol\":1921:1938  NftDetails[nftId] */\n      0x20\n      mstore\n      0x40\n      swap1\n      keccak256\n        /* \"contracts/charityNFT.sol\":1921:1971  NftDetails[nftId].NftPrice = priceOfNFT * 10 ** 18 */\n      swap1\n      dup2\n      sstore\n        /* \"contracts/charityNFT.sol\":2012:2031  status.OnfixedPrice */\n      0x01\n        /* \"contracts/charityNFT.sol\":1982:2009  NftDetails[nftId].Nftstatus */\n      swap1\n      dup2\n      add\n        /* \"contracts/charityNFT.sol\":1982:2031  NftDetails[nftId].Nftstatus = status.OnfixedPrice */\n      dup1\n      sload\n      not(0xff)\n      and\n        /* \"contracts/charityNFT.sol\":2012:2031  status.OnfixedPrice */\n      dup3\n      dup1\n        /* \"contracts/charityNFT.sol\":1982:2031  NftDetails[nftId].Nftstatus = status.OnfixedPrice */\n      mul\n      or\n      swap1\n      sstore\n      pop\n        /* \"contracts/charityNFT.sol\":2047:2105  listedForFixedPrice (nftId , \"NFT Listed For Fixed Price\") */\n      0xe3159051e97ed401b6edd29e75e3c9711e908cc0381266d40a520eb12faedca8\n        /* \"contracts/charityNFT.sol\":2068:2073  nftId */\n      dup3\n        /* \"contracts/charityNFT.sol\":2047:2105  listedForFixedPrice (nftId , \"NFT Listed For Fixed Price\") */\n      mload(0x40)\n      tag_200\n      swap2\n        /* \"#utility.yul\":9731:9756   */\n      dup2\n      mstore\n        /* \"#utility.yul\":9792:9794   */\n      0x40\n        /* \"#utility.yul\":9787:9789   */\n      0x20\n        /* \"#utility.yul\":9772:9790   */\n      dup3\n      add\n        /* \"#utility.yul\":9765:9795   */\n      dup2\n      swap1\n      mstore\n        /* \"#utility.yul\":9831:9833   */\n      0x1a\n        /* \"#utility.yul\":9811:9829   */\n      swap1\n      dup3\n      add\n        /* \"#utility.yul\":9804:9834   */\n      mstore\n        /* \"#utility.yul\":9870:9898   */\n      0x4e4654204c697374656420466f72204669786564205072696365000000000000\n        /* \"#utility.yul\":9865:9867   */\n      0x60\n        /* \"#utility.yul\":9850:9868   */\n      dup3\n      add\n        /* \"#utility.yul\":9843:9899   */\n      mstore\n        /* \"#utility.yul\":9931:9934   */\n      0x80\n        /* \"#utility.yul\":9916:9935   */\n      add\n      swap1\n        /* \"#utility.yul\":9519:9941   */\n      jump\n        /* \"@openzeppelin/contracts/access/Ownable.sol\":2074:2272  function transferOwnership(address newOwner) public virtual onlyOwner {... */\n    tag_118:\n        /* \"@openzeppelin/contracts/access/Ownable.sol\":1094:1107  _checkOwner() */\n      tag_271\n        /* \"@openzeppelin/contracts/access/Ownable.sol\":1094:1105  _checkOwner */\n      tag_160\n        /* \"@openzeppelin/contracts/access/Ownable.sol\":1094:1107  _checkOwner() */\n      jump\t// in\n    tag_271:\n      sub(shl(0xa0, 0x01), 0x01)\n        /* \"@openzeppelin/contracts/access/Ownable.sol\":2162:2184  newOwner != address(0) */\n      dup2\n      and\n        /* \"@openzeppelin/contracts/access/Ownable.sol\":2154:2227  require(newOwner != address(0), \"Ownable: new owner is the zero address\") */\n      tag_273\n      jumpi\n      mload(0x40)\n      shl(0xe5, 0x461bcd)\n      dup2\n      mstore\n        /* \"#utility.yul\":10148:10150   */\n      0x20\n        /* \"@openzeppelin/contracts/access/Ownable.sol\":2154:2227  require(newOwner != address(0), \"Ownable: new owner is the zero address\") */\n      0x04\n      dup3\n      add\n        /* \"#utility.yul\":10130:10151   */\n      mstore\n        /* \"#utility.yul\":10187:10189   */\n      0x26\n        /* \"#utility.yul\":10167:10185   */\n      0x24\n      dup3\n      add\n        /* \"#utility.yul\":10160:10190   */\n      mstore\n        /* \"#utility.yul\":10226:10260   */\n      0x4f776e61626c653a206e6577206f776e657220697320746865207a65726f2061\n        /* \"#utility.yul\":10206:10224   */\n      0x44\n      dup3\n      add\n        /* \"#utility.yul\":10199:10261   */\n      mstore\n      shl(0xd0, 0x646472657373)\n        /* \"#utility.yul\":10277:10295   */\n      0x64\n      dup3\n      add\n        /* \"#utility.yul\":10270:10306   */\n      mstore\n        /* \"#utility.yul\":10323:10342   */\n      0x84\n      add\n        /* \"@openzeppelin/contracts/access/Ownable.sol\":2154:2227  require(newOwner != address(0), \"Ownable: new owner is the zero address\") */\n      tag_137\n        /* \"#utility.yul\":9946:10348   */\n      jump\n        /* \"@openzeppelin/contracts/access/Ownable.sol\":2154:2227  require(newOwner != address(0), \"Ownable: new owner is the zero address\") */\n    tag_273:\n        /* \"@openzeppelin/contracts/access/Ownable.sol\":2237:2265  _transferOwnership(newOwner) */\n      tag_180\n        /* \"@openzeppelin/contracts/access/Ownable.sol\":2256:2264  newOwner */\n      dup2\n        /* \"@openzeppelin/contracts/access/Ownable.sol\":2237:2255  _transferOwnership */\n      tag_217\n        /* \"@openzeppelin/contracts/access/Ownable.sol\":2237:2265  _transferOwnership(newOwner) */\n      jump\t// in\n        /* \"@openzeppelin/contracts/token/ERC721/ERC721.sol\":13240:13373  function _requireMinted(uint256 tokenId) internal view virtual {... */\n    tag_133:\n        /* \"@openzeppelin/contracts/token/ERC721/ERC721.sol\":7185:7189  bool */\n      0x00\n        /* \"@openzeppelin/contracts/token/ERC721/ERC721.sol\":6794:6810  _owners[tokenId] */\n      dup2\n      dup2\n      mstore\n        /* \"@openzeppelin/contracts/token/ERC721/ERC721.sol\":6794:6801  _owners */\n      0x02\n        /* \"@openzeppelin/contracts/token/ERC721/ERC721.sol\":6794:6810  _owners[tokenId] */\n      0x20\n      mstore\n      0x40\n      swap1\n      keccak256\n      sload\n      sub(shl(0xa0, 0x01), 0x01)\n      and\n        /* \"@openzeppelin/contracts/token/ERC721/ERC721.sol\":13313:13366  require(_exists(tokenId), \"ERC721: invalid token ID\") */\n      tag_180\n      jumpi\n      mload(0x40)\n      shl(0xe5, 0x461bcd)\n      dup2\n      mstore\n        /* \"#utility.yul\":8457:8459   */\n      0x20\n        /* \"@openzeppelin/contracts/token/ERC721/ERC721.sol\":13313:13366  require(_exists(tokenId), \"ERC721: invalid token ID\") */\n      0x04\n      dup3\n      add\n        /* \"#utility.yul\":8439:8460   */\n      mstore\n        /* \"#utility.yul\":8496:8498   */\n      0x18\n        /* \"#utility.yul\":8476:8494   */\n      0x24\n      dup3\n      add\n        /* \"#utility.yul\":8469:8499   */\n      mstore\n      shl(0x42, 0x115490cdcc8c4e881a5b9d985b1a59081d1bdad95b881251)\n        /* \"#utility.yul\":8515:8533   */\n      0x44\n      dup3\n      add\n        /* \"#utility.yul\":8508:8562   */\n      mstore\n        /* \"#utility.yul\":8579:8597   */\n      0x64\n      add\n        /* \"@openzeppelin/contracts/token/ERC721/ERC721.sol\":13313:13366  require(_exists(tokenId), \"ERC721: invalid token ID\") */\n      tag_137\n        /* \"#utility.yul\":8255:8603   */\n      jump\n        /* \"@openzeppelin/contracts/token/ERC721/ERC721.sol\":12572:12743  function _approve(address to, uint256 tokenId) internal virtual {... */\n    tag_148:\n        /* \"@openzeppelin/contracts/token/ERC721/ERC721.sol\":12646:12670  _tokenApprovals[tokenId] */\n      0x00\n      dup2\n      dup2\n      mstore\n        /* \"@openzeppelin/contracts/token/ERC721/ERC721.sol\":12646:12661  _tokenApprovals */\n      0x04\n        /* \"@openzeppelin/contracts/token/ERC721/ERC721.sol\":12646:12670  _tokenApprovals[tokenId] */\n      0x20\n      mstore\n      0x40\n      swap1\n      keccak256\n        /* \"@openzeppelin/contracts/token/ERC721/ERC721.sol\":12646:12675  _tokenApprovals[tokenId] = to */\n      dup1\n      sload\n      not(sub(shl(0xa0, 0x01), 0x01))\n      and\n      sub(shl(0xa0, 0x01), 0x01)\n      dup5\n      and\n      swap1\n      dup2\n      or\n      swap1\n      swap2\n      sstore\n        /* \"@openzeppelin/contracts/token/ERC721/ERC721.sol\":12646:12670  _tokenApprovals[tokenId] */\n      dup2\n      swap1\n        /* \"@openzeppelin/contracts/token/ERC721/ERC721.sol\":12699:12722  ERC721.ownerOf(tokenId) */\n      tag_284\n        /* \"@openzeppelin/contracts/token/ERC721/ERC721.sol\":12646:12670  _tokenApprovals[tokenId] */\n      dup3\n        /* \"@openzeppelin/contracts/token/ERC721/ERC721.sol\":12699:12713  ERC721.ownerOf */\n      tag_75\n        /* \"@openzeppelin/contracts/token/ERC721/ERC721.sol\":12699:12722  ERC721.ownerOf(tokenId) */\n      jump\t// in\n    tag_284:\n      sub(shl(0xa0, 0x01), 0x01)\n        /* \"@openzeppelin/contracts/token/ERC721/ERC721.sol\":12690:12736  Approval(ERC721.ownerOf(tokenId), to, tokenId) */\n      and\n      0x8c5be1e5ebec7d5bd14f71427d1e84f3dd0314c0f7b2291e5b200ac8c7c3b925\n      mload(0x40)\n      mload(0x40)\n      dup1\n      swap2\n      sub\n      swap1\n      log4\n        /* \"@openzeppelin/contracts/token/ERC721/ERC721.sol\":12572:12743  function _approve(address to, uint256 tokenId) internal virtual {... */\n      pop\n      pop\n      jump\t// out\n        /* \"@openzeppelin/contracts/token/ERC721/ERC721.sol\":7404:7665  function _isApprovedOrOwner(address spender, uint256 tokenId) internal view virtual returns (bool) {... */\n    tag_152:\n        /* \"@openzeppelin/contracts/token/ERC721/ERC721.sol\":7497:7501  bool */\n      0x00\n        /* \"@openzeppelin/contracts/token/ERC721/ERC721.sol\":7513:7526  address owner */\n      dup1\n        /* \"@openzeppelin/contracts/token/ERC721/ERC721.sol\":7529:7552  ERC721.ownerOf(tokenId) */\n      tag_286\n        /* \"@openzeppelin/contracts/token/ERC721/ERC721.sol\":7544:7551  tokenId */\n      dup4\n        /* \"@openzeppelin/contracts/token/ERC721/ERC721.sol\":7529:7543  ERC721.ownerOf */\n      tag_75\n        /* \"@openzeppelin/contracts/token/ERC721/ERC721.sol\":7529:7552  ERC721.ownerOf(tokenId) */\n      jump\t// in\n    tag_286:\n        /* \"@openzeppelin/contracts/token/ERC721/ERC721.sol\":7513:7552  address owner = ERC721.ownerOf(tokenId) */\n      swap1\n      pop\n        /* \"@openzeppelin/contracts/token/ERC721/ERC721.sol\":7581:7586  owner */\n      dup1\n      sub(shl(0xa0, 0x01), 0x01)\n        /* \"@openzeppelin/contracts/token/ERC721/ERC721.sol\":7570:7586  spender == owner */\n      and\n        /* \"@openzeppelin/contracts/token/ERC721/ERC721.sol\":7570:7577  spender */\n      dup5\n      sub(shl(0xa0, 0x01), 0x01)\n        /* \"@openzeppelin/contracts/token/ERC721/ERC721.sol\":7570:7586  spender == owner */\n      and\n      eq\n        /* \"@openzeppelin/contracts/token/ERC721/ERC721.sol\":7570:7622  spender == owner || isApprovedForAll(owner, spender) */\n      dup1\n      tag_288\n      jumpi\n      pop\n        /* \"@openzeppelin/contracts/token/ERC721/ERC721.sol\":7590:7622  isApprovedForAll(owner, spender) */\n      tag_288\n        /* \"@openzeppelin/contracts/token/ERC721/ERC721.sol\":7607:7612  owner */\n      dup2\n        /* \"@openzeppelin/contracts/token/ERC721/ERC721.sol\":7614:7621  spender */\n      dup6\n        /* \"@openzeppelin/contracts/token/ERC721/ERC721.sol\":7590:7606  isApprovedForAll */\n      tag_111\n        /* \"@openzeppelin/contracts/token/ERC721/ERC721.sol\":7590:7622  isApprovedForAll(owner, spender) */\n      jump\t// in\n    tag_288:\n        /* \"@openzeppelin/contracts/token/ERC721/ERC721.sol\":7570:7657  spender == owner || isApprovedForAll(owner, spender) || getApproved(tokenId) == spender */\n      dup1\n      tag_289\n      jumpi\n      pop\n        /* \"@openzeppelin/contracts/token/ERC721/ERC721.sol\":7650:7657  spender */\n      dup4\n      sub(shl(0xa0, 0x01), 0x01)\n        /* \"@openzeppelin/contracts/token/ERC721/ERC721.sol\":7626:7657  getApproved(tokenId) == spender */\n      and\n        /* \"@openzeppelin/contracts/token/ERC721/ERC721.sol\":7626:7646  getApproved(tokenId) */\n      tag_290\n        /* \"@openzeppelin/contracts/token/ERC721/ERC721.sol\":7638:7645  tokenId */\n      dup5\n        /* \"@openzeppelin/contracts/token/ERC721/ERC721.sol\":7626:7637  getApproved */\n      tag_43\n        /* \"@openzeppelin/contracts/token/ERC721/ERC721.sol\":7626:7646  getApproved(tokenId) */\n      jump\t// in\n    tag_290:\n      sub(shl(0xa0, 0x01), 0x01)\n        /* \"@openzeppelin/contracts/token/ERC721/ERC721.sol\":7626:7657  getApproved(tokenId) == spender */\n      and\n      eq\n        /* \"@openzeppelin/contracts/token/ERC721/ERC721.sol\":7570:7657  spender == owner || isApprovedForAll(owner, spender) || getApproved(tokenId) == spender */\n    tag_289:\n        /* \"@openzeppelin/contracts/token/ERC721/ERC721.sol\":7562:7658  return (spender == owner || isApprovedForAll(owner, spender) || getApproved(tokenId) == spender) */\n      swap5\n        /* \"@openzeppelin/contracts/token/ERC721/ERC721.sol\":7404:7665  function _isApprovedOrOwner(address spender, uint256 tokenId) internal view virtual returns (bool) {... */\n      swap4\n      pop\n      pop\n      pop\n      pop\n      jump\t// out\n        /* \"@openzeppelin/contracts/token/ERC721/ERC721.sol\":11257:12460  function _transfer(address from, address to, uint256 tokenId) internal virtual {... */\n    tag_157:\n        /* \"@openzeppelin/contracts/token/ERC721/ERC721.sol\":11381:11385  from */\n      dup3\n      sub(shl(0xa0, 0x01), 0x01)\n        /* \"@openzeppelin/contracts/token/ERC721/ERC721.sol\":11354:11385  ERC721.ownerOf(tokenId) == from */\n      and\n        /* \"@openzeppelin/contracts/token/ERC721/ERC721.sol\":11354:11377  ERC721.ownerOf(tokenId) */\n      tag_292\n        /* \"@openzeppelin/contracts/token/ERC721/ERC721.sol\":11369:11376  tokenId */\n      dup3\n        /* \"@openzeppelin/contracts/token/ERC721/ERC721.sol\":11354:11368  ERC721.ownerOf */\n      tag_75\n        /* \"@openzeppelin/contracts/token/ERC721/ERC721.sol\":11354:11377  ERC721.ownerOf(tokenId) */\n      jump\t// in\n    tag_292:\n      sub(shl(0xa0, 0x01), 0x01)\n        /* \"@openzeppelin/contracts/token/ERC721/ERC721.sol\":11354:11385  ERC721.ownerOf(tokenId) == from */\n      and\n      eq\n        /* \"@openzeppelin/contracts/token/ERC721/ERC721.sol\":11346:11427  require(ERC721.ownerOf(tokenId) == from, \"ERC721: transfer from incorrect owner\") */\n      tag_293\n      jumpi\n      mload(0x40)\n      shl(0xe5, 0x461bcd)\n      dup2\n      mstore\n      0x04\n      add\n      tag_137\n      swap1\n      tag_295\n      jump\t// in\n    tag_293:\n      sub(shl(0xa0, 0x01), 0x01)\n        /* \"@openzeppelin/contracts/token/ERC721/ERC721.sol\":11445:11461  to != address(0) */\n      dup3\n      and\n        /* \"@openzeppelin/contracts/token/ERC721/ERC721.sol\":11437:11502  require(to != address(0), \"ERC721: transfer to the zero address\") */\n      tag_296\n      jumpi\n      mload(0x40)\n      shl(0xe5, 0x461bcd)\n      dup2\n      mstore\n        /* \"#utility.yul\":10961:10963   */\n      0x20\n        /* \"@openzeppelin/contracts/token/ERC721/ERC721.sol\":11437:11502  require(to != address(0), \"ERC721: transfer to the zero address\") */\n      0x04\n      dup3\n      add\n        /* \"#utility.yul\":10943:10964   */\n      mstore\n        /* \"#utility.yul\":11000:11002   */\n      0x24\n        /* \"#utility.yul\":10980:10998   */\n      dup1\n      dup3\n      add\n        /* \"#utility.yul\":10973:11003   */\n      mstore\n        /* \"#utility.yul\":11039:11073   */\n      0x4552433732313a207472616e7366657220746f20746865207a65726f20616464\n        /* \"#utility.yul\":11019:11037   */\n      0x44\n      dup3\n      add\n        /* \"#utility.yul\":11012:11074   */\n      mstore\n      shl(0xe0, 0x72657373)\n        /* \"#utility.yul\":11090:11108   */\n      0x64\n      dup3\n      add\n        /* \"#utility.yul\":11083:11117   */\n      mstore\n        /* \"#utility.yul\":11134:11153   */\n      0x84\n      add\n        /* \"@openzeppelin/contracts/token/ERC721/ERC721.sol\":11437:11502  require(to != address(0), \"ERC721: transfer to the zero address\") */\n      tag_137\n        /* \"#utility.yul\":10759:11159   */\n      jump\n        /* \"@openzeppelin/contracts/token/ERC721/ERC721.sol\":11437:11502  require(to != address(0), \"ERC721: transfer to the zero address\") */\n    tag_296:\n        /* \"@openzeppelin/contracts/token/ERC721/ERC721.sol\":11513:11555  _beforeTokenTransfer(from, to, tokenId, 1) */\n      tag_299\n        /* \"@openzeppelin/contracts/token/ERC721/ERC721.sol\":11534:11538  from */\n      dup4\n        /* \"@openzeppelin/contracts/token/ERC721/ERC721.sol\":11540:11542  to */\n      dup4\n        /* \"@openzeppelin/contracts/token/ERC721/ERC721.sol\":11544:11551  tokenId */\n      dup4\n        /* \"@openzeppelin/contracts/token/ERC721/ERC721.sol\":11553:11554  1 */\n      0x01\n        /* \"@openzeppelin/contracts/token/ERC721/ERC721.sol\":11513:11533  _beforeTokenTransfer */\n      tag_300\n        /* \"@openzeppelin/contracts/token/ERC721/ERC721.sol\":11513:11555  _beforeTokenTransfer(from, to, tokenId, 1) */\n      jump\t// in\n    tag_299:\n        /* \"@openzeppelin/contracts/token/ERC721/ERC721.sol\":11682:11686  from */\n      dup3\n      sub(shl(0xa0, 0x01), 0x01)\n        /* \"@openzeppelin/contracts/token/ERC721/ERC721.sol\":11655:11686  ERC721.ownerOf(tokenId) == from */\n      and\n        /* \"@openzeppelin/contracts/token/ERC721/ERC721.sol\":11655:11678  ERC721.ownerOf(tokenId) */\n      tag_301\n        /* \"@openzeppelin/contracts/token/ERC721/ERC721.sol\":11670:11677  tokenId */\n      dup3\n        /* \"@openzeppelin/contracts/token/ERC721/ERC721.sol\":11655:11669  ERC721.ownerOf */\n      tag_75\n        /* \"@openzeppelin/contracts/token/ERC721/ERC721.sol\":11655:11678  ERC721.ownerOf(tokenId) */\n      jump\t// in\n    tag_301:\n      sub(shl(0xa0, 0x01), 0x01)\n        /* \"@openzeppelin/contracts/token/ERC721/ERC721.sol\":11655:11686  ERC721.ownerOf(tokenId) == from */\n      and\n      eq\n        /* \"@openzeppelin/contracts/token/ERC721/ERC721.sol\":11647:11728  require(ERC721.ownerOf(tokenId) == from, \"ERC721: transfer from incorrect owner\") */\n      tag_302\n      jumpi\n      mload(0x40)\n      shl(0xe5, 0x461bcd)\n      dup2\n      mstore\n      0x04\n      add\n      tag_137\n      swap1\n      tag_295\n      jump\t// in\n    tag_302:\n        /* \"@openzeppelin/contracts/token/ERC721/ERC721.sol\":11797:11821  _tokenApprovals[tokenId] */\n      0x00\n      dup2\n      dup2\n      mstore\n        /* \"@openzeppelin/contracts/token/ERC721/ERC721.sol\":11797:11812  _tokenApprovals */\n      0x04\n        /* \"@openzeppelin/contracts/token/ERC721/ERC721.sol\":11797:11821  _tokenApprovals[tokenId] */\n      0x20\n      swap1\n      dup2\n      mstore\n      0x40\n      dup1\n      dup4\n      keccak256\n        /* \"@openzeppelin/contracts/token/ERC721/ERC721.sol\":11790:11821  delete _tokenApprovals[tokenId] */\n      dup1\n      sload\n      not(sub(shl(0xa0, 0x01), 0x01))\n      swap1\n      dup2\n      and\n      swap1\n      swap2\n      sstore\n      sub(shl(0xa0, 0x01), 0x01)\n        /* \"@openzeppelin/contracts/token/ERC721/ERC721.sol\":12265:12280  _balances[from] */\n      dup8\n      dup2\n      and\n      dup1\n      dup7\n      mstore\n        /* \"@openzeppelin/contracts/token/ERC721/ERC721.sol\":12265:12274  _balances */\n      0x03\n        /* \"@openzeppelin/contracts/token/ERC721/ERC721.sol\":12265:12280  _balances[from] */\n      dup6\n      mstore\n      dup4\n      dup7\n      keccak256\n        /* \"@openzeppelin/contracts/token/ERC721/ERC721.sol\":12265:12285  _balances[from] -= 1 */\n      dup1\n      sload\n      not(0x00)\n      add\n      swap1\n      sstore\n        /* \"@openzeppelin/contracts/token/ERC721/ERC721.sol\":12299:12312  _balances[to] */\n      swap1\n      dup8\n      and\n      dup1\n      dup7\n      mstore\n      dup4\n      dup7\n      keccak256\n        /* \"@openzeppelin/contracts/token/ERC721/ERC721.sol\":12299:12317  _balances[to] += 1 */\n      dup1\n      sload\n        /* \"@openzeppelin/contracts/token/ERC721/ERC721.sol\":11790:11821  delete _tokenApprovals[tokenId] */\n      0x01\n        /* \"@openzeppelin/contracts/token/ERC721/ERC721.sol\":12299:12317  _balances[to] += 1 */\n      add\n      swap1\n      sstore\n        /* \"@openzeppelin/contracts/token/ERC721/ERC721.sol\":12337:12353  _owners[tokenId] */\n      dup7\n      dup7\n      mstore\n        /* \"@openzeppelin/contracts/token/ERC721/ERC721.sol\":12337:12344  _owners */\n      0x02\n        /* \"@openzeppelin/contracts/token/ERC721/ERC721.sol\":12337:12353  _owners[tokenId] */\n      swap1\n      swap5\n      mstore\n      dup3\n      dup6\n      keccak256\n        /* \"@openzeppelin/contracts/token/ERC721/ERC721.sol\":12337:12358  _owners[tokenId] = to */\n      dup1\n      sload\n      swap1\n      swap3\n      and\n      dup5\n      or\n      swap1\n      swap2\n      sstore\n        /* \"@openzeppelin/contracts/token/ERC721/ERC721.sol\":12374:12401  Transfer(from, to, tokenId) */\n      swap1\n      mload\n        /* \"@openzeppelin/contracts/token/ERC721/ERC721.sol\":11813:11820  tokenId */\n      dup5\n      swap4\n        /* \"@openzeppelin/contracts/token/ERC721/ERC721.sol\":12374:12401  Transfer(from, to, tokenId) */\n      0xddf252ad1be2c89b69c2b068fc378daa952ba7f163c4a11628f55a4df523b3ef\n      swap2\n      log4\n        /* \"@openzeppelin/contracts/token/ERC721/ERC721.sol\":3538:3874  {... */\n      pop\n        /* \"@openzeppelin/contracts/token/ERC721/ERC721.sol\":3468:3874  function approve(address to, uint256 tokenId) public virtual override {... */\n      pop\n      pop\n      jump\t// out\n        /* \"@openzeppelin/contracts/access/Ownable.sol\":1359:1489  function _checkOwner() internal view virtual {... */\n    tag_160:\n        /* \"@openzeppelin/contracts/access/Ownable.sol\":1273:1279  _owner */\n      sload(0x06)\n      sub(shl(0xa0, 0x01), 0x01)\n      0x0100\n      swap1\n      swap2\n      div\n      and\n        /* \"@openzeppelin/contracts/utils/Context.sol\":719:729  msg.sender */\n      caller\n        /* \"@openzeppelin/contracts/access/Ownable.sol\":1422:1445  owner() == _msgSender() */\n      eq\n        /* \"@openzeppelin/contracts/access/Ownable.sol\":1414:1482  require(owner() == _msgSender(), \"Ownable: caller is not the owner\") */\n      tag_162\n      jumpi\n      mload(0x40)\n      shl(0xe5, 0x461bcd)\n      dup2\n      mstore\n        /* \"#utility.yul\":11366:11368   */\n      0x20\n        /* \"@openzeppelin/contracts/access/Ownable.sol\":1414:1482  require(owner() == _msgSender(), \"Ownable: caller is not the owner\") */\n      0x04\n      dup3\n      add\n        /* \"#utility.yul\":11348:11369   */\n      dup2\n      swap1\n      mstore\n        /* \"#utility.yul\":11385:11403   */\n      0x24\n      dup3\n      add\n        /* \"#utility.yul\":11378:11408   */\n      mstore\n        /* \"#utility.yul\":11444:11478   */\n      0x4f776e61626c653a2063616c6c6572206973206e6f7420746865206f776e6572\n        /* \"#utility.yul\":11424:11442   */\n      0x44\n      dup3\n      add\n        /* \"#utility.yul\":11417:11479   */\n      mstore\n        /* \"#utility.yul\":11496:11514   */\n      0x64\n      add\n        /* \"@openzeppelin/contracts/access/Ownable.sol\":1414:1482  require(owner() == _msgSender(), \"Ownable: caller is not the owner\") */\n      tag_137\n        /* \"#utility.yul\":11164:11520   */\n      jump\n        /* \"@openzeppelin/contracts/security/Pausable.sol\":2433:2550  function _unpause() internal virtual whenPaused {... */\n    tag_163:\n        /* \"@openzeppelin/contracts/security/Pausable.sol\":1486:1502  _requirePaused() */\n      tag_313\n        /* \"@openzeppelin/contracts/security/Pausable.sol\":1486:1500  _requirePaused */\n      tag_314\n        /* \"@openzeppelin/contracts/security/Pausable.sol\":1486:1502  _requirePaused() */\n      jump\t// in\n    tag_313:\n        /* \"@openzeppelin/contracts/security/Pausable.sol\":2491:2498  _paused */\n      0x06\n        /* \"@openzeppelin/contracts/security/Pausable.sol\":2491:2506  _paused = false */\n      dup1\n      sload\n      not(0xff)\n      and\n      swap1\n      sstore\n        /* \"@openzeppelin/contracts/security/Pausable.sol\":2521:2543  Unpaused(_msgSender()) */\n      0x5db9ee0a495bf2e6ff9c91a7834c1ba4fdd244a5e8aa4e537bd38aeae4b073aa\n        /* \"@openzeppelin/contracts/utils/Context.sol\":719:729  msg.sender */\n      caller\n        /* \"@openzeppelin/contracts/security/Pausable.sol\":2530:2542  _msgSender() */\n    tag_316:\n        /* \"@openzeppelin/contracts/security/Pausable.sol\":2521:2543  Unpaused(_msgSender()) */\n      mload(0x40)\n      sub(shl(0xa0, 0x01), 0x01)\n        /* \"#utility.yul\":1697:1729   */\n      swap1\n      swap2\n      and\n        /* \"#utility.yul\":1679:1730   */\n      dup2\n      mstore\n        /* \"#utility.yul\":1667:1669   */\n      0x20\n        /* \"#utility.yul\":1652:1670   */\n      add\n        /* \"@openzeppelin/contracts/security/Pausable.sol\":2521:2543  Unpaused(_msgSender()) */\n      mload(0x40)\n      dup1\n      swap2\n      sub\n      swap1\n      log1\n        /* \"@openzeppelin/contracts/security/Pausable.sol\":2433:2550  function _unpause() internal virtual whenPaused {... */\n      jump\t// out\n        /* \"@openzeppelin/contracts/token/ERC721/ERC721.sol\":7995:8103  function _safeMint(address to, uint256 tokenId) internal virtual {... */\n    tag_172:\n        /* \"@openzeppelin/contracts/token/ERC721/ERC721.sol\":8070:8096  _safeMint(to, tokenId, \"\") */\n      tag_171\n        /* \"@openzeppelin/contracts/token/ERC721/ERC721.sol\":8080:8082  to */\n      dup3\n        /* \"@openzeppelin/contracts/token/ERC721/ERC721.sol\":8084:8091  tokenId */\n      dup3\n        /* \"@openzeppelin/contracts/token/ERC721/ERC721.sol\":8070:8096  _safeMint(to, tokenId, \"\") */\n      mload(0x40)\n      dup1\n      0x20\n      add\n      0x40\n      mstore\n      dup1\n      0x00\n      dup2\n      mstore\n      pop\n        /* \"@openzeppelin/contracts/token/ERC721/ERC721.sol\":8070:8079  _safeMint */\n      tag_322\n        /* \"@openzeppelin/contracts/token/ERC721/ERC721.sol\":8070:8096  _safeMint(to, tokenId, \"\") */\n      jump\t// in\n        /* \"@openzeppelin/contracts/token/ERC721/ERC721.sol\":10171:10933  function _burn(uint256 tokenId) internal virtual {... */\n    tag_181:\n        /* \"@openzeppelin/contracts/token/ERC721/ERC721.sol\":10230:10243  address owner */\n      0x00\n        /* \"@openzeppelin/contracts/token/ERC721/ERC721.sol\":10246:10269  ERC721.ownerOf(tokenId) */\n      tag_324\n        /* \"@openzeppelin/contracts/token/ERC721/ERC721.sol\":10261:10268  tokenId */\n      dup3\n        /* \"@openzeppelin/contracts/token/ERC721/ERC721.sol\":10246:10260  ERC721.ownerOf */\n      tag_75\n        /* \"@openzeppelin/contracts/token/ERC721/ERC721.sol\":10246:10269  ERC721.ownerOf(tokenId) */\n      jump\t// in\n    tag_324:\n        /* \"@openzeppelin/contracts/token/ERC721/ERC721.sol\":10230:10269  address owner = ERC721.ownerOf(tokenId) */\n      swap1\n      pop\n        /* \"@openzeppelin/contracts/token/ERC721/ERC721.sol\":10280:10331  _beforeTokenTransfer(owner, address(0), tokenId, 1) */\n      tag_325\n        /* \"@openzeppelin/contracts/token/ERC721/ERC721.sol\":10301:10306  owner */\n      dup2\n        /* \"@openzeppelin/contracts/token/ERC721/ERC721.sol\":10316:10317  0 */\n      0x00\n        /* \"@openzeppelin/contracts/token/ERC721/ERC721.sol\":10320:10327  tokenId */\n      dup5\n        /* \"@openzeppelin/contracts/token/ERC721/ERC721.sol\":10329:10330  1 */\n      0x01\n        /* \"@openzeppelin/contracts/token/ERC721/ERC721.sol\":10280:10300  _beforeTokenTransfer */\n      tag_300\n        /* \"@openzeppelin/contracts/token/ERC721/ERC721.sol\":10280:10331  _beforeTokenTransfer(owner, address(0), tokenId, 1) */\n      jump\t// in\n    tag_325:\n        /* \"@openzeppelin/contracts/token/ERC721/ERC721.sol\":10441:10464  ERC721.ownerOf(tokenId) */\n      tag_326\n        /* \"@openzeppelin/contracts/token/ERC721/ERC721.sol\":10456:10463  tokenId */\n      dup3\n        /* \"@openzeppelin/contracts/token/ERC721/ERC721.sol\":10441:10455  ERC721.ownerOf */\n      tag_75\n        /* \"@openzeppelin/contracts/token/ERC721/ERC721.sol\":10441:10464  ERC721.ownerOf(tokenId) */\n      jump\t// in\n    tag_326:\n        /* \"@openzeppelin/contracts/token/ERC721/ERC721.sol\":10509:10533  _tokenApprovals[tokenId] */\n      0x00\n      dup4\n      dup2\n      mstore\n        /* \"@openzeppelin/contracts/token/ERC721/ERC721.sol\":10509:10524  _tokenApprovals */\n      0x04\n        /* \"@openzeppelin/contracts/token/ERC721/ERC721.sol\":10509:10533  _tokenApprovals[tokenId] */\n      0x20\n      swap1\n      dup2\n      mstore\n      0x40\n      dup1\n      dup4\n      keccak256\n        /* \"@openzeppelin/contracts/token/ERC721/ERC721.sol\":10502:10533  delete _tokenApprovals[tokenId] */\n      dup1\n      sload\n      not(sub(shl(0xa0, 0x01), 0x01))\n      swap1\n      dup2\n      and\n      swap1\n      swap2\n      sstore\n      sub(shl(0xa0, 0x01), 0x01)\n        /* \"@openzeppelin/contracts/token/ERC721/ERC721.sol\":10749:10765  _balances[owner] */\n      dup6\n      and\n      dup1\n      dup6\n      mstore\n        /* \"@openzeppelin/contracts/token/ERC721/ERC721.sol\":10749:10758  _balances */\n      0x03\n        /* \"@openzeppelin/contracts/token/ERC721/ERC721.sol\":10749:10765  _balances[owner] */\n      dup5\n      mstore\n      dup3\n      dup6\n      keccak256\n        /* \"@openzeppelin/contracts/token/ERC721/ERC721.sol\":10749:10770  _balances[owner] -= 1 */\n      dup1\n      sload\n      not(0x00)\n      add\n      swap1\n      sstore\n        /* \"@openzeppelin/contracts/token/ERC721/ERC721.sol\":10797:10813  _owners[tokenId] */\n      dup8\n      dup6\n      mstore\n        /* \"@openzeppelin/contracts/token/ERC721/ERC721.sol\":10797:10804  _owners */\n      0x02\n        /* \"@openzeppelin/contracts/token/ERC721/ERC721.sol\":10797:10813  _owners[tokenId] */\n      swap1\n      swap4\n      mstore\n      dup2\n      dup5\n      keccak256\n        /* \"@openzeppelin/contracts/token/ERC721/ERC721.sol\":10790:10813  delete _owners[tokenId] */\n      dup1\n      sload\n      swap1\n      swap2\n      and\n      swap1\n      sstore\n        /* \"@openzeppelin/contracts/token/ERC721/ERC721.sol\":10829:10865  Transfer(owner, address(0), tokenId) */\n      mload\n        /* \"@openzeppelin/contracts/token/ERC721/ERC721.sol\":10433:10464  owner = ERC721.ownerOf(tokenId) */\n      swap3\n      swap4\n      pop\n        /* \"@openzeppelin/contracts/token/ERC721/ERC721.sol\":10525:10532  tokenId */\n      dup5\n      swap3\n        /* \"@openzeppelin/contracts/token/ERC721/ERC721.sol\":10829:10865  Transfer(owner, address(0), tokenId) */\n      0xddf252ad1be2c89b69c2b068fc378daa952ba7f163c4a11628f55a4df523b3ef\n      swap1\n        /* \"@openzeppelin/contracts/token/ERC721/ERC721.sol\":10509:10533  _tokenApprovals[tokenId] */\n      dup4\n      swap1\n        /* \"@openzeppelin/contracts/token/ERC721/ERC721.sol\":10829:10865  Transfer(owner, address(0), tokenId) */\n      log4\n        /* \"contracts/charityNFT.sol\":1306:1435  {... */\n      pop\n        /* \"contracts/charityNFT.sol\":1259:1435  function safeMint(address to) public onlyOwner {... */\n      pop\n      jump\t// out\n        /* \"@openzeppelin/contracts/access/Ownable.sol\":2426:2613  function _transferOwnership(address newOwner) internal virtual {... */\n    tag_217:\n        /* \"@openzeppelin/contracts/access/Ownable.sol\":2518:2524  _owner */\n      0x06\n      dup1\n      sload\n      sub(shl(0xa0, 0x01), 0x01)\n        /* \"@openzeppelin/contracts/access/Ownable.sol\":2534:2551  _owner = newOwner */\n      dup4\n      dup2\n      and\n        /* \"@openzeppelin/contracts/access/Ownable.sol\":2518:2524  _owner */\n      0x0100\n        /* \"@openzeppelin/contracts/access/Ownable.sol\":2534:2551  _owner = newOwner */\n      dup2\n      dup2\n      mul\n      not(sub(shl(0xa8, 0x01), 0x0100))\n      dup6\n      and\n      or\n      swap1\n      swap5\n      sstore\n        /* \"@openzeppelin/contracts/access/Ownable.sol\":2566:2606  OwnershipTransferred(oldOwner, newOwner) */\n      mload(0x40)\n        /* \"@openzeppelin/contracts/access/Ownable.sol\":2518:2524  _owner */\n      swap4\n      swap1\n      swap3\n      div\n      and\n      swap2\n      dup3\n      swap1\n        /* \"@openzeppelin/contracts/access/Ownable.sol\":2566:2606  OwnershipTransferred(oldOwner, newOwner) */\n      0x8be0079c531659141344cd1fd0a4f28419497f9722a3daafe3b4186f6b6457e0\n      swap1\n        /* \"@openzeppelin/contracts/access/Ownable.sol\":2499:2515  address oldOwner */\n      0x00\n      swap1\n        /* \"@openzeppelin/contracts/access/Ownable.sol\":2566:2606  OwnershipTransferred(oldOwner, newOwner) */\n      log3\n        /* \"@openzeppelin/contracts/access/Ownable.sol\":2489:2613  {... */\n      pop\n        /* \"@openzeppelin/contracts/access/Ownable.sol\":2426:2613  function _transferOwnership(address newOwner) internal virtual {... */\n      pop\n      jump\t// out\n        /* \"@openzeppelin/contracts/security/Pausable.sol\":2186:2301  function _pause() internal virtual whenNotPaused {... */\n    tag_223:\n        /* \"@openzeppelin/contracts/security/Pausable.sol\":1239:1258  _requireNotPaused() */\n      tag_333\n        /* \"@openzeppelin/contracts/security/Pausable.sol\":1239:1256  _requireNotPaused */\n      tag_334\n        /* \"@openzeppelin/contracts/security/Pausable.sol\":1239:1258  _requireNotPaused() */\n      jump\t// in\n    tag_333:\n        /* \"@openzeppelin/contracts/security/Pausable.sol\":2245:2252  _paused */\n      0x06\n        /* \"@openzeppelin/contracts/security/Pausable.sol\":2245:2259  _paused = true */\n      dup1\n      sload\n      not(0xff)\n      and\n        /* \"@openzeppelin/contracts/security/Pausable.sol\":2255:2259  true */\n      0x01\n        /* \"@openzeppelin/contracts/security/Pausable.sol\":2245:2259  _paused = true */\n      or\n      swap1\n      sstore\n        /* \"@openzeppelin/contracts/security/Pausable.sol\":2274:2294  Paused(_msgSender()) */\n      0x62e78cea01bee320cd4e420270b5ea74000d11b0c9f74754ebdbfc544b05a258\n        /* \"@openzeppelin/contracts/security/Pausable.sol\":2281:2293  _msgSender() */\n      tag_316\n        /* \"@openzeppelin/contracts/utils/Context.sol\":719:729  msg.sender */\n      caller\n      swap1\n        /* \"@openzeppelin/contracts/utils/Context.sol\":640:736  function _msgSender() internal view virtual returns (address) {... */\n      jump\n        /* \"@openzeppelin/contracts/token/ERC721/ERC721.sol\":12879:13156  function _setApprovalForAll(address owner, address operator, bool approved) internal virtual {... */\n    tag_234:\n        /* \"@openzeppelin/contracts/token/ERC721/ERC721.sol\":12999:13007  operator */\n      dup2\n      sub(shl(0xa0, 0x01), 0x01)\n        /* \"@openzeppelin/contracts/token/ERC721/ERC721.sol\":12990:13007  owner != operator */\n      and\n        /* \"@openzeppelin/contracts/token/ERC721/ERC721.sol\":12990:12995  owner */\n      dup4\n      sub(shl(0xa0, 0x01), 0x01)\n        /* \"@openzeppelin/contracts/token/ERC721/ERC721.sol\":12990:13007  owner != operator */\n      and\n      sub\n        /* \"@openzeppelin/contracts/token/ERC721/ERC721.sol\":12982:13037  require(owner != operator, \"ERC721: approve to caller\") */\n      tag_339\n      jumpi\n      mload(0x40)\n      shl(0xe5, 0x461bcd)\n      dup2\n      mstore\n        /* \"#utility.yul\":11727:11729   */\n      0x20\n        /* \"@openzeppelin/contracts/token/ERC721/ERC721.sol\":12982:13037  require(owner != operator, \"ERC721: approve to caller\") */\n      0x04\n      dup3\n      add\n        /* \"#utility.yul\":11709:11730   */\n      mstore\n        /* \"#utility.yul\":11766:11768   */\n      0x19\n        /* \"#utility.yul\":11746:11764   */\n      0x24\n      dup3\n      add\n        /* \"#utility.yul\":11739:11769   */\n      mstore\n        /* \"#utility.yul\":11805:11832   */\n      0x4552433732313a20617070726f766520746f2063616c6c657200000000000000\n        /* \"#utility.yul\":11785:11803   */\n      0x44\n      dup3\n      add\n        /* \"#utility.yul\":11778:11833   */\n      mstore\n        /* \"#utility.yul\":11850:11868   */\n      0x64\n      add\n        /* \"@openzeppelin/contracts/token/ERC721/ERC721.sol\":12982:13037  require(owner != operator, \"ERC721: approve to caller\") */\n      tag_137\n        /* \"#utility.yul\":11525:11874   */\n      jump\n        /* \"@openzeppelin/contracts/token/ERC721/ERC721.sol\":12982:13037  require(owner != operator, \"ERC721: approve to caller\") */\n    tag_339:\n      sub(shl(0xa0, 0x01), 0x01)\n        /* \"@openzeppelin/contracts/token/ERC721/ERC721.sol\":13047:13072  _operatorApprovals[owner] */\n      dup4\n      dup2\n      and\n      0x00\n      dup2\n      dup2\n      mstore\n        /* \"@openzeppelin/contracts/token/ERC721/ERC721.sol\":13047:13065  _operatorApprovals */\n      0x05\n        /* \"@openzeppelin/contracts/token/ERC721/ERC721.sol\":13047:13072  _operatorApprovals[owner] */\n      0x20\n      swap1\n      dup2\n      mstore\n      0x40\n      dup1\n      dup4\n      keccak256\n        /* \"@openzeppelin/contracts/token/ERC721/ERC721.sol\":13047:13082  _operatorApprovals[owner][operator] */\n      swap5\n      dup8\n      and\n      dup1\n      dup5\n      mstore\n      swap5\n      dup3\n      mstore\n      swap2\n      dup3\n      swap1\n      keccak256\n        /* \"@openzeppelin/contracts/token/ERC721/ERC721.sol\":13047:13093  _operatorApprovals[owner][operator] = approved */\n      dup1\n      sload\n      not(0xff)\n      and\n      dup7\n      iszero\n      iszero\n      swap1\n      dup2\n      or\n      swap1\n      swap2\n      sstore\n        /* \"@openzeppelin/contracts/token/ERC721/ERC721.sol\":13108:13149  ApprovalForAll(owner, operator, approved) */\n      swap2\n      mload\n        /* \"#utility.yul\":540:581   */\n      swap2\n      dup3\n      mstore\n        /* \"@openzeppelin/contracts/token/ERC721/ERC721.sol\":13108:13149  ApprovalForAll(owner, operator, approved) */\n      0x17307eab39ab6107e8899845ad3d59bd9653f200f220920489ca2b5937696c31\n      swap2\n        /* \"#utility.yul\":513:531   */\n      add\n        /* \"@openzeppelin/contracts/token/ERC721/ERC721.sol\":13108:13149  ApprovalForAll(owner, operator, approved) */\n      mload(0x40)\n      dup1\n      swap2\n      sub\n      swap1\n      log3\n        /* \"@openzeppelin/contracts/token/ERC721/ERC721.sol\":12879:13156  function _setApprovalForAll(address owner, address operator, bool approved) internal virtual {... */\n      pop\n      pop\n      pop\n      jump\t// out\n        /* \"@openzeppelin/contracts/token/ERC721/ERC721.sol\":6326:6593  function _safeTransfer(address from, address to, uint256 tokenId, bytes memory data) internal virtual {... */\n    tag_241:\n        /* \"@openzeppelin/contracts/token/ERC721/ERC721.sol\":6438:6466  _transfer(from, to, tokenId) */\n      tag_344\n        /* \"@openzeppelin/contracts/token/ERC721/ERC721.sol\":6448:6452  from */\n      dup5\n        /* \"@openzeppelin/contracts/token/ERC721/ERC721.sol\":6454:6456  to */\n      dup5\n        /* \"@openzeppelin/contracts/token/ERC721/ERC721.sol\":6458:6465  tokenId */\n      dup5\n        /* \"@openzeppelin/contracts/token/ERC721/ERC721.sol\":6438:6447  _transfer */\n      tag_157\n        /* \"@openzeppelin/contracts/token/ERC721/ERC721.sol\":6438:6466  _transfer(from, to, tokenId) */\n      jump\t// in\n    tag_344:\n        /* \"@openzeppelin/contracts/token/ERC721/ERC721.sol\":6484:6531  _checkOnERC721Received(from, to, tokenId, data) */\n      tag_345\n        /* \"@openzeppelin/contracts/token/ERC721/ERC721.sol\":6507:6511  from */\n      dup5\n        /* \"@openzeppelin/contracts/token/ERC721/ERC721.sol\":6513:6515  to */\n      dup5\n        /* \"@openzeppelin/contracts/token/ERC721/ERC721.sol\":6517:6524  tokenId */\n      dup5\n        /* \"@openzeppelin/contracts/token/ERC721/ERC721.sol\":6526:6530  data */\n      dup5\n        /* \"@openzeppelin/contracts/token/ERC721/ERC721.sol\":6484:6506  _checkOnERC721Received */\n      tag_346\n        /* \"@openzeppelin/contracts/token/ERC721/ERC721.sol\":6484:6531  _checkOnERC721Received(from, to, tokenId, data) */\n      jump\t// in\n    tag_345:\n        /* \"@openzeppelin/contracts/token/ERC721/ERC721.sol\":6476:6586  require(_checkOnERC721Received(from, to, tokenId, data), \"ERC721: transfer to non ERC721Receiver implementer\") */\n      tag_240\n      jumpi\n      mload(0x40)\n      shl(0xe5, 0x461bcd)\n      dup2\n      mstore\n      0x04\n      add\n      tag_137\n      swap1\n      tag_349\n      jump\t// in\n        /* \"@openzeppelin/contracts/utils/Strings.sol\":447:1143  function toString(uint256 value) internal pure returns (string memory) {... */\n    tag_249:\n        /* \"@openzeppelin/contracts/utils/Strings.sol\":503:516  string memory */\n      0x60\n        /* \"@openzeppelin/contracts/utils/Strings.sol\":552:566  uint256 length */\n      0x00\n        /* \"@openzeppelin/contracts/utils/Strings.sol\":569:586  Math.log10(value) */\n      tag_352\n        /* \"@openzeppelin/contracts/utils/Strings.sol\":580:585  value */\n      dup4\n        /* \"@openzeppelin/contracts/utils/Strings.sol\":569:579  Math.log10 */\n      tag_353\n        /* \"@openzeppelin/contracts/utils/Strings.sol\":569:586  Math.log10(value) */\n      jump\t// in\n    tag_352:\n        /* \"@openzeppelin/contracts/utils/Strings.sol\":589:590  1 */\n      0x01\n        /* \"@openzeppelin/contracts/utils/Strings.sol\":569:590  Math.log10(value) + 1 */\n      add\n        /* \"@openzeppelin/contracts/utils/Strings.sol\":552:590  uint256 length = Math.log10(value) + 1 */\n      swap1\n      pop\n        /* \"@openzeppelin/contracts/utils/Strings.sol\":604:624  string memory buffer */\n      0x00\n        /* \"@openzeppelin/contracts/utils/Strings.sol\":638:644  length */\n      dup2\n        /* \"@openzeppelin/contracts/utils/Strings.sol\":627:645  new string(length) */\n      0xffffffffffffffff\n      dup2\n      gt\n      iszero\n      tag_355\n      jumpi\n      tag_355\n      tag_356\n      jump\t// in\n    tag_355:\n      mload(0x40)\n      swap1\n      dup1\n      dup3\n      mstore\n      dup1\n      0x1f\n      add\n      not(0x1f)\n      and\n      0x20\n      add\n      dup3\n      add\n      0x40\n      mstore\n      dup1\n      iszero\n      tag_357\n      jumpi\n      0x20\n      dup3\n      add\n      dup2\n      dup1\n      calldatasize\n      dup4\n      calldatacopy\n      add\n      swap1\n      pop\n    tag_357:\n      pop\n        /* \"@openzeppelin/contracts/utils/Strings.sol\":604:645  string memory buffer = new string(length) */\n      swap1\n      pop\n        /* \"@openzeppelin/contracts/utils/Strings.sol\":765:793  add(buffer, add(32, length)) */\n      dup2\n      dup2\n      add\n        /* \"@openzeppelin/contracts/utils/Strings.sol\":781:783  32 */\n      0x20\n        /* \"@openzeppelin/contracts/utils/Strings.sol\":765:793  add(buffer, add(32, length)) */\n      add\n        /* \"@openzeppelin/contracts/utils/Strings.sol\":820:1100  while (true) {... */\n    tag_358:\n      not(0x00)\n        /* \"@openzeppelin/contracts/utils/Strings.sol\":851:856  ptr-- */\n      add\n      shl(0x81, 0x181899199a1a9b1b9c1cb0b131b232b3)\n        /* \"@openzeppelin/contracts/utils/Strings.sol\":985:987  10 */\n      0x0a\n        /* \"@openzeppelin/contracts/utils/Strings.sol\":974:988  mod(value, 10) */\n      dup7\n      mod\n        /* \"@openzeppelin/contracts/utils/Strings.sol\":969:999  byte(mod(value, 10), _SYMBOLS) */\n      byte\n        /* \"@openzeppelin/contracts/utils/Strings.sol\":851:856  ptr-- */\n      dup2\n        /* \"@openzeppelin/contracts/utils/Strings.sol\":956:1000  mstore8(ptr, byte(mod(value, 10), _SYMBOLS)) */\n      mstore8\n        /* \"@openzeppelin/contracts/utils/Strings.sol\":1044:1046  10 */\n      0x0a\n        /* \"@openzeppelin/contracts/utils/Strings.sol\":1035:1046  value /= 10 */\n      dup6\n      div\n      swap5\n      pop\n        /* \"@openzeppelin/contracts/utils/Strings.sol\":1064:1085  if (value == 0) break */\n      dup5\n        /* \"@openzeppelin/contracts/utils/Strings.sol\":820:1100  while (true) {... */\n      tag_358\n        /* \"@openzeppelin/contracts/utils/Strings.sol\":1064:1085  if (value == 0) break */\n      jumpi\n      pop\n        /* \"@openzeppelin/contracts/utils/Strings.sol\":1120:1126  buffer */\n      swap4\n        /* \"@openzeppelin/contracts/utils/Strings.sol\":447:1143  function toString(uint256 value) internal pure returns (string memory) {... */\n      swap3\n      pop\n      pop\n      pop\n      jump\t// out\n        /* \"contracts/charityNFT.sol\":1441:1666  function _beforeTokenTransfer(address from, address to, uint256 tokenId, uint256 batchSize)... */\n    tag_300:\n        /* \"@openzeppelin/contracts/security/Pausable.sol\":1239:1258  _requireNotPaused() */\n      tag_365\n        /* \"@openzeppelin/contracts/security/Pausable.sol\":1239:1256  _requireNotPaused */\n      tag_334\n        /* \"@openzeppelin/contracts/security/Pausable.sol\":1239:1258  _requireNotPaused() */\n      jump\t// in\n    tag_365:\n        /* \"contracts/charityNFT.sol\":1603:1659  super._beforeTokenTransfer(from, to, tokenId, batchSize) */\n      tag_240\n        /* \"@openzeppelin/contracts/token/ERC721/ERC721.sol\":5189:5465  function safeTransferFrom(address from, address to, uint256 tokenId, bytes memory data) public virtual override {... */\n      jump\n        /* \"@openzeppelin/contracts/security/Pausable.sol\":1945:2051  function _requirePaused() internal view virtual {... */\n    tag_314:\n        /* \"@openzeppelin/contracts/security/Pausable.sol\":1685:1692  _paused */\n      and(0xff, sload(0x06))\n        /* \"@openzeppelin/contracts/security/Pausable.sol\":2003:2044  require(paused(), \"Pausable: not paused\") */\n      tag_162\n      jumpi\n      mload(0x40)\n      shl(0xe5, 0x461bcd)\n      dup2\n      mstore\n        /* \"#utility.yul\":12632:12634   */\n      0x20\n        /* \"@openzeppelin/contracts/security/Pausable.sol\":2003:2044  require(paused(), \"Pausable: not paused\") */\n      0x04\n      dup3\n      add\n        /* \"#utility.yul\":12614:12635   */\n      mstore\n        /* \"#utility.yul\":12671:12673   */\n      0x14\n        /* \"#utility.yul\":12651:12669   */\n      0x24\n      dup3\n      add\n        /* \"#utility.yul\":12644:12674   */\n      mstore\n      shl(0x62, 0x14185d5cd8589b194e881b9bdd081c185d5cd959)\n        /* \"#utility.yul\":12690:12708   */\n      0x44\n      dup3\n      add\n        /* \"#utility.yul\":12683:12733   */\n      mstore\n        /* \"#utility.yul\":12750:12768   */\n      0x64\n      add\n        /* \"@openzeppelin/contracts/security/Pausable.sol\":2003:2044  require(paused(), \"Pausable: not paused\") */\n      tag_137\n        /* \"#utility.yul\":12430:12774   */\n      jump\n        /* \"@openzeppelin/contracts/token/ERC721/ERC721.sol\":8324:8603  function _safeMint(address to, uint256 tokenId, bytes memory data) internal virtual {... */\n    tag_322:\n        /* \"@openzeppelin/contracts/token/ERC721/ERC721.sol\":8418:8436  _mint(to, tokenId) */\n      tag_376\n        /* \"@openzeppelin/contracts/token/ERC721/ERC721.sol\":8424:8426  to */\n      dup4\n        /* \"@openzeppelin/contracts/token/ERC721/ERC721.sol\":8428:8435  tokenId */\n      dup4\n        /* \"@openzeppelin/contracts/token/ERC721/ERC721.sol\":8418:8423  _mint */\n      tag_377\n        /* \"@openzeppelin/contracts/token/ERC721/ERC721.sol\":8418:8436  _mint(to, tokenId) */\n      jump\t// in\n    tag_376:\n        /* \"@openzeppelin/contracts/token/ERC721/ERC721.sol\":8467:8520  _checkOnERC721Received(address(0), to, tokenId, data) */\n      tag_378\n        /* \"@openzeppelin/contracts/token/ERC721/ERC721.sol\":8498:8499  0 */\n      0x00\n        /* \"@openzeppelin/contracts/token/ERC721/ERC721.sol\":8502:8504  to */\n      dup5\n        /* \"@openzeppelin/contracts/token/ERC721/ERC721.sol\":8506:8513  tokenId */\n      dup5\n        /* \"@openzeppelin/contracts/token/ERC721/ERC721.sol\":8515:8519  data */\n      dup5\n        /* \"@openzeppelin/contracts/token/ERC721/ERC721.sol\":8467:8489  _checkOnERC721Received */\n      tag_346\n        /* \"@openzeppelin/contracts/token/ERC721/ERC721.sol\":8467:8520  _checkOnERC721Received(address(0), to, tokenId, data) */\n      jump\t// in\n    tag_378:\n        /* \"@openzeppelin/contracts/token/ERC721/ERC721.sol\":8446:8596  require(... */\n      tag_147\n      jumpi\n      mload(0x40)\n      shl(0xe5, 0x461bcd)\n      dup2\n      mstore\n      0x04\n      add\n      tag_137\n      swap1\n      tag_349\n      jump\t// in\n        /* \"@openzeppelin/contracts/security/Pausable.sol\":1767:1873  function _requireNotPaused() internal view virtual {... */\n    tag_334:\n        /* \"@openzeppelin/contracts/security/Pausable.sol\":1685:1692  _paused */\n      and(0xff, sload(0x06))\n        /* \"@openzeppelin/contracts/security/Pausable.sol\":1836:1845  !paused() */\n      iszero\n        /* \"@openzeppelin/contracts/security/Pausable.sol\":1828:1866  require(!paused(), \"Pausable: paused\") */\n      tag_162\n      jumpi\n      mload(0x40)\n      shl(0xe5, 0x461bcd)\n      dup2\n      mstore\n        /* \"#utility.yul\":12981:12983   */\n      0x20\n        /* \"@openzeppelin/contracts/security/Pausable.sol\":1828:1866  require(!paused(), \"Pausable: paused\") */\n      0x04\n      dup3\n      add\n        /* \"#utility.yul\":12963:12984   */\n      mstore\n        /* \"#utility.yul\":13020:13022   */\n      0x10\n        /* \"#utility.yul\":13000:13018   */\n      0x24\n      dup3\n      add\n        /* \"#utility.yul\":12993:13023   */\n      mstore\n      shl(0x82, 0x14185d5cd8589b194e881c185d5cd959)\n        /* \"#utility.yul\":13039:13057   */\n      0x44\n      dup3\n      add\n        /* \"#utility.yul\":13032:13078   */\n      mstore\n        /* \"#utility.yul\":13095:13113   */\n      0x64\n      add\n        /* \"@openzeppelin/contracts/security/Pausable.sol\":1828:1866  require(!paused(), \"Pausable: paused\") */\n      tag_137\n        /* \"#utility.yul\":12779:13119   */\n      jump\n        /* \"@openzeppelin/contracts/token/ERC721/ERC721.sol\":13925:14756  function _checkOnERC721Received(... */\n    tag_346:\n        /* \"@openzeppelin/contracts/token/ERC721/ERC721.sol\":14074:14078  bool */\n      0x00\n      sub(shl(0xa0, 0x01), 0x01)\n        /* \"@openzeppelin/contracts/token/ERC721/ERC721.sol\":14094:14107  to.isContract */\n      dup5\n      and\n        /* \"@openzeppelin/contracts/utils/Address.sol\":1702:1721  account.code.length */\n      extcodesize\n        /* \"@openzeppelin/contracts/utils/Address.sol\":1702:1725  account.code.length > 0 */\n      iszero\n        /* \"@openzeppelin/contracts/token/ERC721/ERC721.sol\":14090:14750  if (to.isContract()) {... */\n      tag_389\n      jumpi\n        /* \"@openzeppelin/contracts/token/ERC721/ERC721.sol\":14129:14200  IERC721Receiver(to).onERC721Received(_msgSender(), from, tokenId, data) */\n      mload(0x40)\n      shl(0xe1, 0x0a85bd01)\n      dup2\n      mstore\n      sub(shl(0xa0, 0x01), 0x01)\n        /* \"@openzeppelin/contracts/token/ERC721/ERC721.sol\":14129:14165  IERC721Receiver(to).onERC721Received */\n      dup6\n      and\n      swap1\n      0x150b7a02\n      swap1\n        /* \"@openzeppelin/contracts/token/ERC721/ERC721.sol\":14129:14200  IERC721Receiver(to).onERC721Received(_msgSender(), from, tokenId, data) */\n      tag_391\n      swap1\n        /* \"@openzeppelin/contracts/utils/Context.sol\":719:729  msg.sender */\n      caller\n      swap1\n        /* \"@openzeppelin/contracts/token/ERC721/ERC721.sol\":14180:14184  from */\n      dup10\n      swap1\n        /* \"@openzeppelin/contracts/token/ERC721/ERC721.sol\":14186:14193  tokenId */\n      dup9\n      swap1\n        /* \"@openzeppelin/contracts/token/ERC721/ERC721.sol\":14195:14199  data */\n      dup9\n      swap1\n        /* \"@openzeppelin/contracts/token/ERC721/ERC721.sol\":14129:14200  IERC721Receiver(to).onERC721Received(_msgSender(), from, tokenId, data) */\n      0x04\n      add\n      tag_392\n      jump\t// in\n    tag_391:\n      0x20\n      mload(0x40)\n      dup1\n      dup4\n      sub\n      dup2\n      0x00\n      dup8\n      gas\n      call\n      swap3\n      pop\n      pop\n      pop\n      dup1\n      iszero\n      tag_393\n      jumpi\n      pop\n      0x40\n      dup1\n      mload\n      0x1f\n      returndatasize\n      swap1\n      dup2\n      add\n      not(0x1f)\n      and\n      dup3\n      add\n      swap1\n      swap3\n      mstore\n      tag_394\n      swap2\n      dup2\n      add\n      swap1\n      tag_395\n      jump\t// in\n    tag_394:\n      0x01\n    tag_393:\n        /* \"@openzeppelin/contracts/token/ERC721/ERC721.sol\":14125:14698  try IERC721Receiver(to).onERC721Received(_msgSender(), from, tokenId, data) returns (bytes4 retval) {... */\n      tag_396\n      jumpi\n      returndatasize\n      dup1\n      dup1\n      iszero\n      tag_401\n      jumpi\n      mload(0x40)\n      swap2\n      pop\n      and(add(returndatasize, 0x3f), not(0x1f))\n      dup3\n      add\n      0x40\n      mstore\n      returndatasize\n      dup3\n      mstore\n      returndatasize\n      0x00\n      0x20\n      dup5\n      add\n      returndatacopy\n      jump(tag_400)\n    tag_401:\n      0x60\n      swap2\n      pop\n    tag_400:\n      pop\n        /* \"@openzeppelin/contracts/token/ERC721/ERC721.sol\":14367:14373  reason */\n      dup1\n        /* \"@openzeppelin/contracts/token/ERC721/ERC721.sol\":14367:14380  reason.length */\n      mload\n        /* \"@openzeppelin/contracts/token/ERC721/ERC721.sol\":14384:14385  0 */\n      0x00\n        /* \"@openzeppelin/contracts/token/ERC721/ERC721.sol\":14367:14385  reason.length == 0 */\n      sub\n        /* \"@openzeppelin/contracts/token/ERC721/ERC721.sol\":14363:14684  if (reason.length == 0) {... */\n      tag_402\n      jumpi\n        /* \"@openzeppelin/contracts/token/ERC721/ERC721.sol\":14409:14469  revert(\"ERC721: transfer to non ERC721Receiver implementer\") */\n      mload(0x40)\n      shl(0xe5, 0x461bcd)\n      dup2\n      mstore\n      0x04\n      add\n      tag_137\n      swap1\n      tag_349\n      jump\t// in\n        /* \"@openzeppelin/contracts/token/ERC721/ERC721.sol\":14363:14684  if (reason.length == 0) {... */\n    tag_402:\n        /* \"@openzeppelin/contracts/token/ERC721/ERC721.sol\":14636:14642  reason */\n      dup1\n        /* \"@openzeppelin/contracts/token/ERC721/ERC721.sol\":14630:14643  mload(reason) */\n      mload\n        /* \"@openzeppelin/contracts/token/ERC721/ERC721.sol\":14621:14627  reason */\n      dup2\n        /* \"@openzeppelin/contracts/token/ERC721/ERC721.sol\":14617:14619  32 */\n      0x20\n        /* \"@openzeppelin/contracts/token/ERC721/ERC721.sol\":14613:14628  add(32, reason) */\n      add\n        /* \"@openzeppelin/contracts/token/ERC721/ERC721.sol\":14606:14644  revert(add(32, reason), mload(reason)) */\n      revert\n        /* \"@openzeppelin/contracts/token/ERC721/ERC721.sol\":14125:14698  try IERC721Receiver(to).onERC721Received(_msgSender(), from, tokenId, data) returns (bytes4 retval) {... */\n    tag_396:\n      not(sub(shl(0xe0, 0x01), 0x01))\n        /* \"@openzeppelin/contracts/token/ERC721/ERC721.sol\":14250:14301  retval == IERC721Receiver.onERC721Received.selector */\n      and\n      shl(0xe1, 0x0a85bd01)\n      eq\n      swap1\n      pop\n        /* \"@openzeppelin/contracts/token/ERC721/ERC721.sol\":14243:14301  return retval == IERC721Receiver.onERC721Received.selector */\n      jump(tag_289)\n        /* \"@openzeppelin/contracts/token/ERC721/ERC721.sol\":14090:14750  if (to.isContract()) {... */\n    tag_389:\n      pop\n        /* \"@openzeppelin/contracts/token/ERC721/ERC721.sol\":14735:14739  true */\n      0x01\n        /* \"@openzeppelin/contracts/token/ERC721/ERC721.sol\":13925:14756  function _checkOnERC721Received(... */\n      swap5\n      swap4\n      pop\n      pop\n      pop\n      pop\n      jump\t// out\n        /* \"@openzeppelin/contracts/utils/math/Math.sol\":10139:11055  function log10(uint256 value) internal pure returns (uint256) {... */\n    tag_353:\n        /* \"@openzeppelin/contracts/utils/math/Math.sol\":10192:10199  uint256 */\n      0x00\n      dup1\n      shl(0x40, 0x184f03e93ff9f4daa797ed6e38ed64bf6a1f01)\n        /* \"@openzeppelin/contracts/utils/math/Math.sol\":10267:10284  value >= 10 ** 64 */\n      dup4\n      lt\n        /* \"@openzeppelin/contracts/utils/math/Math.sol\":10263:10366  if (value >= 10 ** 64) {... */\n      tag_408\n      jumpi\n      shl(0x40, 0x184f03e93ff9f4daa797ed6e38ed64bf6a1f01)\n        /* \"@openzeppelin/contracts/utils/math/Math.sol\":10304:10321  value /= 10 ** 64 */\n      dup4\n      div\n      swap3\n      pop\n        /* \"@openzeppelin/contracts/utils/math/Math.sol\":10349:10351  64 */\n      0x40\n        /* \"@openzeppelin/contracts/utils/math/Math.sol\":10339:10351  result += 64 */\n      add\n        /* \"@openzeppelin/contracts/utils/math/Math.sol\":10263:10366  if (value >= 10 ** 64) {... */\n    tag_408:\n        /* \"@openzeppelin/contracts/utils/math/Math.sol\":10392:10400  10 ** 32 */\n      0x04ee2d6d415b85acef8100000000\n        /* \"@openzeppelin/contracts/utils/math/Math.sol\":10383:10388  value */\n      dup4\n        /* \"@openzeppelin/contracts/utils/math/Math.sol\":10383:10400  value >= 10 ** 32 */\n      lt\n        /* \"@openzeppelin/contracts/utils/math/Math.sol\":10379:10482  if (value >= 10 ** 32) {... */\n      tag_411\n      jumpi\n        /* \"@openzeppelin/contracts/utils/math/Math.sol\":10429:10437  10 ** 32 */\n      0x04ee2d6d415b85acef8100000000\n        /* \"@openzeppelin/contracts/utils/math/Math.sol\":10420:10437  value /= 10 ** 32 */\n      dup4\n      div\n      swap3\n      pop\n        /* \"@openzeppelin/contracts/utils/math/Math.sol\":10465:10467  32 */\n      0x20\n        /* \"@openzeppelin/contracts/utils/math/Math.sol\":10455:10467  result += 32 */\n      add\n        /* \"@openzeppelin/contracts/utils/math/Math.sol\":10379:10482  if (value >= 10 ** 32) {... */\n    tag_411:\n        /* \"@openzeppelin/contracts/utils/math/Math.sol\":10508:10516  10 ** 16 */\n      0x2386f26fc10000\n        /* \"@openzeppelin/contracts/utils/math/Math.sol\":10499:10504  value */\n      dup4\n        /* \"@openzeppelin/contracts/utils/math/Math.sol\":10499:10516  value >= 10 ** 16 */\n      lt\n        /* \"@openzeppelin/contracts/utils/math/Math.sol\":10495:10598  if (value >= 10 ** 16) {... */\n      tag_414\n      jumpi\n        /* \"@openzeppelin/contracts/utils/math/Math.sol\":10545:10553  10 ** 16 */\n      0x2386f26fc10000\n        /* \"@openzeppelin/contracts/utils/math/Math.sol\":10536:10553  value /= 10 ** 16 */\n      dup4\n      div\n      swap3\n      pop\n        /* \"@openzeppelin/contracts/utils/math/Math.sol\":10581:10583  16 */\n      0x10\n        /* \"@openzeppelin/contracts/utils/math/Math.sol\":10571:10583  result += 16 */\n      add\n        /* \"@openzeppelin/contracts/utils/math/Math.sol\":10495:10598  if (value >= 10 ** 16) {... */\n    tag_414:\n        /* \"@openzeppelin/contracts/utils/math/Math.sol\":10624:10631  10 ** 8 */\n      0x05f5e100\n        /* \"@openzeppelin/contracts/utils/math/Math.sol\":10615:10620  value */\n      dup4\n        /* \"@openzeppelin/contracts/utils/math/Math.sol\":10615:10631  value >= 10 ** 8 */\n      lt\n        /* \"@openzeppelin/contracts/utils/math/Math.sol\":10611:10711  if (value >= 10 ** 8) {... */\n      tag_417\n      jumpi\n        /* \"@openzeppelin/contracts/utils/math/Math.sol\":10660:10667  10 ** 8 */\n      0x05f5e100\n        /* \"@openzeppelin/contracts/utils/math/Math.sol\":10651:10667  value /= 10 ** 8 */\n      dup4\n      div\n      swap3\n      pop\n        /* \"@openzeppelin/contracts/utils/math/Math.sol\":10695:10696  8 */\n      0x08\n        /* \"@openzeppelin/contracts/utils/math/Math.sol\":10685:10696  result += 8 */\n      add\n        /* \"@openzeppelin/contracts/utils/math/Math.sol\":10611:10711  if (value >= 10 ** 8) {... */\n    tag_417:\n        /* \"@openzeppelin/contracts/utils/math/Math.sol\":10737:10744  10 ** 4 */\n      0x2710\n        /* \"@openzeppelin/contracts/utils/math/Math.sol\":10728:10733  value */\n      dup4\n        /* \"@openzeppelin/contracts/utils/math/Math.sol\":10728:10744  value >= 10 ** 4 */\n      lt\n        /* \"@openzeppelin/contracts/utils/math/Math.sol\":10724:10824  if (value >= 10 ** 4) {... */\n      tag_420\n      jumpi\n        /* \"@openzeppelin/contracts/utils/math/Math.sol\":10773:10780  10 ** 4 */\n      0x2710\n        /* \"@openzeppelin/contracts/utils/math/Math.sol\":10764:10780  value /= 10 ** 4 */\n      dup4\n      div\n      swap3\n      pop\n        /* \"@openzeppelin/contracts/utils/math/Math.sol\":10808:10809  4 */\n      0x04\n        /* \"@openzeppelin/contracts/utils/math/Math.sol\":10798:10809  result += 4 */\n      add\n        /* \"@openzeppelin/contracts/utils/math/Math.sol\":10724:10824  if (value >= 10 ** 4) {... */\n    tag_420:\n        /* \"@openzeppelin/contracts/utils/math/Math.sol\":10850:10857  10 ** 2 */\n      0x64\n        /* \"@openzeppelin/contracts/utils/math/Math.sol\":10841:10846  value */\n      dup4\n        /* \"@openzeppelin/contracts/utils/math/Math.sol\":10841:10857  value >= 10 ** 2 */\n      lt\n        /* \"@openzeppelin/contracts/utils/math/Math.sol\":10837:10937  if (value >= 10 ** 2) {... */\n      tag_423\n      jumpi\n        /* \"@openzeppelin/contracts/utils/math/Math.sol\":10886:10893  10 ** 2 */\n      0x64\n        /* \"@openzeppelin/contracts/utils/math/Math.sol\":10877:10893  value /= 10 ** 2 */\n      dup4\n      div\n      swap3\n      pop\n        /* \"@openzeppelin/contracts/utils/math/Math.sol\":10921:10922  2 */\n      0x02\n        /* \"@openzeppelin/contracts/utils/math/Math.sol\":10911:10922  result += 2 */\n      add\n        /* \"@openzeppelin/contracts/utils/math/Math.sol\":10837:10937  if (value >= 10 ** 2) {... */\n    tag_423:\n        /* \"@openzeppelin/contracts/utils/math/Math.sol\":10963:10970  10 ** 1 */\n      0x0a\n        /* \"@openzeppelin/contracts/utils/math/Math.sol\":10954:10959  value */\n      dup4\n        /* \"@openzeppelin/contracts/utils/math/Math.sol\":10954:10970  value >= 10 ** 1 */\n      lt\n        /* \"@openzeppelin/contracts/utils/math/Math.sol\":10950:11016  if (value >= 10 ** 1) {... */\n      tag_122\n      jumpi\n        /* \"@openzeppelin/contracts/utils/math/Math.sol\":11000:11001  1 */\n      0x01\n        /* \"@openzeppelin/contracts/utils/math/Math.sol\":10990:11001  result += 1 */\n      add\n        /* \"@openzeppelin/contracts/utils/math/Math.sol\":11042:11048  result */\n      swap3\n        /* \"@openzeppelin/contracts/utils/math/Math.sol\":10139:11055  function log10(uint256 value) internal pure returns (uint256) {... */\n      swap2\n      pop\n      pop\n      jump\t// out\n        /* \"@openzeppelin/contracts/token/ERC721/ERC721.sol\":8925:9845  function _mint(address to, uint256 tokenId) internal virtual {... */\n    tag_377:\n      sub(shl(0xa0, 0x01), 0x01)\n        /* \"@openzeppelin/contracts/token/ERC721/ERC721.sol\":9004:9020  to != address(0) */\n      dup3\n      and\n        /* \"@openzeppelin/contracts/token/ERC721/ERC721.sol\":8996:9057  require(to != address(0), \"ERC721: mint to the zero address\") */\n      tag_429\n      jumpi\n      mload(0x40)\n      shl(0xe5, 0x461bcd)\n      dup2\n      mstore\n        /* \"#utility.yul\":14074:14076   */\n      0x20\n        /* \"@openzeppelin/contracts/token/ERC721/ERC721.sol\":8996:9057  require(to != address(0), \"ERC721: mint to the zero address\") */\n      0x04\n      dup3\n      add\n        /* \"#utility.yul\":14056:14077   */\n      dup2\n      swap1\n      mstore\n        /* \"#utility.yul\":14093:14111   */\n      0x24\n      dup3\n      add\n        /* \"#utility.yul\":14086:14116   */\n      mstore\n        /* \"#utility.yul\":14152:14186   */\n      0x4552433732313a206d696e7420746f20746865207a65726f2061646472657373\n        /* \"#utility.yul\":14132:14150   */\n      0x44\n      dup3\n      add\n        /* \"#utility.yul\":14125:14187   */\n      mstore\n        /* \"#utility.yul\":14204:14222   */\n      0x64\n      add\n        /* \"@openzeppelin/contracts/token/ERC721/ERC721.sol\":8996:9057  require(to != address(0), \"ERC721: mint to the zero address\") */\n      tag_137\n        /* \"#utility.yul\":13872:14228   */\n      jump\n        /* \"@openzeppelin/contracts/token/ERC721/ERC721.sol\":8996:9057  require(to != address(0), \"ERC721: mint to the zero address\") */\n    tag_429:\n        /* \"@openzeppelin/contracts/token/ERC721/ERC721.sol\":7185:7189  bool */\n      0x00\n        /* \"@openzeppelin/contracts/token/ERC721/ERC721.sol\":6794:6810  _owners[tokenId] */\n      dup2\n      dup2\n      mstore\n        /* \"@openzeppelin/contracts/token/ERC721/ERC721.sol\":6794:6801  _owners */\n      0x02\n        /* \"@openzeppelin/contracts/token/ERC721/ERC721.sol\":6794:6810  _owners[tokenId] */\n      0x20\n      mstore\n      0x40\n      swap1\n      keccak256\n      sload\n      sub(shl(0xa0, 0x01), 0x01)\n      and\n        /* \"@openzeppelin/contracts/token/ERC721/ERC721.sol\":7208:7239  _ownerOf(tokenId) != address(0) */\n      iszero\n        /* \"@openzeppelin/contracts/token/ERC721/ERC721.sol\":9067:9125  require(!_exists(tokenId), \"ERC721: token already minted\") */\n      tag_433\n      jumpi\n      mload(0x40)\n      shl(0xe5, 0x461bcd)\n      dup2\n      mstore\n        /* \"#utility.yul\":14435:14437   */\n      0x20\n        /* \"@openzeppelin/contracts/token/ERC721/ERC721.sol\":9067:9125  require(!_exists(tokenId), \"ERC721: token already minted\") */\n      0x04\n      dup3\n      add\n        /* \"#utility.yul\":14417:14438   */\n      mstore\n        /* \"#utility.yul\":14474:14476   */\n      0x1c\n        /* \"#utility.yul\":14454:14472   */\n      0x24\n      dup3\n      add\n        /* \"#utility.yul\":14447:14477   */\n      mstore\n        /* \"#utility.yul\":14513:14543   */\n      0x4552433732313a20746f6b656e20616c7265616479206d696e74656400000000\n        /* \"#utility.yul\":14493:14511   */\n      0x44\n      dup3\n      add\n        /* \"#utility.yul\":14486:14544   */\n      mstore\n        /* \"#utility.yul\":14561:14579   */\n      0x64\n      add\n        /* \"@openzeppelin/contracts/token/ERC721/ERC721.sol\":9067:9125  require(!_exists(tokenId), \"ERC721: token already minted\") */\n      tag_137\n        /* \"#utility.yul\":14233:14585   */\n      jump\n        /* \"@openzeppelin/contracts/token/ERC721/ERC721.sol\":9067:9125  require(!_exists(tokenId), \"ERC721: token already minted\") */\n    tag_433:\n        /* \"@openzeppelin/contracts/token/ERC721/ERC721.sol\":9136:9184  _beforeTokenTransfer(address(0), to, tokenId, 1) */\n      tag_436\n        /* \"@openzeppelin/contracts/token/ERC721/ERC721.sol\":9165:9166  0 */\n      0x00\n        /* \"@openzeppelin/contracts/token/ERC721/ERC721.sol\":9169:9171  to */\n      dup4\n        /* \"@openzeppelin/contracts/token/ERC721/ERC721.sol\":9173:9180  tokenId */\n      dup4\n        /* \"@openzeppelin/contracts/token/ERC721/ERC721.sol\":9182:9183  1 */\n      0x01\n        /* \"@openzeppelin/contracts/token/ERC721/ERC721.sol\":9136:9156  _beforeTokenTransfer */\n      tag_300\n        /* \"@openzeppelin/contracts/token/ERC721/ERC721.sol\":9136:9184  _beforeTokenTransfer(address(0), to, tokenId, 1) */\n      jump\t// in\n    tag_436:\n        /* \"@openzeppelin/contracts/token/ERC721/ERC721.sol\":7185:7189  bool */\n      0x00\n        /* \"@openzeppelin/contracts/token/ERC721/ERC721.sol\":6794:6810  _owners[tokenId] */\n      dup2\n      dup2\n      mstore\n        /* \"@openzeppelin/contracts/token/ERC721/ERC721.sol\":6794:6801  _owners */\n      0x02\n        /* \"@openzeppelin/contracts/token/ERC721/ERC721.sol\":6794:6810  _owners[tokenId] */\n      0x20\n      mstore\n      0x40\n      swap1\n      keccak256\n      sload\n      sub(shl(0xa0, 0x01), 0x01)\n      and\n        /* \"@openzeppelin/contracts/token/ERC721/ERC721.sol\":7208:7239  _ownerOf(tokenId) != address(0) */\n      iszero\n        /* \"@openzeppelin/contracts/token/ERC721/ERC721.sol\":9271:9329  require(!_exists(tokenId), \"ERC721: token already minted\") */\n      tag_438\n      jumpi\n      mload(0x40)\n      shl(0xe5, 0x461bcd)\n      dup2\n      mstore\n        /* \"#utility.yul\":14435:14437   */\n      0x20\n        /* \"@openzeppelin/contracts/token/ERC721/ERC721.sol\":9271:9329  require(!_exists(tokenId), \"ERC721: token already minted\") */\n      0x04\n      dup3\n      add\n        /* \"#utility.yul\":14417:14438   */\n      mstore\n        /* \"#utility.yul\":14474:14476   */\n      0x1c\n        /* \"#utility.yul\":14454:14472   */\n      0x24\n      dup3\n      add\n        /* \"#utility.yul\":14447:14477   */\n      mstore\n        /* \"#utility.yul\":14513:14543   */\n      0x4552433732313a20746f6b656e20616c7265616479206d696e74656400000000\n        /* \"#utility.yul\":14493:14511   */\n      0x44\n      dup3\n      add\n        /* \"#utility.yul\":14486:14544   */\n      mstore\n        /* \"#utility.yul\":14561:14579   */\n      0x64\n      add\n        /* \"@openzeppelin/contracts/token/ERC721/ERC721.sol\":9271:9329  require(!_exists(tokenId), \"ERC721: token already minted\") */\n      tag_137\n        /* \"#utility.yul\":14233:14585   */\n      jump\n        /* \"@openzeppelin/contracts/token/ERC721/ERC721.sol\":9271:9329  require(!_exists(tokenId), \"ERC721: token already minted\") */\n    tag_438:\n      sub(shl(0xa0, 0x01), 0x01)\n        /* \"@openzeppelin/contracts/token/ERC721/ERC721.sol\":9671:9684  _balances[to] */\n      dup3\n      and\n      0x00\n      dup2\n      dup2\n      mstore\n        /* \"@openzeppelin/contracts/token/ERC721/ERC721.sol\":9671:9680  _balances */\n      0x03\n        /* \"@openzeppelin/contracts/token/ERC721/ERC721.sol\":9671:9684  _balances[to] */\n      0x20\n      swap1\n      dup2\n      mstore\n      0x40\n      dup1\n      dup4\n      keccak256\n        /* \"@openzeppelin/contracts/token/ERC721/ERC721.sol\":9671:9689  _balances[to] += 1 */\n      dup1\n      sload\n        /* \"@openzeppelin/contracts/token/ERC721/ERC721.sol\":9688:9689  1 */\n      0x01\n        /* \"@openzeppelin/contracts/token/ERC721/ERC721.sol\":9671:9689  _balances[to] += 1 */\n      add\n      swap1\n      sstore\n        /* \"@openzeppelin/contracts/token/ERC721/ERC721.sol\":9710:9726  _owners[tokenId] */\n      dup5\n      dup4\n      mstore\n        /* \"@openzeppelin/contracts/token/ERC721/ERC721.sol\":9710:9717  _owners */\n      0x02\n        /* \"@openzeppelin/contracts/token/ERC721/ERC721.sol\":9710:9726  _owners[tokenId] */\n      swap1\n      swap2\n      mstore\n      dup1\n      dup3\n      keccak256\n        /* \"@openzeppelin/contracts/token/ERC721/ERC721.sol\":9710:9731  _owners[tokenId] = to */\n      dup1\n      sload\n      not(sub(shl(0xa0, 0x01), 0x01))\n      and\n      dup5\n      or\n      swap1\n      sstore\n        /* \"@openzeppelin/contracts/token/ERC721/ERC721.sol\":9747:9780  Transfer(address(0), to, tokenId) */\n      mload\n        /* \"@openzeppelin/contracts/token/ERC721/ERC721.sol\":9718:9725  tokenId */\n      dup4\n      swap3\n        /* \"@openzeppelin/contracts/token/ERC721/ERC721.sol\":9671:9684  _balances[to] */\n      swap2\n      swap1\n        /* \"@openzeppelin/contracts/token/ERC721/ERC721.sol\":9747:9780  Transfer(address(0), to, tokenId) */\n      0xddf252ad1be2c89b69c2b068fc378daa952ba7f163c4a11628f55a4df523b3ef\n      swap1\n        /* \"@openzeppelin/contracts/token/ERC721/ERC721.sol\":9671:9684  _balances[to] */\n      dup3\n      swap1\n        /* \"@openzeppelin/contracts/token/ERC721/ERC721.sol\":9747:9780  Transfer(address(0), to, tokenId) */\n      log4\n        /* \"contracts/charityNFT.sol\":1306:1435  {... */\n      pop\n        /* \"contracts/charityNFT.sol\":1259:1435  function safeMint(address to) public onlyOwner {... */\n      pop\n      jump\t// out\n        /* \"#utility.yul\":14:145   */\n    tag_442:\n      not(sub(shl(0xe0, 0x01), 0x01))\n        /* \"#utility.yul\":88:120   */\n      dup2\n      and\n        /* \"#utility.yul\":78:121   */\n      dup2\n      eq\n        /* \"#utility.yul\":68:139   */\n      tag_180\n      jumpi\n        /* \"#utility.yul\":135:136   */\n      0x00\n        /* \"#utility.yul\":132:133   */\n      dup1\n        /* \"#utility.yul\":125:137   */\n      revert\n        /* \"#utility.yul\":150:395   */\n    tag_32:\n        /* \"#utility.yul\":208:214   */\n      0x00\n        /* \"#utility.yul\":261:263   */\n      0x20\n        /* \"#utility.yul\":249:258   */\n      dup3\n        /* \"#utility.yul\":240:247   */\n      dup5\n        /* \"#utility.yul\":236:259   */\n      sub\n        /* \"#utility.yul\":232:264   */\n      slt\n        /* \"#utility.yul\":229:281   */\n      iszero\n      tag_450\n      jumpi\n        /* \"#utility.yul\":277:278   */\n      0x00\n        /* \"#utility.yul\":274:275   */\n      dup1\n        /* \"#utility.yul\":267:279   */\n      revert\n        /* \"#utility.yul\":229:281   */\n    tag_450:\n        /* \"#utility.yul\":316:325   */\n      dup2\n        /* \"#utility.yul\":303:326   */\n      calldataload\n        /* \"#utility.yul\":335:365   */\n      tag_247\n        /* \"#utility.yul\":359:364   */\n      dup2\n        /* \"#utility.yul\":335:365   */\n      tag_442\n      jump\t// in\n        /* \"#utility.yul\":592:842   */\n    tag_443:\n        /* \"#utility.yul\":677:678   */\n      0x00\n        /* \"#utility.yul\":687:800   */\n    tag_454:\n        /* \"#utility.yul\":701:707   */\n      dup4\n        /* \"#utility.yul\":698:699   */\n      dup2\n        /* \"#utility.yul\":695:708   */\n      lt\n        /* \"#utility.yul\":687:800   */\n      iszero\n      tag_456\n      jumpi\n        /* \"#utility.yul\":777:788   */\n      dup2\n      dup2\n      add\n        /* \"#utility.yul\":771:789   */\n      mload\n        /* \"#utility.yul\":758:769   */\n      dup4\n      dup3\n      add\n        /* \"#utility.yul\":751:790   */\n      mstore\n        /* \"#utility.yul\":723:725   */\n      0x20\n        /* \"#utility.yul\":716:726   */\n      add\n        /* \"#utility.yul\":687:800   */\n      jump(tag_454)\n    tag_456:\n      pop\n      pop\n        /* \"#utility.yul\":834:835   */\n      0x00\n        /* \"#utility.yul\":816:832   */\n      swap2\n      add\n        /* \"#utility.yul\":809:836   */\n      mstore\n        /* \"#utility.yul\":592:842   */\n      jump\t// out\n        /* \"#utility.yul\":847:1118   */\n    tag_444:\n        /* \"#utility.yul\":889:892   */\n      0x00\n        /* \"#utility.yul\":927:932   */\n      dup2\n        /* \"#utility.yul\":921:933   */\n      mload\n        /* \"#utility.yul\":954:960   */\n      dup1\n        /* \"#utility.yul\":949:952   */\n      dup5\n        /* \"#utility.yul\":942:961   */\n      mstore\n        /* \"#utility.yul\":970:1046   */\n      tag_458\n        /* \"#utility.yul\":1039:1045   */\n      dup2\n        /* \"#utility.yul\":1032:1036   */\n      0x20\n        /* \"#utility.yul\":1027:1030   */\n      dup7\n        /* \"#utility.yul\":1023:1037   */\n      add\n        /* \"#utility.yul\":1016:1020   */\n      0x20\n        /* \"#utility.yul\":1009:1014   */\n      dup7\n        /* \"#utility.yul\":1005:1021   */\n      add\n        /* \"#utility.yul\":970:1046   */\n      tag_443\n      jump\t// in\n    tag_458:\n        /* \"#utility.yul\":1100:1102   */\n      0x1f\n        /* \"#utility.yul\":1079:1094   */\n      add\n      not(0x1f)\n        /* \"#utility.yul\":1075:1104   */\n      and\n        /* \"#utility.yul\":1066:1105   */\n      swap3\n      swap1\n      swap3\n      add\n        /* \"#utility.yul\":1107:1111   */\n      0x20\n        /* \"#utility.yul\":1062:1112   */\n      add\n      swap3\n        /* \"#utility.yul\":847:1118   */\n      swap2\n      pop\n      pop\n      jump\t// out\n        /* \"#utility.yul\":1123:1343   */\n    tag_39:\n        /* \"#utility.yul\":1272:1274   */\n      0x20\n        /* \"#utility.yul\":1261:1270   */\n      dup2\n        /* \"#utility.yul\":1254:1275   */\n      mstore\n        /* \"#utility.yul\":1235:1239   */\n      0x00\n        /* \"#utility.yul\":1292:1337   */\n      tag_247\n        /* \"#utility.yul\":1333:1335   */\n      0x20\n        /* \"#utility.yul\":1322:1331   */\n      dup4\n        /* \"#utility.yul\":1318:1336   */\n      add\n        /* \"#utility.yul\":1310:1316   */\n      dup5\n        /* \"#utility.yul\":1292:1337   */\n      tag_444\n      jump\t// in\n        /* \"#utility.yul\":1348:1528   */\n    tag_42:\n        /* \"#utility.yul\":1407:1413   */\n      0x00\n        /* \"#utility.yul\":1460:1462   */\n      0x20\n        /* \"#utility.yul\":1448:1457   */\n      dup3\n        /* \"#utility.yul\":1439:1446   */\n      dup5\n        /* \"#utility.yul\":1435:1458   */\n      sub\n        /* \"#utility.yul\":1431:1463   */\n      slt\n        /* \"#utility.yul\":1428:1480   */\n      iszero\n      tag_462\n      jumpi\n        /* \"#utility.yul\":1476:1477   */\n      0x00\n        /* \"#utility.yul\":1473:1474   */\n      dup1\n        /* \"#utility.yul\":1466:1478   */\n      revert\n        /* \"#utility.yul\":1428:1480   */\n    tag_462:\n      pop\n        /* \"#utility.yul\":1499:1522   */\n      calldataload\n      swap2\n        /* \"#utility.yul\":1348:1528   */\n      swap1\n      pop\n      jump\t// out\n        /* \"#utility.yul\":1741:1914   */\n    tag_445:\n        /* \"#utility.yul\":1809:1829   */\n      dup1\n      calldataload\n      sub(shl(0xa0, 0x01), 0x01)\n        /* \"#utility.yul\":1858:1889   */\n      dup2\n      and\n        /* \"#utility.yul\":1848:1890   */\n      dup2\n      eq\n        /* \"#utility.yul\":1838:1908   */\n      tag_465\n      jumpi\n        /* \"#utility.yul\":1904:1905   */\n      0x00\n        /* \"#utility.yul\":1901:1902   */\n      dup1\n        /* \"#utility.yul\":1894:1906   */\n      revert\n        /* \"#utility.yul\":1838:1908   */\n    tag_465:\n        /* \"#utility.yul\":1741:1914   */\n      swap2\n      swap1\n      pop\n      jump\t// out\n        /* \"#utility.yul\":1919:2173   */\n    tag_48:\n        /* \"#utility.yul\":1987:1993   */\n      0x00\n        /* \"#utility.yul\":1995:2001   */\n      dup1\n        /* \"#utility.yul\":2048:2050   */\n      0x40\n        /* \"#utility.yul\":2036:2045   */\n      dup4\n        /* \"#utility.yul\":2027:2034   */\n      dup6\n        /* \"#utility.yul\":2023:2046   */\n      sub\n        /* \"#utility.yul\":2019:2051   */\n      slt\n        /* \"#utility.yul\":2016:2068   */\n      iszero\n      tag_467\n      jumpi\n        /* \"#utility.yul\":2064:2065   */\n      0x00\n        /* \"#utility.yul\":2061:2062   */\n      dup1\n        /* \"#utility.yul\":2054:2066   */\n      revert\n        /* \"#utility.yul\":2016:2068   */\n    tag_467:\n        /* \"#utility.yul\":2087:2116   */\n      tag_468\n        /* \"#utility.yul\":2106:2115   */\n      dup4\n        /* \"#utility.yul\":2087:2116   */\n      tag_445\n      jump\t// in\n    tag_468:\n        /* \"#utility.yul\":2077:2116   */\n      swap5\n        /* \"#utility.yul\":2163:2165   */\n      0x20\n        /* \"#utility.yul\":2148:2166   */\n      swap4\n      swap1\n      swap4\n      add\n        /* \"#utility.yul\":2135:2167   */\n      calldataload\n      swap4\n      pop\n      pop\n      pop\n        /* \"#utility.yul\":1919:2173   */\n      jump\t// out\n        /* \"#utility.yul\":2178:2506   */\n    tag_52:\n        /* \"#utility.yul\":2255:2261   */\n      0x00\n        /* \"#utility.yul\":2263:2269   */\n      dup1\n        /* \"#utility.yul\":2271:2277   */\n      0x00\n        /* \"#utility.yul\":2324:2326   */\n      0x60\n        /* \"#utility.yul\":2312:2321   */\n      dup5\n        /* \"#utility.yul\":2303:2310   */\n      dup7\n        /* \"#utility.yul\":2299:2322   */\n      sub\n        /* \"#utility.yul\":2295:2327   */\n      slt\n        /* \"#utility.yul\":2292:2344   */\n      iszero\n      tag_470\n      jumpi\n        /* \"#utility.yul\":2340:2341   */\n      0x00\n        /* \"#utility.yul\":2337:2338   */\n      dup1\n        /* \"#utility.yul\":2330:2342   */\n      revert\n        /* \"#utility.yul\":2292:2344   */\n    tag_470:\n        /* \"#utility.yul\":2363:2392   */\n      tag_471\n        /* \"#utility.yul\":2382:2391   */\n      dup5\n        /* \"#utility.yul\":2363:2392   */\n      tag_445\n      jump\t// in\n    tag_471:\n        /* \"#utility.yul\":2353:2392   */\n      swap3\n      pop\n        /* \"#utility.yul\":2411:2449   */\n      tag_472\n        /* \"#utility.yul\":2445:2447   */\n      0x20\n        /* \"#utility.yul\":2434:2443   */\n      dup6\n        /* \"#utility.yul\":2430:2448   */\n      add\n        /* \"#utility.yul\":2411:2449   */\n      tag_445\n      jump\t// in\n    tag_472:\n        /* \"#utility.yul\":2401:2449   */\n      swap2\n      pop\n        /* \"#utility.yul\":2496:2498   */\n      0x40\n        /* \"#utility.yul\":2485:2494   */\n      dup5\n        /* \"#utility.yul\":2481:2499   */\n      add\n        /* \"#utility.yul\":2468:2500   */\n      calldataload\n        /* \"#utility.yul\":2458:2500   */\n      swap1\n      pop\n        /* \"#utility.yul\":2178:2506   */\n      swap3\n      pop\n      swap3\n      pop\n      swap3\n      jump\t// out\n        /* \"#utility.yul\":2511:2697   */\n    tag_58:\n        /* \"#utility.yul\":2570:2576   */\n      0x00\n        /* \"#utility.yul\":2623:2625   */\n      0x20\n        /* \"#utility.yul\":2611:2620   */\n      dup3\n        /* \"#utility.yul\":2602:2609   */\n      dup5\n        /* \"#utility.yul\":2598:2621   */\n      sub\n        /* \"#utility.yul\":2594:2626   */\n      slt\n        /* \"#utility.yul\":2591:2643   */\n      iszero\n      tag_474\n      jumpi\n        /* \"#utility.yul\":2639:2640   */\n      0x00\n        /* \"#utility.yul\":2636:2637   */\n      dup1\n        /* \"#utility.yul\":2629:2641   */\n      revert\n        /* \"#utility.yul\":2591:2643   */\n    tag_474:\n        /* \"#utility.yul\":2662:2691   */\n      tag_247\n        /* \"#utility.yul\":2681:2690   */\n      dup3\n        /* \"#utility.yul\":2662:2691   */\n      tag_445\n      jump\t// in\n        /* \"#utility.yul\":2702:2950   */\n    tag_68:\n        /* \"#utility.yul\":2770:2776   */\n      0x00\n        /* \"#utility.yul\":2778:2784   */\n      dup1\n        /* \"#utility.yul\":2831:2833   */\n      0x40\n        /* \"#utility.yul\":2819:2828   */\n      dup4\n        /* \"#utility.yul\":2810:2817   */\n      dup6\n        /* \"#utility.yul\":2806:2829   */\n      sub\n        /* \"#utility.yul\":2802:2834   */\n      slt\n        /* \"#utility.yul\":2799:2851   */\n      iszero\n      tag_477\n      jumpi\n        /* \"#utility.yul\":2847:2848   */\n      0x00\n        /* \"#utility.yul\":2844:2845   */\n      dup1\n        /* \"#utility.yul\":2837:2849   */\n      revert\n        /* \"#utility.yul\":2799:2851   */\n    tag_477:\n      pop\n      pop\n        /* \"#utility.yul\":2870:2893   */\n      dup1\n      calldataload\n      swap3\n        /* \"#utility.yul\":2940:2942   */\n      0x20\n        /* \"#utility.yul\":2925:2943   */\n      swap1\n      swap2\n      add\n        /* \"#utility.yul\":2912:2944   */\n      calldataload\n      swap2\n      pop\n        /* \"#utility.yul\":2702:2950   */\n      jump\t// out\n        /* \"#utility.yul\":3137:3484   */\n    tag_98:\n        /* \"#utility.yul\":3202:3208   */\n      0x00\n        /* \"#utility.yul\":3210:3216   */\n      dup1\n        /* \"#utility.yul\":3263:3265   */\n      0x40\n        /* \"#utility.yul\":3251:3260   */\n      dup4\n        /* \"#utility.yul\":3242:3249   */\n      dup6\n        /* \"#utility.yul\":3238:3261   */\n      sub\n        /* \"#utility.yul\":3234:3266   */\n      slt\n        /* \"#utility.yul\":3231:3283   */\n      iszero\n      tag_480\n      jumpi\n        /* \"#utility.yul\":3279:3280   */\n      0x00\n        /* \"#utility.yul\":3276:3277   */\n      dup1\n        /* \"#utility.yul\":3269:3281   */\n      revert\n        /* \"#utility.yul\":3231:3283   */\n    tag_480:\n        /* \"#utility.yul\":3302:3331   */\n      tag_481\n        /* \"#utility.yul\":3321:3330   */\n      dup4\n        /* \"#utility.yul\":3302:3331   */\n      tag_445\n      jump\t// in\n    tag_481:\n        /* \"#utility.yul\":3292:3331   */\n      swap2\n      pop\n        /* \"#utility.yul\":3381:3383   */\n      0x20\n        /* \"#utility.yul\":3370:3379   */\n      dup4\n        /* \"#utility.yul\":3366:3384   */\n      add\n        /* \"#utility.yul\":3353:3385   */\n      calldataload\n        /* \"#utility.yul\":3428:3433   */\n      dup1\n        /* \"#utility.yul\":3421:3434   */\n      iszero\n        /* \"#utility.yul\":3414:3435   */\n      iszero\n        /* \"#utility.yul\":3407:3412   */\n      dup2\n        /* \"#utility.yul\":3404:3436   */\n      eq\n        /* \"#utility.yul\":3394:3454   */\n      tag_482\n      jumpi\n        /* \"#utility.yul\":3450:3451   */\n      0x00\n        /* \"#utility.yul\":3447:3448   */\n      dup1\n        /* \"#utility.yul\":3440:3452   */\n      revert\n        /* \"#utility.yul\":3394:3454   */\n    tag_482:\n        /* \"#utility.yul\":3473:3478   */\n      dup1\n        /* \"#utility.yul\":3463:3478   */\n      swap2\n      pop\n      pop\n        /* \"#utility.yul\":3137:3484   */\n      swap3\n      pop\n      swap3\n      swap1\n      pop\n      jump\t// out\n        /* \"#utility.yul\":3489:3616   */\n    tag_356:\n        /* \"#utility.yul\":3550:3560   */\n      0x4e487b71\n        /* \"#utility.yul\":3545:3548   */\n      0xe0\n        /* \"#utility.yul\":3541:3561   */\n      shl\n        /* \"#utility.yul\":3538:3539   */\n      0x00\n        /* \"#utility.yul\":3531:3562   */\n      mstore\n        /* \"#utility.yul\":3581:3585   */\n      0x41\n        /* \"#utility.yul\":3578:3579   */\n      0x04\n        /* \"#utility.yul\":3571:3586   */\n      mstore\n        /* \"#utility.yul\":3605:3609   */\n      0x24\n        /* \"#utility.yul\":3602:3603   */\n      0x00\n        /* \"#utility.yul\":3595:3610   */\n      revert\n        /* \"#utility.yul\":3621:4759   */\n    tag_102:\n        /* \"#utility.yul\":3716:3722   */\n      0x00\n        /* \"#utility.yul\":3724:3730   */\n      dup1\n        /* \"#utility.yul\":3732:3738   */\n      0x00\n        /* \"#utility.yul\":3740:3746   */\n      dup1\n        /* \"#utility.yul\":3793:3796   */\n      0x80\n        /* \"#utility.yul\":3781:3790   */\n      dup6\n        /* \"#utility.yul\":3772:3779   */\n      dup8\n        /* \"#utility.yul\":3768:3791   */\n      sub\n        /* \"#utility.yul\":3764:3797   */\n      slt\n        /* \"#utility.yul\":3761:3814   */\n      iszero\n      tag_485\n      jumpi\n        /* \"#utility.yul\":3810:3811   */\n      0x00\n        /* \"#utility.yul\":3807:3808   */\n      dup1\n        /* \"#utility.yul\":3800:3812   */\n      revert\n        /* \"#utility.yul\":3761:3814   */\n    tag_485:\n        /* \"#utility.yul\":3833:3862   */\n      tag_486\n        /* \"#utility.yul\":3852:3861   */\n      dup6\n        /* \"#utility.yul\":3833:3862   */\n      tag_445\n      jump\t// in\n    tag_486:\n        /* \"#utility.yul\":3823:3862   */\n      swap4\n      pop\n        /* \"#utility.yul\":3881:3919   */\n      tag_487\n        /* \"#utility.yul\":3915:3917   */\n      0x20\n        /* \"#utility.yul\":3904:3913   */\n      dup7\n        /* \"#utility.yul\":3900:3918   */\n      add\n        /* \"#utility.yul\":3881:3919   */\n      tag_445\n      jump\t// in\n    tag_487:\n        /* \"#utility.yul\":3871:3919   */\n      swap3\n      pop\n        /* \"#utility.yul\":3966:3968   */\n      0x40\n        /* \"#utility.yul\":3955:3964   */\n      dup6\n        /* \"#utility.yul\":3951:3969   */\n      add\n        /* \"#utility.yul\":3938:3970   */\n      calldataload\n        /* \"#utility.yul\":3928:3970   */\n      swap2\n      pop\n        /* \"#utility.yul\":4021:4023   */\n      0x60\n        /* \"#utility.yul\":4010:4019   */\n      dup6\n        /* \"#utility.yul\":4006:4024   */\n      add\n        /* \"#utility.yul\":3993:4025   */\n      calldataload\n        /* \"#utility.yul\":4044:4062   */\n      0xffffffffffffffff\n        /* \"#utility.yul\":4085:4087   */\n      dup1\n        /* \"#utility.yul\":4077:4083   */\n      dup3\n        /* \"#utility.yul\":4074:4088   */\n      gt\n        /* \"#utility.yul\":4071:4105   */\n      iszero\n      tag_488\n      jumpi\n        /* \"#utility.yul\":4101:4102   */\n      0x00\n        /* \"#utility.yul\":4098:4099   */\n      dup1\n        /* \"#utility.yul\":4091:4103   */\n      revert\n        /* \"#utility.yul\":4071:4105   */\n    tag_488:\n        /* \"#utility.yul\":4139:4145   */\n      dup2\n        /* \"#utility.yul\":4128:4137   */\n      dup8\n        /* \"#utility.yul\":4124:4146   */\n      add\n        /* \"#utility.yul\":4114:4146   */\n      swap2\n      pop\n        /* \"#utility.yul\":4184:4191   */\n      dup8\n        /* \"#utility.yul\":4177:4181   */\n      0x1f\n        /* \"#utility.yul\":4173:4175   */\n      dup4\n        /* \"#utility.yul\":4169:4182   */\n      add\n        /* \"#utility.yul\":4165:4192   */\n      slt\n        /* \"#utility.yul\":4155:4210   */\n      tag_489\n      jumpi\n        /* \"#utility.yul\":4206:4207   */\n      0x00\n        /* \"#utility.yul\":4203:4204   */\n      dup1\n        /* \"#utility.yul\":4196:4208   */\n      revert\n        /* \"#utility.yul\":4155:4210   */\n    tag_489:\n        /* \"#utility.yul\":4242:4244   */\n      dup2\n        /* \"#utility.yul\":4229:4245   */\n      calldataload\n        /* \"#utility.yul\":4264:4266   */\n      dup2\n        /* \"#utility.yul\":4260:4262   */\n      dup2\n        /* \"#utility.yul\":4257:4267   */\n      gt\n        /* \"#utility.yul\":4254:4290   */\n      iszero\n      tag_491\n      jumpi\n        /* \"#utility.yul\":4270:4288   */\n      tag_491\n      tag_356\n      jump\t// in\n    tag_491:\n        /* \"#utility.yul\":4345:4347   */\n      0x40\n        /* \"#utility.yul\":4339:4348   */\n      mload\n        /* \"#utility.yul\":4313:4315   */\n      0x1f\n        /* \"#utility.yul\":4399:4412   */\n      dup3\n      add\n      not(0x1f)\n        /* \"#utility.yul\":4395:4417   */\n      swap1\n      dup2\n      and\n        /* \"#utility.yul\":4419:4421   */\n      0x3f\n        /* \"#utility.yul\":4391:4422   */\n      add\n        /* \"#utility.yul\":4387:4427   */\n      and\n        /* \"#utility.yul\":4375:4428   */\n      dup2\n      add\n      swap1\n        /* \"#utility.yul\":4443:4461   */\n      dup4\n      dup3\n      gt\n        /* \"#utility.yul\":4463:4485   */\n      dup2\n      dup4\n      lt\n        /* \"#utility.yul\":4440:4486   */\n      or\n        /* \"#utility.yul\":4437:4509   */\n      iszero\n      tag_493\n      jumpi\n        /* \"#utility.yul\":4489:4507   */\n      tag_493\n      tag_356\n      jump\t// in\n    tag_493:\n        /* \"#utility.yul\":4529:4539   */\n      dup2\n        /* \"#utility.yul\":4525:4527   */\n      0x40\n        /* \"#utility.yul\":4518:4540   */\n      mstore\n        /* \"#utility.yul\":4564:4566   */\n      dup3\n        /* \"#utility.yul\":4556:4562   */\n      dup2\n        /* \"#utility.yul\":4549:4567   */\n      mstore\n        /* \"#utility.yul\":4604:4611   */\n      dup11\n        /* \"#utility.yul\":4599:4601   */\n      0x20\n        /* \"#utility.yul\":4594:4596   */\n      dup5\n        /* \"#utility.yul\":4590:4592   */\n      dup8\n        /* \"#utility.yul\":4586:4597   */\n      add\n        /* \"#utility.yul\":4582:4602   */\n      add\n        /* \"#utility.yul\":4579:4612   */\n      gt\n        /* \"#utility.yul\":4576:4629   */\n      iszero\n      tag_494\n      jumpi\n        /* \"#utility.yul\":4625:4626   */\n      0x00\n        /* \"#utility.yul\":4622:4623   */\n      dup1\n        /* \"#utility.yul\":4615:4627   */\n      revert\n        /* \"#utility.yul\":4576:4629   */\n    tag_494:\n        /* \"#utility.yul\":4681:4683   */\n      dup3\n        /* \"#utility.yul\":4676:4678   */\n      0x20\n        /* \"#utility.yul\":4672:4674   */\n      dup7\n        /* \"#utility.yul\":4668:4679   */\n      add\n        /* \"#utility.yul\":4663:4665   */\n      0x20\n        /* \"#utility.yul\":4655:4661   */\n      dup4\n        /* \"#utility.yul\":4651:4666   */\n      add\n        /* \"#utility.yul\":4638:4684   */\n      calldatacopy\n        /* \"#utility.yul\":4726:4727   */\n      0x00\n        /* \"#utility.yul\":4721:4723   */\n      0x20\n        /* \"#utility.yul\":4716:4718   */\n      dup5\n        /* \"#utility.yul\":4708:4714   */\n      dup4\n        /* \"#utility.yul\":4704:4719   */\n      add\n        /* \"#utility.yul\":4700:4724   */\n      add\n        /* \"#utility.yul\":4693:4728   */\n      mstore\n        /* \"#utility.yul\":4747:4753   */\n      dup1\n        /* \"#utility.yul\":4737:4753   */\n      swap6\n      pop\n      pop\n      pop\n      pop\n      pop\n      pop\n        /* \"#utility.yul\":3621:4759   */\n      swap3\n      swap6\n      swap2\n      swap5\n      pop\n      swap3\n      pop\n      jump\t// out\n        /* \"#utility.yul\":4764:5024   */\n    tag_110:\n        /* \"#utility.yul\":4832:4838   */\n      0x00\n        /* \"#utility.yul\":4840:4846   */\n      dup1\n        /* \"#utility.yul\":4893:4895   */\n      0x40\n        /* \"#utility.yul\":4881:4890   */\n      dup4\n        /* \"#utility.yul\":4872:4879   */\n      dup6\n        /* \"#utility.yul\":4868:4891   */\n      sub\n        /* \"#utility.yul\":4864:4896   */\n      slt\n        /* \"#utility.yul\":4861:4913   */\n      iszero\n      tag_496\n      jumpi\n        /* \"#utility.yul\":4909:4910   */\n      0x00\n        /* \"#utility.yul\":4906:4907   */\n      dup1\n        /* \"#utility.yul\":4899:4911   */\n      revert\n        /* \"#utility.yul\":4861:4913   */\n    tag_496:\n        /* \"#utility.yul\":4932:4961   */\n      tag_497\n        /* \"#utility.yul\":4951:4960   */\n      dup4\n        /* \"#utility.yul\":4932:4961   */\n      tag_445\n      jump\t// in\n    tag_497:\n        /* \"#utility.yul\":4922:4961   */\n      swap2\n      pop\n        /* \"#utility.yul\":4980:5018   */\n      tag_498\n        /* \"#utility.yul\":5014:5016   */\n      0x20\n        /* \"#utility.yul\":5003:5012   */\n      dup5\n        /* \"#utility.yul\":4999:5017   */\n      add\n        /* \"#utility.yul\":4980:5018   */\n      tag_445\n      jump\t// in\n    tag_498:\n        /* \"#utility.yul\":4970:5018   */\n      swap1\n      pop\n        /* \"#utility.yul\":4764:5024   */\n      swap3\n      pop\n      swap3\n      swap1\n      pop\n      jump\t// out\n        /* \"#utility.yul\":5029:5409   */\n    tag_126:\n        /* \"#utility.yul\":5108:5109   */\n      0x01\n        /* \"#utility.yul\":5104:5116   */\n      dup2\n      dup2\n      shr\n      swap1\n        /* \"#utility.yul\":5151:5163   */\n      dup3\n      and\n      dup1\n        /* \"#utility.yul\":5172:5233   */\n      tag_500\n      jumpi\n        /* \"#utility.yul\":5226:5230   */\n      0x7f\n        /* \"#utility.yul\":5218:5224   */\n      dup3\n        /* \"#utility.yul\":5214:5231   */\n      and\n        /* \"#utility.yul\":5204:5231   */\n      swap2\n      pop\n        /* \"#utility.yul\":5172:5233   */\n    tag_500:\n        /* \"#utility.yul\":5279:5281   */\n      0x20\n        /* \"#utility.yul\":5271:5277   */\n      dup3\n        /* \"#utility.yul\":5268:5282   */\n      lt\n        /* \"#utility.yul\":5248:5266   */\n      dup2\n        /* \"#utility.yul\":5245:5283   */\n      sub\n        /* \"#utility.yul\":5242:5403   */\n      tag_501\n      jumpi\n        /* \"#utility.yul\":5325:5335   */\n      0x4e487b71\n        /* \"#utility.yul\":5320:5323   */\n      0xe0\n        /* \"#utility.yul\":5316:5336   */\n      shl\n        /* \"#utility.yul\":5313:5314   */\n      0x00\n        /* \"#utility.yul\":5306:5337   */\n      mstore\n        /* \"#utility.yul\":5360:5364   */\n      0x22\n        /* \"#utility.yul\":5357:5358   */\n      0x04\n        /* \"#utility.yul\":5350:5365   */\n      mstore\n        /* \"#utility.yul\":5388:5392   */\n      0x24\n        /* \"#utility.yul\":5385:5386   */\n      0x00\n        /* \"#utility.yul\":5378:5393   */\n      revert\n        /* \"#utility.yul\":5242:5403   */\n    tag_501:\n      pop\n        /* \"#utility.yul\":5029:5409   */\n      swap2\n      swap1\n      pop\n      jump\t// out\n        /* \"#utility.yul\":6246:6655   */\n    tag_155:\n        /* \"#utility.yul\":6448:6450   */\n      0x20\n        /* \"#utility.yul\":6430:6451   */\n      dup1\n      dup3\n      mstore\n        /* \"#utility.yul\":6487:6489   */\n      0x2d\n        /* \"#utility.yul\":6467:6485   */\n      swap1\n      dup3\n      add\n        /* \"#utility.yul\":6460:6490   */\n      mstore\n        /* \"#utility.yul\":6526:6560   */\n      0x4552433732313a2063616c6c6572206973206e6f7420746f6b656e206f776e65\n        /* \"#utility.yul\":6521:6523   */\n      0x40\n        /* \"#utility.yul\":6506:6524   */\n      dup3\n      add\n        /* \"#utility.yul\":6499:6561   */\n      mstore\n      shl(0x9a, 0x1c881bdc88185c1c1c9bdd9959)\n        /* \"#utility.yul\":6592:6594   */\n      0x60\n        /* \"#utility.yul\":6577:6595   */\n      dup3\n      add\n        /* \"#utility.yul\":6570:6613   */\n      mstore\n        /* \"#utility.yul\":6645:6648   */\n      0x80\n        /* \"#utility.yul\":6630:6649   */\n      add\n      swap1\n        /* \"#utility.yul\":6246:6655   */\n      jump\t// out\n        /* \"#utility.yul\":7005:7132   */\n    tag_192:\n        /* \"#utility.yul\":7066:7076   */\n      0x4e487b71\n        /* \"#utility.yul\":7061:7064   */\n      0xe0\n        /* \"#utility.yul\":7057:7077   */\n      shl\n        /* \"#utility.yul\":7054:7055   */\n      0x00\n        /* \"#utility.yul\":7047:7078   */\n      mstore\n        /* \"#utility.yul\":7097:7101   */\n      0x21\n        /* \"#utility.yul\":7094:7095   */\n      0x04\n        /* \"#utility.yul\":7087:7102   */\n      mstore\n        /* \"#utility.yul\":7121:7125   */\n      0x24\n        /* \"#utility.yul\":7118:7119   */\n      0x00\n        /* \"#utility.yul\":7111:7126   */\n      revert\n        /* \"#utility.yul\":7495:7760   */\n    tag_199:\n        /* \"#utility.yul\":7568:7577   */\n      dup1\n      dup3\n      mul\n        /* \"#utility.yul\":7599:7608   */\n      dup2\n      iszero\n        /* \"#utility.yul\":7616:7631   */\n      dup3\n      dup3\n      div\n        /* \"#utility.yul\":7610:7632   */\n      dup5\n      eq\n        /* \"#utility.yul\":7596:7633   */\n      or\n        /* \"#utility.yul\":7586:7754   */\n      tag_122\n      jumpi\n        /* \"#utility.yul\":7676:7686   */\n      0x4e487b71\n        /* \"#utility.yul\":7671:7674   */\n      0xe0\n        /* \"#utility.yul\":7667:7687   */\n      shl\n        /* \"#utility.yul\":7664:7665   */\n      0x00\n        /* \"#utility.yul\":7657:7688   */\n      mstore\n        /* \"#utility.yul\":7711:7715   */\n      0x11\n        /* \"#utility.yul\":7708:7709   */\n      0x04\n        /* \"#utility.yul\":7701:7716   */\n      mstore\n        /* \"#utility.yul\":7739:7743   */\n      0x24\n        /* \"#utility.yul\":7736:7737   */\n      0x00\n        /* \"#utility.yul\":7729:7744   */\n      revert\n        /* \"#utility.yul\":9018:9514   */\n    tag_251:\n        /* \"#utility.yul\":9197:9200   */\n      0x00\n        /* \"#utility.yul\":9235:9241   */\n      dup4\n        /* \"#utility.yul\":9229:9242   */\n      mload\n        /* \"#utility.yul\":9251:9317   */\n      tag_514\n        /* \"#utility.yul\":9310:9316   */\n      dup2\n        /* \"#utility.yul\":9305:9308   */\n      dup5\n        /* \"#utility.yul\":9298:9302   */\n      0x20\n        /* \"#utility.yul\":9290:9296   */\n      dup9\n        /* \"#utility.yul\":9286:9303   */\n      add\n        /* \"#utility.yul\":9251:9317   */\n      tag_443\n      jump\t// in\n    tag_514:\n        /* \"#utility.yul\":9380:9393   */\n      dup4\n      mload\n        /* \"#utility.yul\":9339:9355   */\n      swap1\n      dup4\n      add\n      swap1\n        /* \"#utility.yul\":9402:9472   */\n      tag_515\n        /* \"#utility.yul\":9380:9393   */\n      dup2\n        /* \"#utility.yul\":9339:9355   */\n      dup4\n        /* \"#utility.yul\":9449:9453   */\n      0x20\n        /* \"#utility.yul\":9437:9454   */\n      dup9\n      add\n        /* \"#utility.yul\":9402:9472   */\n      tag_443\n      jump\t// in\n    tag_515:\n        /* \"#utility.yul\":9488:9508   */\n      add\n      swap5\n        /* \"#utility.yul\":9018:9514   */\n      swap4\n      pop\n      pop\n      pop\n      pop\n      jump\t// out\n        /* \"#utility.yul\":10353:10754   */\n    tag_295:\n        /* \"#utility.yul\":10555:10557   */\n      0x20\n        /* \"#utility.yul\":10537:10558   */\n      dup1\n      dup3\n      mstore\n        /* \"#utility.yul\":10594:10596   */\n      0x25\n        /* \"#utility.yul\":10574:10592   */\n      swap1\n      dup3\n      add\n        /* \"#utility.yul\":10567:10597   */\n      mstore\n        /* \"#utility.yul\":10633:10667   */\n      0x4552433732313a207472616e736665722066726f6d20696e636f727265637420\n        /* \"#utility.yul\":10628:10630   */\n      0x40\n        /* \"#utility.yul\":10613:10631   */\n      dup3\n      add\n        /* \"#utility.yul\":10606:10668   */\n      mstore\n      shl(0xd9, 0x37bbb732b9)\n        /* \"#utility.yul\":10699:10701   */\n      0x60\n        /* \"#utility.yul\":10684:10702   */\n      dup3\n      add\n        /* \"#utility.yul\":10677:10712   */\n      mstore\n        /* \"#utility.yul\":10744:10747   */\n      0x80\n        /* \"#utility.yul\":10729:10748   */\n      add\n      swap1\n        /* \"#utility.yul\":10353:10754   */\n      jump\t// out\n        /* \"#utility.yul\":11879:12293   */\n    tag_349:\n        /* \"#utility.yul\":12081:12083   */\n      0x20\n        /* \"#utility.yul\":12063:12084   */\n      dup1\n      dup3\n      mstore\n        /* \"#utility.yul\":12120:12122   */\n      0x32\n        /* \"#utility.yul\":12100:12118   */\n      swap1\n      dup3\n      add\n        /* \"#utility.yul\":12093:12123   */\n      mstore\n        /* \"#utility.yul\":12159:12193   */\n      0x4552433732313a207472616e7366657220746f206e6f6e204552433732315265\n        /* \"#utility.yul\":12154:12156   */\n      0x40\n        /* \"#utility.yul\":12139:12157   */\n      dup3\n      add\n        /* \"#utility.yul\":12132:12194   */\n      mstore\n      shl(0x71, 0x31b2b4bb32b91034b6b83632b6b2b73a32b9)\n        /* \"#utility.yul\":12225:12227   */\n      0x60\n        /* \"#utility.yul\":12210:12228   */\n      dup3\n      add\n        /* \"#utility.yul\":12203:12251   */\n      mstore\n        /* \"#utility.yul\":12283:12286   */\n      0x80\n        /* \"#utility.yul\":12268:12287   */\n      add\n      swap1\n        /* \"#utility.yul\":11879:12293   */\n      jump\t// out\n        /* \"#utility.yul\":13124:13613   */\n    tag_392:\n      sub(shl(0xa0, 0x01), 0x01)\n        /* \"#utility.yul\":13393:13408   */\n      dup6\n      dup2\n      and\n        /* \"#utility.yul\":13375:13409   */\n      dup3\n      mstore\n        /* \"#utility.yul\":13445:13460   */\n      dup5\n      and\n        /* \"#utility.yul\":13440:13442   */\n      0x20\n        /* \"#utility.yul\":13425:13443   */\n      dup3\n      add\n        /* \"#utility.yul\":13418:13461   */\n      mstore\n        /* \"#utility.yul\":13492:13494   */\n      0x40\n        /* \"#utility.yul\":13477:13495   */\n      dup2\n      add\n        /* \"#utility.yul\":13470:13504   */\n      dup4\n      swap1\n      mstore\n        /* \"#utility.yul\":13540:13543   */\n      0x80\n        /* \"#utility.yul\":13535:13537   */\n      0x60\n        /* \"#utility.yul\":13520:13538   */\n      dup3\n      add\n        /* \"#utility.yul\":13513:13544   */\n      dup2\n      swap1\n      mstore\n        /* \"#utility.yul\":13318:13322   */\n      0x00\n      swap1\n        /* \"#utility.yul\":13561:13607   */\n      tag_527\n      swap1\n        /* \"#utility.yul\":13587:13606   */\n      dup4\n      add\n        /* \"#utility.yul\":13579:13585   */\n      dup5\n        /* \"#utility.yul\":13561:13607   */\n      tag_444\n      jump\t// in\n    tag_527:\n        /* \"#utility.yul\":13553:13607   */\n      swap7\n        /* \"#utility.yul\":13124:13613   */\n      swap6\n      pop\n      pop\n      pop\n      pop\n      pop\n      pop\n      jump\t// out\n        /* \"#utility.yul\":13618:13867   */\n    tag_395:\n        /* \"#utility.yul\":13687:13693   */\n      0x00\n        /* \"#utility.yul\":13740:13742   */\n      0x20\n        /* \"#utility.yul\":13728:13737   */\n      dup3\n        /* \"#utility.yul\":13719:13726   */\n      dup5\n        /* \"#utility.yul\":13715:13738   */\n      sub\n        /* \"#utility.yul\":13711:13743   */\n      slt\n        /* \"#utility.yul\":13708:13760   */\n      iszero\n      tag_529\n      jumpi\n        /* \"#utility.yul\":13756:13757   */\n      0x00\n        /* \"#utility.yul\":13753:13754   */\n      dup1\n        /* \"#utility.yul\":13746:13758   */\n      revert\n        /* \"#utility.yul\":13708:13760   */\n    tag_529:\n        /* \"#utility.yul\":13788:13797   */\n      dup2\n        /* \"#utility.yul\":13782:13798   */\n      mload\n        /* \"#utility.yul\":13807:13837   */\n      tag_247\n        /* \"#utility.yul\":13831:13836   */\n      dup2\n        /* \"#utility.yul\":13807:13837   */\n      tag_442\n      jump\t// in\n\n    auxdata: 0xa26469706673582212206d41e4aae1b845e2283ae2c30d8d8a363fc7f9ae6e2ada960a529d39f0f5a1e964736f6c63430008120033\n}\n",
				"bytecode": {
					"linkReferences": {},
					"object": "60806040523480156200001157600080fd5b506040518060400160405280600c81526020016b21b430b934ba3caa37b5b2b760a11b8152506040518060400160405280600581526020016421a42a25a760d91b815250816000908162000066919062000192565b50600162000075828262000192565b50506006805460ff19169055506200008d3362000093565b6200025e565b600680546001600160a01b03838116610100818102610100600160a81b031985161790945560405193909204169182907f8be0079c531659141344cd1fd0a4f28419497f9722a3daafe3b4186f6b6457e090600090a35050565b634e487b7160e01b600052604160045260246000fd5b600181811c908216806200011857607f821691505b6020821081036200013957634e487b7160e01b600052602260045260246000fd5b50919050565b601f8211156200018d57600081815260208120601f850160051c81016020861015620001685750805b601f850160051c820191505b81811015620001895782815560010162000174565b5050505b505050565b81516001600160401b03811115620001ae57620001ae620000ed565b620001c681620001bf845462000103565b846200013f565b602080601f831160018114620001fe5760008415620001e55750858301515b600019600386901b1c1916600185901b17855562000189565b600085815260208120601f198616915b828110156200022f578886015182559484019460019091019084016200020e565b50858210156200024e5787850151600019600388901b60f8161c191681555b5050505050600190811b01905550565b611ac5806200026e6000396000f3fe608060405234801561001057600080fd5b50600436106101585760003560e01c806370a08231116100c3578063a22cb4651161007c578063a22cb465146102ce578063b88d4fde146102e1578063c87b56dd146102f4578063e985e9c514610307578063eec5f9f01461031a578063f2fde38b1461032d57600080fd5b806370a082311461025f578063715018a6146102805780637bf0989a146102885780638456cb59146102a85780638da5cb5b146102b057806395d89b41146102c657600080fd5b806340d097c31161011557806340d097c3146101f557806342842e0e1461020857806342966c681461021b5780634ac0123d1461022e5780635c975abb146102415780636352211e1461024c57600080fd5b806301ffc9a71461015d57806306fdde0314610185578063081812fc1461019a578063095ea7b3146101c557806323b872dd146101da5780633f4ba83a146101ed575b600080fd5b61017061016b3660046115f4565b610340565b60405190151581526020015b60405180910390f35b61018d610392565b60405161017c9190611661565b6101ad6101a8366004611674565b610424565b6040516001600160a01b03909116815260200161017c565b6101d86101d33660046116a9565b61044b565b005b6101d86101e83660046116d3565b610565565b6101d8610597565b6101d861020336600461170f565b6105a9565b6101d86102163660046116d3565b6105da565b6101d8610229366004611674565b6105f5565b6101d861023c36600461172a565b610626565b60065460ff16610170565b6101ad61025a366004611674565b610786565b61027261026d36600461170f565b6107e6565b60405190815260200161017c565b6101d861086c565b610272610296366004611674565b60009081526008602052604090205490565b6101d861087e565b60065461010090046001600160a01b03166101ad565b61018d61088e565b6101d86102dc36600461174c565b61089d565b6101d86102ef36600461179e565b6108a8565b61018d610302366004611674565b6108e0565b61017061031536600461187a565b610954565b6101d861032836600461172a565b610982565b6101d861033b36600461170f565b610af0565b60006001600160e01b031982166380ac58cd60e01b148061037157506001600160e01b03198216635b5e139f60e01b145b8061038c57506301ffc9a760e01b6001600160e01b03198316145b92915050565b6060600080546103a1906118ad565b80601f01602080910402602001604051908101604052809291908181526020018280546103cd906118ad565b801561041a5780601f106103ef5761010080835404028352916020019161041a565b820191906000526020600020905b8154815290600101906020018083116103fd57829003601f168201915b5050505050905090565b600061042f82610b66565b506000908152600460205260409020546001600160a01b031690565b600061045682610786565b9050806001600160a01b0316836001600160a01b0316036104c85760405162461bcd60e51b815260206004820152602160248201527f4552433732313a20617070726f76616c20746f2063757272656e74206f776e656044820152603960f91b60648201526084015b60405180910390fd5b336001600160a01b03821614806104e457506104e48133610954565b6105565760405162461bcd60e51b815260206004820152603d60248201527f4552433732313a20617070726f76652063616c6c6572206973206e6f7420746f60448201527f6b656e206f776e6572206f7220617070726f76656420666f7220616c6c00000060648201526084016104bf565b6105608383610bc5565b505050565b610570335b82610c33565b61058c5760405162461bcd60e51b81526004016104bf906118e7565b610560838383610c92565b61059f610e03565b6105a7610e63565b565b6105b1610e03565b60006105bc60075490565b90506105cc600780546001019055565b6105d68282610eb5565b5050565b610560838383604051806020016040528060008152506108a8565b6105fe3361056a565b61061a5760405162461bcd60e51b81526004016104bf906118e7565b61062381610ecf565b50565b61062e610e03565b6000828152600260205260409020546001600160a01b03166106855760405162461bcd60e51b815260206004820152601060248201526f13919508111bd95cc9dd08115e1a5cdd60821b60448201526064016104bf565b600082815260086020526040812060019081015460ff16908111156106ac576106ac611934565b146106f95760405162461bcd60e51b815260206004820152601d60248201527f4e465420697320416c7265616479206f6e20466978656420507269636500000060448201526064016104bf565b61070b81670de0b6b3a764000061194a565b60008381526008602090815260409182902092909255805184815291820183905260609082018190526011908201527013919508141c9a58d948155c19185d1959607a1b60808201527fb9d5f1c6d4c27c05a03631c464c6e47c357fbe053c30e817e9853d499a7d45f49060a0015b60405180910390a15050565b6000818152600260205260408120546001600160a01b03168061038c5760405162461bcd60e51b8152602060048201526018602482015277115490cdcc8c4e881a5b9d985b1a59081d1bdad95b88125160421b60448201526064016104bf565b60006001600160a01b0382166108505760405162461bcd60e51b815260206004820152602960248201527f4552433732313a2061646472657373207a65726f206973206e6f7420612076616044820152683634b21037bbb732b960b91b60648201526084016104bf565b506001600160a01b031660009081526003602052604090205490565b610874610e03565b6105a76000610f72565b610886610e03565b6105a7610fcc565b6060600180546103a1906118ad565b6105d6338383611009565b6108b23383610c33565b6108ce5760405162461bcd60e51b81526004016104bf906118e7565b6108da848484846110d7565b50505050565b60606108eb82610b66565b600061090260408051602081019091526000815290565b90506000815111610922576040518060200160405280600081525061094d565b8061092c8461110a565b60405160200161093d92919061196f565b6040516020818303038152906040525b9392505050565b6001600160a01b03918216600090815260056020908152604080832093909416825291909152205460ff1690565b61098a610e03565b6000828152600260205260409020546001600160a01b03166109e15760405162461bcd60e51b815260206004820152601060248201526f13919508111bd95cc9dd08115e1a5cdd60821b60448201526064016104bf565b600082815260086020526040812060019081015460ff1690811115610a0857610a08611934565b14610a555760405162461bcd60e51b815260206004820152601d60248201527f4e465420697320416c7265616479206f6e20466978656420507269636500000060448201526064016104bf565b610a6781670de0b6b3a764000061194a565b60008381526008602052604090209081556001908101805460ff1916828002179055507fe3159051e97ed401b6edd29e75e3c9711e908cc0381266d40a520eb12faedca88260405161077a918152604060208201819052601a908201527f4e4654204c697374656420466f72204669786564205072696365000000000000606082015260800190565b610af8610e03565b6001600160a01b038116610b5d5760405162461bcd60e51b815260206004820152602660248201527f4f776e61626c653a206e6577206f776e657220697320746865207a65726f206160448201526564647265737360d01b60648201526084016104bf565b61062381610f72565b6000818152600260205260409020546001600160a01b03166106235760405162461bcd60e51b8152602060048201526018602482015277115490cdcc8c4e881a5b9d985b1a59081d1bdad95b88125160421b60448201526064016104bf565b600081815260046020526040902080546001600160a01b0319166001600160a01b0384169081179091558190610bfa82610786565b6001600160a01b03167f8c5be1e5ebec7d5bd14f71427d1e84f3dd0314c0f7b2291e5b200ac8c7c3b92560405160405180910390a45050565b600080610c3f83610786565b9050806001600160a01b0316846001600160a01b03161480610c665750610c668185610954565b80610c8a5750836001600160a01b0316610c7f84610424565b6001600160a01b0316145b949350505050565b826001600160a01b0316610ca582610786565b6001600160a01b031614610ccb5760405162461bcd60e51b81526004016104bf9061199e565b6001600160a01b038216610d2d5760405162461bcd60e51b8152602060048201526024808201527f4552433732313a207472616e7366657220746f20746865207a65726f206164646044820152637265737360e01b60648201526084016104bf565b610d3a838383600161119d565b826001600160a01b0316610d4d82610786565b6001600160a01b031614610d735760405162461bcd60e51b81526004016104bf9061199e565b600081815260046020908152604080832080546001600160a01b03199081169091556001600160a01b0387811680865260038552838620805460001901905590871680865283862080546001019055868652600290945282852080549092168417909155905184937fddf252ad1be2c89b69c2b068fc378daa952ba7f163c4a11628f55a4df523b3ef91a4505050565b6006546001600160a01b036101009091041633146105a75760405162461bcd60e51b815260206004820181905260248201527f4f776e61626c653a2063616c6c6572206973206e6f7420746865206f776e657260448201526064016104bf565b610e6b6111aa565b6006805460ff191690557f5db9ee0a495bf2e6ff9c91a7834c1ba4fdd244a5e8aa4e537bd38aeae4b073aa335b6040516001600160a01b03909116815260200160405180910390a1565b6105d68282604051806020016040528060008152506111f3565b6000610eda82610786565b9050610eea81600084600161119d565b610ef382610786565b600083815260046020908152604080832080546001600160a01b03199081169091556001600160a01b0385168085526003845282852080546000190190558785526002909352818420805490911690555192935084927fddf252ad1be2c89b69c2b068fc378daa952ba7f163c4a11628f55a4df523b3ef908390a45050565b600680546001600160a01b03838116610100818102610100600160a81b031985161790945560405193909204169182907f8be0079c531659141344cd1fd0a4f28419497f9722a3daafe3b4186f6b6457e090600090a35050565b610fd4611226565b6006805460ff191660011790557f62e78cea01bee320cd4e420270b5ea74000d11b0c9f74754ebdbfc544b05a258610e983390565b816001600160a01b0316836001600160a01b03160361106a5760405162461bcd60e51b815260206004820152601960248201527f4552433732313a20617070726f766520746f2063616c6c65720000000000000060448201526064016104bf565b6001600160a01b03838116600081815260056020908152604080832094871680845294825291829020805460ff191686151590811790915591519182527f17307eab39ab6107e8899845ad3d59bd9653f200f220920489ca2b5937696c31910160405180910390a3505050565b6110e2848484610c92565b6110ee8484848461126c565b6108da5760405162461bcd60e51b81526004016104bf906119e3565b606060006111178361136d565b600101905060008167ffffffffffffffff81111561113757611137611788565b6040519080825280601f01601f191660200182016040528015611161576020820181803683370190505b5090508181016020015b600019016f181899199a1a9b1b9c1cb0b131b232b360811b600a86061a8153600a850494508461116b57509392505050565b6111a5611226565b6108da565b60065460ff166105a75760405162461bcd60e51b815260206004820152601460248201527314185d5cd8589b194e881b9bdd081c185d5cd95960621b60448201526064016104bf565b6111fd8383611445565b61120a600084848461126c565b6105605760405162461bcd60e51b81526004016104bf906119e3565b60065460ff16156105a75760405162461bcd60e51b815260206004820152601060248201526f14185d5cd8589b194e881c185d5cd95960821b60448201526064016104bf565b60006001600160a01b0384163b1561136257604051630a85bd0160e11b81526001600160a01b0385169063150b7a02906112b0903390899088908890600401611a35565b6020604051808303816000875af19250505080156112eb575060408051601f3d908101601f191682019092526112e891810190611a72565b60015b611348573d808015611319576040519150601f19603f3d011682016040523d82523d6000602084013e61131e565b606091505b5080516000036113405760405162461bcd60e51b81526004016104bf906119e3565b805181602001fd5b6001600160e01b031916630a85bd0160e11b149050610c8a565b506001949350505050565b60008072184f03e93ff9f4daa797ed6e38ed64bf6a1f0160401b83106113ac5772184f03e93ff9f4daa797ed6e38ed64bf6a1f0160401b830492506040015b6d04ee2d6d415b85acef810000000083106113d8576d04ee2d6d415b85acef8100000000830492506020015b662386f26fc1000083106113f657662386f26fc10000830492506010015b6305f5e100831061140e576305f5e100830492506008015b612710831061142257612710830492506004015b60648310611434576064830492506002015b600a831061038c5760010192915050565b6001600160a01b03821661149b5760405162461bcd60e51b815260206004820181905260248201527f4552433732313a206d696e7420746f20746865207a65726f206164647265737360448201526064016104bf565b6000818152600260205260409020546001600160a01b0316156115005760405162461bcd60e51b815260206004820152601c60248201527f4552433732313a20746f6b656e20616c7265616479206d696e7465640000000060448201526064016104bf565b61150e60008383600161119d565b6000818152600260205260409020546001600160a01b0316156115735760405162461bcd60e51b815260206004820152601c60248201527f4552433732313a20746f6b656e20616c7265616479206d696e7465640000000060448201526064016104bf565b6001600160a01b038216600081815260036020908152604080832080546001019055848352600290915280822080546001600160a01b0319168417905551839291907fddf252ad1be2c89b69c2b068fc378daa952ba7f163c4a11628f55a4df523b3ef908290a45050565b6001600160e01b03198116811461062357600080fd5b60006020828403121561160657600080fd5b813561094d816115de565b60005b8381101561162c578181015183820152602001611614565b50506000910152565b6000815180845261164d816020860160208601611611565b601f01601f19169290920160200192915050565b60208152600061094d6020830184611635565b60006020828403121561168657600080fd5b5035919050565b80356001600160a01b03811681146116a457600080fd5b919050565b600080604083850312156116bc57600080fd5b6116c58361168d565b946020939093013593505050565b6000806000606084860312156116e857600080fd5b6116f18461168d565b92506116ff6020850161168d565b9150604084013590509250925092565b60006020828403121561172157600080fd5b61094d8261168d565b6000806040838503121561173d57600080fd5b50508035926020909101359150565b6000806040838503121561175f57600080fd5b6117688361168d565b91506020830135801515811461177d57600080fd5b809150509250929050565b634e487b7160e01b600052604160045260246000fd5b600080600080608085870312156117b457600080fd5b6117bd8561168d565b93506117cb6020860161168d565b925060408501359150606085013567ffffffffffffffff808211156117ef57600080fd5b818701915087601f83011261180357600080fd5b81358181111561181557611815611788565b604051601f8201601f19908116603f0116810190838211818310171561183d5761183d611788565b816040528281528a602084870101111561185657600080fd5b82602086016020830137600060208483010152809550505050505092959194509250565b6000806040838503121561188d57600080fd5b6118968361168d565b91506118a46020840161168d565b90509250929050565b600181811c908216806118c157607f821691505b6020821081036118e157634e487b7160e01b600052602260045260246000fd5b50919050565b6020808252602d908201527f4552433732313a2063616c6c6572206973206e6f7420746f6b656e206f776e6560408201526c1c881bdc88185c1c1c9bdd9959609a1b606082015260800190565b634e487b7160e01b600052602160045260246000fd5b808202811582820484141761038c57634e487b7160e01b600052601160045260246000fd5b60008351611981818460208801611611565b835190830190611995818360208801611611565b01949350505050565b60208082526025908201527f4552433732313a207472616e736665722066726f6d20696e636f72726563742060408201526437bbb732b960d91b606082015260800190565b60208082526032908201527f4552433732313a207472616e7366657220746f206e6f6e20455243373231526560408201527131b2b4bb32b91034b6b83632b6b2b73a32b960711b606082015260800190565b6001600160a01b0385811682528416602082015260408101839052608060608201819052600090611a6890830184611635565b9695505050505050565b600060208284031215611a8457600080fd5b815161094d816115de56fea26469706673582212206d41e4aae1b845e2283ae2c30d8d8a363fc7f9ae6e2ada960a529d39f0f5a1e964736f6c63430008120033",
					"opcodes": "PUSH1 0x80 PUSH1 0x40 MSTORE CALLVALUE DUP1 ISZERO PUSH3 0x11 JUMPI PUSH1 0x0 DUP1 REVERT JUMPDEST POP PUSH1 0x40 MLOAD DUP1 PUSH1 0x40 ADD PUSH1 0x40 MSTORE DUP1 PUSH1 0xC DUP2 MSTORE PUSH1 0x20 ADD PUSH12 0x21B430B934BA3CAA37B5B2B7 PUSH1 0xA1 SHL DUP2 MSTORE POP PUSH1 0x40 MLOAD DUP1 PUSH1 0x40 ADD PUSH1 0x40 MSTORE DUP1 PUSH1 0x5 DUP2 MSTORE PUSH1 0x20 ADD PUSH5 0x21A42A25A7 PUSH1 0xD9 SHL DUP2 MSTORE POP DUP2 PUSH1 0x0 SWAP1 DUP2 PUSH3 0x66 SWAP2 SWAP1 PUSH3 0x192 JUMP JUMPDEST POP PUSH1 0x1 PUSH3 0x75 DUP3 DUP3 PUSH3 0x192 JUMP JUMPDEST POP POP PUSH1 0x6 DUP1 SLOAD PUSH1 0xFF NOT AND SWAP1 SSTORE POP PUSH3 0x8D CALLER PUSH3 0x93 JUMP JUMPDEST PUSH3 0x25E JUMP JUMPDEST PUSH1 0x6 DUP1 SLOAD PUSH1 0x1 PUSH1 0x1 PUSH1 0xA0 SHL SUB DUP4 DUP2 AND PUSH2 0x100 DUP2 DUP2 MUL PUSH2 0x100 PUSH1 0x1 PUSH1 0xA8 SHL SUB NOT DUP6 AND OR SWAP1 SWAP5 SSTORE PUSH1 0x40 MLOAD SWAP4 SWAP1 SWAP3 DIV AND SWAP2 DUP3 SWAP1 PUSH32 0x8BE0079C531659141344CD1FD0A4F28419497F9722A3DAAFE3B4186F6B6457E0 SWAP1 PUSH1 0x0 SWAP1 LOG3 POP POP JUMP JUMPDEST PUSH4 0x4E487B71 PUSH1 0xE0 SHL PUSH1 0x0 MSTORE PUSH1 0x41 PUSH1 0x4 MSTORE PUSH1 0x24 PUSH1 0x0 REVERT JUMPDEST PUSH1 0x1 DUP2 DUP2 SHR SWAP1 DUP3 AND DUP1 PUSH3 0x118 JUMPI PUSH1 0x7F DUP3 AND SWAP2 POP JUMPDEST PUSH1 0x20 DUP3 LT DUP2 SUB PUSH3 0x139 JUMPI PUSH4 0x4E487B71 PUSH1 0xE0 SHL PUSH1 0x0 MSTORE PUSH1 0x22 PUSH1 0x4 MSTORE PUSH1 0x24 PUSH1 0x0 REVERT JUMPDEST POP SWAP2 SWAP1 POP JUMP JUMPDEST PUSH1 0x1F DUP3 GT ISZERO PUSH3 0x18D JUMPI PUSH1 0x0 DUP2 DUP2 MSTORE PUSH1 0x20 DUP2 KECCAK256 PUSH1 0x1F DUP6 ADD PUSH1 0x5 SHR DUP2 ADD PUSH1 0x20 DUP7 LT ISZERO PUSH3 0x168 JUMPI POP DUP1 JUMPDEST PUSH1 0x1F DUP6 ADD PUSH1 0x5 SHR DUP3 ADD SWAP2 POP JUMPDEST DUP2 DUP2 LT ISZERO PUSH3 0x189 JUMPI DUP3 DUP2 SSTORE PUSH1 0x1 ADD PUSH3 0x174 JUMP JUMPDEST POP POP POP JUMPDEST POP POP POP JUMP JUMPDEST DUP2 MLOAD PUSH1 0x1 PUSH1 0x1 PUSH1 0x40 SHL SUB DUP2 GT ISZERO PUSH3 0x1AE JUMPI PUSH3 0x1AE PUSH3 0xED JUMP JUMPDEST PUSH3 0x1C6 DUP2 PUSH3 0x1BF DUP5 SLOAD PUSH3 0x103 JUMP JUMPDEST DUP5 PUSH3 0x13F JUMP JUMPDEST PUSH1 0x20 DUP1 PUSH1 0x1F DUP4 GT PUSH1 0x1 DUP2 EQ PUSH3 0x1FE JUMPI PUSH1 0x0 DUP5 ISZERO PUSH3 0x1E5 JUMPI POP DUP6 DUP4 ADD MLOAD JUMPDEST PUSH1 0x0 NOT PUSH1 0x3 DUP7 SWAP1 SHL SHR NOT AND PUSH1 0x1 DUP6 SWAP1 SHL OR DUP6 SSTORE PUSH3 0x189 JUMP JUMPDEST PUSH1 0x0 DUP6 DUP2 MSTORE PUSH1 0x20 DUP2 KECCAK256 PUSH1 0x1F NOT DUP7 AND SWAP2 JUMPDEST DUP3 DUP2 LT ISZERO PUSH3 0x22F JUMPI DUP9 DUP7 ADD MLOAD DUP3 SSTORE SWAP5 DUP5 ADD SWAP5 PUSH1 0x1 SWAP1 SWAP2 ADD SWAP1 DUP5 ADD PUSH3 0x20E JUMP JUMPDEST POP DUP6 DUP3 LT ISZERO PUSH3 0x24E JUMPI DUP8 DUP6 ADD MLOAD PUSH1 0x0 NOT PUSH1 0x3 DUP9 SWAP1 SHL PUSH1 0xF8 AND SHR NOT AND DUP2 SSTORE JUMPDEST POP POP POP POP POP PUSH1 0x1 SWAP1 DUP2 SHL ADD SWAP1 SSTORE POP JUMP JUMPDEST PUSH2 0x1AC5 DUP1 PUSH3 0x26E PUSH1 0x0 CODECOPY PUSH1 0x0 RETURN INVALID PUSH1 0x80 PUSH1 0x40 MSTORE CALLVALUE DUP1 ISZERO PUSH2 0x10 JUMPI PUSH1 0x0 DUP1 REVERT JUMPDEST POP PUSH1 0x4 CALLDATASIZE LT PUSH2 0x158 JUMPI PUSH1 0x0 CALLDATALOAD PUSH1 0xE0 SHR DUP1 PUSH4 0x70A08231 GT PUSH2 0xC3 JUMPI DUP1 PUSH4 0xA22CB465 GT PUSH2 0x7C JUMPI DUP1 PUSH4 0xA22CB465 EQ PUSH2 0x2CE JUMPI DUP1 PUSH4 0xB88D4FDE EQ PUSH2 0x2E1 JUMPI DUP1 PUSH4 0xC87B56DD EQ PUSH2 0x2F4 JUMPI DUP1 PUSH4 0xE985E9C5 EQ PUSH2 0x307 JUMPI DUP1 PUSH4 0xEEC5F9F0 EQ PUSH2 0x31A JUMPI DUP1 PUSH4 0xF2FDE38B EQ PUSH2 0x32D JUMPI PUSH1 0x0 DUP1 REVERT JUMPDEST DUP1 PUSH4 0x70A08231 EQ PUSH2 0x25F JUMPI DUP1 PUSH4 0x715018A6 EQ PUSH2 0x280 JUMPI DUP1 PUSH4 0x7BF0989A EQ PUSH2 0x288 JUMPI DUP1 PUSH4 0x8456CB59 EQ PUSH2 0x2A8 JUMPI DUP1 PUSH4 0x8DA5CB5B EQ PUSH2 0x2B0 JUMPI DUP1 PUSH4 0x95D89B41 EQ PUSH2 0x2C6 JUMPI PUSH1 0x0 DUP1 REVERT JUMPDEST DUP1 PUSH4 0x40D097C3 GT PUSH2 0x115 JUMPI DUP1 PUSH4 0x40D097C3 EQ PUSH2 0x1F5 JUMPI DUP1 PUSH4 0x42842E0E EQ PUSH2 0x208 JUMPI DUP1 PUSH4 0x42966C68 EQ PUSH2 0x21B JUMPI DUP1 PUSH4 0x4AC0123D EQ PUSH2 0x22E JUMPI DUP1 PUSH4 0x5C975ABB EQ PUSH2 0x241 JUMPI DUP1 PUSH4 0x6352211E EQ PUSH2 0x24C JUMPI PUSH1 0x0 DUP1 REVERT JUMPDEST DUP1 PUSH4 0x1FFC9A7 EQ PUSH2 0x15D JUMPI DUP1 PUSH4 0x6FDDE03 EQ PUSH2 0x185 JUMPI DUP1 PUSH4 0x81812FC EQ PUSH2 0x19A JUMPI DUP1 PUSH4 0x95EA7B3 EQ PUSH2 0x1C5 JUMPI DUP1 PUSH4 0x23B872DD EQ PUSH2 0x1DA JUMPI DUP1 PUSH4 0x3F4BA83A EQ PUSH2 0x1ED JUMPI JUMPDEST PUSH1 0x0 DUP1 REVERT JUMPDEST PUSH2 0x170 PUSH2 0x16B CALLDATASIZE PUSH1 0x4 PUSH2 0x15F4 JUMP JUMPDEST PUSH2 0x340 JUMP JUMPDEST PUSH1 0x40 MLOAD SWAP1 ISZERO ISZERO DUP2 MSTORE PUSH1 0x20 ADD JUMPDEST PUSH1 0x40 MLOAD DUP1 SWAP2 SUB SWAP1 RETURN JUMPDEST PUSH2 0x18D PUSH2 0x392 JUMP JUMPDEST PUSH1 0x40 MLOAD PUSH2 0x17C SWAP2 SWAP1 PUSH2 0x1661 JUMP JUMPDEST PUSH2 0x1AD PUSH2 0x1A8 CALLDATASIZE PUSH1 0x4 PUSH2 0x1674 JUMP JUMPDEST PUSH2 0x424 JUMP JUMPDEST PUSH1 0x40 MLOAD PUSH1 0x1 PUSH1 0x1 PUSH1 0xA0 SHL SUB SWAP1 SWAP2 AND DUP2 MSTORE PUSH1 0x20 ADD PUSH2 0x17C JUMP JUMPDEST PUSH2 0x1D8 PUSH2 0x1D3 CALLDATASIZE PUSH1 0x4 PUSH2 0x16A9 JUMP JUMPDEST PUSH2 0x44B JUMP JUMPDEST STOP JUMPDEST PUSH2 0x1D8 PUSH2 0x1E8 CALLDATASIZE PUSH1 0x4 PUSH2 0x16D3 JUMP JUMPDEST PUSH2 0x565 JUMP JUMPDEST PUSH2 0x1D8 PUSH2 0x597 JUMP JUMPDEST PUSH2 0x1D8 PUSH2 0x203 CALLDATASIZE PUSH1 0x4 PUSH2 0x170F JUMP JUMPDEST PUSH2 0x5A9 JUMP JUMPDEST PUSH2 0x1D8 PUSH2 0x216 CALLDATASIZE PUSH1 0x4 PUSH2 0x16D3 JUMP JUMPDEST PUSH2 0x5DA JUMP JUMPDEST PUSH2 0x1D8 PUSH2 0x229 CALLDATASIZE PUSH1 0x4 PUSH2 0x1674 JUMP JUMPDEST PUSH2 0x5F5 JUMP JUMPDEST PUSH2 0x1D8 PUSH2 0x23C CALLDATASIZE PUSH1 0x4 PUSH2 0x172A JUMP JUMPDEST PUSH2 0x626 JUMP JUMPDEST PUSH1 0x6 SLOAD PUSH1 0xFF AND PUSH2 0x170 JUMP JUMPDEST PUSH2 0x1AD PUSH2 0x25A CALLDATASIZE PUSH1 0x4 PUSH2 0x1674 JUMP JUMPDEST PUSH2 0x786 JUMP JUMPDEST PUSH2 0x272 PUSH2 0x26D CALLDATASIZE PUSH1 0x4 PUSH2 0x170F JUMP JUMPDEST PUSH2 0x7E6 JUMP JUMPDEST PUSH1 0x40 MLOAD SWAP1 DUP2 MSTORE PUSH1 0x20 ADD PUSH2 0x17C JUMP JUMPDEST PUSH2 0x1D8 PUSH2 0x86C JUMP JUMPDEST PUSH2 0x272 PUSH2 0x296 CALLDATASIZE PUSH1 0x4 PUSH2 0x1674 JUMP JUMPDEST PUSH1 0x0 SWAP1 DUP2 MSTORE PUSH1 0x8 PUSH1 0x20 MSTORE PUSH1 0x40 SWAP1 KECCAK256 SLOAD SWAP1 JUMP JUMPDEST PUSH2 0x1D8 PUSH2 0x87E JUMP JUMPDEST PUSH1 0x6 SLOAD PUSH2 0x100 SWAP1 DIV PUSH1 0x1 PUSH1 0x1 PUSH1 0xA0 SHL SUB AND PUSH2 0x1AD JUMP JUMPDEST PUSH2 0x18D PUSH2 0x88E JUMP JUMPDEST PUSH2 0x1D8 PUSH2 0x2DC CALLDATASIZE PUSH1 0x4 PUSH2 0x174C JUMP JUMPDEST PUSH2 0x89D JUMP JUMPDEST PUSH2 0x1D8 PUSH2 0x2EF CALLDATASIZE PUSH1 0x4 PUSH2 0x179E JUMP JUMPDEST PUSH2 0x8A8 JUMP JUMPDEST PUSH2 0x18D PUSH2 0x302 CALLDATASIZE PUSH1 0x4 PUSH2 0x1674 JUMP JUMPDEST PUSH2 0x8E0 JUMP JUMPDEST PUSH2 0x170 PUSH2 0x315 CALLDATASIZE PUSH1 0x4 PUSH2 0x187A JUMP JUMPDEST PUSH2 0x954 JUMP JUMPDEST PUSH2 0x1D8 PUSH2 0x328 CALLDATASIZE PUSH1 0x4 PUSH2 0x172A JUMP JUMPDEST PUSH2 0x982 JUMP JUMPDEST PUSH2 0x1D8 PUSH2 0x33B CALLDATASIZE PUSH1 0x4 PUSH2 0x170F JUMP JUMPDEST PUSH2 0xAF0 JUMP JUMPDEST PUSH1 0x0 PUSH1 0x1 PUSH1 0x1 PUSH1 0xE0 SHL SUB NOT DUP3 AND PUSH4 0x80AC58CD PUSH1 0xE0 SHL EQ DUP1 PUSH2 0x371 JUMPI POP PUSH1 0x1 PUSH1 0x1 PUSH1 0xE0 SHL SUB NOT DUP3 AND PUSH4 0x5B5E139F PUSH1 0xE0 SHL EQ JUMPDEST DUP1 PUSH2 0x38C JUMPI POP PUSH4 0x1FFC9A7 PUSH1 0xE0 SHL PUSH1 0x1 PUSH1 0x1 PUSH1 0xE0 SHL SUB NOT DUP4 AND EQ JUMPDEST SWAP3 SWAP2 POP POP JUMP JUMPDEST PUSH1 0x60 PUSH1 0x0 DUP1 SLOAD PUSH2 0x3A1 SWAP1 PUSH2 0x18AD JUMP JUMPDEST DUP1 PUSH1 0x1F ADD PUSH1 0x20 DUP1 SWAP2 DIV MUL PUSH1 0x20 ADD PUSH1 0x40 MLOAD SWAP1 DUP2 ADD PUSH1 0x40 MSTORE DUP1 SWAP3 SWAP2 SWAP1 DUP2 DUP2 MSTORE PUSH1 0x20 ADD DUP3 DUP1 SLOAD PUSH2 0x3CD SWAP1 PUSH2 0x18AD JUMP JUMPDEST DUP1 ISZERO PUSH2 0x41A JUMPI DUP1 PUSH1 0x1F LT PUSH2 0x3EF JUMPI PUSH2 0x100 DUP1 DUP4 SLOAD DIV MUL DUP4 MSTORE SWAP2 PUSH1 0x20 ADD SWAP2 PUSH2 0x41A JUMP JUMPDEST DUP3 ADD SWAP2 SWAP1 PUSH1 0x0 MSTORE PUSH1 0x20 PUSH1 0x0 KECCAK256 SWAP1 JUMPDEST DUP2 SLOAD DUP2 MSTORE SWAP1 PUSH1 0x1 ADD SWAP1 PUSH1 0x20 ADD DUP1 DUP4 GT PUSH2 0x3FD JUMPI DUP3 SWAP1 SUB PUSH1 0x1F AND DUP3 ADD SWAP2 JUMPDEST POP POP POP POP POP SWAP1 POP SWAP1 JUMP JUMPDEST PUSH1 0x0 PUSH2 0x42F DUP3 PUSH2 0xB66 JUMP JUMPDEST POP PUSH1 0x0 SWAP1 DUP2 MSTORE PUSH1 0x4 PUSH1 0x20 MSTORE PUSH1 0x40 SWAP1 KECCAK256 SLOAD PUSH1 0x1 PUSH1 0x1 PUSH1 0xA0 SHL SUB AND SWAP1 JUMP JUMPDEST PUSH1 0x0 PUSH2 0x456 DUP3 PUSH2 0x786 JUMP JUMPDEST SWAP1 POP DUP1 PUSH1 0x1 PUSH1 0x1 PUSH1 0xA0 SHL SUB AND DUP4 PUSH1 0x1 PUSH1 0x1 PUSH1 0xA0 SHL SUB AND SUB PUSH2 0x4C8 JUMPI PUSH1 0x40 MLOAD PUSH3 0x461BCD PUSH1 0xE5 SHL DUP2 MSTORE PUSH1 0x20 PUSH1 0x4 DUP3 ADD MSTORE PUSH1 0x21 PUSH1 0x24 DUP3 ADD MSTORE PUSH32 0x4552433732313A20617070726F76616C20746F2063757272656E74206F776E65 PUSH1 0x44 DUP3 ADD MSTORE PUSH1 0x39 PUSH1 0xF9 SHL PUSH1 0x64 DUP3 ADD MSTORE PUSH1 0x84 ADD JUMPDEST PUSH1 0x40 MLOAD DUP1 SWAP2 SUB SWAP1 REVERT JUMPDEST CALLER PUSH1 0x1 PUSH1 0x1 PUSH1 0xA0 SHL SUB DUP3 AND EQ DUP1 PUSH2 0x4E4 JUMPI POP PUSH2 0x4E4 DUP2 CALLER PUSH2 0x954 JUMP JUMPDEST PUSH2 0x556 JUMPI PUSH1 0x40 MLOAD PUSH3 0x461BCD PUSH1 0xE5 SHL DUP2 MSTORE PUSH1 0x20 PUSH1 0x4 DUP3 ADD MSTORE PUSH1 0x3D PUSH1 0x24 DUP3 ADD MSTORE PUSH32 0x4552433732313A20617070726F76652063616C6C6572206973206E6F7420746F PUSH1 0x44 DUP3 ADD MSTORE PUSH32 0x6B656E206F776E6572206F7220617070726F76656420666F7220616C6C000000 PUSH1 0x64 DUP3 ADD MSTORE PUSH1 0x84 ADD PUSH2 0x4BF JUMP JUMPDEST PUSH2 0x560 DUP4 DUP4 PUSH2 0xBC5 JUMP JUMPDEST POP POP POP JUMP JUMPDEST PUSH2 0x570 CALLER JUMPDEST DUP3 PUSH2 0xC33 JUMP JUMPDEST PUSH2 0x58C JUMPI PUSH1 0x40 MLOAD PUSH3 0x461BCD PUSH1 0xE5 SHL DUP2 MSTORE PUSH1 0x4 ADD PUSH2 0x4BF SWAP1 PUSH2 0x18E7 JUMP JUMPDEST PUSH2 0x560 DUP4 DUP4 DUP4 PUSH2 0xC92 JUMP JUMPDEST PUSH2 0x59F PUSH2 0xE03 JUMP JUMPDEST PUSH2 0x5A7 PUSH2 0xE63 JUMP JUMPDEST JUMP JUMPDEST PUSH2 0x5B1 PUSH2 0xE03 JUMP JUMPDEST PUSH1 0x0 PUSH2 0x5BC PUSH1 0x7 SLOAD SWAP1 JUMP JUMPDEST SWAP1 POP PUSH2 0x5CC PUSH1 0x7 DUP1 SLOAD PUSH1 0x1 ADD SWAP1 SSTORE JUMP JUMPDEST PUSH2 0x5D6 DUP3 DUP3 PUSH2 0xEB5 JUMP JUMPDEST POP POP JUMP JUMPDEST PUSH2 0x560 DUP4 DUP4 DUP4 PUSH1 0x40 MLOAD DUP1 PUSH1 0x20 ADD PUSH1 0x40 MSTORE DUP1 PUSH1 0x0 DUP2 MSTORE POP PUSH2 0x8A8 JUMP JUMPDEST PUSH2 0x5FE CALLER PUSH2 0x56A JUMP JUMPDEST PUSH2 0x61A JUMPI PUSH1 0x40 MLOAD PUSH3 0x461BCD PUSH1 0xE5 SHL DUP2 MSTORE PUSH1 0x4 ADD PUSH2 0x4BF SWAP1 PUSH2 0x18E7 JUMP JUMPDEST PUSH2 0x623 DUP2 PUSH2 0xECF JUMP JUMPDEST POP JUMP JUMPDEST PUSH2 0x62E PUSH2 0xE03 JUMP JUMPDEST PUSH1 0x0 DUP3 DUP2 MSTORE PUSH1 0x2 PUSH1 0x20 MSTORE PUSH1 0x40 SWAP1 KECCAK256 SLOAD PUSH1 0x1 PUSH1 0x1 PUSH1 0xA0 SHL SUB AND PUSH2 0x685 JUMPI PUSH1 0x40 MLOAD PUSH3 0x461BCD PUSH1 0xE5 SHL DUP2 MSTORE PUSH1 0x20 PUSH1 0x4 DUP3 ADD MSTORE PUSH1 0x10 PUSH1 0x24 DUP3 ADD MSTORE PUSH16 0x13919508111BD95CC9DD08115E1A5CDD PUSH1 0x82 SHL PUSH1 0x44 DUP3 ADD MSTORE PUSH1 0x64 ADD PUSH2 0x4BF JUMP JUMPDEST PUSH1 0x0 DUP3 DUP2 MSTORE PUSH1 0x8 PUSH1 0x20 MSTORE PUSH1 0x40 DUP2 KECCAK256 PUSH1 0x1 SWAP1 DUP2 ADD SLOAD PUSH1 0xFF AND SWAP1 DUP2 GT ISZERO PUSH2 0x6AC JUMPI PUSH2 0x6AC PUSH2 0x1934 JUMP JUMPDEST EQ PUSH2 0x6F9 JUMPI PUSH1 0x40 MLOAD PUSH3 0x461BCD PUSH1 0xE5 SHL DUP2 MSTORE PUSH1 0x20 PUSH1 0x4 DUP3 ADD MSTORE PUSH1 0x1D PUSH1 0x24 DUP3 ADD MSTORE PUSH32 0x4E465420697320416C7265616479206F6E204669786564205072696365000000 PUSH1 0x44 DUP3 ADD MSTORE PUSH1 0x64 ADD PUSH2 0x4BF JUMP JUMPDEST PUSH2 0x70B DUP2 PUSH8 0xDE0B6B3A7640000 PUSH2 0x194A JUMP JUMPDEST PUSH1 0x0 DUP4 DUP2 MSTORE PUSH1 0x8 PUSH1 0x20 SWAP1 DUP2 MSTORE PUSH1 0x40 SWAP2 DUP3 SWAP1 KECCAK256 SWAP3 SWAP1 SWAP3 SSTORE DUP1 MLOAD DUP5 DUP2 MSTORE SWAP2 DUP3 ADD DUP4 SWAP1 MSTORE PUSH1 0x60 SWAP1 DUP3 ADD DUP2 SWAP1 MSTORE PUSH1 0x11 SWAP1 DUP3 ADD MSTORE PUSH17 0x13919508141C9A58D948155C19185D1959 PUSH1 0x7A SHL PUSH1 0x80 DUP3 ADD MSTORE PUSH32 0xB9D5F1C6D4C27C05A03631C464C6E47C357FBE053C30E817E9853D499A7D45F4 SWAP1 PUSH1 0xA0 ADD JUMPDEST PUSH1 0x40 MLOAD DUP1 SWAP2 SUB SWAP1 LOG1 POP POP JUMP JUMPDEST PUSH1 0x0 DUP2 DUP2 MSTORE PUSH1 0x2 PUSH1 0x20 MSTORE PUSH1 0x40 DUP2 KECCAK256 SLOAD PUSH1 0x1 PUSH1 0x1 PUSH1 0xA0 SHL SUB AND DUP1 PUSH2 0x38C JUMPI PUSH1 0x40 MLOAD PUSH3 0x461BCD PUSH1 0xE5 SHL DUP2 MSTORE PUSH1 0x20 PUSH1 0x4 DUP3 ADD MSTORE PUSH1 0x18 PUSH1 0x24 DUP3 ADD MSTORE PUSH24 0x115490CDCC8C4E881A5B9D985B1A59081D1BDAD95B881251 PUSH1 0x42 SHL PUSH1 0x44 DUP3 ADD MSTORE PUSH1 0x64 ADD PUSH2 0x4BF JUMP JUMPDEST PUSH1 0x0 PUSH1 0x1 PUSH1 0x1 PUSH1 0xA0 SHL SUB DUP3 AND PUSH2 0x850 JUMPI PUSH1 0x40 MLOAD PUSH3 0x461BCD PUSH1 0xE5 SHL DUP2 MSTORE PUSH1 0x20 PUSH1 0x4 DUP3 ADD MSTORE PUSH1 0x29 PUSH1 0x24 DUP3 ADD MSTORE PUSH32 0x4552433732313A2061646472657373207A65726F206973206E6F742061207661 PUSH1 0x44 DUP3 ADD MSTORE PUSH9 0x3634B21037BBB732B9 PUSH1 0xB9 SHL PUSH1 0x64 DUP3 ADD MSTORE PUSH1 0x84 ADD PUSH2 0x4BF JUMP JUMPDEST POP PUSH1 0x1 PUSH1 0x1 PUSH1 0xA0 SHL SUB AND PUSH1 0x0 SWAP1 DUP2 MSTORE PUSH1 0x3 PUSH1 0x20 MSTORE PUSH1 0x40 SWAP1 KECCAK256 SLOAD SWAP1 JUMP JUMPDEST PUSH2 0x874 PUSH2 0xE03 JUMP JUMPDEST PUSH2 0x5A7 PUSH1 0x0 PUSH2 0xF72 JUMP JUMPDEST PUSH2 0x886 PUSH2 0xE03 JUMP JUMPDEST PUSH2 0x5A7 PUSH2 0xFCC JUMP JUMPDEST PUSH1 0x60 PUSH1 0x1 DUP1 SLOAD PUSH2 0x3A1 SWAP1 PUSH2 0x18AD JUMP JUMPDEST PUSH2 0x5D6 CALLER DUP4 DUP4 PUSH2 0x1009 JUMP JUMPDEST PUSH2 0x8B2 CALLER DUP4 PUSH2 0xC33 JUMP JUMPDEST PUSH2 0x8CE JUMPI PUSH1 0x40 MLOAD PUSH3 0x461BCD PUSH1 0xE5 SHL DUP2 MSTORE PUSH1 0x4 ADD PUSH2 0x4BF SWAP1 PUSH2 0x18E7 JUMP JUMPDEST PUSH2 0x8DA DUP5 DUP5 DUP5 DUP5 PUSH2 0x10D7 JUMP JUMPDEST POP POP POP POP JUMP JUMPDEST PUSH1 0x60 PUSH2 0x8EB DUP3 PUSH2 0xB66 JUMP JUMPDEST PUSH1 0x0 PUSH2 0x902 PUSH1 0x40 DUP1 MLOAD PUSH1 0x20 DUP2 ADD SWAP1 SWAP2 MSTORE PUSH1 0x0 DUP2 MSTORE SWAP1 JUMP JUMPDEST SWAP1 POP PUSH1 0x0 DUP2 MLOAD GT PUSH2 0x922 JUMPI PUSH1 0x40 MLOAD DUP1 PUSH1 0x20 ADD PUSH1 0x40 MSTORE DUP1 PUSH1 0x0 DUP2 MSTORE POP PUSH2 0x94D JUMP JUMPDEST DUP1 PUSH2 0x92C DUP5 PUSH2 0x110A JUMP JUMPDEST PUSH1 0x40 MLOAD PUSH1 0x20 ADD PUSH2 0x93D SWAP3 SWAP2 SWAP1 PUSH2 0x196F JUMP JUMPDEST PUSH1 0x40 MLOAD PUSH1 0x20 DUP2 DUP4 SUB SUB DUP2 MSTORE SWAP1 PUSH1 0x40 MSTORE JUMPDEST SWAP4 SWAP3 POP POP POP JUMP JUMPDEST PUSH1 0x1 PUSH1 0x1 PUSH1 0xA0 SHL SUB SWAP2 DUP3 AND PUSH1 0x0 SWAP1 DUP2 MSTORE PUSH1 0x5 PUSH1 0x20 SWAP1 DUP2 MSTORE PUSH1 0x40 DUP1 DUP4 KECCAK256 SWAP4 SWAP1 SWAP5 AND DUP3 MSTORE SWAP2 SWAP1 SWAP2 MSTORE KECCAK256 SLOAD PUSH1 0xFF AND SWAP1 JUMP JUMPDEST PUSH2 0x98A PUSH2 0xE03 JUMP JUMPDEST PUSH1 0x0 DUP3 DUP2 MSTORE PUSH1 0x2 PUSH1 0x20 MSTORE PUSH1 0x40 SWAP1 KECCAK256 SLOAD PUSH1 0x1 PUSH1 0x1 PUSH1 0xA0 SHL SUB AND PUSH2 0x9E1 JUMPI PUSH1 0x40 MLOAD PUSH3 0x461BCD PUSH1 0xE5 SHL DUP2 MSTORE PUSH1 0x20 PUSH1 0x4 DUP3 ADD MSTORE PUSH1 0x10 PUSH1 0x24 DUP3 ADD MSTORE PUSH16 0x13919508111BD95CC9DD08115E1A5CDD PUSH1 0x82 SHL PUSH1 0x44 DUP3 ADD MSTORE PUSH1 0x64 ADD PUSH2 0x4BF JUMP JUMPDEST PUSH1 0x0 DUP3 DUP2 MSTORE PUSH1 0x8 PUSH1 0x20 MSTORE PUSH1 0x40 DUP2 KECCAK256 PUSH1 0x1 SWAP1 DUP2 ADD SLOAD PUSH1 0xFF AND SWAP1 DUP2 GT ISZERO PUSH2 0xA08 JUMPI PUSH2 0xA08 PUSH2 0x1934 JUMP JUMPDEST EQ PUSH2 0xA55 JUMPI PUSH1 0x40 MLOAD PUSH3 0x461BCD PUSH1 0xE5 SHL DUP2 MSTORE PUSH1 0x20 PUSH1 0x4 DUP3 ADD MSTORE PUSH1 0x1D PUSH1 0x24 DUP3 ADD MSTORE PUSH32 0x4E465420697320416C7265616479206F6E204669786564205072696365000000 PUSH1 0x44 DUP3 ADD MSTORE PUSH1 0x64 ADD PUSH2 0x4BF JUMP JUMPDEST PUSH2 0xA67 DUP2 PUSH8 0xDE0B6B3A7640000 PUSH2 0x194A JUMP JUMPDEST PUSH1 0x0 DUP4 DUP2 MSTORE PUSH1 0x8 PUSH1 0x20 MSTORE PUSH1 0x40 SWAP1 KECCAK256 SWAP1 DUP2 SSTORE PUSH1 0x1 SWAP1 DUP2 ADD DUP1 SLOAD PUSH1 0xFF NOT AND DUP3 DUP1 MUL OR SWAP1 SSTORE POP PUSH32 0xE3159051E97ED401B6EDD29E75E3C9711E908CC0381266D40A520EB12FAEDCA8 DUP3 PUSH1 0x40 MLOAD PUSH2 0x77A SWAP2 DUP2 MSTORE PUSH1 0x40 PUSH1 0x20 DUP3 ADD DUP2 SWAP1 MSTORE PUSH1 0x1A SWAP1 DUP3 ADD MSTORE PUSH32 0x4E4654204C697374656420466F72204669786564205072696365000000000000 PUSH1 0x60 DUP3 ADD MSTORE PUSH1 0x80 ADD SWAP1 JUMP JUMPDEST PUSH2 0xAF8 PUSH2 0xE03 JUMP JUMPDEST PUSH1 0x1 PUSH1 0x1 PUSH1 0xA0 SHL SUB DUP2 AND PUSH2 0xB5D JUMPI PUSH1 0x40 MLOAD PUSH3 0x461BCD PUSH1 0xE5 SHL DUP2 MSTORE PUSH1 0x20 PUSH1 0x4 DUP3 ADD MSTORE PUSH1 0x26 PUSH1 0x24 DUP3 ADD MSTORE PUSH32 0x4F776E61626C653A206E6577206F776E657220697320746865207A65726F2061 PUSH1 0x44 DUP3 ADD MSTORE PUSH6 0x646472657373 PUSH1 0xD0 SHL PUSH1 0x64 DUP3 ADD MSTORE PUSH1 0x84 ADD PUSH2 0x4BF JUMP JUMPDEST PUSH2 0x623 DUP2 PUSH2 0xF72 JUMP JUMPDEST PUSH1 0x0 DUP2 DUP2 MSTORE PUSH1 0x2 PUSH1 0x20 MSTORE PUSH1 0x40 SWAP1 KECCAK256 SLOAD PUSH1 0x1 PUSH1 0x1 PUSH1 0xA0 SHL SUB AND PUSH2 0x623 JUMPI PUSH1 0x40 MLOAD PUSH3 0x461BCD PUSH1 0xE5 SHL DUP2 MSTORE PUSH1 0x20 PUSH1 0x4 DUP3 ADD MSTORE PUSH1 0x18 PUSH1 0x24 DUP3 ADD MSTORE PUSH24 0x115490CDCC8C4E881A5B9D985B1A59081D1BDAD95B881251 PUSH1 0x42 SHL PUSH1 0x44 DUP3 ADD MSTORE PUSH1 0x64 ADD PUSH2 0x4BF JUMP JUMPDEST PUSH1 0x0 DUP2 DUP2 MSTORE PUSH1 0x4 PUSH1 0x20 MSTORE PUSH1 0x40 SWAP1 KECCAK256 DUP1 SLOAD PUSH1 0x1 PUSH1 0x1 PUSH1 0xA0 SHL SUB NOT AND PUSH1 0x1 PUSH1 0x1 PUSH1 0xA0 SHL SUB DUP5 AND SWAP1 DUP2 OR SWAP1 SWAP2 SSTORE DUP2 SWAP1 PUSH2 0xBFA DUP3 PUSH2 0x786 JUMP JUMPDEST PUSH1 0x1 PUSH1 0x1 PUSH1 0xA0 SHL SUB AND PUSH32 0x8C5BE1E5EBEC7D5BD14F71427D1E84F3DD0314C0F7B2291E5B200AC8C7C3B925 PUSH1 0x40 MLOAD PUSH1 0x40 MLOAD DUP1 SWAP2 SUB SWAP1 LOG4 POP POP JUMP JUMPDEST PUSH1 0x0 DUP1 PUSH2 0xC3F DUP4 PUSH2 0x786 JUMP JUMPDEST SWAP1 POP DUP1 PUSH1 0x1 PUSH1 0x1 PUSH1 0xA0 SHL SUB AND DUP5 PUSH1 0x1 PUSH1 0x1 PUSH1 0xA0 SHL SUB AND EQ DUP1 PUSH2 0xC66 JUMPI POP PUSH2 0xC66 DUP2 DUP6 PUSH2 0x954 JUMP JUMPDEST DUP1 PUSH2 0xC8A JUMPI POP DUP4 PUSH1 0x1 PUSH1 0x1 PUSH1 0xA0 SHL SUB AND PUSH2 0xC7F DUP5 PUSH2 0x424 JUMP JUMPDEST PUSH1 0x1 PUSH1 0x1 PUSH1 0xA0 SHL SUB AND EQ JUMPDEST SWAP5 SWAP4 POP POP POP POP JUMP JUMPDEST DUP3 PUSH1 0x1 PUSH1 0x1 PUSH1 0xA0 SHL SUB AND PUSH2 0xCA5 DUP3 PUSH2 0x786 JUMP JUMPDEST PUSH1 0x1 PUSH1 0x1 PUSH1 0xA0 SHL SUB AND EQ PUSH2 0xCCB JUMPI PUSH1 0x40 MLOAD PUSH3 0x461BCD PUSH1 0xE5 SHL DUP2 MSTORE PUSH1 0x4 ADD PUSH2 0x4BF SWAP1 PUSH2 0x199E JUMP JUMPDEST PUSH1 0x1 PUSH1 0x1 PUSH1 0xA0 SHL SUB DUP3 AND PUSH2 0xD2D JUMPI PUSH1 0x40 MLOAD PUSH3 0x461BCD PUSH1 0xE5 SHL DUP2 MSTORE PUSH1 0x20 PUSH1 0x4 DUP3 ADD MSTORE PUSH1 0x24 DUP1 DUP3 ADD MSTORE PUSH32 0x4552433732313A207472616E7366657220746F20746865207A65726F20616464 PUSH1 0x44 DUP3 ADD MSTORE PUSH4 0x72657373 PUSH1 0xE0 SHL PUSH1 0x64 DUP3 ADD MSTORE PUSH1 0x84 ADD PUSH2 0x4BF JUMP JUMPDEST PUSH2 0xD3A DUP4 DUP4 DUP4 PUSH1 0x1 PUSH2 0x119D JUMP JUMPDEST DUP3 PUSH1 0x1 PUSH1 0x1 PUSH1 0xA0 SHL SUB AND PUSH2 0xD4D DUP3 PUSH2 0x786 JUMP JUMPDEST PUSH1 0x1 PUSH1 0x1 PUSH1 0xA0 SHL SUB AND EQ PUSH2 0xD73 JUMPI PUSH1 0x40 MLOAD PUSH3 0x461BCD PUSH1 0xE5 SHL DUP2 MSTORE PUSH1 0x4 ADD PUSH2 0x4BF SWAP1 PUSH2 0x199E JUMP JUMPDEST PUSH1 0x0 DUP2 DUP2 MSTORE PUSH1 0x4 PUSH1 0x20 SWAP1 DUP2 MSTORE PUSH1 0x40 DUP1 DUP4 KECCAK256 DUP1 SLOAD PUSH1 0x1 PUSH1 0x1 PUSH1 0xA0 SHL SUB NOT SWAP1 DUP2 AND SWAP1 SWAP2 SSTORE PUSH1 0x1 PUSH1 0x1 PUSH1 0xA0 SHL SUB DUP8 DUP2 AND DUP1 DUP7 MSTORE PUSH1 0x3 DUP6 MSTORE DUP4 DUP7 KECCAK256 DUP1 SLOAD PUSH1 0x0 NOT ADD SWAP1 SSTORE SWAP1 DUP8 AND DUP1 DUP7 MSTORE DUP4 DUP7 KECCAK256 DUP1 SLOAD PUSH1 0x1 ADD SWAP1 SSTORE DUP7 DUP7 MSTORE PUSH1 0x2 SWAP1 SWAP5 MSTORE DUP3 DUP6 KECCAK256 DUP1 SLOAD SWAP1 SWAP3 AND DUP5 OR SWAP1 SWAP2 SSTORE SWAP1 MLOAD DUP5 SWAP4 PUSH32 0xDDF252AD1BE2C89B69C2B068FC378DAA952BA7F163C4A11628F55A4DF523B3EF SWAP2 LOG4 POP POP POP JUMP JUMPDEST PUSH1 0x6 SLOAD PUSH1 0x1 PUSH1 0x1 PUSH1 0xA0 SHL SUB PUSH2 0x100 SWAP1 SWAP2 DIV AND CALLER EQ PUSH2 0x5A7 JUMPI PUSH1 0x40 MLOAD PUSH3 0x461BCD PUSH1 0xE5 SHL DUP2 MSTORE PUSH1 0x20 PUSH1 0x4 DUP3 ADD DUP2 SWAP1 MSTORE PUSH1 0x24 DUP3 ADD MSTORE PUSH32 0x4F776E61626C653A2063616C6C6572206973206E6F7420746865206F776E6572 PUSH1 0x44 DUP3 ADD MSTORE PUSH1 0x64 ADD PUSH2 0x4BF JUMP JUMPDEST PUSH2 0xE6B PUSH2 0x11AA JUMP JUMPDEST PUSH1 0x6 DUP1 SLOAD PUSH1 0xFF NOT AND SWAP1 SSTORE PUSH32 0x5DB9EE0A495BF2E6FF9C91A7834C1BA4FDD244A5E8AA4E537BD38AEAE4B073AA CALLER JUMPDEST PUSH1 0x40 MLOAD PUSH1 0x1 PUSH1 0x1 PUSH1 0xA0 SHL SUB SWAP1 SWAP2 AND DUP2 MSTORE PUSH1 0x20 ADD PUSH1 0x40 MLOAD DUP1 SWAP2 SUB SWAP1 LOG1 JUMP JUMPDEST PUSH2 0x5D6 DUP3 DUP3 PUSH1 0x40 MLOAD DUP1 PUSH1 0x20 ADD PUSH1 0x40 MSTORE DUP1 PUSH1 0x0 DUP2 MSTORE POP PUSH2 0x11F3 JUMP JUMPDEST PUSH1 0x0 PUSH2 0xEDA DUP3 PUSH2 0x786 JUMP JUMPDEST SWAP1 POP PUSH2 0xEEA DUP2 PUSH1 0x0 DUP5 PUSH1 0x1 PUSH2 0x119D JUMP JUMPDEST PUSH2 0xEF3 DUP3 PUSH2 0x786 JUMP JUMPDEST PUSH1 0x0 DUP4 DUP2 MSTORE PUSH1 0x4 PUSH1 0x20 SWAP1 DUP2 MSTORE PUSH1 0x40 DUP1 DUP4 KECCAK256 DUP1 SLOAD PUSH1 0x1 PUSH1 0x1 PUSH1 0xA0 SHL SUB NOT SWAP1 DUP2 AND SWAP1 SWAP2 SSTORE PUSH1 0x1 PUSH1 0x1 PUSH1 0xA0 SHL SUB DUP6 AND DUP1 DUP6 MSTORE PUSH1 0x3 DUP5 MSTORE DUP3 DUP6 KECCAK256 DUP1 SLOAD PUSH1 0x0 NOT ADD SWAP1 SSTORE DUP8 DUP6 MSTORE PUSH1 0x2 SWAP1 SWAP4 MSTORE DUP2 DUP5 KECCAK256 DUP1 SLOAD SWAP1 SWAP2 AND SWAP1 SSTORE MLOAD SWAP3 SWAP4 POP DUP5 SWAP3 PUSH32 0xDDF252AD1BE2C89B69C2B068FC378DAA952BA7F163C4A11628F55A4DF523B3EF SWAP1 DUP4 SWAP1 LOG4 POP POP JUMP JUMPDEST PUSH1 0x6 DUP1 SLOAD PUSH1 0x1 PUSH1 0x1 PUSH1 0xA0 SHL SUB DUP4 DUP2 AND PUSH2 0x100 DUP2 DUP2 MUL PUSH2 0x100 PUSH1 0x1 PUSH1 0xA8 SHL SUB NOT DUP6 AND OR SWAP1 SWAP5 SSTORE PUSH1 0x40 MLOAD SWAP4 SWAP1 SWAP3 DIV AND SWAP2 DUP3 SWAP1 PUSH32 0x8BE0079C531659141344CD1FD0A4F28419497F9722A3DAAFE3B4186F6B6457E0 SWAP1 PUSH1 0x0 SWAP1 LOG3 POP POP JUMP JUMPDEST PUSH2 0xFD4 PUSH2 0x1226 JUMP JUMPDEST PUSH1 0x6 DUP1 SLOAD PUSH1 0xFF NOT AND PUSH1 0x1 OR SWAP1 SSTORE PUSH32 0x62E78CEA01BEE320CD4E420270B5EA74000D11B0C9F74754EBDBFC544B05A258 PUSH2 0xE98 CALLER SWAP1 JUMP JUMPDEST DUP2 PUSH1 0x1 PUSH1 0x1 PUSH1 0xA0 SHL SUB AND DUP4 PUSH1 0x1 PUSH1 0x1 PUSH1 0xA0 SHL SUB AND SUB PUSH2 0x106A JUMPI PUSH1 0x40 MLOAD PUSH3 0x461BCD PUSH1 0xE5 SHL DUP2 MSTORE PUSH1 0x20 PUSH1 0x4 DUP3 ADD MSTORE PUSH1 0x19 PUSH1 0x24 DUP3 ADD MSTORE PUSH32 0x4552433732313A20617070726F766520746F2063616C6C657200000000000000 PUSH1 0x44 DUP3 ADD MSTORE PUSH1 0x64 ADD PUSH2 0x4BF JUMP JUMPDEST PUSH1 0x1 PUSH1 0x1 PUSH1 0xA0 SHL SUB DUP4 DUP2 AND PUSH1 0x0 DUP2 DUP2 MSTORE PUSH1 0x5 PUSH1 0x20 SWAP1 DUP2 MSTORE PUSH1 0x40 DUP1 DUP4 KECCAK256 SWAP5 DUP8 AND DUP1 DUP5 MSTORE SWAP5 DUP3 MSTORE SWAP2 DUP3 SWAP1 KECCAK256 DUP1 SLOAD PUSH1 0xFF NOT AND DUP7 ISZERO ISZERO SWAP1 DUP2 OR SWAP1 SWAP2 SSTORE SWAP2 MLOAD SWAP2 DUP3 MSTORE PUSH32 0x17307EAB39AB6107E8899845AD3D59BD9653F200F220920489CA2B5937696C31 SWAP2 ADD PUSH1 0x40 MLOAD DUP1 SWAP2 SUB SWAP1 LOG3 POP POP POP JUMP JUMPDEST PUSH2 0x10E2 DUP5 DUP5 DUP5 PUSH2 0xC92 JUMP JUMPDEST PUSH2 0x10EE DUP5 DUP5 DUP5 DUP5 PUSH2 0x126C JUMP JUMPDEST PUSH2 0x8DA JUMPI PUSH1 0x40 MLOAD PUSH3 0x461BCD PUSH1 0xE5 SHL DUP2 MSTORE PUSH1 0x4 ADD PUSH2 0x4BF SWAP1 PUSH2 0x19E3 JUMP JUMPDEST PUSH1 0x60 PUSH1 0x0 PUSH2 0x1117 DUP4 PUSH2 0x136D JUMP JUMPDEST PUSH1 0x1 ADD SWAP1 POP PUSH1 0x0 DUP2 PUSH8 0xFFFFFFFFFFFFFFFF DUP2 GT ISZERO PUSH2 0x1137 JUMPI PUSH2 0x1137 PUSH2 0x1788 JUMP JUMPDEST PUSH1 0x40 MLOAD SWAP1 DUP1 DUP3 MSTORE DUP1 PUSH1 0x1F ADD PUSH1 0x1F NOT AND PUSH1 0x20 ADD DUP3 ADD PUSH1 0x40 MSTORE DUP1 ISZERO PUSH2 0x1161 JUMPI PUSH1 0x20 DUP3 ADD DUP2 DUP1 CALLDATASIZE DUP4 CALLDATACOPY ADD SWAP1 POP JUMPDEST POP SWAP1 POP DUP2 DUP2 ADD PUSH1 0x20 ADD JUMPDEST PUSH1 0x0 NOT ADD PUSH16 0x181899199A1A9B1B9C1CB0B131B232B3 PUSH1 0x81 SHL PUSH1 0xA DUP7 MOD BYTE DUP2 MSTORE8 PUSH1 0xA DUP6 DIV SWAP5 POP DUP5 PUSH2 0x116B JUMPI POP SWAP4 SWAP3 POP POP POP JUMP JUMPDEST PUSH2 0x11A5 PUSH2 0x1226 JUMP JUMPDEST PUSH2 0x8DA JUMP JUMPDEST PUSH1 0x6 SLOAD PUSH1 0xFF AND PUSH2 0x5A7 JUMPI PUSH1 0x40 MLOAD PUSH3 0x461BCD PUSH1 0xE5 SHL DUP2 MSTORE PUSH1 0x20 PUSH1 0x4 DUP3 ADD MSTORE PUSH1 0x14 PUSH1 0x24 DUP3 ADD MSTORE PUSH20 0x14185D5CD8589B194E881B9BDD081C185D5CD959 PUSH1 0x62 SHL PUSH1 0x44 DUP3 ADD MSTORE PUSH1 0x64 ADD PUSH2 0x4BF JUMP JUMPDEST PUSH2 0x11FD DUP4 DUP4 PUSH2 0x1445 JUMP JUMPDEST PUSH2 0x120A PUSH1 0x0 DUP5 DUP5 DUP5 PUSH2 0x126C JUMP JUMPDEST PUSH2 0x560 JUMPI PUSH1 0x40 MLOAD PUSH3 0x461BCD PUSH1 0xE5 SHL DUP2 MSTORE PUSH1 0x4 ADD PUSH2 0x4BF SWAP1 PUSH2 0x19E3 JUMP JUMPDEST PUSH1 0x6 SLOAD PUSH1 0xFF AND ISZERO PUSH2 0x5A7 JUMPI PUSH1 0x40 MLOAD PUSH3 0x461BCD PUSH1 0xE5 SHL DUP2 MSTORE PUSH1 0x20 PUSH1 0x4 DUP3 ADD MSTORE PUSH1 0x10 PUSH1 0x24 DUP3 ADD MSTORE PUSH16 0x14185D5CD8589B194E881C185D5CD959 PUSH1 0x82 SHL PUSH1 0x44 DUP3 ADD MSTORE PUSH1 0x64 ADD PUSH2 0x4BF JUMP JUMPDEST PUSH1 0x0 PUSH1 0x1 PUSH1 0x1 PUSH1 0xA0 SHL SUB DUP5 AND EXTCODESIZE ISZERO PUSH2 0x1362 JUMPI PUSH1 0x40 MLOAD PUSH4 0xA85BD01 PUSH1 0xE1 SHL DUP2 MSTORE PUSH1 0x1 PUSH1 0x1 PUSH1 0xA0 SHL SUB DUP6 AND SWAP1 PUSH4 0x150B7A02 SWAP1 PUSH2 0x12B0 SWAP1 CALLER SWAP1 DUP10 SWAP1 DUP9 SWAP1 DUP9 SWAP1 PUSH1 0x4 ADD PUSH2 0x1A35 JUMP JUMPDEST PUSH1 0x20 PUSH1 0x40 MLOAD DUP1 DUP4 SUB DUP2 PUSH1 0x0 DUP8 GAS CALL SWAP3 POP POP POP DUP1 ISZERO PUSH2 0x12EB JUMPI POP PUSH1 0x40 DUP1 MLOAD PUSH1 0x1F RETURNDATASIZE SWAP1 DUP2 ADD PUSH1 0x1F NOT AND DUP3 ADD SWAP1 SWAP3 MSTORE PUSH2 0x12E8 SWAP2 DUP2 ADD SWAP1 PUSH2 0x1A72 JUMP JUMPDEST PUSH1 0x1 JUMPDEST PUSH2 0x1348 JUMPI RETURNDATASIZE DUP1 DUP1 ISZERO PUSH2 0x1319 JUMPI PUSH1 0x40 MLOAD SWAP2 POP PUSH1 0x1F NOT PUSH1 0x3F RETURNDATASIZE ADD AND DUP3 ADD PUSH1 0x40 MSTORE RETURNDATASIZE DUP3 MSTORE RETURNDATASIZE PUSH1 0x0 PUSH1 0x20 DUP5 ADD RETURNDATACOPY PUSH2 0x131E JUMP JUMPDEST PUSH1 0x60 SWAP2 POP JUMPDEST POP DUP1 MLOAD PUSH1 0x0 SUB PUSH2 0x1340 JUMPI PUSH1 0x40 MLOAD PUSH3 0x461BCD PUSH1 0xE5 SHL DUP2 MSTORE PUSH1 0x4 ADD PUSH2 0x4BF SWAP1 PUSH2 0x19E3 JUMP JUMPDEST DUP1 MLOAD DUP2 PUSH1 0x20 ADD REVERT JUMPDEST PUSH1 0x1 PUSH1 0x1 PUSH1 0xE0 SHL SUB NOT AND PUSH4 0xA85BD01 PUSH1 0xE1 SHL EQ SWAP1 POP PUSH2 0xC8A JUMP JUMPDEST POP PUSH1 0x1 SWAP5 SWAP4 POP POP POP POP JUMP JUMPDEST PUSH1 0x0 DUP1 PUSH19 0x184F03E93FF9F4DAA797ED6E38ED64BF6A1F01 PUSH1 0x40 SHL DUP4 LT PUSH2 0x13AC JUMPI PUSH19 0x184F03E93FF9F4DAA797ED6E38ED64BF6A1F01 PUSH1 0x40 SHL DUP4 DIV SWAP3 POP PUSH1 0x40 ADD JUMPDEST PUSH14 0x4EE2D6D415B85ACEF8100000000 DUP4 LT PUSH2 0x13D8 JUMPI PUSH14 0x4EE2D6D415B85ACEF8100000000 DUP4 DIV SWAP3 POP PUSH1 0x20 ADD JUMPDEST PUSH7 0x2386F26FC10000 DUP4 LT PUSH2 0x13F6 JUMPI PUSH7 0x2386F26FC10000 DUP4 DIV SWAP3 POP PUSH1 0x10 ADD JUMPDEST PUSH4 0x5F5E100 DUP4 LT PUSH2 0x140E JUMPI PUSH4 0x5F5E100 DUP4 DIV SWAP3 POP PUSH1 0x8 ADD JUMPDEST PUSH2 0x2710 DUP4 LT PUSH2 0x1422 JUMPI PUSH2 0x2710 DUP4 DIV SWAP3 POP PUSH1 0x4 ADD JUMPDEST PUSH1 0x64 DUP4 LT PUSH2 0x1434 JUMPI PUSH1 0x64 DUP4 DIV SWAP3 POP PUSH1 0x2 ADD JUMPDEST PUSH1 0xA DUP4 LT PUSH2 0x38C JUMPI PUSH1 0x1 ADD SWAP3 SWAP2 POP POP JUMP JUMPDEST PUSH1 0x1 PUSH1 0x1 PUSH1 0xA0 SHL SUB DUP3 AND PUSH2 0x149B JUMPI PUSH1 0x40 MLOAD PUSH3 0x461BCD PUSH1 0xE5 SHL DUP2 MSTORE PUSH1 0x20 PUSH1 0x4 DUP3 ADD DUP2 SWAP1 MSTORE PUSH1 0x24 DUP3 ADD MSTORE PUSH32 0x4552433732313A206D696E7420746F20746865207A65726F2061646472657373 PUSH1 0x44 DUP3 ADD MSTORE PUSH1 0x64 ADD PUSH2 0x4BF JUMP JUMPDEST PUSH1 0x0 DUP2 DUP2 MSTORE PUSH1 0x2 PUSH1 0x20 MSTORE PUSH1 0x40 SWAP1 KECCAK256 SLOAD PUSH1 0x1 PUSH1 0x1 PUSH1 0xA0 SHL SUB AND ISZERO PUSH2 0x1500 JUMPI PUSH1 0x40 MLOAD PUSH3 0x461BCD PUSH1 0xE5 SHL DUP2 MSTORE PUSH1 0x20 PUSH1 0x4 DUP3 ADD MSTORE PUSH1 0x1C PUSH1 0x24 DUP3 ADD MSTORE PUSH32 0x4552433732313A20746F6B656E20616C7265616479206D696E74656400000000 PUSH1 0x44 DUP3 ADD MSTORE PUSH1 0x64 ADD PUSH2 0x4BF JUMP JUMPDEST PUSH2 0x150E PUSH1 0x0 DUP4 DUP4 PUSH1 0x1 PUSH2 0x119D JUMP JUMPDEST PUSH1 0x0 DUP2 DUP2 MSTORE PUSH1 0x2 PUSH1 0x20 MSTORE PUSH1 0x40 SWAP1 KECCAK256 SLOAD PUSH1 0x1 PUSH1 0x1 PUSH1 0xA0 SHL SUB AND ISZERO PUSH2 0x1573 JUMPI PUSH1 0x40 MLOAD PUSH3 0x461BCD PUSH1 0xE5 SHL DUP2 MSTORE PUSH1 0x20 PUSH1 0x4 DUP3 ADD MSTORE PUSH1 0x1C PUSH1 0x24 DUP3 ADD MSTORE PUSH32 0x4552433732313A20746F6B656E20616C7265616479206D696E74656400000000 PUSH1 0x44 DUP3 ADD MSTORE PUSH1 0x64 ADD PUSH2 0x4BF JUMP JUMPDEST PUSH1 0x1 PUSH1 0x1 PUSH1 0xA0 SHL SUB DUP3 AND PUSH1 0x0 DUP2 DUP2 MSTORE PUSH1 0x3 PUSH1 0x20 SWAP1 DUP2 MSTORE PUSH1 0x40 DUP1 DUP4 KECCAK256 DUP1 SLOAD PUSH1 0x1 ADD SWAP1 SSTORE DUP5 DUP4 MSTORE PUSH1 0x2 SWAP1 SWAP2 MSTORE DUP1 DUP3 KECCAK256 DUP1 SLOAD PUSH1 0x1 PUSH1 0x1 PUSH1 0xA0 SHL SUB NOT AND DUP5 OR SWAP1 SSTORE MLOAD DUP4 SWAP3 SWAP2 SWAP1 PUSH32 0xDDF252AD1BE2C89B69C2B068FC378DAA952BA7F163C4A11628F55A4DF523B3EF SWAP1 DUP3 SWAP1 LOG4 POP POP JUMP JUMPDEST PUSH1 0x1 PUSH1 0x1 PUSH1 0xE0 SHL SUB NOT DUP2 AND DUP2 EQ PUSH2 0x623 JUMPI PUSH1 0x0 DUP1 REVERT JUMPDEST PUSH1 0x0 PUSH1 0x20 DUP3 DUP5 SUB SLT ISZERO PUSH2 0x1606 JUMPI PUSH1 0x0 DUP1 REVERT JUMPDEST DUP2 CALLDATALOAD PUSH2 0x94D DUP2 PUSH2 0x15DE JUMP JUMPDEST PUSH1 0x0 JUMPDEST DUP4 DUP2 LT ISZERO PUSH2 0x162C JUMPI DUP2 DUP2 ADD MLOAD DUP4 DUP3 ADD MSTORE PUSH1 0x20 ADD PUSH2 0x1614 JUMP JUMPDEST POP POP PUSH1 0x0 SWAP2 ADD MSTORE JUMP JUMPDEST PUSH1 0x0 DUP2 MLOAD DUP1 DUP5 MSTORE PUSH2 0x164D DUP2 PUSH1 0x20 DUP7 ADD PUSH1 0x20 DUP7 ADD PUSH2 0x1611 JUMP JUMPDEST PUSH1 0x1F ADD PUSH1 0x1F NOT AND SWAP3 SWAP1 SWAP3 ADD PUSH1 0x20 ADD SWAP3 SWAP2 POP POP JUMP JUMPDEST PUSH1 0x20 DUP2 MSTORE PUSH1 0x0 PUSH2 0x94D PUSH1 0x20 DUP4 ADD DUP5 PUSH2 0x1635 JUMP JUMPDEST PUSH1 0x0 PUSH1 0x20 DUP3 DUP5 SUB SLT ISZERO PUSH2 0x1686 JUMPI PUSH1 0x0 DUP1 REVERT JUMPDEST POP CALLDATALOAD SWAP2 SWAP1 POP JUMP JUMPDEST DUP1 CALLDATALOAD PUSH1 0x1 PUSH1 0x1 PUSH1 0xA0 SHL SUB DUP2 AND DUP2 EQ PUSH2 0x16A4 JUMPI PUSH1 0x0 DUP1 REVERT JUMPDEST SWAP2 SWAP1 POP JUMP JUMPDEST PUSH1 0x0 DUP1 PUSH1 0x40 DUP4 DUP6 SUB SLT ISZERO PUSH2 0x16BC JUMPI PUSH1 0x0 DUP1 REVERT JUMPDEST PUSH2 0x16C5 DUP4 PUSH2 0x168D JUMP JUMPDEST SWAP5 PUSH1 0x20 SWAP4 SWAP1 SWAP4 ADD CALLDATALOAD SWAP4 POP POP POP JUMP JUMPDEST PUSH1 0x0 DUP1 PUSH1 0x0 PUSH1 0x60 DUP5 DUP7 SUB SLT ISZERO PUSH2 0x16E8 JUMPI PUSH1 0x0 DUP1 REVERT JUMPDEST PUSH2 0x16F1 DUP5 PUSH2 0x168D JUMP JUMPDEST SWAP3 POP PUSH2 0x16FF PUSH1 0x20 DUP6 ADD PUSH2 0x168D JUMP JUMPDEST SWAP2 POP PUSH1 0x40 DUP5 ADD CALLDATALOAD SWAP1 POP SWAP3 POP SWAP3 POP SWAP3 JUMP JUMPDEST PUSH1 0x0 PUSH1 0x20 DUP3 DUP5 SUB SLT ISZERO PUSH2 0x1721 JUMPI PUSH1 0x0 DUP1 REVERT JUMPDEST PUSH2 0x94D DUP3 PUSH2 0x168D JUMP JUMPDEST PUSH1 0x0 DUP1 PUSH1 0x40 DUP4 DUP6 SUB SLT ISZERO PUSH2 0x173D JUMPI PUSH1 0x0 DUP1 REVERT JUMPDEST POP POP DUP1 CALLDATALOAD SWAP3 PUSH1 0x20 SWAP1 SWAP2 ADD CALLDATALOAD SWAP2 POP JUMP JUMPDEST PUSH1 0x0 DUP1 PUSH1 0x40 DUP4 DUP6 SUB SLT ISZERO PUSH2 0x175F JUMPI PUSH1 0x0 DUP1 REVERT JUMPDEST PUSH2 0x1768 DUP4 PUSH2 0x168D JUMP JUMPDEST SWAP2 POP PUSH1 0x20 DUP4 ADD CALLDATALOAD DUP1 ISZERO ISZERO DUP2 EQ PUSH2 0x177D JUMPI PUSH1 0x0 DUP1 REVERT JUMPDEST DUP1 SWAP2 POP POP SWAP3 POP SWAP3 SWAP1 POP JUMP JUMPDEST PUSH4 0x4E487B71 PUSH1 0xE0 SHL PUSH1 0x0 MSTORE PUSH1 0x41 PUSH1 0x4 MSTORE PUSH1 0x24 PUSH1 0x0 REVERT JUMPDEST PUSH1 0x0 DUP1 PUSH1 0x0 DUP1 PUSH1 0x80 DUP6 DUP8 SUB SLT ISZERO PUSH2 0x17B4 JUMPI PUSH1 0x0 DUP1 REVERT JUMPDEST PUSH2 0x17BD DUP6 PUSH2 0x168D JUMP JUMPDEST SWAP4 POP PUSH2 0x17CB PUSH1 0x20 DUP7 ADD PUSH2 0x168D JUMP JUMPDEST SWAP3 POP PUSH1 0x40 DUP6 ADD CALLDATALOAD SWAP2 POP PUSH1 0x60 DUP6 ADD CALLDATALOAD PUSH8 0xFFFFFFFFFFFFFFFF DUP1 DUP3 GT ISZERO PUSH2 0x17EF JUMPI PUSH1 0x0 DUP1 REVERT JUMPDEST DUP2 DUP8 ADD SWAP2 POP DUP8 PUSH1 0x1F DUP4 ADD SLT PUSH2 0x1803 JUMPI PUSH1 0x0 DUP1 REVERT JUMPDEST DUP2 CALLDATALOAD DUP2 DUP2 GT ISZERO PUSH2 0x1815 JUMPI PUSH2 0x1815 PUSH2 0x1788 JUMP JUMPDEST PUSH1 0x40 MLOAD PUSH1 0x1F DUP3 ADD PUSH1 0x1F NOT SWAP1 DUP2 AND PUSH1 0x3F ADD AND DUP2 ADD SWAP1 DUP4 DUP3 GT DUP2 DUP4 LT OR ISZERO PUSH2 0x183D JUMPI PUSH2 0x183D PUSH2 0x1788 JUMP JUMPDEST DUP2 PUSH1 0x40 MSTORE DUP3 DUP2 MSTORE DUP11 PUSH1 0x20 DUP5 DUP8 ADD ADD GT ISZERO PUSH2 0x1856 JUMPI PUSH1 0x0 DUP1 REVERT JUMPDEST DUP3 PUSH1 0x20 DUP7 ADD PUSH1 0x20 DUP4 ADD CALLDATACOPY PUSH1 0x0 PUSH1 0x20 DUP5 DUP4 ADD ADD MSTORE DUP1 SWAP6 POP POP POP POP POP POP SWAP3 SWAP6 SWAP2 SWAP5 POP SWAP3 POP JUMP JUMPDEST PUSH1 0x0 DUP1 PUSH1 0x40 DUP4 DUP6 SUB SLT ISZERO PUSH2 0x188D JUMPI PUSH1 0x0 DUP1 REVERT JUMPDEST PUSH2 0x1896 DUP4 PUSH2 0x168D JUMP JUMPDEST SWAP2 POP PUSH2 0x18A4 PUSH1 0x20 DUP5 ADD PUSH2 0x168D JUMP JUMPDEST SWAP1 POP SWAP3 POP SWAP3 SWAP1 POP JUMP JUMPDEST PUSH1 0x1 DUP2 DUP2 SHR SWAP1 DUP3 AND DUP1 PUSH2 0x18C1 JUMPI PUSH1 0x7F DUP3 AND SWAP2 POP JUMPDEST PUSH1 0x20 DUP3 LT DUP2 SUB PUSH2 0x18E1 JUMPI PUSH4 0x4E487B71 PUSH1 0xE0 SHL PUSH1 0x0 MSTORE PUSH1 0x22 PUSH1 0x4 MSTORE PUSH1 0x24 PUSH1 0x0 REVERT JUMPDEST POP SWAP2 SWAP1 POP JUMP JUMPDEST PUSH1 0x20 DUP1 DUP3 MSTORE PUSH1 0x2D SWAP1 DUP3 ADD MSTORE PUSH32 0x4552433732313A2063616C6C6572206973206E6F7420746F6B656E206F776E65 PUSH1 0x40 DUP3 ADD MSTORE PUSH13 0x1C881BDC88185C1C1C9BDD9959 PUSH1 0x9A SHL PUSH1 0x60 DUP3 ADD MSTORE PUSH1 0x80 ADD SWAP1 JUMP JUMPDEST PUSH4 0x4E487B71 PUSH1 0xE0 SHL PUSH1 0x0 MSTORE PUSH1 0x21 PUSH1 0x4 MSTORE PUSH1 0x24 PUSH1 0x0 REVERT JUMPDEST DUP1 DUP3 MUL DUP2 ISZERO DUP3 DUP3 DIV DUP5 EQ OR PUSH2 0x38C JUMPI PUSH4 0x4E487B71 PUSH1 0xE0 SHL PUSH1 0x0 MSTORE PUSH1 0x11 PUSH1 0x4 MSTORE PUSH1 0x24 PUSH1 0x0 REVERT JUMPDEST PUSH1 0x0 DUP4 MLOAD PUSH2 0x1981 DUP2 DUP5 PUSH1 0x20 DUP9 ADD PUSH2 0x1611 JUMP JUMPDEST DUP4 MLOAD SWAP1 DUP4 ADD SWAP1 PUSH2 0x1995 DUP2 DUP4 PUSH1 0x20 DUP9 ADD PUSH2 0x1611 JUMP JUMPDEST ADD SWAP5 SWAP4 POP POP POP POP JUMP JUMPDEST PUSH1 0x20 DUP1 DUP3 MSTORE PUSH1 0x25 SWAP1 DUP3 ADD MSTORE PUSH32 0x4552433732313A207472616E736665722066726F6D20696E636F727265637420 PUSH1 0x40 DUP3 ADD MSTORE PUSH5 0x37BBB732B9 PUSH1 0xD9 SHL PUSH1 0x60 DUP3 ADD MSTORE PUSH1 0x80 ADD SWAP1 JUMP JUMPDEST PUSH1 0x20 DUP1 DUP3 MSTORE PUSH1 0x32 SWAP1 DUP3 ADD MSTORE PUSH32 0x4552433732313A207472616E7366657220746F206E6F6E204552433732315265 PUSH1 0x40 DUP3 ADD MSTORE PUSH18 0x31B2B4BB32B91034B6B83632B6B2B73A32B9 PUSH1 0x71 SHL PUSH1 0x60 DUP3 ADD MSTORE PUSH1 0x80 ADD SWAP1 JUMP JUMPDEST PUSH1 0x1 PUSH1 0x1 PUSH1 0xA0 SHL SUB DUP6 DUP2 AND DUP3 MSTORE DUP5 AND PUSH1 0x20 DUP3 ADD MSTORE PUSH1 0x40 DUP2 ADD DUP4 SWAP1 MSTORE PUSH1 0x80 PUSH1 0x60 DUP3 ADD DUP2 SWAP1 MSTORE PUSH1 0x0 SWAP1 PUSH2 0x1A68 SWAP1 DUP4 ADD DUP5 PUSH2 0x1635 JUMP JUMPDEST SWAP7 SWAP6 POP POP POP POP POP POP JUMP JUMPDEST PUSH1 0x0 PUSH1 0x20 DUP3 DUP5 SUB SLT ISZERO PUSH2 0x1A84 JUMPI PUSH1 0x0 DUP1 REVERT JUMPDEST DUP2 MLOAD PUSH2 0x94D DUP2 PUSH2 0x15DE JUMP INVALID LOG2 PUSH5 0x6970667358 0x22 SLT KECCAK256 PUSH14 0x41E4AAE1B845E2283AE2C30D8D8A CALLDATASIZE EXTCODEHASH 0xC7 0xF9 0xAE PUSH15 0x2ADA960A529D39F0F5A1E964736F6C PUSH4 0x43000812 STOP CALLER "
				},
				"gasEstimates": {
					"creation": {
						"codeDepositCost": "1370600",
						"executionCost": "infinite",
						"totalCost": "infinite"
					},
					"external": {
						"approve(address,uint256)": "infinite",
						"balanceOf(address)": "2612",
						"burn(uint256)": "infinite",
						"getApproved(uint256)": "4792",
						"getNftPrice(uint256)": "2505",
						"isApprovedForAll(address,address)": "infinite",
						"name()": "infinite",
						"owner()": "2453",
						"ownerOf(uint256)": "2671",
						"pause()": "infinite",
						"paused()": "2404",
						"placeNftForFixedPrice(uint256,uint256)": "55376",
						"renounceOwnership()": "infinite",
						"safeMint(address)": "infinite",
						"safeTransferFrom(address,address,uint256)": "infinite",
						"safeTransferFrom(address,address,uint256,bytes)": "infinite",
						"setApprovalForAll(address,bool)": "26705",
						"supportsInterface(bytes4)": "534",
						"symbol()": "infinite",
						"tokenURI(uint256)": "infinite",
						"transferFrom(address,address,uint256)": "infinite",
						"transferOwnership(address)": "28501",
						"unpause()": "infinite",
						"updateNFTPrice(uint256,uint256)": "31396"
					},
					"internal": {
						"_beforeTokenTransfer(address,address,uint256,uint256)": "infinite"
					}
				},
				"methodIdentifiers": {
					"approve(address,uint256)": "095ea7b3",
					"balanceOf(address)": "70a08231",
					"burn(uint256)": "42966c68",
					"getApproved(uint256)": "081812fc",
					"getNftPrice(uint256)": "7bf0989a",
					"isApprovedForAll(address,address)": "e985e9c5",
					"name()": "06fdde03",
					"owner()": "8da5cb5b",
					"ownerOf(uint256)": "6352211e",
					"pause()": "8456cb59",
					"paused()": "5c975abb",
					"placeNftForFixedPrice(uint256,uint256)": "eec5f9f0",
					"renounceOwnership()": "715018a6",
					"safeMint(address)": "40d097c3",
					"safeTransferFrom(address,address,uint256)": "42842e0e",
					"safeTransferFrom(address,address,uint256,bytes)": "b88d4fde",
					"setApprovalForAll(address,bool)": "a22cb465",
					"supportsInterface(bytes4)": "01ffc9a7",
					"symbol()": "95d89b41",
					"tokenURI(uint256)": "c87b56dd",
					"transferFrom(address,address,uint256)": "23b872dd",
					"transferOwnership(address)": "f2fde38b",
					"unpause()": "3f4ba83a",
					"updateNFTPrice(uint256,uint256)": "4ac0123d"
				}
			},
			"storageLayout": {
				"storage": [
					{
						"astId": 246,
						"contract": "contracts/charityNFT.sol:CharityToken",
						"label": "_name",
						"offset": 0,
						"slot": "0",
						"type": "t_string_storage"
					},
					{
						"astId": 248,
						"contract": "contracts/charityNFT.sol:CharityToken",
						"label": "_symbol",
						"offset": 0,
						"slot": "1",
						"type": "t_string_storage"
					},
					{
						"astId": 252,
						"contract": "contracts/charityNFT.sol:CharityToken",
						"label": "_owners",
						"offset": 0,
						"slot": "2",
						"type": "t_mapping(t_uint256,t_address)"
					},
					{
						"astId": 256,
						"contract": "contracts/charityNFT.sol:CharityToken",
						"label": "_balances",
						"offset": 0,
						"slot": "3",
						"type": "t_mapping(t_address,t_uint256)"
					},
					{
						"astId": 260,
						"contract": "contracts/charityNFT.sol:CharityToken",
						"label": "_tokenApprovals",
						"offset": 0,
						"slot": "4",
						"type": "t_mapping(t_uint256,t_address)"
					},
					{
						"astId": 266,
						"contract": "contracts/charityNFT.sol:CharityToken",
						"label": "_operatorApprovals",
						"offset": 0,
						"slot": "5",
						"type": "t_mapping(t_address,t_mapping(t_address,t_bool))"
					},
					{
						"astId": 130,
						"contract": "contracts/charityNFT.sol:CharityToken",
						"label": "_paused",
						"offset": 0,
						"slot": "6",
						"type": "t_bool"
					},
					{
						"astId": 7,
						"contract": "contracts/charityNFT.sol:CharityToken",
						"label": "_owner",
						"offset": 1,
						"slot": "6",
						"type": "t_address"
					},
					{
						"astId": 3022,
						"contract": "contracts/charityNFT.sol:CharityToken",
						"label": "_tokenIdCounter",
						"offset": 0,
						"slot": "7",
						"type": "t_struct(Counter)1696_storage"
					},
					{
						"astId": 3027,
						"contract": "contracts/charityNFT.sol:CharityToken",
						"label": "NftDetails",
						"offset": 0,
						"slot": "8",
						"type": "t_mapping(t_uint256,t_struct(NFT)3044_storage)"
					}
				],
				"types": {
					"t_address": {
						"encoding": "inplace",
						"label": "address",
						"numberOfBytes": "20"
					},
					"t_bool": {
						"encoding": "inplace",
						"label": "bool",
						"numberOfBytes": "1"
					},
					"t_enum(charityCat)3035": {
						"encoding": "inplace",
						"label": "enum CharityToken.charityCat",
						"numberOfBytes": "1"
					},
					"t_enum(status)3030": {
						"encoding": "inplace",
						"label": "enum CharityToken.status",
						"numberOfBytes": "1"
					},
					"t_mapping(t_address,t_bool)": {
						"encoding": "mapping",
						"key": "t_address",
						"label": "mapping(address => bool)",
						"numberOfBytes": "32",
						"value": "t_bool"
					},
					"t_mapping(t_address,t_mapping(t_address,t_bool))": {
						"encoding": "mapping",
						"key": "t_address",
						"label": "mapping(address => mapping(address => bool))",
						"numberOfBytes": "32",
						"value": "t_mapping(t_address,t_bool)"
					},
					"t_mapping(t_address,t_uint256)": {
						"encoding": "mapping",
						"key": "t_address",
						"label": "mapping(address => uint256)",
						"numberOfBytes": "32",
						"value": "t_uint256"
					},
					"t_mapping(t_uint256,t_address)": {
						"encoding": "mapping",
						"key": "t_uint256",
						"label": "mapping(uint256 => address)",
						"numberOfBytes": "32",
						"value": "t_address"
					},
					"t_mapping(t_uint256,t_struct(NFT)3044_storage)": {
						"encoding": "mapping",
						"key": "t_uint256",
						"label": "mapping(uint256 => struct CharityToken.NFT)",
						"numberOfBytes": "32",
						"value": "t_struct(NFT)3044_storage"
					},
					"t_string_storage": {
						"encoding": "bytes",
						"label": "string",
						"numberOfBytes": "32"
					},
					"t_struct(Counter)1696_storage": {
						"encoding": "inplace",
						"label": "struct Counters.Counter",
						"members": [
							{
								"astId": 1695,
								"contract": "contracts/charityNFT.sol:CharityToken",
								"label": "_value",
								"offset": 0,
								"slot": "0",
								"type": "t_uint256"
							}
						],
						"numberOfBytes": "32"
					},
					"t_struct(NFT)3044_storage": {
						"encoding": "inplace",
						"label": "struct CharityToken.NFT",
						"members": [
							{
								"astId": 3037,
								"contract": "contracts/charityNFT.sol:CharityToken",
								"label": "NftPrice",
								"offset": 0,
								"slot": "0",
								"type": "t_uint256"
							},
							{
								"astId": 3040,
								"contract": "contracts/charityNFT.sol:CharityToken",
								"label": "Nftstatus",
								"offset": 0,
								"slot": "1",
								"type": "t_enum(status)3030"
							},
							{
								"astId": 3043,
								"contract": "contracts/charityNFT.sol:CharityToken",
								"label": "CharityCategory",
								"offset": 1,
								"slot": "1",
								"type": "t_enum(charityCat)3035"
							}
						],
						"numberOfBytes": "64"
					},
					"t_uint256": {
						"encoding": "inplace",
						"label": "uint256",
						"numberOfBytes": "32"
					}
				}
			},
			"userdoc": {
				"kind": "user",
				"methods": {},
				"version": 1
			}
		}
	}
}