{
	"data": {
		"bytecode": {
			"linkReferences": {},
			"object": "608060405234801561001057600080fd5b50610207806100206000396000f3fe608060405234801561001057600080fd5b50600436106100415760003560e01c80635f404c69146100465780638f28864414610082578063e3306a6f146100a3575b600080fd5b61006c610054366004610164565b60009081526003602052604090206007015460ff1690565b6040516100799190610193565b60405180910390f35b610095610090366004610164565b6100b0565b604051908152602001610079565b60025461006c9060ff1681565b600081600160008281526003602081905260409091206007015460ff16908111156100dd576100dd61017d565b1461012e5760405162461bcd60e51b815260206004820181905260248201527f4e6674206973204e6f7420417661696c61626c6520666f722041756374696f6e604482015260640160405180910390fd5b6000838152600360205260409020600681015481548110610151576101516101bb565b9060005260206000200154915050919050565b60006020828403121561017657600080fd5b5035919050565b634e487b7160e01b600052602160045260246000fd5b60208101600483106101b557634e487b7160e01b600052602160045260246000fd5b91905290565b634e487b7160e01b600052603260045260246000fdfea2646970667358221220127bf23b78f52854f31a5defdd7cee685660c80ddb94a6ce116ec46af8f68ac064736f6c63430008120033",
			"opcodes": "PUSH1 0x80 PUSH1 0x40 MSTORE CALLVALUE DUP1 ISZERO PUSH2 0x10 JUMPI PUSH1 0x0 DUP1 REVERT JUMPDEST POP PUSH2 0x207 DUP1 PUSH2 0x20 PUSH1 0x0 CODECOPY PUSH1 0x0 RETURN INVALID PUSH1 0x80 PUSH1 0x40 MSTORE CALLVALUE DUP1 ISZERO PUSH2 0x10 JUMPI PUSH1 0x0 DUP1 REVERT JUMPDEST POP PUSH1 0x4 CALLDATASIZE LT PUSH2 0x41 JUMPI PUSH1 0x0 CALLDATALOAD PUSH1 0xE0 SHR DUP1 PUSH4 0x5F404C69 EQ PUSH2 0x46 JUMPI DUP1 PUSH4 0x8F288644 EQ PUSH2 0x82 JUMPI DUP1 PUSH4 0xE3306A6F EQ PUSH2 0xA3 JUMPI JUMPDEST PUSH1 0x0 DUP1 REVERT JUMPDEST PUSH2 0x6C PUSH2 0x54 CALLDATASIZE PUSH1 0x4 PUSH2 0x164 JUMP JUMPDEST PUSH1 0x0 SWAP1 DUP2 MSTORE PUSH1 0x3 PUSH1 0x20 MSTORE PUSH1 0x40 SWAP1 KECCAK256 PUSH1 0x7 ADD SLOAD PUSH1 0xFF AND SWAP1 JUMP JUMPDEST PUSH1 0x40 MLOAD PUSH2 0x79 SWAP2 SWAP1 PUSH2 0x193 JUMP JUMPDEST PUSH1 0x40 MLOAD DUP1 SWAP2 SUB SWAP1 RETURN JUMPDEST PUSH2 0x95 PUSH2 0x90 CALLDATASIZE PUSH1 0x4 PUSH2 0x164 JUMP JUMPDEST PUSH2 0xB0 JUMP JUMPDEST PUSH1 0x40 MLOAD SWAP1 DUP2 MSTORE PUSH1 0x20 ADD PUSH2 0x79 JUMP JUMPDEST PUSH1 0x2 SLOAD PUSH2 0x6C SWAP1 PUSH1 0xFF AND DUP2 JUMP JUMPDEST PUSH1 0x0 DUP2 PUSH1 0x1 PUSH1 0x0 DUP3 DUP2 MSTORE PUSH1 0x3 PUSH1 0x20 DUP2 SWAP1 MSTORE PUSH1 0x40 SWAP1 SWAP2 KECCAK256 PUSH1 0x7 ADD SLOAD PUSH1 0xFF AND SWAP1 DUP2 GT ISZERO PUSH2 0xDD JUMPI PUSH2 0xDD PUSH2 0x17D JUMP JUMPDEST EQ PUSH2 0x12E JUMPI PUSH1 0x40 MLOAD PUSH3 0x461BCD PUSH1 0xE5 SHL DUP2 MSTORE PUSH1 0x20 PUSH1 0x4 DUP3 ADD DUP2 SWAP1 MSTORE PUSH1 0x24 DUP3 ADD MSTORE PUSH32 0x4E6674206973204E6F7420417661696C61626C6520666F722041756374696F6E PUSH1 0x44 DUP3 ADD MSTORE PUSH1 0x64 ADD PUSH1 0x40 MLOAD DUP1 SWAP2 SUB SWAP1 REVERT JUMPDEST PUSH1 0x0 DUP4 DUP2 MSTORE PUSH1 0x3 PUSH1 0x20 MSTORE PUSH1 0x40 SWAP1 KECCAK256 PUSH1 0x6 DUP2 ADD SLOAD DUP2 SLOAD DUP2 LT PUSH2 0x151 JUMPI PUSH2 0x151 PUSH2 0x1BB JUMP JUMPDEST SWAP1 PUSH1 0x0 MSTORE PUSH1 0x20 PUSH1 0x0 KECCAK256 ADD SLOAD SWAP2 POP POP SWAP2 SWAP1 POP JUMP JUMPDEST PUSH1 0x0 PUSH1 0x20 DUP3 DUP5 SUB SLT ISZERO PUSH2 0x176 JUMPI PUSH1 0x0 DUP1 REVERT JUMPDEST POP CALLDATALOAD SWAP2 SWAP1 POP JUMP JUMPDEST PUSH4 0x4E487B71 PUSH1 0xE0 SHL PUSH1 0x0 MSTORE PUSH1 0x21 PUSH1 0x4 MSTORE PUSH1 0x24 PUSH1 0x0 REVERT JUMPDEST PUSH1 0x20 DUP2 ADD PUSH1 0x4 DUP4 LT PUSH2 0x1B5 JUMPI PUSH4 0x4E487B71 PUSH1 0xE0 SHL PUSH1 0x0 MSTORE PUSH1 0x21 PUSH1 0x4 MSTORE PUSH1 0x24 PUSH1 0x0 REVERT JUMPDEST SWAP2 SWAP1 MSTORE SWAP1 JUMP JUMPDEST PUSH4 0x4E487B71 PUSH1 0xE0 SHL PUSH1 0x0 MSTORE PUSH1 0x32 PUSH1 0x4 MSTORE PUSH1 0x24 PUSH1 0x0 REVERT INVALID LOG2 PUSH5 0x6970667358 0x22 SLT KECCAK256 SLT PUSH28 0xF23B78F52854F31A5DEFDD7CEE685660C80DDB94A6CE116EC46AF8F6 DUP11 0xC0 PUSH5 0x736F6C6343 STOP ADDMOD SLT STOP CALLER "
		},
		"gasEstimates": {
			"creation": {
				"codeDepositCost": "103800",
				"executionCost": "153",
				"totalCost": "103953"
			},
			"external": {
				"CheckNftStatus(uint256)": "2475",
				"CurrentStatus()": "2373",
				"getHighestBid(uint256)": "8990"
			},
			"internal": {
				"_addAuctionBid(uint256,uint256)": "infinite",
				"_addOpenBid(uint256,uint256)": "infinite",
				"_extendAuctionTime(uint256,uint256)": "infinite",
				"_getIndexOfHighestBid(uint256)": "infinite",
				"_placeNftForBids(uint256)": "infinite",
				"_pushBidingValues(address,uint256,uint256)": "infinite",
				"_putNftForFixedPrice(uint256,uint256)": "infinite",
				"_putNftForTimedAuction(uint256,uint256,uint256,uint256)": "infinite",
				"_releaseBiddingValue(uint256)": "infinite",
				"_removeFromSale(uint256)": "infinite",
				"_updateBiddingMapping(address,uint256)": "infinite"
			}
		},
		"methodIdentifiers": {
			"CheckNftStatus(uint256)": "5f404c69",
			"CurrentStatus()": "e3306a6f",
			"getHighestBid(uint256)": "8f288644"
		}
	},
	"abi": [
		{
			"anonymous": false,
			"inputs": [
				{
					"indexed": false,
					"internalType": "uint256",
					"name": "",
					"type": "uint256"
				},
				{
					"indexed": false,
					"internalType": "string",
					"name": "",
					"type": "string"
				}
			],
			"name": "availableForBids",
			"type": "event"
		},
		{
			"anonymous": false,
			"inputs": [
				{
					"indexed": false,
					"internalType": "uint256",
					"name": "",
					"type": "uint256"
				},
				{
					"indexed": false,
					"internalType": "string",
					"name": "",
					"type": "string"
				}
			],
			"name": "removeFormSale",
			"type": "event"
		},
		{
			"inputs": [
				{
					"internalType": "uint256",
					"name": "nftId",
					"type": "uint256"
				}
			],
			"name": "CheckNftStatus",
			"outputs": [
				{
					"internalType": "enum DstageNft721Auction.status",
					"name": "",
					"type": "uint8"
				}
			],
			"stateMutability": "view",
			"type": "function"
		},
		{
			"inputs": [],
			"name": "CurrentStatus",
			"outputs": [
				{
					"internalType": "enum DstageNft721Auction.status",
					"name": "",
					"type": "uint8"
				}
			],
			"stateMutability": "view",
			"type": "function"
		},
		{
			"inputs": [
				{
					"internalType": "uint256",
					"name": "nftId",
					"type": "uint256"
				}
			],
			"name": "getHighestBid",
			"outputs": [
				{
					"internalType": "uint256",
					"name": "",
					"type": "uint256"
				}
			],
			"stateMutability": "view",
			"type": "function"
		}
	]
}