{
	"data": {
		"bytecode": {
			"linkReferences": {},
			"object": "6080604052600e805460ff191690553480156200001b57600080fd5b50604051620039c9380380620039c98339810160408190526200003e916200019d565b818160006200004e838262000296565b5060016200005d828262000296565b5050506200007a620000746200008260201b60201c565b62000086565b505062000362565b3390565b600680546001600160a01b038381166001600160a01b0319831681179093556040519116919082907f8be0079c531659141344cd1fd0a4f28419497f9722a3daafe3b4186f6b6457e090600090a35050565b634e487b7160e01b600052604160045260246000fd5b600082601f8301126200010057600080fd5b81516001600160401b03808211156200011d576200011d620000d8565b604051601f8301601f19908116603f01168101908282118183101715620001485762000148620000d8565b816040528381526020925086838588010111156200016557600080fd5b600091505b838210156200018957858201830151818301840152908201906200016a565b600093810190920192909252949350505050565b60008060408385031215620001b157600080fd5b82516001600160401b0380821115620001c957600080fd5b620001d786838701620000ee565b93506020850151915080821115620001ee57600080fd5b50620001fd85828601620000ee565b9150509250929050565b600181811c908216806200021c57607f821691505b6020821081036200023d57634e487b7160e01b600052602260045260246000fd5b50919050565b601f8211156200029157600081815260208120601f850160051c810160208610156200026c5750805b601f850160051c820191505b818110156200028d5782815560010162000278565b5050505b505050565b81516001600160401b03811115620002b257620002b2620000d8565b620002ca81620002c3845462000207565b8462000243565b602080601f831160018114620003025760008415620002e95750858301515b600019600386901b1c1916600185901b1785556200028d565b600085815260208120601f198616915b82811015620003335788860151825594840194600190910190840162000312565b5085821015620003525787850151600019600388901b60f8161c191681555b5050505050600190811b01905550565b61365780620003726000396000f3fe60806040526004361061023b5760003560e01c80638fe2ba491161012e578063d43bf330116100ab578063eb8d24441161006f578063eb8d2444146106a4578063ec4de038146106be578063efc4f1dc146106de578063f2fde38b146106f3578063fcc56a1a1461071357600080fd5b8063d43bf33014610607578063d5b913ae14610627578063e30a62141461063a578063e3306a6f1461065a578063e985e9c51461067457600080fd5b8063acc7b0d1116100f2578063acc7b0d11461057f578063af50191a1461059f578063b5edc9d7146105b4578063c87b56dd146105d4578063ca0d325b146105f457600080fd5b80638fe2ba49146104ea57806395d89b411461050a5780639e4b685f1461051f578063a22cb4651461053f578063a30949c71461055f57600080fd5b80635f515226116101bc578063715018a611610180578063715018a6146104575780638982fe561461046c5780638da5cb5b1461048c5780638eb78484146104aa5780638f288644146104ca57600080fd5b80635f5152261461039e5780636352211e146103e257806366bd78fd146104025780636e8846d31461041757806370a082311461043757600080fd5b8063425ef27811610203578063425ef278146102f8578063481ae3821461030b5780634e32804b1461032b5780635a1ae10d1461033e5780635f404c691461035e57600080fd5b806306fdde0314610240578063081812fc1461026b578063095ea7b3146102a35780631183fae3146102c557806318376e63146102e5575b600080fd5b34801561024c57600080fd5b50610255610726565b6040516102629190612cb5565b60405180910390f35b34801561027757600080fd5b5061028b610286366004612ccf565b6107b8565b6040516001600160a01b039091168152602001610262565b3480156102af57600080fd5b506102c36102be366004612cfd565b610845565b005b3480156102d157600080fd5b506102c36102e0366004612ccf565b61095a565b6102c36102f3366004612dcc565b61098f565b6102c3610306366004612e4a565b610a45565b34801561031757600080fd5b506102c3610326366004612ccf565b610b05565b6102c3610339366004612e6c565b610cbe565b34801561034a57600080fd5b506102c3610359366004612e4a565b610d3e565b34801561036a57600080fd5b50610391610379366004612ccf565b6000908152600d602052604090206007015460ff1690565b6040516102629190612ec3565b3480156103aa57600080fd5b506103d46103b9366004612eeb565b6001600160a01b031660009081526009602052604090205490565b604051908152602001610262565b3480156103ee57600080fd5b5061028b6103fd366004612ccf565b610df2565b34801561040e57600080fd5b506103d4610e6f565b34801561042357600080fd5b506102c3610432366004612ccf565b610ea1565b34801561044357600080fd5b506103d4610452366004612eeb565b610ed0565b34801561046357600080fd5b506102c3610f57565b34801561047857600080fd5b506102c3610487366004612f08565b610f8d565b34801561049857600080fd5b506006546001600160a01b031661028b565b3480156104b657600080fd5b506102c36104c5366004612ccf565b610fed565b3480156104d657600080fd5b506103d46104e5366004612ccf565b611043565b3480156104f657600080fd5b506102c3610505366004612f3a565b6110c2565b34801561051657600080fd5b506102556110ce565b34801561052b57600080fd5b506102c361053a366004612fa6565b6110dd565b34801561054b57600080fd5b506102c361055a366004613010565b6110f4565b34801561056b57600080fd5b506102c361057a36600461304e565b6110ff565b34801561058b57600080fd5b506102c361059a366004612e4a565b611114565b3480156105ab57600080fd5b50610255611144565b3480156105c057600080fd5b506102c36105cf3660046130a5565b6111d2565b3480156105e057600080fd5b506102556105ef366004612ccf565b6111e6565b6102c36106023660046130f5565b6112f5565b34801561061357600080fd5b506102c36106223660046130a5565b611377565b6102c3610635366004612e4a565b6113d9565b34801561064657600080fd5b506102c3610655366004612ccf565b611463565b34801561066657600080fd5b50600c546103919060ff1681565b34801561068057600080fd5b5061069461068f36600461317f565b6114f0565b6040519015158152602001610262565b3480156106b057600080fd5b50600e546106949060ff1681565b3480156106ca57600080fd5b506103d46106d9366004612ccf565b61151e565b3480156106ea57600080fd5b506102c3611588565b3480156106ff57600080fd5b506102c361070e366004612eeb565b6115dc565b6102c36107213660046131ad565b611674565b60606000805461073590613206565b80601f016020809104026020016040519081016040528092919081815260200182805461076190613206565b80156107ae5780601f10610783576101008083540402835291602001916107ae565b820191906000526020600020905b81548152906001019060200180831161079157829003601f168201915b5050505050905090565b60006107c3826116fe565b6108295760405162461bcd60e51b815260206004820152602c60248201527f4552433732313a20617070726f76656420717565727920666f72206e6f6e657860448201526b34b9ba32b73a103a37b5b2b760a11b60648201526084015b60405180910390fd5b506000908152600460205260409020546001600160a01b031690565b600061085082610df2565b9050806001600160a01b0316836001600160a01b0316036108bd5760405162461bcd60e51b815260206004820152602160248201527f4552433732313a20617070726f76616c20746f2063757272656e74206f776e656044820152603960f91b6064820152608401610820565b336001600160a01b03821614806108d957506108d981336114f0565b61094b5760405162461bcd60e51b815260206004820152603860248201527f4552433732313a20617070726f76652063616c6c6572206973206e6f74206f7760448201527f6e6572206e6f7220617070726f76656420666f7220616c6c00000000000000006064820152608401610820565b610955838361171b565b505050565b80610966335b82611789565b6109825760405162461bcd60e51b81526004016108209061323a565b61098b82611853565b5050565b600e5460ff166109b15760405162461bcd60e51b815260040161082090613271565b80341015610a015760405162461bcd60e51b815260206004820152601b60248201527f4572726f722120496e73756666696369656e742042616c616e636500000000006044820152606401610820565b610a0b86866118b0565b610a1585856118ca565b610a2085848461194e565b6000858152601060205260409020349055610a3d818385806119f7565b505050505050565b33600090815260096020526040902054811115610a6657610a663382611a7f565b6000828152600d60205260409020600501548110801590610a965750336000908152600960205260409020548111155b610afb5760405162461bcd60e51b815260206004820152603060248201527f4572726f722120496e73756666696369656e742042616c616e6365206f72204c60448201526f1bddc8109a591a5b99c8105b5bdd5b9d60821b6064820152608401610820565b61098b8282611af7565b80610b0f33610960565b610b2b5760405162461bcd60e51b81526004016108209061323a565b610b3482611bdd565b6000828152600d6020526040902060068101548154610baf9291908110610b5d57610b5d6132a8565b6000918252602080832090910154858352600d90915260409091206006810154600190910180549091908110610b9557610b956132a8565b6000918252602090912001546001600160a01b0316611c7f565b6000828152600d6020526040902060068101548154610c189291908110610bd857610bd86132a8565b6000918252602080832090910154858352600890915260409091205462ffffff600160a01b820416906001600160a01b0316610c1386610df2565b6119f7565b600082815260026020908152604080832054600d909252909120600681015460019091018054610c76936001600160a01b031692908110610c5b57610c5b6132a8565b6000918252602090912001546001600160a01b031684611d0f565b6000828152600d602052604090206006810154815461098292859290918110610ca157610ca16132a8565b906000526020600020015460009182526010602052604090912055565b610cc781611eaf565b60008181526008602090815260408083208151808301835290546001600160a01b03808216835262ffffff600160a01b9092048216838601908152878752601086528487205490518451600290975294909620549295610d2d95909490921692166119f7565b610d38848484611d0f565b50505050565b600e5460ff161515600114610d655760405162461bcd60e51b8152600401610820906132be565b81610d6f33610960565b610d8b5760405162461bcd60e51b81526004016108209061323a565b610d94836116fe565b610dd55760405162461bcd60e51b815260206004820152601260248201527113999d08111bd95cc8139bdd08115e1a5cdd60721b6044820152606401610820565b610ddf8383611f20565b5060009182526010602052604090912055565b6000818152600260205260408120546001600160a01b031680610e695760405162461bcd60e51b815260206004820152602960248201527f4552433732313a206f776e657220717565727920666f72206e6f6e657869737460448201526832b73a103a37b5b2b760b91b6064820152608401610820565b92915050565b6006546000906001600160a01b03163314610e9c5760405162461bcd60e51b8152600401610820906132ea565b504790565b80610eab33610960565b610ec75760405162461bcd60e51b81526004016108209061323a565b61098b82611f9d565b60006001600160a01b038216610f3b5760405162461bcd60e51b815260206004820152602a60248201527f4552433732313a2062616c616e636520717565727920666f7220746865207a65604482015269726f206164647265737360b01b6064820152608401610820565b506001600160a01b031660009081526003602052604090205490565b6006546001600160a01b03163314610f815760405162461bcd60e51b8152600401610820906132ea565b610f8b6000611fdd565b565b600e5460ff161515600114610fb45760405162461bcd60e51b8152600401610820906132be565b83610fbe33610960565b610fda5760405162461bcd60e51b81526004016108209061323a565b610fe68585858561202f565b5050505050565b600e5460ff1615156001146110145760405162461bcd60e51b8152600401610820906132be565b8061101e33610960565b61103a5760405162461bcd60e51b81526004016108209061323a565b61098b82612168565b60008160016000828152600d602052604090206007015460ff16600381111561106e5761106e612ead565b1461108b5760405162461bcd60e51b81526004016108209061331f565b6000838152600d602052604090206006810154815481106110ae576110ae6132a8565b906000526020600020015491505b50919050565b610d388484848461223f565b60606001805461073590613206565b6110e8868686611377565b610a3d8684848461202f565b61098b3383836122ba565b61110a848484611377565b610d388482610d3e565b8161111e33610960565b61113a5760405162461bcd60e51b81526004016108209061323a565b6109558383612388565b600f805461115190613206565b80601f016020809104026020016040519081016040528092919081815260200182805461117d90613206565b80156111ca5780601f1061119f576101008083540402835291602001916111ca565b820191906000526020600020905b8154815290600101906020018083116111ad57829003601f168201915b505050505081565b6111dd838383611377565b61095583612168565b60606111f1826116fe565b6112575760405162461bcd60e51b815260206004820152603160248201527f45524337323155524953746f726167653a2055524920717565727920666f72206044820152703737b732bc34b9ba32b73a103a37b5b2b760791b6064820152608401610820565b6000828152600760205260409020805461127090613206565b80601f016020809104026020016040519081016040528092919081815260200182805461129c90613206565b80156112e95780601f106112be576101008083540402835291602001916112e9565b820191906000526020600020905b8154815290600101906020018083116112cc57829003601f168201915b50505050509050919050565b600e5460ff166113175760405162461bcd60e51b815260040161082090613271565b60328511156113385760405162461bcd60e51b815260040161082090613354565b61134288856118b0565b61134c84846118ca565b61135784898761194e565b6113638483838a61202f565b61136d8487610a45565b5050505050505050565b600e5460ff166113995760405162461bcd60e51b815260040161082090613271565b60328111156113ba5760405162461bcd60e51b815260040161082090613354565b6113c433846118b0565b6113ce83836118ca565b61095583338361194e565b336000908152600960205260409020548111156113fa576113fa3382611a7f565b336000908152600960205260409020548111156114595760405162461bcd60e51b815260206004820152601b60248201527f4572726f722120496e73756666696369656e742042616c616e636500000000006044820152606401610820565b61098b8282612454565b336000908152600a602090815260408083205460099092529091205461148991906133b3565b8111156114e45760405162461bcd60e51b8152602060048201526024808201527f42616c616e6365206973206c6f7720616e6420726573657276656420666f72206044820152634269647360e01b6064820152608401610820565b6114ed816124d9565b50565b6001600160a01b03918216600090815260056020908152604080832093909416825291909152205460ff1690565b6000611529826116fe565b6115755760405162461bcd60e51b815260206004820152601c60248201527f4572726f722120546f6b656e20494420446f65732774204578697374000000006044820152606401610820565b5060009081526010602052604090205490565b6006546001600160a01b031633146115b25760405162461bcd60e51b8152600401610820906132ea565b600e5460ff1615156001036115cd57600e805460ff19169055565b600e805460ff19166001179055565b6006546001600160a01b031633146116065760405162461bcd60e51b8152600401610820906132ea565b6001600160a01b03811661166b5760405162461bcd60e51b815260206004820152602660248201527f4f776e61626c653a206e6577206f776e657220697320746865207a65726f206160448201526564647265737360d01b6064820152608401610820565b6114ed81611fdd565b60008381526010602052604090205434146116d15760405162461bcd60e51b815260206004820152601960248201527f4572726f722120496e73696666696369656e74205072696365000000000000006044820152606401610820565b6000838152600260205260409020546116f5906001600160a01b031683858461223f565b61095583611853565b6000908152600260205260409020546001600160a01b0316151590565b600081815260046020526040902080546001600160a01b0319166001600160a01b038416908117909155819061175082610df2565b6001600160a01b03167f8c5be1e5ebec7d5bd14f71427d1e84f3dd0314c0f7b2291e5b200ac8c7c3b92560405160405180910390a45050565b6000611794826116fe565b6117f55760405162461bcd60e51b815260206004820152602c60248201527f4552433732313a206f70657261746f7220717565727920666f72206e6f6e657860448201526b34b9ba32b73a103a37b5b2b760a11b6064820152608401610820565b600061180083610df2565b9050806001600160a01b0316846001600160a01b0316148061183b5750836001600160a01b0316611830846107b8565b6001600160a01b0316145b8061184b575061184b81856114f0565b949350505050565b61185c816116fe565b61189e5760405162461bcd60e51b81526020600482015260136024820152724e667420446f6573204e6f742045786973747360681b6044820152606401610820565b6118a7816125a0565b6114ed81612702565b61098b8282604051806020016040528060008152506127c0565b6118d3826116fe565b6119365760405162461bcd60e51b815260206004820152602e60248201527f45524337323155524953746f726167653a2055524920736574206f66206e6f6e60448201526d32bc34b9ba32b73a103a37b5b2b760911b6064820152608401610820565b6000828152600760205260409020610955828261340c565b6127108111156119a05760405162461bcd60e51b815260206004820152601a60248201527f45524332393831526f79616c746965733a20546f6f20686967680000000000006044820152606401610820565b6040805180820182526001600160a01b03938416815262ffffff928316602080830191825260009687526008905291909420935184549151909216600160a01b026001600160b81b03199091169190921617179055565b836000611a03826127f3565b90506000611a12878787612866565b905080611a1f83856133b3565b611a2991906133b3565b9250611a3583856128c1565b60408051838152602081018390529081018490527f0d458e9c8fba143aaee61251301adef6b137ef1cbd15c288bca321eeec6121da9060600160405180910390a150505050505050565b80341015611ac65760405162461bcd60e51b8152602060048201526014602482015273496e73756666696369656e742062616c616e636560601b6044820152606401610820565b6001600160a01b03821660009081526009602052604081208054839290611aee9084906134cc565b90915550505050565b8160016000828152600d602052604090206007015460ff166003811115611b2057611b20612ead565b14611b3d5760405162461bcd60e51b81526004016108209061331f565b6000838152600d6020526040902060040154421115611b8f5760405162461bcd60e51b815260206004820152600e60248201526d151a5b59481a5cc813dd995c995960921b6044820152606401610820565b6000838152600d60209081526040822080546001808201835582855283852090910186905590810180549182018155835291200180546001600160a01b0319163317905561095533836128f7565b6000805b6000838152600d6020526040902054811015610955576000838152600d60205260409020805482908110611c1757611c176132a8565b9060005260206000200154821015611c6d576000838152600d60205260409020805482908110611c4957611c496132a8565b6000918252602080832090910154858352600d909152604090912060060182905591505b80611c77816134df565b915050611be1565b6001600160a01b038116600090815260096020526040902054821115611ce75760405162461bcd60e51b815260206004820152601a60248201527f4572726f722120496e736966666963656e742042616c616e63650000000000006044820152606401610820565b6001600160a01b03811660009081526009602052604081208054849290611aee9084906133b3565b826001600160a01b0316611d2282610df2565b6001600160a01b031614611d8a5760405162461bcd60e51b815260206004820152602960248201527f4552433732313a207472616e73666572206f6620746f6b656e2074686174206960448201526839903737ba1037bbb760b91b6064820152608401610820565b6001600160a01b038216611dec5760405162461bcd60e51b8152602060048201526024808201527f4552433732313a207472616e7366657220746f20746865207a65726f206164646044820152637265737360e01b6064820152608401610820565b611df760008261171b565b6001600160a01b0383166000908152600360205260408120805460019290611e209084906133b3565b90915550506001600160a01b0382166000908152600360205260408120805460019290611e4e9084906134cc565b909155505060008181526002602052604080822080546001600160a01b0319166001600160a01b0386811691821790925591518493918716917fddf252ad1be2c89b69c2b068fc378daa952ba7f163c4a11628f55a4df523b3ef91a4505050565b600081815260106020526040902054341015611f0d5760405162461bcd60e51b815260206004820152601c60248201527f416d6f756e74206973204c657373207468656e204e66745072696365000000006044820152606401610820565b6000908152601060205260409020349055565b81600080828152600d602052604090206007015460ff166003811115611f4857611f48612ead565b14611f655760405162461bcd60e51b8152600401610820906134f8565b50600c8054600360ff1991821681179092556000938452600d6020526040909320600781018054909416909117909255600590910155565b611fa68161291f565b60008181526007602052604090208054611fbf90613206565b1590506114ed5760008181526007602052604081206114ed91612c21565b600680546001600160a01b038381166001600160a01b0319831681179093556040519116919082907f8be0079c531659141344cd1fd0a4f28419497f9722a3daafe3b4186f6b6457e090600090a35050565b83600080828152600d602052604090206007015460ff16600381111561205757612057612ead565b146120745760405162461bcd60e51b8152600401610820906134f8565b82841415801561208357508242105b6120c35760405162461bcd60e51b815260206004820152601160248201527022b93937b910902a34b6b29022b93937b960791b6044820152606401610820565b600c805460ff1990811660019081179092556000878152600d6020908152604091829020600781018054909416909417909255600383018790556004830186905560059092018490558151878152908101829052600f818301526e20416363657074696e67204269647360881b606082015290517f0c1458fd10caf8fc934090c8c5296e7ac0422a819bd7a6f4e3769a331f8092019181900360800190a15050505050565b80600080828152600d602052604090206007015460ff16600381111561219057612190612ead565b146121ad5760405162461bcd60e51b8152600401610820906134f8565b600c8054600260ff1991821681179092556000848152600d60205260409020600701805490911660018302179055507f0c1458fd10caf8fc934090c8c5296e7ac0422a819bd7a6f4e3769a331f80920182604051612233918152604060208201819052600e908201526d416363657074696e67204269647360901b606082015260800190565b60405180910390a15050565b61224882611eaf565b60008281526008602090815260408083208151808301835290546001600160a01b03808216835262ffffff600160a01b90920482168386019081528887526010865284872054905184516002909752949096205492956122ae95909490921692166119f7565b610fe6858585856129ba565b816001600160a01b0316836001600160a01b03160361231b5760405162461bcd60e51b815260206004820152601960248201527f4552433732313a20617070726f766520746f2063616c6c6572000000000000006044820152606401610820565b6001600160a01b03838116600081815260056020908152604080832094871680845294825291829020805460ff191686151590811790915591519182527f17307eab39ab6107e8899845ad3d59bd9653f200f220920489ca2b5937696c31910160405180910390a3505050565b8160016000828152600d602052604090206007015460ff1660038111156123b1576123b1612ead565b146123ce5760405162461bcd60e51b81526004016108209061331f565b6000838152600d6020526040902060040154821180156123fe57506000838152600d602052604090206004015442115b61243e5760405162461bcd60e51b815260206004820152601160248201527054696d65205265736574204572726f722160781b6044820152606401610820565b506000918252600d602052604090912060040155565b8160026000828152600d602052604090206007015460ff16600381111561247d5761247d612ead565b14611b8f5760405162461bcd60e51b815260206004820152602660248201527f4572726f7221204e4654206973204e6f7420417661696c61626c6520666f7220604482015265426964696e6760d01b6064820152608401610820565b80158015906124f75750336000908152600960205260409020548111155b61254f5760405162461bcd60e51b8152602060048201526024808201527f4572726f722120416d6f756e74206973207a65726f206f72204c6f772042616c604482015263616e636560e01b6064820152608401610820565b336000908152600960205260408120805483929061256e9084906133b3565b9091555050604051339082156108fc029083906000818181858888f1935050505015801561098b573d6000803e3d6000fd5b8060016000828152600d602052604090206007015460ff1660038111156125c9576125c9612ead565b14806125fa575060026000828152600d602052604090206007015460ff1660038111156125f8576125f8612ead565b145b8061262a575060036000828152600d602052604090206007015460ff16600381111561262857612628612ead565b145b6126765760405162461bcd60e51b815260206004820152601960248201527f4572726f7221204e6674206973204e6f74206f6e2053616c65000000000000006044820152606401610820565b600c805460ff199081169091556000838152600d602090815260409182902060070180549093169092558051848152808301829052908101919091527f4572726f7221204e46542069732072656d6f7665642066726f6d2053616c652060608201527fd07e34e375e195f7168718a8625c1338c13bf1ac256818f9409ed36114b7875590608001612233565b60005b6000828152600d602052604090206001015481101561098b576000828152600d6020526040902080548290811061273e5761273e6132a8565b9060005260206000200154600a6000600d60008681526020019081526020016000206001018481548110612774576127746132a8565b60009182526020808320909101546001600160a01b03168352820192909252604001812080549091906127a89084906133b3565b909155508190506127b8816134df565b915050612705565b6127ca83836129ed565b6127d76000848484612b20565b6109555760405162461bcd60e51b81526004016108209061352f565b60008161280261271082613581565b61280e906127106135a3565b1461284e5760405162461bcd60e51b815260206004820152601060248201526f115c9c9bdc8848151bdbc81cdb585b1b60821b6044820152606401610820565b6103e861285c8360196135a3565b610e699190613581565b600080606461287585876135a3565b61287f9190613581565b6040519091506001600160a01b0384169082156108fc029083906000818181858888f193505050501580156128b8573d6000803e3d6000fd5b50949350505050565b6040516001600160a01b0382169083156108fc029084906000818181858888f19350505050158015610955573d6000803e3d6000fd5b6001600160a01b0382166000908152600a602052604081208054839290611aee9084906134cc565b600061292a82610df2565b905061293760008361171b565b6001600160a01b03811660009081526003602052604081208054600192906129609084906133b3565b909155505060008281526002602052604080822080546001600160a01b0319169055518391906001600160a01b038416907fddf252ad1be2c89b69c2b068fc378daa952ba7f163c4a11628f55a4df523b3ef908390a45050565b6129c5848484611d0f565b6129d184848484612b20565b610d385760405162461bcd60e51b81526004016108209061352f565b6001600160a01b038216612a435760405162461bcd60e51b815260206004820181905260248201527f4552433732313a206d696e7420746f20746865207a65726f20616464726573736044820152606401610820565b612a4c816116fe565b15612a995760405162461bcd60e51b815260206004820152601c60248201527f4552433732313a20746f6b656e20616c7265616479206d696e746564000000006044820152606401610820565b6001600160a01b0382166000908152600360205260408120805460019290612ac29084906134cc565b909155505060008181526002602052604080822080546001600160a01b0319166001600160a01b03861690811790915590518392907fddf252ad1be2c89b69c2b068fc378daa952ba7f163c4a11628f55a4df523b3ef908290a45050565b60006001600160a01b0384163b15612c1657604051630a85bd0160e11b81526001600160a01b0385169063150b7a0290612b649033908990889088906004016135ba565b6020604051808303816000875af1925050508015612b9f575060408051601f3d908101601f19168201909252612b9c918101906135f7565b60015b612bfc573d808015612bcd576040519150601f19603f3d011682016040523d82523d6000602084013e612bd2565b606091505b508051600003612bf45760405162461bcd60e51b81526004016108209061352f565b805181602001fd5b6001600160e01b031916630a85bd0160e11b14905061184b565b506001949350505050565b508054612c2d90613206565b6000825580601f10612c3d575050565b601f0160209004906000526020600020908101906114ed91905b80821115612c6b5760008155600101612c57565b5090565b6000815180845260005b81811015612c9557602081850181015186830182015201612c79565b506000602082860101526020601f19601f83011685010191505092915050565b602081526000612cc86020830184612c6f565b9392505050565b600060208284031215612ce157600080fd5b5035919050565b6001600160a01b03811681146114ed57600080fd5b60008060408385031215612d1057600080fd5b8235612d1b81612ce8565b946020939093013593505050565b634e487b7160e01b600052604160045260246000fd5b600082601f830112612d5057600080fd5b813567ffffffffffffffff80821115612d6b57612d6b612d29565b604051601f8301601f19908116603f01168101908282118183101715612d9357612d93612d29565b81604052838152866020858801011115612dac57600080fd5b836020870160208301376000602085830101528094505050505092915050565b60008060008060008060c08789031215612de557600080fd5b8635612df081612ce8565b955060208701359450604087013567ffffffffffffffff811115612e1357600080fd5b612e1f89828a01612d3f565b9450506060870135612e3081612ce8565b9598949750929560808101359460a0909101359350915050565b60008060408385031215612e5d57600080fd5b50508035926020909101359150565b600080600060608486031215612e8157600080fd5b8335612e8c81612ce8565b92506020840135612e9c81612ce8565b929592945050506040919091013590565b634e487b7160e01b600052602160045260246000fd5b6020810160048310612ee557634e487b7160e01b600052602160045260246000fd5b91905290565b600060208284031215612efd57600080fd5b8135612cc881612ce8565b60008060008060808587031215612f1e57600080fd5b5050823594602084013594506040840135936060013592509050565b60008060008060808587031215612f5057600080fd5b8435612f5b81612ce8565b93506020850135612f6b81612ce8565b925060408501359150606085013567ffffffffffffffff811115612f8e57600080fd5b612f9a87828801612d3f565b91505092959194509250565b60008060008060008060c08789031215612fbf57600080fd5b86359550602087013567ffffffffffffffff811115612fdd57600080fd5b612fe989828a01612d3f565b96999698505050506040850135946060810135946080820135945060a09091013592509050565b6000806040838503121561302357600080fd5b823561302e81612ce8565b91506020830135801515811461304357600080fd5b809150509250929050565b6000806000806080858703121561306457600080fd5b84359350602085013567ffffffffffffffff81111561308257600080fd5b61308e87828801612d3f565b949794965050505060408301359260600135919050565b6000806000606084860312156130ba57600080fd5b83359250602084013567ffffffffffffffff8111156130d857600080fd5b6130e486828701612d3f565b925050604084013590509250925092565b600080600080600080600080610100898b03121561311257600080fd5b883561311d81612ce8565b97506020890135965060408901359550606089013594506080890135935060a089013567ffffffffffffffff81111561315557600080fd5b6131618b828c01612d3f565b93505060c0890135915060e089013590509295985092959890939650565b6000806040838503121561319257600080fd5b823561319d81612ce8565b9150602083013561304381612ce8565b6000806000606084860312156131c257600080fd5b8335925060208401356131d481612ce8565b9150604084013567ffffffffffffffff8111156131f057600080fd5b6131fc86828701612d3f565b9150509250925092565b600181811c9082168061321a57607f821691505b6020821081036110bc57634e487b7160e01b600052602260045260246000fd5b6020808252601c908201527f4572726f7221204f6e6c79206f776e6572206861732041636365737300000000604082015260600190565b60208082526019908201527f4572726f72212053616c65206973204e6f742041637469766500000000000000604082015260600190565b634e487b7160e01b600052603260045260246000fd5b60208082526012908201527153616c65206973204e6f742041637469766560701b604082015260600190565b6020808252818101527f4f776e61626c653a2063616c6c6572206973206e6f7420746865206f776e6572604082015260600190565b6020808252818101527f4e6674206973204e6f7420417661696c61626c6520666f722041756374696f6e604082015260600190565b60208082526029908201527f4572726f7221204d6178696d756d204d696e74696e672050657263656e7461676040820152680329034b9901a9812960bd1b606082015260800190565b634e487b7160e01b600052601160045260246000fd5b81810381811115610e6957610e6961339d565b601f82111561095557600081815260208120601f850160051c810160208610156133ed5750805b601f850160051c820191505b81811015610a3d578281556001016133f9565b815167ffffffffffffffff81111561342657613426612d29565b61343a816134348454613206565b846133c6565b602080601f83116001811461346f57600084156134575750858301515b600019600386901b1c1916600185901b178555610a3d565b600085815260208120601f198616915b8281101561349e5788860151825594840194600190910190840161347f565b50858210156134bc5787850151600019600388901b60f8161c191681555b5050505050600190811b01905550565b80820180821115610e6957610e6961339d565b6000600182016134f1576134f161339d565b5060010190565b6020808252601d908201527f4572726f7221204e667420697320416c7265616479206f6e2053616c65000000604082015260600190565b60208082526032908201527f4552433732313a207472616e7366657220746f206e6f6e20455243373231526560408201527131b2b4bb32b91034b6b83632b6b2b73a32b960711b606082015260800190565b60008261359e57634e487b7160e01b600052601260045260246000fd5b500490565b8082028115828204841417610e6957610e6961339d565b6001600160a01b03858116825284166020820152604081018390526080606082018190526000906135ed90830184612c6f565b9695505050505050565b60006020828403121561360957600080fd5b81516001600160e01b031981168114612cc857600080fdfea2646970667358221220e4014b4281fe2bf37813cb0856516a618845274d85876cd36d198376c3e758aa64736f6c63430008120033",
			"opcodes": "PUSH1 0x80 PUSH1 0x40 MSTORE PUSH1 0xE DUP1 SLOAD PUSH1 0xFF NOT AND SWAP1 SSTORE CALLVALUE DUP1 ISZERO PUSH3 0x1B JUMPI PUSH1 0x0 DUP1 REVERT JUMPDEST POP PUSH1 0x40 MLOAD PUSH3 0x39C9 CODESIZE SUB DUP1 PUSH3 0x39C9 DUP4 CODECOPY DUP2 ADD PUSH1 0x40 DUP2 SWAP1 MSTORE PUSH3 0x3E SWAP2 PUSH3 0x19D JUMP JUMPDEST DUP2 DUP2 PUSH1 0x0 PUSH3 0x4E DUP4 DUP3 PUSH3 0x296 JUMP JUMPDEST POP PUSH1 0x1 PUSH3 0x5D DUP3 DUP3 PUSH3 0x296 JUMP JUMPDEST POP POP POP PUSH3 0x7A PUSH3 0x74 PUSH3 0x82 PUSH1 0x20 SHL PUSH1 0x20 SHR JUMP JUMPDEST PUSH3 0x86 JUMP JUMPDEST POP POP PUSH3 0x362 JUMP JUMPDEST CALLER SWAP1 JUMP JUMPDEST PUSH1 0x6 DUP1 SLOAD PUSH1 0x1 PUSH1 0x1 PUSH1 0xA0 SHL SUB DUP4 DUP2 AND PUSH1 0x1 PUSH1 0x1 PUSH1 0xA0 SHL SUB NOT DUP4 AND DUP2 OR SWAP1 SWAP4 SSTORE PUSH1 0x40 MLOAD SWAP2 AND SWAP2 SWAP1 DUP3 SWAP1 PUSH32 0x8BE0079C531659141344CD1FD0A4F28419497F9722A3DAAFE3B4186F6B6457E0 SWAP1 PUSH1 0x0 SWAP1 LOG3 POP POP JUMP JUMPDEST PUSH4 0x4E487B71 PUSH1 0xE0 SHL PUSH1 0x0 MSTORE PUSH1 0x41 PUSH1 0x4 MSTORE PUSH1 0x24 PUSH1 0x0 REVERT JUMPDEST PUSH1 0x0 DUP3 PUSH1 0x1F DUP4 ADD SLT PUSH3 0x100 JUMPI PUSH1 0x0 DUP1 REVERT JUMPDEST DUP2 MLOAD PUSH1 0x1 PUSH1 0x1 PUSH1 0x40 SHL SUB DUP1 DUP3 GT ISZERO PUSH3 0x11D JUMPI PUSH3 0x11D PUSH3 0xD8 JUMP JUMPDEST PUSH1 0x40 MLOAD PUSH1 0x1F DUP4 ADD PUSH1 0x1F NOT SWAP1 DUP2 AND PUSH1 0x3F ADD AND DUP2 ADD SWAP1 DUP3 DUP3 GT DUP2 DUP4 LT OR ISZERO PUSH3 0x148 JUMPI PUSH3 0x148 PUSH3 0xD8 JUMP JUMPDEST DUP2 PUSH1 0x40 MSTORE DUP4 DUP2 MSTORE PUSH1 0x20 SWAP3 POP DUP7 DUP4 DUP6 DUP9 ADD ADD GT ISZERO PUSH3 0x165 JUMPI PUSH1 0x0 DUP1 REVERT JUMPDEST PUSH1 0x0 SWAP2 POP JUMPDEST DUP4 DUP3 LT ISZERO PUSH3 0x189 JUMPI DUP6 DUP3 ADD DUP4 ADD MLOAD DUP2 DUP4 ADD DUP5 ADD MSTORE SWAP1 DUP3 ADD SWAP1 PUSH3 0x16A JUMP JUMPDEST PUSH1 0x0 SWAP4 DUP2 ADD SWAP1 SWAP3 ADD SWAP3 SWAP1 SWAP3 MSTORE SWAP5 SWAP4 POP POP POP POP JUMP JUMPDEST PUSH1 0x0 DUP1 PUSH1 0x40 DUP4 DUP6 SUB SLT ISZERO PUSH3 0x1B1 JUMPI PUSH1 0x0 DUP1 REVERT JUMPDEST DUP3 MLOAD PUSH1 0x1 PUSH1 0x1 PUSH1 0x40 SHL SUB DUP1 DUP3 GT ISZERO PUSH3 0x1C9 JUMPI PUSH1 0x0 DUP1 REVERT JUMPDEST PUSH3 0x1D7 DUP7 DUP4 DUP8 ADD PUSH3 0xEE JUMP JUMPDEST SWAP4 POP PUSH1 0x20 DUP6 ADD MLOAD SWAP2 POP DUP1 DUP3 GT ISZERO PUSH3 0x1EE JUMPI PUSH1 0x0 DUP1 REVERT JUMPDEST POP PUSH3 0x1FD DUP6 DUP3 DUP7 ADD PUSH3 0xEE JUMP JUMPDEST SWAP2 POP POP SWAP3 POP SWAP3 SWAP1 POP JUMP JUMPDEST PUSH1 0x1 DUP2 DUP2 SHR SWAP1 DUP3 AND DUP1 PUSH3 0x21C JUMPI PUSH1 0x7F DUP3 AND SWAP2 POP JUMPDEST PUSH1 0x20 DUP3 LT DUP2 SUB PUSH3 0x23D JUMPI PUSH4 0x4E487B71 PUSH1 0xE0 SHL PUSH1 0x0 MSTORE PUSH1 0x22 PUSH1 0x4 MSTORE PUSH1 0x24 PUSH1 0x0 REVERT JUMPDEST POP SWAP2 SWAP1 POP JUMP JUMPDEST PUSH1 0x1F DUP3 GT ISZERO PUSH3 0x291 JUMPI PUSH1 0x0 DUP2 DUP2 MSTORE PUSH1 0x20 DUP2 KECCAK256 PUSH1 0x1F DUP6 ADD PUSH1 0x5 SHR DUP2 ADD PUSH1 0x20 DUP7 LT ISZERO PUSH3 0x26C JUMPI POP DUP1 JUMPDEST PUSH1 0x1F DUP6 ADD PUSH1 0x5 SHR DUP3 ADD SWAP2 POP JUMPDEST DUP2 DUP2 LT ISZERO PUSH3 0x28D JUMPI DUP3 DUP2 SSTORE PUSH1 0x1 ADD PUSH3 0x278 JUMP JUMPDEST POP POP POP JUMPDEST POP POP POP JUMP JUMPDEST DUP2 MLOAD PUSH1 0x1 PUSH1 0x1 PUSH1 0x40 SHL SUB DUP2 GT ISZERO PUSH3 0x2B2 JUMPI PUSH3 0x2B2 PUSH3 0xD8 JUMP JUMPDEST PUSH3 0x2CA DUP2 PUSH3 0x2C3 DUP5 SLOAD PUSH3 0x207 JUMP JUMPDEST DUP5 PUSH3 0x243 JUMP JUMPDEST PUSH1 0x20 DUP1 PUSH1 0x1F DUP4 GT PUSH1 0x1 DUP2 EQ PUSH3 0x302 JUMPI PUSH1 0x0 DUP5 ISZERO PUSH3 0x2E9 JUMPI POP DUP6 DUP4 ADD MLOAD JUMPDEST PUSH1 0x0 NOT PUSH1 0x3 DUP7 SWAP1 SHL SHR NOT AND PUSH1 0x1 DUP6 SWAP1 SHL OR DUP6 SSTORE PUSH3 0x28D JUMP JUMPDEST PUSH1 0x0 DUP6 DUP2 MSTORE PUSH1 0x20 DUP2 KECCAK256 PUSH1 0x1F NOT DUP7 AND SWAP2 JUMPDEST DUP3 DUP2 LT ISZERO PUSH3 0x333 JUMPI DUP9 DUP7 ADD MLOAD DUP3 SSTORE SWAP5 DUP5 ADD SWAP5 PUSH1 0x1 SWAP1 SWAP2 ADD SWAP1 DUP5 ADD PUSH3 0x312 JUMP JUMPDEST POP DUP6 DUP3 LT ISZERO PUSH3 0x352 JUMPI DUP8 DUP6 ADD MLOAD PUSH1 0x0 NOT PUSH1 0x3 DUP9 SWAP1 SHL PUSH1 0xF8 AND SHR NOT AND DUP2 SSTORE JUMPDEST POP POP POP POP POP PUSH1 0x1 SWAP1 DUP2 SHL ADD SWAP1 SSTORE POP JUMP JUMPDEST PUSH2 0x3657 DUP1 PUSH3 0x372 PUSH1 0x0 CODECOPY PUSH1 0x0 RETURN INVALID PUSH1 0x80 PUSH1 0x40 MSTORE PUSH1 0x4 CALLDATASIZE LT PUSH2 0x23B JUMPI PUSH1 0x0 CALLDATALOAD PUSH1 0xE0 SHR DUP1 PUSH4 0x8FE2BA49 GT PUSH2 0x12E JUMPI DUP1 PUSH4 0xD43BF330 GT PUSH2 0xAB JUMPI DUP1 PUSH4 0xEB8D2444 GT PUSH2 0x6F JUMPI DUP1 PUSH4 0xEB8D2444 EQ PUSH2 0x6A4 JUMPI DUP1 PUSH4 0xEC4DE038 EQ PUSH2 0x6BE JUMPI DUP1 PUSH4 0xEFC4F1DC EQ PUSH2 0x6DE JUMPI DUP1 PUSH4 0xF2FDE38B EQ PUSH2 0x6F3 JUMPI DUP1 PUSH4 0xFCC56A1A EQ PUSH2 0x713 JUMPI PUSH1 0x0 DUP1 REVERT JUMPDEST DUP1 PUSH4 0xD43BF330 EQ PUSH2 0x607 JUMPI DUP1 PUSH4 0xD5B913AE EQ PUSH2 0x627 JUMPI DUP1 PUSH4 0xE30A6214 EQ PUSH2 0x63A JUMPI DUP1 PUSH4 0xE3306A6F EQ PUSH2 0x65A JUMPI DUP1 PUSH4 0xE985E9C5 EQ PUSH2 0x674 JUMPI PUSH1 0x0 DUP1 REVERT JUMPDEST DUP1 PUSH4 0xACC7B0D1 GT PUSH2 0xF2 JUMPI DUP1 PUSH4 0xACC7B0D1 EQ PUSH2 0x57F JUMPI DUP1 PUSH4 0xAF50191A EQ PUSH2 0x59F JUMPI DUP1 PUSH4 0xB5EDC9D7 EQ PUSH2 0x5B4 JUMPI DUP1 PUSH4 0xC87B56DD EQ PUSH2 0x5D4 JUMPI DUP1 PUSH4 0xCA0D325B EQ PUSH2 0x5F4 JUMPI PUSH1 0x0 DUP1 REVERT JUMPDEST DUP1 PUSH4 0x8FE2BA49 EQ PUSH2 0x4EA JUMPI DUP1 PUSH4 0x95D89B41 EQ PUSH2 0x50A JUMPI DUP1 PUSH4 0x9E4B685F EQ PUSH2 0x51F JUMPI DUP1 PUSH4 0xA22CB465 EQ PUSH2 0x53F JUMPI DUP1 PUSH4 0xA30949C7 EQ PUSH2 0x55F JUMPI PUSH1 0x0 DUP1 REVERT JUMPDEST DUP1 PUSH4 0x5F515226 GT PUSH2 0x1BC JUMPI DUP1 PUSH4 0x715018A6 GT PUSH2 0x180 JUMPI DUP1 PUSH4 0x715018A6 EQ PUSH2 0x457 JUMPI DUP1 PUSH4 0x8982FE56 EQ PUSH2 0x46C JUMPI DUP1 PUSH4 0x8DA5CB5B EQ PUSH2 0x48C JUMPI DUP1 PUSH4 0x8EB78484 EQ PUSH2 0x4AA JUMPI DUP1 PUSH4 0x8F288644 EQ PUSH2 0x4CA JUMPI PUSH1 0x0 DUP1 REVERT JUMPDEST DUP1 PUSH4 0x5F515226 EQ PUSH2 0x39E JUMPI DUP1 PUSH4 0x6352211E EQ PUSH2 0x3E2 JUMPI DUP1 PUSH4 0x66BD78FD EQ PUSH2 0x402 JUMPI DUP1 PUSH4 0x6E8846D3 EQ PUSH2 0x417 JUMPI DUP1 PUSH4 0x70A08231 EQ PUSH2 0x437 JUMPI PUSH1 0x0 DUP1 REVERT JUMPDEST DUP1 PUSH4 0x425EF278 GT PUSH2 0x203 JUMPI DUP1 PUSH4 0x425EF278 EQ PUSH2 0x2F8 JUMPI DUP1 PUSH4 0x481AE382 EQ PUSH2 0x30B JUMPI DUP1 PUSH4 0x4E32804B EQ PUSH2 0x32B JUMPI DUP1 PUSH4 0x5A1AE10D EQ PUSH2 0x33E JUMPI DUP1 PUSH4 0x5F404C69 EQ PUSH2 0x35E JUMPI PUSH1 0x0 DUP1 REVERT JUMPDEST DUP1 PUSH4 0x6FDDE03 EQ PUSH2 0x240 JUMPI DUP1 PUSH4 0x81812FC EQ PUSH2 0x26B JUMPI DUP1 PUSH4 0x95EA7B3 EQ PUSH2 0x2A3 JUMPI DUP1 PUSH4 0x1183FAE3 EQ PUSH2 0x2C5 JUMPI DUP1 PUSH4 0x18376E63 EQ PUSH2 0x2E5 JUMPI JUMPDEST PUSH1 0x0 DUP1 REVERT JUMPDEST CALLVALUE DUP1 ISZERO PUSH2 0x24C JUMPI PUSH1 0x0 DUP1 REVERT JUMPDEST POP PUSH2 0x255 PUSH2 0x726 JUMP JUMPDEST PUSH1 0x40 MLOAD PUSH2 0x262 SWAP2 SWAP1 PUSH2 0x2CB5 JUMP JUMPDEST PUSH1 0x40 MLOAD DUP1 SWAP2 SUB SWAP1 RETURN JUMPDEST CALLVALUE DUP1 ISZERO PUSH2 0x277 JUMPI PUSH1 0x0 DUP1 REVERT JUMPDEST POP PUSH2 0x28B PUSH2 0x286 CALLDATASIZE PUSH1 0x4 PUSH2 0x2CCF JUMP JUMPDEST PUSH2 0x7B8 JUMP JUMPDEST PUSH1 0x40 MLOAD PUSH1 0x1 PUSH1 0x1 PUSH1 0xA0 SHL SUB SWAP1 SWAP2 AND DUP2 MSTORE PUSH1 0x20 ADD PUSH2 0x262 JUMP JUMPDEST CALLVALUE DUP1 ISZERO PUSH2 0x2AF JUMPI PUSH1 0x0 DUP1 REVERT JUMPDEST POP PUSH2 0x2C3 PUSH2 0x2BE CALLDATASIZE PUSH1 0x4 PUSH2 0x2CFD JUMP JUMPDEST PUSH2 0x845 JUMP JUMPDEST STOP JUMPDEST CALLVALUE DUP1 ISZERO PUSH2 0x2D1 JUMPI PUSH1 0x0 DUP1 REVERT JUMPDEST POP PUSH2 0x2C3 PUSH2 0x2E0 CALLDATASIZE PUSH1 0x4 PUSH2 0x2CCF JUMP JUMPDEST PUSH2 0x95A JUMP JUMPDEST PUSH2 0x2C3 PUSH2 0x2F3 CALLDATASIZE PUSH1 0x4 PUSH2 0x2DCC JUMP JUMPDEST PUSH2 0x98F JUMP JUMPDEST PUSH2 0x2C3 PUSH2 0x306 CALLDATASIZE PUSH1 0x4 PUSH2 0x2E4A JUMP JUMPDEST PUSH2 0xA45 JUMP JUMPDEST CALLVALUE DUP1 ISZERO PUSH2 0x317 JUMPI PUSH1 0x0 DUP1 REVERT JUMPDEST POP PUSH2 0x2C3 PUSH2 0x326 CALLDATASIZE PUSH1 0x4 PUSH2 0x2CCF JUMP JUMPDEST PUSH2 0xB05 JUMP JUMPDEST PUSH2 0x2C3 PUSH2 0x339 CALLDATASIZE PUSH1 0x4 PUSH2 0x2E6C JUMP JUMPDEST PUSH2 0xCBE JUMP JUMPDEST CALLVALUE DUP1 ISZERO PUSH2 0x34A JUMPI PUSH1 0x0 DUP1 REVERT JUMPDEST POP PUSH2 0x2C3 PUSH2 0x359 CALLDATASIZE PUSH1 0x4 PUSH2 0x2E4A JUMP JUMPDEST PUSH2 0xD3E JUMP JUMPDEST CALLVALUE DUP1 ISZERO PUSH2 0x36A JUMPI PUSH1 0x0 DUP1 REVERT JUMPDEST POP PUSH2 0x391 PUSH2 0x379 CALLDATASIZE PUSH1 0x4 PUSH2 0x2CCF JUMP JUMPDEST PUSH1 0x0 SWAP1 DUP2 MSTORE PUSH1 0xD PUSH1 0x20 MSTORE PUSH1 0x40 SWAP1 KECCAK256 PUSH1 0x7 ADD SLOAD PUSH1 0xFF AND SWAP1 JUMP JUMPDEST PUSH1 0x40 MLOAD PUSH2 0x262 SWAP2 SWAP1 PUSH2 0x2EC3 JUMP JUMPDEST CALLVALUE DUP1 ISZERO PUSH2 0x3AA JUMPI PUSH1 0x0 DUP1 REVERT JUMPDEST POP PUSH2 0x3D4 PUSH2 0x3B9 CALLDATASIZE PUSH1 0x4 PUSH2 0x2EEB JUMP JUMPDEST PUSH1 0x1 PUSH1 0x1 PUSH1 0xA0 SHL SUB AND PUSH1 0x0 SWAP1 DUP2 MSTORE PUSH1 0x9 PUSH1 0x20 MSTORE PUSH1 0x40 SWAP1 KECCAK256 SLOAD SWAP1 JUMP JUMPDEST PUSH1 0x40 MLOAD SWAP1 DUP2 MSTORE PUSH1 0x20 ADD PUSH2 0x262 JUMP JUMPDEST CALLVALUE DUP1 ISZERO PUSH2 0x3EE JUMPI PUSH1 0x0 DUP1 REVERT JUMPDEST POP PUSH2 0x28B PUSH2 0x3FD CALLDATASIZE PUSH1 0x4 PUSH2 0x2CCF JUMP JUMPDEST PUSH2 0xDF2 JUMP JUMPDEST CALLVALUE DUP1 ISZERO PUSH2 0x40E JUMPI PUSH1 0x0 DUP1 REVERT JUMPDEST POP PUSH2 0x3D4 PUSH2 0xE6F JUMP JUMPDEST CALLVALUE DUP1 ISZERO PUSH2 0x423 JUMPI PUSH1 0x0 DUP1 REVERT JUMPDEST POP PUSH2 0x2C3 PUSH2 0x432 CALLDATASIZE PUSH1 0x4 PUSH2 0x2CCF JUMP JUMPDEST PUSH2 0xEA1 JUMP JUMPDEST CALLVALUE DUP1 ISZERO PUSH2 0x443 JUMPI PUSH1 0x0 DUP1 REVERT JUMPDEST POP PUSH2 0x3D4 PUSH2 0x452 CALLDATASIZE PUSH1 0x4 PUSH2 0x2EEB JUMP JUMPDEST PUSH2 0xED0 JUMP JUMPDEST CALLVALUE DUP1 ISZERO PUSH2 0x463 JUMPI PUSH1 0x0 DUP1 REVERT JUMPDEST POP PUSH2 0x2C3 PUSH2 0xF57 JUMP JUMPDEST CALLVALUE DUP1 ISZERO PUSH2 0x478 JUMPI PUSH1 0x0 DUP1 REVERT JUMPDEST POP PUSH2 0x2C3 PUSH2 0x487 CALLDATASIZE PUSH1 0x4 PUSH2 0x2F08 JUMP JUMPDEST PUSH2 0xF8D JUMP JUMPDEST CALLVALUE DUP1 ISZERO PUSH2 0x498 JUMPI PUSH1 0x0 DUP1 REVERT JUMPDEST POP PUSH1 0x6 SLOAD PUSH1 0x1 PUSH1 0x1 PUSH1 0xA0 SHL SUB AND PUSH2 0x28B JUMP JUMPDEST CALLVALUE DUP1 ISZERO PUSH2 0x4B6 JUMPI PUSH1 0x0 DUP1 REVERT JUMPDEST POP PUSH2 0x2C3 PUSH2 0x4C5 CALLDATASIZE PUSH1 0x4 PUSH2 0x2CCF JUMP JUMPDEST PUSH2 0xFED JUMP JUMPDEST CALLVALUE DUP1 ISZERO PUSH2 0x4D6 JUMPI PUSH1 0x0 DUP1 REVERT JUMPDEST POP PUSH2 0x3D4 PUSH2 0x4E5 CALLDATASIZE PUSH1 0x4 PUSH2 0x2CCF JUMP JUMPDEST PUSH2 0x1043 JUMP JUMPDEST CALLVALUE DUP1 ISZERO PUSH2 0x4F6 JUMPI PUSH1 0x0 DUP1 REVERT JUMPDEST POP PUSH2 0x2C3 PUSH2 0x505 CALLDATASIZE PUSH1 0x4 PUSH2 0x2F3A JUMP JUMPDEST PUSH2 0x10C2 JUMP JUMPDEST CALLVALUE DUP1 ISZERO PUSH2 0x516 JUMPI PUSH1 0x0 DUP1 REVERT JUMPDEST POP PUSH2 0x255 PUSH2 0x10CE JUMP JUMPDEST CALLVALUE DUP1 ISZERO PUSH2 0x52B JUMPI PUSH1 0x0 DUP1 REVERT JUMPDEST POP PUSH2 0x2C3 PUSH2 0x53A CALLDATASIZE PUSH1 0x4 PUSH2 0x2FA6 JUMP JUMPDEST PUSH2 0x10DD JUMP JUMPDEST CALLVALUE DUP1 ISZERO PUSH2 0x54B JUMPI PUSH1 0x0 DUP1 REVERT JUMPDEST POP PUSH2 0x2C3 PUSH2 0x55A CALLDATASIZE PUSH1 0x4 PUSH2 0x3010 JUMP JUMPDEST PUSH2 0x10F4 JUMP JUMPDEST CALLVALUE DUP1 ISZERO PUSH2 0x56B JUMPI PUSH1 0x0 DUP1 REVERT JUMPDEST POP PUSH2 0x2C3 PUSH2 0x57A CALLDATASIZE PUSH1 0x4 PUSH2 0x304E JUMP JUMPDEST PUSH2 0x10FF JUMP JUMPDEST CALLVALUE DUP1 ISZERO PUSH2 0x58B JUMPI PUSH1 0x0 DUP1 REVERT JUMPDEST POP PUSH2 0x2C3 PUSH2 0x59A CALLDATASIZE PUSH1 0x4 PUSH2 0x2E4A JUMP JUMPDEST PUSH2 0x1114 JUMP JUMPDEST CALLVALUE DUP1 ISZERO PUSH2 0x5AB JUMPI PUSH1 0x0 DUP1 REVERT JUMPDEST POP PUSH2 0x255 PUSH2 0x1144 JUMP JUMPDEST CALLVALUE DUP1 ISZERO PUSH2 0x5C0 JUMPI PUSH1 0x0 DUP1 REVERT JUMPDEST POP PUSH2 0x2C3 PUSH2 0x5CF CALLDATASIZE PUSH1 0x4 PUSH2 0x30A5 JUMP JUMPDEST PUSH2 0x11D2 JUMP JUMPDEST CALLVALUE DUP1 ISZERO PUSH2 0x5E0 JUMPI PUSH1 0x0 DUP1 REVERT JUMPDEST POP PUSH2 0x255 PUSH2 0x5EF CALLDATASIZE PUSH1 0x4 PUSH2 0x2CCF JUMP JUMPDEST PUSH2 0x11E6 JUMP JUMPDEST PUSH2 0x2C3 PUSH2 0x602 CALLDATASIZE PUSH1 0x4 PUSH2 0x30F5 JUMP JUMPDEST PUSH2 0x12F5 JUMP JUMPDEST CALLVALUE DUP1 ISZERO PUSH2 0x613 JUMPI PUSH1 0x0 DUP1 REVERT JUMPDEST POP PUSH2 0x2C3 PUSH2 0x622 CALLDATASIZE PUSH1 0x4 PUSH2 0x30A5 JUMP JUMPDEST PUSH2 0x1377 JUMP JUMPDEST PUSH2 0x2C3 PUSH2 0x635 CALLDATASIZE PUSH1 0x4 PUSH2 0x2E4A JUMP JUMPDEST PUSH2 0x13D9 JUMP JUMPDEST CALLVALUE DUP1 ISZERO PUSH2 0x646 JUMPI PUSH1 0x0 DUP1 REVERT JUMPDEST POP PUSH2 0x2C3 PUSH2 0x655 CALLDATASIZE PUSH1 0x4 PUSH2 0x2CCF JUMP JUMPDEST PUSH2 0x1463 JUMP JUMPDEST CALLVALUE DUP1 ISZERO PUSH2 0x666 JUMPI PUSH1 0x0 DUP1 REVERT JUMPDEST POP PUSH1 0xC SLOAD PUSH2 0x391 SWAP1 PUSH1 0xFF AND DUP2 JUMP JUMPDEST CALLVALUE DUP1 ISZERO PUSH2 0x680 JUMPI PUSH1 0x0 DUP1 REVERT JUMPDEST POP PUSH2 0x694 PUSH2 0x68F CALLDATASIZE PUSH1 0x4 PUSH2 0x317F JUMP JUMPDEST PUSH2 0x14F0 JUMP JUMPDEST PUSH1 0x40 MLOAD SWAP1 ISZERO ISZERO DUP2 MSTORE PUSH1 0x20 ADD PUSH2 0x262 JUMP JUMPDEST CALLVALUE DUP1 ISZERO PUSH2 0x6B0 JUMPI PUSH1 0x0 DUP1 REVERT JUMPDEST POP PUSH1 0xE SLOAD PUSH2 0x694 SWAP1 PUSH1 0xFF AND DUP2 JUMP JUMPDEST CALLVALUE DUP1 ISZERO PUSH2 0x6CA JUMPI PUSH1 0x0 DUP1 REVERT JUMPDEST POP PUSH2 0x3D4 PUSH2 0x6D9 CALLDATASIZE PUSH1 0x4 PUSH2 0x2CCF JUMP JUMPDEST PUSH2 0x151E JUMP JUMPDEST CALLVALUE DUP1 ISZERO PUSH2 0x6EA JUMPI PUSH1 0x0 DUP1 REVERT JUMPDEST POP PUSH2 0x2C3 PUSH2 0x1588 JUMP JUMPDEST CALLVALUE DUP1 ISZERO PUSH2 0x6FF JUMPI PUSH1 0x0 DUP1 REVERT JUMPDEST POP PUSH2 0x2C3 PUSH2 0x70E CALLDATASIZE PUSH1 0x4 PUSH2 0x2EEB JUMP JUMPDEST PUSH2 0x15DC JUMP JUMPDEST PUSH2 0x2C3 PUSH2 0x721 CALLDATASIZE PUSH1 0x4 PUSH2 0x31AD JUMP JUMPDEST PUSH2 0x1674 JUMP JUMPDEST PUSH1 0x60 PUSH1 0x0 DUP1 SLOAD PUSH2 0x735 SWAP1 PUSH2 0x3206 JUMP JUMPDEST DUP1 PUSH1 0x1F ADD PUSH1 0x20 DUP1 SWAP2 DIV MUL PUSH1 0x20 ADD PUSH1 0x40 MLOAD SWAP1 DUP2 ADD PUSH1 0x40 MSTORE DUP1 SWAP3 SWAP2 SWAP1 DUP2 DUP2 MSTORE PUSH1 0x20 ADD DUP3 DUP1 SLOAD PUSH2 0x761 SWAP1 PUSH2 0x3206 JUMP JUMPDEST DUP1 ISZERO PUSH2 0x7AE JUMPI DUP1 PUSH1 0x1F LT PUSH2 0x783 JUMPI PUSH2 0x100 DUP1 DUP4 SLOAD DIV MUL DUP4 MSTORE SWAP2 PUSH1 0x20 ADD SWAP2 PUSH2 0x7AE JUMP JUMPDEST DUP3 ADD SWAP2 SWAP1 PUSH1 0x0 MSTORE PUSH1 0x20 PUSH1 0x0 KECCAK256 SWAP1 JUMPDEST DUP2 SLOAD DUP2 MSTORE SWAP1 PUSH1 0x1 ADD SWAP1 PUSH1 0x20 ADD DUP1 DUP4 GT PUSH2 0x791 JUMPI DUP3 SWAP1 SUB PUSH1 0x1F AND DUP3 ADD SWAP2 JUMPDEST POP POP POP POP POP SWAP1 POP SWAP1 JUMP JUMPDEST PUSH1 0x0 PUSH2 0x7C3 DUP3 PUSH2 0x16FE JUMP JUMPDEST PUSH2 0x829 JUMPI PUSH1 0x40 MLOAD PUSH3 0x461BCD PUSH1 0xE5 SHL DUP2 MSTORE PUSH1 0x20 PUSH1 0x4 DUP3 ADD MSTORE PUSH1 0x2C PUSH1 0x24 DUP3 ADD MSTORE PUSH32 0x4552433732313A20617070726F76656420717565727920666F72206E6F6E6578 PUSH1 0x44 DUP3 ADD MSTORE PUSH12 0x34B9BA32B73A103A37B5B2B7 PUSH1 0xA1 SHL PUSH1 0x64 DUP3 ADD MSTORE PUSH1 0x84 ADD JUMPDEST PUSH1 0x40 MLOAD DUP1 SWAP2 SUB SWAP1 REVERT JUMPDEST POP PUSH1 0x0 SWAP1 DUP2 MSTORE PUSH1 0x4 PUSH1 0x20 MSTORE PUSH1 0x40 SWAP1 KECCAK256 SLOAD PUSH1 0x1 PUSH1 0x1 PUSH1 0xA0 SHL SUB AND SWAP1 JUMP JUMPDEST PUSH1 0x0 PUSH2 0x850 DUP3 PUSH2 0xDF2 JUMP JUMPDEST SWAP1 POP DUP1 PUSH1 0x1 PUSH1 0x1 PUSH1 0xA0 SHL SUB AND DUP4 PUSH1 0x1 PUSH1 0x1 PUSH1 0xA0 SHL SUB AND SUB PUSH2 0x8BD JUMPI PUSH1 0x40 MLOAD PUSH3 0x461BCD PUSH1 0xE5 SHL DUP2 MSTORE PUSH1 0x20 PUSH1 0x4 DUP3 ADD MSTORE PUSH1 0x21 PUSH1 0x24 DUP3 ADD MSTORE PUSH32 0x4552433732313A20617070726F76616C20746F2063757272656E74206F776E65 PUSH1 0x44 DUP3 ADD MSTORE PUSH1 0x39 PUSH1 0xF9 SHL PUSH1 0x64 DUP3 ADD MSTORE PUSH1 0x84 ADD PUSH2 0x820 JUMP JUMPDEST CALLER PUSH1 0x1 PUSH1 0x1 PUSH1 0xA0 SHL SUB DUP3 AND EQ DUP1 PUSH2 0x8D9 JUMPI POP PUSH2 0x8D9 DUP2 CALLER PUSH2 0x14F0 JUMP JUMPDEST PUSH2 0x94B JUMPI PUSH1 0x40 MLOAD PUSH3 0x461BCD PUSH1 0xE5 SHL DUP2 MSTORE PUSH1 0x20 PUSH1 0x4 DUP3 ADD MSTORE PUSH1 0x38 PUSH1 0x24 DUP3 ADD MSTORE PUSH32 0x4552433732313A20617070726F76652063616C6C6572206973206E6F74206F77 PUSH1 0x44 DUP3 ADD MSTORE PUSH32 0x6E6572206E6F7220617070726F76656420666F7220616C6C0000000000000000 PUSH1 0x64 DUP3 ADD MSTORE PUSH1 0x84 ADD PUSH2 0x820 JUMP JUMPDEST PUSH2 0x955 DUP4 DUP4 PUSH2 0x171B JUMP JUMPDEST POP POP POP JUMP JUMPDEST DUP1 PUSH2 0x966 CALLER JUMPDEST DUP3 PUSH2 0x1789 JUMP JUMPDEST PUSH2 0x982 JUMPI PUSH1 0x40 MLOAD PUSH3 0x461BCD PUSH1 0xE5 SHL DUP2 MSTORE PUSH1 0x4 ADD PUSH2 0x820 SWAP1 PUSH2 0x323A JUMP JUMPDEST PUSH2 0x98B DUP3 PUSH2 0x1853 JUMP JUMPDEST POP POP JUMP JUMPDEST PUSH1 0xE SLOAD PUSH1 0xFF AND PUSH2 0x9B1 JUMPI PUSH1 0x40 MLOAD PUSH3 0x461BCD PUSH1 0xE5 SHL DUP2 MSTORE PUSH1 0x4 ADD PUSH2 0x820 SWAP1 PUSH2 0x3271 JUMP JUMPDEST DUP1 CALLVALUE LT ISZERO PUSH2 0xA01 JUMPI PUSH1 0x40 MLOAD PUSH3 0x461BCD PUSH1 0xE5 SHL DUP2 MSTORE PUSH1 0x20 PUSH1 0x4 DUP3 ADD MSTORE PUSH1 0x1B PUSH1 0x24 DUP3 ADD MSTORE PUSH32 0x4572726F722120496E73756666696369656E742042616C616E63650000000000 PUSH1 0x44 DUP3 ADD MSTORE PUSH1 0x64 ADD PUSH2 0x820 JUMP JUMPDEST PUSH2 0xA0B DUP7 DUP7 PUSH2 0x18B0 JUMP JUMPDEST PUSH2 0xA15 DUP6 DUP6 PUSH2 0x18CA JUMP JUMPDEST PUSH2 0xA20 DUP6 DUP5 DUP5 PUSH2 0x194E JUMP JUMPDEST PUSH1 0x0 DUP6 DUP2 MSTORE PUSH1 0x10 PUSH1 0x20 MSTORE PUSH1 0x40 SWAP1 KECCAK256 CALLVALUE SWAP1 SSTORE PUSH2 0xA3D DUP2 DUP4 DUP6 DUP1 PUSH2 0x19F7 JUMP JUMPDEST POP POP POP POP POP POP JUMP JUMPDEST CALLER PUSH1 0x0 SWAP1 DUP2 MSTORE PUSH1 0x9 PUSH1 0x20 MSTORE PUSH1 0x40 SWAP1 KECCAK256 SLOAD DUP2 GT ISZERO PUSH2 0xA66 JUMPI PUSH2 0xA66 CALLER DUP3 PUSH2 0x1A7F JUMP JUMPDEST PUSH1 0x0 DUP3 DUP2 MSTORE PUSH1 0xD PUSH1 0x20 MSTORE PUSH1 0x40 SWAP1 KECCAK256 PUSH1 0x5 ADD SLOAD DUP2 LT DUP1 ISZERO SWAP1 PUSH2 0xA96 JUMPI POP CALLER PUSH1 0x0 SWAP1 DUP2 MSTORE PUSH1 0x9 PUSH1 0x20 MSTORE PUSH1 0x40 SWAP1 KECCAK256 SLOAD DUP2 GT ISZERO JUMPDEST PUSH2 0xAFB JUMPI PUSH1 0x40 MLOAD PUSH3 0x461BCD PUSH1 0xE5 SHL DUP2 MSTORE PUSH1 0x20 PUSH1 0x4 DUP3 ADD MSTORE PUSH1 0x30 PUSH1 0x24 DUP3 ADD MSTORE PUSH32 0x4572726F722120496E73756666696369656E742042616C616E6365206F72204C PUSH1 0x44 DUP3 ADD MSTORE PUSH16 0x1BDDC8109A591A5B99C8105B5BDD5B9D PUSH1 0x82 SHL PUSH1 0x64 DUP3 ADD MSTORE PUSH1 0x84 ADD PUSH2 0x820 JUMP JUMPDEST PUSH2 0x98B DUP3 DUP3 PUSH2 0x1AF7 JUMP JUMPDEST DUP1 PUSH2 0xB0F CALLER PUSH2 0x960 JUMP JUMPDEST PUSH2 0xB2B JUMPI PUSH1 0x40 MLOAD PUSH3 0x461BCD PUSH1 0xE5 SHL DUP2 MSTORE PUSH1 0x4 ADD PUSH2 0x820 SWAP1 PUSH2 0x323A JUMP JUMPDEST PUSH2 0xB34 DUP3 PUSH2 0x1BDD JUMP JUMPDEST PUSH1 0x0 DUP3 DUP2 MSTORE PUSH1 0xD PUSH1 0x20 MSTORE PUSH1 0x40 SWAP1 KECCAK256 PUSH1 0x6 DUP2 ADD SLOAD DUP2 SLOAD PUSH2 0xBAF SWAP3 SWAP2 SWAP1 DUP2 LT PUSH2 0xB5D JUMPI PUSH2 0xB5D PUSH2 0x32A8 JUMP JUMPDEST PUSH1 0x0 SWAP2 DUP3 MSTORE PUSH1 0x20 DUP1 DUP4 KECCAK256 SWAP1 SWAP2 ADD SLOAD DUP6 DUP4 MSTORE PUSH1 0xD SWAP1 SWAP2 MSTORE PUSH1 0x40 SWAP1 SWAP2 KECCAK256 PUSH1 0x6 DUP2 ADD SLOAD PUSH1 0x1 SWAP1 SWAP2 ADD DUP1 SLOAD SWAP1 SWAP2 SWAP1 DUP2 LT PUSH2 0xB95 JUMPI PUSH2 0xB95 PUSH2 0x32A8 JUMP JUMPDEST PUSH1 0x0 SWAP2 DUP3 MSTORE PUSH1 0x20 SWAP1 SWAP2 KECCAK256 ADD SLOAD PUSH1 0x1 PUSH1 0x1 PUSH1 0xA0 SHL SUB AND PUSH2 0x1C7F JUMP JUMPDEST PUSH1 0x0 DUP3 DUP2 MSTORE PUSH1 0xD PUSH1 0x20 MSTORE PUSH1 0x40 SWAP1 KECCAK256 PUSH1 0x6 DUP2 ADD SLOAD DUP2 SLOAD PUSH2 0xC18 SWAP3 SWAP2 SWAP1 DUP2 LT PUSH2 0xBD8 JUMPI PUSH2 0xBD8 PUSH2 0x32A8 JUMP JUMPDEST PUSH1 0x0 SWAP2 DUP3 MSTORE PUSH1 0x20 DUP1 DUP4 KECCAK256 SWAP1 SWAP2 ADD SLOAD DUP6 DUP4 MSTORE PUSH1 0x8 SWAP1 SWAP2 MSTORE PUSH1 0x40 SWAP1 SWAP2 KECCAK256 SLOAD PUSH3 0xFFFFFF PUSH1 0x1 PUSH1 0xA0 SHL DUP3 DIV AND SWAP1 PUSH1 0x1 PUSH1 0x1 PUSH1 0xA0 SHL SUB AND PUSH2 0xC13 DUP7 PUSH2 0xDF2 JUMP JUMPDEST PUSH2 0x19F7 JUMP JUMPDEST PUSH1 0x0 DUP3 DUP2 MSTORE PUSH1 0x2 PUSH1 0x20 SWAP1 DUP2 MSTORE PUSH1 0x40 DUP1 DUP4 KECCAK256 SLOAD PUSH1 0xD SWAP1 SWAP3 MSTORE SWAP1 SWAP2 KECCAK256 PUSH1 0x6 DUP2 ADD SLOAD PUSH1 0x1 SWAP1 SWAP2 ADD DUP1 SLOAD PUSH2 0xC76 SWAP4 PUSH1 0x1 PUSH1 0x1 PUSH1 0xA0 SHL SUB AND SWAP3 SWAP1 DUP2 LT PUSH2 0xC5B JUMPI PUSH2 0xC5B PUSH2 0x32A8 JUMP JUMPDEST PUSH1 0x0 SWAP2 DUP3 MSTORE PUSH1 0x20 SWAP1 SWAP2 KECCAK256 ADD SLOAD PUSH1 0x1 PUSH1 0x1 PUSH1 0xA0 SHL SUB AND DUP5 PUSH2 0x1D0F JUMP JUMPDEST PUSH1 0x0 DUP3 DUP2 MSTORE PUSH1 0xD PUSH1 0x20 MSTORE PUSH1 0x40 SWAP1 KECCAK256 PUSH1 0x6 DUP2 ADD SLOAD DUP2 SLOAD PUSH2 0x982 SWAP3 DUP6 SWAP3 SWAP1 SWAP2 DUP2 LT PUSH2 0xCA1 JUMPI PUSH2 0xCA1 PUSH2 0x32A8 JUMP JUMPDEST SWAP1 PUSH1 0x0 MSTORE PUSH1 0x20 PUSH1 0x0 KECCAK256 ADD SLOAD PUSH1 0x0 SWAP2 DUP3 MSTORE PUSH1 0x10 PUSH1 0x20 MSTORE PUSH1 0x40 SWAP1 SWAP2 KECCAK256 SSTORE JUMP JUMPDEST PUSH2 0xCC7 DUP2 PUSH2 0x1EAF JUMP JUMPDEST PUSH1 0x0 DUP2 DUP2 MSTORE PUSH1 0x8 PUSH1 0x20 SWAP1 DUP2 MSTORE PUSH1 0x40 DUP1 DUP4 KECCAK256 DUP2 MLOAD DUP1 DUP4 ADD DUP4 MSTORE SWAP1 SLOAD PUSH1 0x1 PUSH1 0x1 PUSH1 0xA0 SHL SUB DUP1 DUP3 AND DUP4 MSTORE PUSH3 0xFFFFFF PUSH1 0x1 PUSH1 0xA0 SHL SWAP1 SWAP3 DIV DUP3 AND DUP4 DUP7 ADD SWAP1 DUP2 MSTORE DUP8 DUP8 MSTORE PUSH1 0x10 DUP7 MSTORE DUP5 DUP8 KECCAK256 SLOAD SWAP1 MLOAD DUP5 MLOAD PUSH1 0x2 SWAP1 SWAP8 MSTORE SWAP5 SWAP1 SWAP7 KECCAK256 SLOAD SWAP3 SWAP6 PUSH2 0xD2D SWAP6 SWAP1 SWAP5 SWAP1 SWAP3 AND SWAP3 AND PUSH2 0x19F7 JUMP JUMPDEST PUSH2 0xD38 DUP5 DUP5 DUP5 PUSH2 0x1D0F JUMP JUMPDEST POP POP POP POP JUMP JUMPDEST PUSH1 0xE SLOAD PUSH1 0xFF AND ISZERO ISZERO PUSH1 0x1 EQ PUSH2 0xD65 JUMPI PUSH1 0x40 MLOAD PUSH3 0x461BCD PUSH1 0xE5 SHL DUP2 MSTORE PUSH1 0x4 ADD PUSH2 0x820 SWAP1 PUSH2 0x32BE JUMP JUMPDEST DUP2 PUSH2 0xD6F CALLER PUSH2 0x960 JUMP JUMPDEST PUSH2 0xD8B JUMPI PUSH1 0x40 MLOAD PUSH3 0x461BCD PUSH1 0xE5 SHL DUP2 MSTORE PUSH1 0x4 ADD PUSH2 0x820 SWAP1 PUSH2 0x323A JUMP JUMPDEST PUSH2 0xD94 DUP4 PUSH2 0x16FE JUMP JUMPDEST PUSH2 0xDD5 JUMPI PUSH1 0x40 MLOAD PUSH3 0x461BCD PUSH1 0xE5 SHL DUP2 MSTORE PUSH1 0x20 PUSH1 0x4 DUP3 ADD MSTORE PUSH1 0x12 PUSH1 0x24 DUP3 ADD MSTORE PUSH18 0x13999D08111BD95CC8139BDD08115E1A5CDD PUSH1 0x72 SHL PUSH1 0x44 DUP3 ADD MSTORE PUSH1 0x64 ADD PUSH2 0x820 JUMP JUMPDEST PUSH2 0xDDF DUP4 DUP4 PUSH2 0x1F20 JUMP JUMPDEST POP PUSH1 0x0 SWAP2 DUP3 MSTORE PUSH1 0x10 PUSH1 0x20 MSTORE PUSH1 0x40 SWAP1 SWAP2 KECCAK256 SSTORE JUMP JUMPDEST PUSH1 0x0 DUP2 DUP2 MSTORE PUSH1 0x2 PUSH1 0x20 MSTORE PUSH1 0x40 DUP2 KECCAK256 SLOAD PUSH1 0x1 PUSH1 0x1 PUSH1 0xA0 SHL SUB AND DUP1 PUSH2 0xE69 JUMPI PUSH1 0x40 MLOAD PUSH3 0x461BCD PUSH1 0xE5 SHL DUP2 MSTORE PUSH1 0x20 PUSH1 0x4 DUP3 ADD MSTORE PUSH1 0x29 PUSH1 0x24 DUP3 ADD MSTORE PUSH32 0x4552433732313A206F776E657220717565727920666F72206E6F6E6578697374 PUSH1 0x44 DUP3 ADD MSTORE PUSH9 0x32B73A103A37B5B2B7 PUSH1 0xB9 SHL PUSH1 0x64 DUP3 ADD MSTORE PUSH1 0x84 ADD PUSH2 0x820 JUMP JUMPDEST SWAP3 SWAP2 POP POP JUMP JUMPDEST PUSH1 0x6 SLOAD PUSH1 0x0 SWAP1 PUSH1 0x1 PUSH1 0x1 PUSH1 0xA0 SHL SUB AND CALLER EQ PUSH2 0xE9C JUMPI PUSH1 0x40 MLOAD PUSH3 0x461BCD PUSH1 0xE5 SHL DUP2 MSTORE PUSH1 0x4 ADD PUSH2 0x820 SWAP1 PUSH2 0x32EA JUMP JUMPDEST POP SELFBALANCE SWAP1 JUMP JUMPDEST DUP1 PUSH2 0xEAB CALLER PUSH2 0x960 JUMP JUMPDEST PUSH2 0xEC7 JUMPI PUSH1 0x40 MLOAD PUSH3 0x461BCD PUSH1 0xE5 SHL DUP2 MSTORE PUSH1 0x4 ADD PUSH2 0x820 SWAP1 PUSH2 0x323A JUMP JUMPDEST PUSH2 0x98B DUP3 PUSH2 0x1F9D JUMP JUMPDEST PUSH1 0x0 PUSH1 0x1 PUSH1 0x1 PUSH1 0xA0 SHL SUB DUP3 AND PUSH2 0xF3B JUMPI PUSH1 0x40 MLOAD PUSH3 0x461BCD PUSH1 0xE5 SHL DUP2 MSTORE PUSH1 0x20 PUSH1 0x4 DUP3 ADD MSTORE PUSH1 0x2A PUSH1 0x24 DUP3 ADD MSTORE PUSH32 0x4552433732313A2062616C616E636520717565727920666F7220746865207A65 PUSH1 0x44 DUP3 ADD MSTORE PUSH10 0x726F2061646472657373 PUSH1 0xB0 SHL PUSH1 0x64 DUP3 ADD MSTORE PUSH1 0x84 ADD PUSH2 0x820 JUMP JUMPDEST POP PUSH1 0x1 PUSH1 0x1 PUSH1 0xA0 SHL SUB AND PUSH1 0x0 SWAP1 DUP2 MSTORE PUSH1 0x3 PUSH1 0x20 MSTORE PUSH1 0x40 SWAP1 KECCAK256 SLOAD SWAP1 JUMP JUMPDEST PUSH1 0x6 SLOAD PUSH1 0x1 PUSH1 0x1 PUSH1 0xA0 SHL SUB AND CALLER EQ PUSH2 0xF81 JUMPI PUSH1 0x40 MLOAD PUSH3 0x461BCD PUSH1 0xE5 SHL DUP2 MSTORE PUSH1 0x4 ADD PUSH2 0x820 SWAP1 PUSH2 0x32EA JUMP JUMPDEST PUSH2 0xF8B PUSH1 0x0 PUSH2 0x1FDD JUMP JUMPDEST JUMP JUMPDEST PUSH1 0xE SLOAD PUSH1 0xFF AND ISZERO ISZERO PUSH1 0x1 EQ PUSH2 0xFB4 JUMPI PUSH1 0x40 MLOAD PUSH3 0x461BCD PUSH1 0xE5 SHL DUP2 MSTORE PUSH1 0x4 ADD PUSH2 0x820 SWAP1 PUSH2 0x32BE JUMP JUMPDEST DUP4 PUSH2 0xFBE CALLER PUSH2 0x960 JUMP JUMPDEST PUSH2 0xFDA JUMPI PUSH1 0x40 MLOAD PUSH3 0x461BCD PUSH1 0xE5 SHL DUP2 MSTORE PUSH1 0x4 ADD PUSH2 0x820 SWAP1 PUSH2 0x323A JUMP JUMPDEST PUSH2 0xFE6 DUP6 DUP6 DUP6 DUP6 PUSH2 0x202F JUMP JUMPDEST POP POP POP POP POP JUMP JUMPDEST PUSH1 0xE SLOAD PUSH1 0xFF AND ISZERO ISZERO PUSH1 0x1 EQ PUSH2 0x1014 JUMPI PUSH1 0x40 MLOAD PUSH3 0x461BCD PUSH1 0xE5 SHL DUP2 MSTORE PUSH1 0x4 ADD PUSH2 0x820 SWAP1 PUSH2 0x32BE JUMP JUMPDEST DUP1 PUSH2 0x101E CALLER PUSH2 0x960 JUMP JUMPDEST PUSH2 0x103A JUMPI PUSH1 0x40 MLOAD PUSH3 0x461BCD PUSH1 0xE5 SHL DUP2 MSTORE PUSH1 0x4 ADD PUSH2 0x820 SWAP1 PUSH2 0x323A JUMP JUMPDEST PUSH2 0x98B DUP3 PUSH2 0x2168 JUMP JUMPDEST PUSH1 0x0 DUP2 PUSH1 0x1 PUSH1 0x0 DUP3 DUP2 MSTORE PUSH1 0xD PUSH1 0x20 MSTORE PUSH1 0x40 SWAP1 KECCAK256 PUSH1 0x7 ADD SLOAD PUSH1 0xFF AND PUSH1 0x3 DUP2 GT ISZERO PUSH2 0x106E JUMPI PUSH2 0x106E PUSH2 0x2EAD JUMP JUMPDEST EQ PUSH2 0x108B JUMPI PUSH1 0x40 MLOAD PUSH3 0x461BCD PUSH1 0xE5 SHL DUP2 MSTORE PUSH1 0x4 ADD PUSH2 0x820 SWAP1 PUSH2 0x331F JUMP JUMPDEST PUSH1 0x0 DUP4 DUP2 MSTORE PUSH1 0xD PUSH1 0x20 MSTORE PUSH1 0x40 SWAP1 KECCAK256 PUSH1 0x6 DUP2 ADD SLOAD DUP2 SLOAD DUP2 LT PUSH2 0x10AE JUMPI PUSH2 0x10AE PUSH2 0x32A8 JUMP JUMPDEST SWAP1 PUSH1 0x0 MSTORE PUSH1 0x20 PUSH1 0x0 KECCAK256 ADD SLOAD SWAP2 POP JUMPDEST POP SWAP2 SWAP1 POP JUMP JUMPDEST PUSH2 0xD38 DUP5 DUP5 DUP5 DUP5 PUSH2 0x223F JUMP JUMPDEST PUSH1 0x60 PUSH1 0x1 DUP1 SLOAD PUSH2 0x735 SWAP1 PUSH2 0x3206 JUMP JUMPDEST PUSH2 0x10E8 DUP7 DUP7 DUP7 PUSH2 0x1377 JUMP JUMPDEST PUSH2 0xA3D DUP7 DUP5 DUP5 DUP5 PUSH2 0x202F JUMP JUMPDEST PUSH2 0x98B CALLER DUP4 DUP4 PUSH2 0x22BA JUMP JUMPDEST PUSH2 0x110A DUP5 DUP5 DUP5 PUSH2 0x1377 JUMP JUMPDEST PUSH2 0xD38 DUP5 DUP3 PUSH2 0xD3E JUMP JUMPDEST DUP2 PUSH2 0x111E CALLER PUSH2 0x960 JUMP JUMPDEST PUSH2 0x113A JUMPI PUSH1 0x40 MLOAD PUSH3 0x461BCD PUSH1 0xE5 SHL DUP2 MSTORE PUSH1 0x4 ADD PUSH2 0x820 SWAP1 PUSH2 0x323A JUMP JUMPDEST PUSH2 0x955 DUP4 DUP4 PUSH2 0x2388 JUMP JUMPDEST PUSH1 0xF DUP1 SLOAD PUSH2 0x1151 SWAP1 PUSH2 0x3206 JUMP JUMPDEST DUP1 PUSH1 0x1F ADD PUSH1 0x20 DUP1 SWAP2 DIV MUL PUSH1 0x20 ADD PUSH1 0x40 MLOAD SWAP1 DUP2 ADD PUSH1 0x40 MSTORE DUP1 SWAP3 SWAP2 SWAP1 DUP2 DUP2 MSTORE PUSH1 0x20 ADD DUP3 DUP1 SLOAD PUSH2 0x117D SWAP1 PUSH2 0x3206 JUMP JUMPDEST DUP1 ISZERO PUSH2 0x11CA JUMPI DUP1 PUSH1 0x1F LT PUSH2 0x119F JUMPI PUSH2 0x100 DUP1 DUP4 SLOAD DIV MUL DUP4 MSTORE SWAP2 PUSH1 0x20 ADD SWAP2 PUSH2 0x11CA JUMP JUMPDEST DUP3 ADD SWAP2 SWAP1 PUSH1 0x0 MSTORE PUSH1 0x20 PUSH1 0x0 KECCAK256 SWAP1 JUMPDEST DUP2 SLOAD DUP2 MSTORE SWAP1 PUSH1 0x1 ADD SWAP1 PUSH1 0x20 ADD DUP1 DUP4 GT PUSH2 0x11AD JUMPI DUP3 SWAP1 SUB PUSH1 0x1F AND DUP3 ADD SWAP2 JUMPDEST POP POP POP POP POP DUP2 JUMP JUMPDEST PUSH2 0x11DD DUP4 DUP4 DUP4 PUSH2 0x1377 JUMP JUMPDEST PUSH2 0x955 DUP4 PUSH2 0x2168 JUMP JUMPDEST PUSH1 0x60 PUSH2 0x11F1 DUP3 PUSH2 0x16FE JUMP JUMPDEST PUSH2 0x1257 JUMPI PUSH1 0x40 MLOAD PUSH3 0x461BCD PUSH1 0xE5 SHL DUP2 MSTORE PUSH1 0x20 PUSH1 0x4 DUP3 ADD MSTORE PUSH1 0x31 PUSH1 0x24 DUP3 ADD MSTORE PUSH32 0x45524337323155524953746F726167653A2055524920717565727920666F7220 PUSH1 0x44 DUP3 ADD MSTORE PUSH17 0x3737B732BC34B9BA32B73A103A37B5B2B7 PUSH1 0x79 SHL PUSH1 0x64 DUP3 ADD MSTORE PUSH1 0x84 ADD PUSH2 0x820 JUMP JUMPDEST PUSH1 0x0 DUP3 DUP2 MSTORE PUSH1 0x7 PUSH1 0x20 MSTORE PUSH1 0x40 SWAP1 KECCAK256 DUP1 SLOAD PUSH2 0x1270 SWAP1 PUSH2 0x3206 JUMP JUMPDEST DUP1 PUSH1 0x1F ADD PUSH1 0x20 DUP1 SWAP2 DIV MUL PUSH1 0x20 ADD PUSH1 0x40 MLOAD SWAP1 DUP2 ADD PUSH1 0x40 MSTORE DUP1 SWAP3 SWAP2 SWAP1 DUP2 DUP2 MSTORE PUSH1 0x20 ADD DUP3 DUP1 SLOAD PUSH2 0x129C SWAP1 PUSH2 0x3206 JUMP JUMPDEST DUP1 ISZERO PUSH2 0x12E9 JUMPI DUP1 PUSH1 0x1F LT PUSH2 0x12BE JUMPI PUSH2 0x100 DUP1 DUP4 SLOAD DIV MUL DUP4 MSTORE SWAP2 PUSH1 0x20 ADD SWAP2 PUSH2 0x12E9 JUMP JUMPDEST DUP3 ADD SWAP2 SWAP1 PUSH1 0x0 MSTORE PUSH1 0x20 PUSH1 0x0 KECCAK256 SWAP1 JUMPDEST DUP2 SLOAD DUP2 MSTORE SWAP1 PUSH1 0x1 ADD SWAP1 PUSH1 0x20 ADD DUP1 DUP4 GT PUSH2 0x12CC JUMPI DUP3 SWAP1 SUB PUSH1 0x1F AND DUP3 ADD SWAP2 JUMPDEST POP POP POP POP POP SWAP1 POP SWAP2 SWAP1 POP JUMP JUMPDEST PUSH1 0xE SLOAD PUSH1 0xFF AND PUSH2 0x1317 JUMPI PUSH1 0x40 MLOAD PUSH3 0x461BCD PUSH1 0xE5 SHL DUP2 MSTORE PUSH1 0x4 ADD PUSH2 0x820 SWAP1 PUSH2 0x3271 JUMP JUMPDEST PUSH1 0x32 DUP6 GT ISZERO PUSH2 0x1338 JUMPI PUSH1 0x40 MLOAD PUSH3 0x461BCD PUSH1 0xE5 SHL DUP2 MSTORE PUSH1 0x4 ADD PUSH2 0x820 SWAP1 PUSH2 0x3354 JUMP JUMPDEST PUSH2 0x1342 DUP9 DUP6 PUSH2 0x18B0 JUMP JUMPDEST PUSH2 0x134C DUP5 DUP5 PUSH2 0x18CA JUMP JUMPDEST PUSH2 0x1357 DUP5 DUP10 DUP8 PUSH2 0x194E JUMP JUMPDEST PUSH2 0x1363 DUP5 DUP4 DUP4 DUP11 PUSH2 0x202F JUMP JUMPDEST PUSH2 0x136D DUP5 DUP8 PUSH2 0xA45 JUMP JUMPDEST POP POP POP POP POP POP POP POP JUMP JUMPDEST PUSH1 0xE SLOAD PUSH1 0xFF AND PUSH2 0x1399 JUMPI PUSH1 0x40 MLOAD PUSH3 0x461BCD PUSH1 0xE5 SHL DUP2 MSTORE PUSH1 0x4 ADD PUSH2 0x820 SWAP1 PUSH2 0x3271 JUMP JUMPDEST PUSH1 0x32 DUP2 GT ISZERO PUSH2 0x13BA JUMPI PUSH1 0x40 MLOAD PUSH3 0x461BCD PUSH1 0xE5 SHL DUP2 MSTORE PUSH1 0x4 ADD PUSH2 0x820 SWAP1 PUSH2 0x3354 JUMP JUMPDEST PUSH2 0x13C4 CALLER DUP5 PUSH2 0x18B0 JUMP JUMPDEST PUSH2 0x13CE DUP4 DUP4 PUSH2 0x18CA JUMP JUMPDEST PUSH2 0x955 DUP4 CALLER DUP4 PUSH2 0x194E JUMP JUMPDEST CALLER PUSH1 0x0 SWAP1 DUP2 MSTORE PUSH1 0x9 PUSH1 0x20 MSTORE PUSH1 0x40 SWAP1 KECCAK256 SLOAD DUP2 GT ISZERO PUSH2 0x13FA JUMPI PUSH2 0x13FA CALLER DUP3 PUSH2 0x1A7F JUMP JUMPDEST CALLER PUSH1 0x0 SWAP1 DUP2 MSTORE PUSH1 0x9 PUSH1 0x20 MSTORE PUSH1 0x40 SWAP1 KECCAK256 SLOAD DUP2 GT ISZERO PUSH2 0x1459 JUMPI PUSH1 0x40 MLOAD PUSH3 0x461BCD PUSH1 0xE5 SHL DUP2 MSTORE PUSH1 0x20 PUSH1 0x4 DUP3 ADD MSTORE PUSH1 0x1B PUSH1 0x24 DUP3 ADD MSTORE PUSH32 0x4572726F722120496E73756666696369656E742042616C616E63650000000000 PUSH1 0x44 DUP3 ADD MSTORE PUSH1 0x64 ADD PUSH2 0x820 JUMP JUMPDEST PUSH2 0x98B DUP3 DUP3 PUSH2 0x2454 JUMP JUMPDEST CALLER PUSH1 0x0 SWAP1 DUP2 MSTORE PUSH1 0xA PUSH1 0x20 SWAP1 DUP2 MSTORE PUSH1 0x40 DUP1 DUP4 KECCAK256 SLOAD PUSH1 0x9 SWAP1 SWAP3 MSTORE SWAP1 SWAP2 KECCAK256 SLOAD PUSH2 0x1489 SWAP2 SWAP1 PUSH2 0x33B3 JUMP JUMPDEST DUP2 GT ISZERO PUSH2 0x14E4 JUMPI PUSH1 0x40 MLOAD PUSH3 0x461BCD PUSH1 0xE5 SHL DUP2 MSTORE PUSH1 0x20 PUSH1 0x4 DUP3 ADD MSTORE PUSH1 0x24 DUP1 DUP3 ADD MSTORE PUSH32 0x42616C616E6365206973206C6F7720616E6420726573657276656420666F7220 PUSH1 0x44 DUP3 ADD MSTORE PUSH4 0x42696473 PUSH1 0xE0 SHL PUSH1 0x64 DUP3 ADD MSTORE PUSH1 0x84 ADD PUSH2 0x820 JUMP JUMPDEST PUSH2 0x14ED DUP2 PUSH2 0x24D9 JUMP JUMPDEST POP JUMP JUMPDEST PUSH1 0x1 PUSH1 0x1 PUSH1 0xA0 SHL SUB SWAP2 DUP3 AND PUSH1 0x0 SWAP1 DUP2 MSTORE PUSH1 0x5 PUSH1 0x20 SWAP1 DUP2 MSTORE PUSH1 0x40 DUP1 DUP4 KECCAK256 SWAP4 SWAP1 SWAP5 AND DUP3 MSTORE SWAP2 SWAP1 SWAP2 MSTORE KECCAK256 SLOAD PUSH1 0xFF AND SWAP1 JUMP JUMPDEST PUSH1 0x0 PUSH2 0x1529 DUP3 PUSH2 0x16FE JUMP JUMPDEST PUSH2 0x1575 JUMPI PUSH1 0x40 MLOAD PUSH3 0x461BCD PUSH1 0xE5 SHL DUP2 MSTORE PUSH1 0x20 PUSH1 0x4 DUP3 ADD MSTORE PUSH1 0x1C PUSH1 0x24 DUP3 ADD MSTORE PUSH32 0x4572726F722120546F6B656E20494420446F6573277420457869737400000000 PUSH1 0x44 DUP3 ADD MSTORE PUSH1 0x64 ADD PUSH2 0x820 JUMP JUMPDEST POP PUSH1 0x0 SWAP1 DUP2 MSTORE PUSH1 0x10 PUSH1 0x20 MSTORE PUSH1 0x40 SWAP1 KECCAK256 SLOAD SWAP1 JUMP JUMPDEST PUSH1 0x6 SLOAD PUSH1 0x1 PUSH1 0x1 PUSH1 0xA0 SHL SUB AND CALLER EQ PUSH2 0x15B2 JUMPI PUSH1 0x40 MLOAD PUSH3 0x461BCD PUSH1 0xE5 SHL DUP2 MSTORE PUSH1 0x4 ADD PUSH2 0x820 SWAP1 PUSH2 0x32EA JUMP JUMPDEST PUSH1 0xE SLOAD PUSH1 0xFF AND ISZERO ISZERO PUSH1 0x1 SUB PUSH2 0x15CD JUMPI PUSH1 0xE DUP1 SLOAD PUSH1 0xFF NOT AND SWAP1 SSTORE JUMP JUMPDEST PUSH1 0xE DUP1 SLOAD PUSH1 0xFF NOT AND PUSH1 0x1 OR SWAP1 SSTORE JUMP JUMPDEST PUSH1 0x6 SLOAD PUSH1 0x1 PUSH1 0x1 PUSH1 0xA0 SHL SUB AND CALLER EQ PUSH2 0x1606 JUMPI PUSH1 0x40 MLOAD PUSH3 0x461BCD PUSH1 0xE5 SHL DUP2 MSTORE PUSH1 0x4 ADD PUSH2 0x820 SWAP1 PUSH2 0x32EA JUMP JUMPDEST PUSH1 0x1 PUSH1 0x1 PUSH1 0xA0 SHL SUB DUP2 AND PUSH2 0x166B JUMPI PUSH1 0x40 MLOAD PUSH3 0x461BCD PUSH1 0xE5 SHL DUP2 MSTORE PUSH1 0x20 PUSH1 0x4 DUP3 ADD MSTORE PUSH1 0x26 PUSH1 0x24 DUP3 ADD MSTORE PUSH32 0x4F776E61626C653A206E6577206F776E657220697320746865207A65726F2061 PUSH1 0x44 DUP3 ADD MSTORE PUSH6 0x646472657373 PUSH1 0xD0 SHL PUSH1 0x64 DUP3 ADD MSTORE PUSH1 0x84 ADD PUSH2 0x820 JUMP JUMPDEST PUSH2 0x14ED DUP2 PUSH2 0x1FDD JUMP JUMPDEST PUSH1 0x0 DUP4 DUP2 MSTORE PUSH1 0x10 PUSH1 0x20 MSTORE PUSH1 0x40 SWAP1 KECCAK256 SLOAD CALLVALUE EQ PUSH2 0x16D1 JUMPI PUSH1 0x40 MLOAD PUSH3 0x461BCD PUSH1 0xE5 SHL DUP2 MSTORE PUSH1 0x20 PUSH1 0x4 DUP3 ADD MSTORE PUSH1 0x19 PUSH1 0x24 DUP3 ADD MSTORE PUSH32 0x4572726F722120496E73696666696369656E7420507269636500000000000000 PUSH1 0x44 DUP3 ADD MSTORE PUSH1 0x64 ADD PUSH2 0x820 JUMP JUMPDEST PUSH1 0x0 DUP4 DUP2 MSTORE PUSH1 0x2 PUSH1 0x20 MSTORE PUSH1 0x40 SWAP1 KECCAK256 SLOAD PUSH2 0x16F5 SWAP1 PUSH1 0x1 PUSH1 0x1 PUSH1 0xA0 SHL SUB AND DUP4 DUP6 DUP5 PUSH2 0x223F JUMP JUMPDEST PUSH2 0x955 DUP4 PUSH2 0x1853 JUMP JUMPDEST PUSH1 0x0 SWAP1 DUP2 MSTORE PUSH1 0x2 PUSH1 0x20 MSTORE PUSH1 0x40 SWAP1 KECCAK256 SLOAD PUSH1 0x1 PUSH1 0x1 PUSH1 0xA0 SHL SUB AND ISZERO ISZERO SWAP1 JUMP JUMPDEST PUSH1 0x0 DUP2 DUP2 MSTORE PUSH1 0x4 PUSH1 0x20 MSTORE PUSH1 0x40 SWAP1 KECCAK256 DUP1 SLOAD PUSH1 0x1 PUSH1 0x1 PUSH1 0xA0 SHL SUB NOT AND PUSH1 0x1 PUSH1 0x1 PUSH1 0xA0 SHL SUB DUP5 AND SWAP1 DUP2 OR SWAP1 SWAP2 SSTORE DUP2 SWAP1 PUSH2 0x1750 DUP3 PUSH2 0xDF2 JUMP JUMPDEST PUSH1 0x1 PUSH1 0x1 PUSH1 0xA0 SHL SUB AND PUSH32 0x8C5BE1E5EBEC7D5BD14F71427D1E84F3DD0314C0F7B2291E5B200AC8C7C3B925 PUSH1 0x40 MLOAD PUSH1 0x40 MLOAD DUP1 SWAP2 SUB SWAP1 LOG4 POP POP JUMP JUMPDEST PUSH1 0x0 PUSH2 0x1794 DUP3 PUSH2 0x16FE JUMP JUMPDEST PUSH2 0x17F5 JUMPI PUSH1 0x40 MLOAD PUSH3 0x461BCD PUSH1 0xE5 SHL DUP2 MSTORE PUSH1 0x20 PUSH1 0x4 DUP3 ADD MSTORE PUSH1 0x2C PUSH1 0x24 DUP3 ADD MSTORE PUSH32 0x4552433732313A206F70657261746F7220717565727920666F72206E6F6E6578 PUSH1 0x44 DUP3 ADD MSTORE PUSH12 0x34B9BA32B73A103A37B5B2B7 PUSH1 0xA1 SHL PUSH1 0x64 DUP3 ADD MSTORE PUSH1 0x84 ADD PUSH2 0x820 JUMP JUMPDEST PUSH1 0x0 PUSH2 0x1800 DUP4 PUSH2 0xDF2 JUMP JUMPDEST SWAP1 POP DUP1 PUSH1 0x1 PUSH1 0x1 PUSH1 0xA0 SHL SUB AND DUP5 PUSH1 0x1 PUSH1 0x1 PUSH1 0xA0 SHL SUB AND EQ DUP1 PUSH2 0x183B JUMPI POP DUP4 PUSH1 0x1 PUSH1 0x1 PUSH1 0xA0 SHL SUB AND PUSH2 0x1830 DUP5 PUSH2 0x7B8 JUMP JUMPDEST PUSH1 0x1 PUSH1 0x1 PUSH1 0xA0 SHL SUB AND EQ JUMPDEST DUP1 PUSH2 0x184B JUMPI POP PUSH2 0x184B DUP2 DUP6 PUSH2 0x14F0 JUMP JUMPDEST SWAP5 SWAP4 POP POP POP POP JUMP JUMPDEST PUSH2 0x185C DUP2 PUSH2 0x16FE JUMP JUMPDEST PUSH2 0x189E JUMPI PUSH1 0x40 MLOAD PUSH3 0x461BCD PUSH1 0xE5 SHL DUP2 MSTORE PUSH1 0x20 PUSH1 0x4 DUP3 ADD MSTORE PUSH1 0x13 PUSH1 0x24 DUP3 ADD MSTORE PUSH19 0x4E667420446F6573204E6F7420457869737473 PUSH1 0x68 SHL PUSH1 0x44 DUP3 ADD MSTORE PUSH1 0x64 ADD PUSH2 0x820 JUMP JUMPDEST PUSH2 0x18A7 DUP2 PUSH2 0x25A0 JUMP JUMPDEST PUSH2 0x14ED DUP2 PUSH2 0x2702 JUMP JUMPDEST PUSH2 0x98B DUP3 DUP3 PUSH1 0x40 MLOAD DUP1 PUSH1 0x20 ADD PUSH1 0x40 MSTORE DUP1 PUSH1 0x0 DUP2 MSTORE POP PUSH2 0x27C0 JUMP JUMPDEST PUSH2 0x18D3 DUP3 PUSH2 0x16FE JUMP JUMPDEST PUSH2 0x1936 JUMPI PUSH1 0x40 MLOAD PUSH3 0x461BCD PUSH1 0xE5 SHL DUP2 MSTORE PUSH1 0x20 PUSH1 0x4 DUP3 ADD MSTORE PUSH1 0x2E PUSH1 0x24 DUP3 ADD MSTORE PUSH32 0x45524337323155524953746F726167653A2055524920736574206F66206E6F6E PUSH1 0x44 DUP3 ADD MSTORE PUSH14 0x32BC34B9BA32B73A103A37B5B2B7 PUSH1 0x91 SHL PUSH1 0x64 DUP3 ADD MSTORE PUSH1 0x84 ADD PUSH2 0x820 JUMP JUMPDEST PUSH1 0x0 DUP3 DUP2 MSTORE PUSH1 0x7 PUSH1 0x20 MSTORE PUSH1 0x40 SWAP1 KECCAK256 PUSH2 0x955 DUP3 DUP3 PUSH2 0x340C JUMP JUMPDEST PUSH2 0x2710 DUP2 GT ISZERO PUSH2 0x19A0 JUMPI PUSH1 0x40 MLOAD PUSH3 0x461BCD PUSH1 0xE5 SHL DUP2 MSTORE PUSH1 0x20 PUSH1 0x4 DUP3 ADD MSTORE PUSH1 0x1A PUSH1 0x24 DUP3 ADD MSTORE PUSH32 0x45524332393831526F79616C746965733A20546F6F2068696768000000000000 PUSH1 0x44 DUP3 ADD MSTORE PUSH1 0x64 ADD PUSH2 0x820 JUMP JUMPDEST PUSH1 0x40 DUP1 MLOAD DUP1 DUP3 ADD DUP3 MSTORE PUSH1 0x1 PUSH1 0x1 PUSH1 0xA0 SHL SUB SWAP4 DUP5 AND DUP2 MSTORE PUSH3 0xFFFFFF SWAP3 DUP4 AND PUSH1 0x20 DUP1 DUP4 ADD SWAP2 DUP3 MSTORE PUSH1 0x0 SWAP7 DUP8 MSTORE PUSH1 0x8 SWAP1 MSTORE SWAP2 SWAP1 SWAP5 KECCAK256 SWAP4 MLOAD DUP5 SLOAD SWAP2 MLOAD SWAP1 SWAP3 AND PUSH1 0x1 PUSH1 0xA0 SHL MUL PUSH1 0x1 PUSH1 0x1 PUSH1 0xB8 SHL SUB NOT SWAP1 SWAP2 AND SWAP2 SWAP1 SWAP3 AND OR OR SWAP1 SSTORE JUMP JUMPDEST DUP4 PUSH1 0x0 PUSH2 0x1A03 DUP3 PUSH2 0x27F3 JUMP JUMPDEST SWAP1 POP PUSH1 0x0 PUSH2 0x1A12 DUP8 DUP8 DUP8 PUSH2 0x2866 JUMP JUMPDEST SWAP1 POP DUP1 PUSH2 0x1A1F DUP4 DUP6 PUSH2 0x33B3 JUMP JUMPDEST PUSH2 0x1A29 SWAP2 SWAP1 PUSH2 0x33B3 JUMP JUMPDEST SWAP3 POP PUSH2 0x1A35 DUP4 DUP6 PUSH2 0x28C1 JUMP JUMPDEST PUSH1 0x40 DUP1 MLOAD DUP4 DUP2 MSTORE PUSH1 0x20 DUP2 ADD DUP4 SWAP1 MSTORE SWAP1 DUP2 ADD DUP5 SWAP1 MSTORE PUSH32 0xD458E9C8FBA143AAEE61251301ADEF6B137EF1CBD15C288BCA321EEEC6121DA SWAP1 PUSH1 0x60 ADD PUSH1 0x40 MLOAD DUP1 SWAP2 SUB SWAP1 LOG1 POP POP POP POP POP POP POP JUMP JUMPDEST DUP1 CALLVALUE LT ISZERO PUSH2 0x1AC6 JUMPI PUSH1 0x40 MLOAD PUSH3 0x461BCD PUSH1 0xE5 SHL DUP2 MSTORE PUSH1 0x20 PUSH1 0x4 DUP3 ADD MSTORE PUSH1 0x14 PUSH1 0x24 DUP3 ADD MSTORE PUSH20 0x496E73756666696369656E742062616C616E6365 PUSH1 0x60 SHL PUSH1 0x44 DUP3 ADD MSTORE PUSH1 0x64 ADD PUSH2 0x820 JUMP JUMPDEST PUSH1 0x1 PUSH1 0x1 PUSH1 0xA0 SHL SUB DUP3 AND PUSH1 0x0 SWAP1 DUP2 MSTORE PUSH1 0x9 PUSH1 0x20 MSTORE PUSH1 0x40 DUP2 KECCAK256 DUP1 SLOAD DUP4 SWAP3 SWAP1 PUSH2 0x1AEE SWAP1 DUP5 SWAP1 PUSH2 0x34CC JUMP JUMPDEST SWAP1 SWAP2 SSTORE POP POP POP POP JUMP JUMPDEST DUP2 PUSH1 0x1 PUSH1 0x0 DUP3 DUP2 MSTORE PUSH1 0xD PUSH1 0x20 MSTORE PUSH1 0x40 SWAP1 KECCAK256 PUSH1 0x7 ADD SLOAD PUSH1 0xFF AND PUSH1 0x3 DUP2 GT ISZERO PUSH2 0x1B20 JUMPI PUSH2 0x1B20 PUSH2 0x2EAD JUMP JUMPDEST EQ PUSH2 0x1B3D JUMPI PUSH1 0x40 MLOAD PUSH3 0x461BCD PUSH1 0xE5 SHL DUP2 MSTORE PUSH1 0x4 ADD PUSH2 0x820 SWAP1 PUSH2 0x331F JUMP JUMPDEST PUSH1 0x0 DUP4 DUP2 MSTORE PUSH1 0xD PUSH1 0x20 MSTORE PUSH1 0x40 SWAP1 KECCAK256 PUSH1 0x4 ADD SLOAD TIMESTAMP GT ISZERO PUSH2 0x1B8F JUMPI PUSH1 0x40 MLOAD PUSH3 0x461BCD PUSH1 0xE5 SHL DUP2 MSTORE PUSH1 0x20 PUSH1 0x4 DUP3 ADD MSTORE PUSH1 0xE PUSH1 0x24 DUP3 ADD MSTORE PUSH14 0x151A5B59481A5CC813DD995C9959 PUSH1 0x92 SHL PUSH1 0x44 DUP3 ADD MSTORE PUSH1 0x64 ADD PUSH2 0x820 JUMP JUMPDEST PUSH1 0x0 DUP4 DUP2 MSTORE PUSH1 0xD PUSH1 0x20 SWAP1 DUP2 MSTORE PUSH1 0x40 DUP3 KECCAK256 DUP1 SLOAD PUSH1 0x1 DUP1 DUP3 ADD DUP4 SSTORE DUP3 DUP6 MSTORE DUP4 DUP6 KECCAK256 SWAP1 SWAP2 ADD DUP7 SWAP1 SSTORE SWAP1 DUP2 ADD DUP1 SLOAD SWAP2 DUP3 ADD DUP2 SSTORE DUP4 MSTORE SWAP2 KECCAK256 ADD DUP1 SLOAD PUSH1 0x1 PUSH1 0x1 PUSH1 0xA0 SHL SUB NOT AND CALLER OR SWAP1 SSTORE PUSH2 0x955 CALLER DUP4 PUSH2 0x28F7 JUMP JUMPDEST PUSH1 0x0 DUP1 JUMPDEST PUSH1 0x0 DUP4 DUP2 MSTORE PUSH1 0xD PUSH1 0x20 MSTORE PUSH1 0x40 SWAP1 KECCAK256 SLOAD DUP2 LT ISZERO PUSH2 0x955 JUMPI PUSH1 0x0 DUP4 DUP2 MSTORE PUSH1 0xD PUSH1 0x20 MSTORE PUSH1 0x40 SWAP1 KECCAK256 DUP1 SLOAD DUP3 SWAP1 DUP2 LT PUSH2 0x1C17 JUMPI PUSH2 0x1C17 PUSH2 0x32A8 JUMP JUMPDEST SWAP1 PUSH1 0x0 MSTORE PUSH1 0x20 PUSH1 0x0 KECCAK256 ADD SLOAD DUP3 LT ISZERO PUSH2 0x1C6D JUMPI PUSH1 0x0 DUP4 DUP2 MSTORE PUSH1 0xD PUSH1 0x20 MSTORE PUSH1 0x40 SWAP1 KECCAK256 DUP1 SLOAD DUP3 SWAP1 DUP2 LT PUSH2 0x1C49 JUMPI PUSH2 0x1C49 PUSH2 0x32A8 JUMP JUMPDEST PUSH1 0x0 SWAP2 DUP3 MSTORE PUSH1 0x20 DUP1 DUP4 KECCAK256 SWAP1 SWAP2 ADD SLOAD DUP6 DUP4 MSTORE PUSH1 0xD SWAP1 SWAP2 MSTORE PUSH1 0x40 SWAP1 SWAP2 KECCAK256 PUSH1 0x6 ADD DUP3 SWAP1 SSTORE SWAP2 POP JUMPDEST DUP1 PUSH2 0x1C77 DUP2 PUSH2 0x34DF JUMP JUMPDEST SWAP2 POP POP PUSH2 0x1BE1 JUMP JUMPDEST PUSH1 0x1 PUSH1 0x1 PUSH1 0xA0 SHL SUB DUP2 AND PUSH1 0x0 SWAP1 DUP2 MSTORE PUSH1 0x9 PUSH1 0x20 MSTORE PUSH1 0x40 SWAP1 KECCAK256 SLOAD DUP3 GT ISZERO PUSH2 0x1CE7 JUMPI PUSH1 0x40 MLOAD PUSH3 0x461BCD PUSH1 0xE5 SHL DUP2 MSTORE PUSH1 0x20 PUSH1 0x4 DUP3 ADD MSTORE PUSH1 0x1A PUSH1 0x24 DUP3 ADD MSTORE PUSH32 0x4572726F722120496E736966666963656E742042616C616E6365000000000000 PUSH1 0x44 DUP3 ADD MSTORE PUSH1 0x64 ADD PUSH2 0x820 JUMP JUMPDEST PUSH1 0x1 PUSH1 0x1 PUSH1 0xA0 SHL SUB DUP2 AND PUSH1 0x0 SWAP1 DUP2 MSTORE PUSH1 0x9 PUSH1 0x20 MSTORE PUSH1 0x40 DUP2 KECCAK256 DUP1 SLOAD DUP5 SWAP3 SWAP1 PUSH2 0x1AEE SWAP1 DUP5 SWAP1 PUSH2 0x33B3 JUMP JUMPDEST DUP3 PUSH1 0x1 PUSH1 0x1 PUSH1 0xA0 SHL SUB AND PUSH2 0x1D22 DUP3 PUSH2 0xDF2 JUMP JUMPDEST PUSH1 0x1 PUSH1 0x1 PUSH1 0xA0 SHL SUB AND EQ PUSH2 0x1D8A JUMPI PUSH1 0x40 MLOAD PUSH3 0x461BCD PUSH1 0xE5 SHL DUP2 MSTORE PUSH1 0x20 PUSH1 0x4 DUP3 ADD MSTORE PUSH1 0x29 PUSH1 0x24 DUP3 ADD MSTORE PUSH32 0x4552433732313A207472616E73666572206F6620746F6B656E20746861742069 PUSH1 0x44 DUP3 ADD MSTORE PUSH9 0x39903737BA1037BBB7 PUSH1 0xB9 SHL PUSH1 0x64 DUP3 ADD MSTORE PUSH1 0x84 ADD PUSH2 0x820 JUMP JUMPDEST PUSH1 0x1 PUSH1 0x1 PUSH1 0xA0 SHL SUB DUP3 AND PUSH2 0x1DEC JUMPI PUSH1 0x40 MLOAD PUSH3 0x461BCD PUSH1 0xE5 SHL DUP2 MSTORE PUSH1 0x20 PUSH1 0x4 DUP3 ADD MSTORE PUSH1 0x24 DUP1 DUP3 ADD MSTORE PUSH32 0x4552433732313A207472616E7366657220746F20746865207A65726F20616464 PUSH1 0x44 DUP3 ADD MSTORE PUSH4 0x72657373 PUSH1 0xE0 SHL PUSH1 0x64 DUP3 ADD MSTORE PUSH1 0x84 ADD PUSH2 0x820 JUMP JUMPDEST PUSH2 0x1DF7 PUSH1 0x0 DUP3 PUSH2 0x171B JUMP JUMPDEST PUSH1 0x1 PUSH1 0x1 PUSH1 0xA0 SHL SUB DUP4 AND PUSH1 0x0 SWAP1 DUP2 MSTORE PUSH1 0x3 PUSH1 0x20 MSTORE PUSH1 0x40 DUP2 KECCAK256 DUP1 SLOAD PUSH1 0x1 SWAP3 SWAP1 PUSH2 0x1E20 SWAP1 DUP5 SWAP1 PUSH2 0x33B3 JUMP JUMPDEST SWAP1 SWAP2 SSTORE POP POP PUSH1 0x1 PUSH1 0x1 PUSH1 0xA0 SHL SUB DUP3 AND PUSH1 0x0 SWAP1 DUP2 MSTORE PUSH1 0x3 PUSH1 0x20 MSTORE PUSH1 0x40 DUP2 KECCAK256 DUP1 SLOAD PUSH1 0x1 SWAP3 SWAP1 PUSH2 0x1E4E SWAP1 DUP5 SWAP1 PUSH2 0x34CC JUMP JUMPDEST SWAP1 SWAP2 SSTORE POP POP PUSH1 0x0 DUP2 DUP2 MSTORE PUSH1 0x2 PUSH1 0x20 MSTORE PUSH1 0x40 DUP1 DUP3 KECCAK256 DUP1 SLOAD PUSH1 0x1 PUSH1 0x1 PUSH1 0xA0 SHL SUB NOT AND PUSH1 0x1 PUSH1 0x1 PUSH1 0xA0 SHL SUB DUP7 DUP2 AND SWAP2 DUP3 OR SWAP1 SWAP3 SSTORE SWAP2 MLOAD DUP5 SWAP4 SWAP2 DUP8 AND SWAP2 PUSH32 0xDDF252AD1BE2C89B69C2B068FC378DAA952BA7F163C4A11628F55A4DF523B3EF SWAP2 LOG4 POP POP POP JUMP JUMPDEST PUSH1 0x0 DUP2 DUP2 MSTORE PUSH1 0x10 PUSH1 0x20 MSTORE PUSH1 0x40 SWAP1 KECCAK256 SLOAD CALLVALUE LT ISZERO PUSH2 0x1F0D JUMPI PUSH1 0x40 MLOAD PUSH3 0x461BCD PUSH1 0xE5 SHL DUP2 MSTORE PUSH1 0x20 PUSH1 0x4 DUP3 ADD MSTORE PUSH1 0x1C PUSH1 0x24 DUP3 ADD MSTORE PUSH32 0x416D6F756E74206973204C657373207468656E204E6674507269636500000000 PUSH1 0x44 DUP3 ADD MSTORE PUSH1 0x64 ADD PUSH2 0x820 JUMP JUMPDEST PUSH1 0x0 SWAP1 DUP2 MSTORE PUSH1 0x10 PUSH1 0x20 MSTORE PUSH1 0x40 SWAP1 KECCAK256 CALLVALUE SWAP1 SSTORE JUMP JUMPDEST DUP2 PUSH1 0x0 DUP1 DUP3 DUP2 MSTORE PUSH1 0xD PUSH1 0x20 MSTORE PUSH1 0x40 SWAP1 KECCAK256 PUSH1 0x7 ADD SLOAD PUSH1 0xFF AND PUSH1 0x3 DUP2 GT ISZERO PUSH2 0x1F48 JUMPI PUSH2 0x1F48 PUSH2 0x2EAD JUMP JUMPDEST EQ PUSH2 0x1F65 JUMPI PUSH1 0x40 MLOAD PUSH3 0x461BCD PUSH1 0xE5 SHL DUP2 MSTORE PUSH1 0x4 ADD PUSH2 0x820 SWAP1 PUSH2 0x34F8 JUMP JUMPDEST POP PUSH1 0xC DUP1 SLOAD PUSH1 0x3 PUSH1 0xFF NOT SWAP2 DUP3 AND DUP2 OR SWAP1 SWAP3 SSTORE PUSH1 0x0 SWAP4 DUP5 MSTORE PUSH1 0xD PUSH1 0x20 MSTORE PUSH1 0x40 SWAP1 SWAP4 KECCAK256 PUSH1 0x7 DUP2 ADD DUP1 SLOAD SWAP1 SWAP5 AND SWAP1 SWAP2 OR SWAP1 SWAP3 SSTORE PUSH1 0x5 SWAP1 SWAP2 ADD SSTORE JUMP JUMPDEST PUSH2 0x1FA6 DUP2 PUSH2 0x291F JUMP JUMPDEST PUSH1 0x0 DUP2 DUP2 MSTORE PUSH1 0x7 PUSH1 0x20 MSTORE PUSH1 0x40 SWAP1 KECCAK256 DUP1 SLOAD PUSH2 0x1FBF SWAP1 PUSH2 0x3206 JUMP JUMPDEST ISZERO SWAP1 POP PUSH2 0x14ED JUMPI PUSH1 0x0 DUP2 DUP2 MSTORE PUSH1 0x7 PUSH1 0x20 MSTORE PUSH1 0x40 DUP2 KECCAK256 PUSH2 0x14ED SWAP2 PUSH2 0x2C21 JUMP JUMPDEST PUSH1 0x6 DUP1 SLOAD PUSH1 0x1 PUSH1 0x1 PUSH1 0xA0 SHL SUB DUP4 DUP2 AND PUSH1 0x1 PUSH1 0x1 PUSH1 0xA0 SHL SUB NOT DUP4 AND DUP2 OR SWAP1 SWAP4 SSTORE PUSH1 0x40 MLOAD SWAP2 AND SWAP2 SWAP1 DUP3 SWAP1 PUSH32 0x8BE0079C531659141344CD1FD0A4F28419497F9722A3DAAFE3B4186F6B6457E0 SWAP1 PUSH1 0x0 SWAP1 LOG3 POP POP JUMP JUMPDEST DUP4 PUSH1 0x0 DUP1 DUP3 DUP2 MSTORE PUSH1 0xD PUSH1 0x20 MSTORE PUSH1 0x40 SWAP1 KECCAK256 PUSH1 0x7 ADD SLOAD PUSH1 0xFF AND PUSH1 0x3 DUP2 GT ISZERO PUSH2 0x2057 JUMPI PUSH2 0x2057 PUSH2 0x2EAD JUMP JUMPDEST EQ PUSH2 0x2074 JUMPI PUSH1 0x40 MLOAD PUSH3 0x461BCD PUSH1 0xE5 SHL DUP2 MSTORE PUSH1 0x4 ADD PUSH2 0x820 SWAP1 PUSH2 0x34F8 JUMP JUMPDEST DUP3 DUP5 EQ ISZERO DUP1 ISZERO PUSH2 0x2083 JUMPI POP DUP3 TIMESTAMP LT JUMPDEST PUSH2 0x20C3 JUMPI PUSH1 0x40 MLOAD PUSH3 0x461BCD PUSH1 0xE5 SHL DUP2 MSTORE PUSH1 0x20 PUSH1 0x4 DUP3 ADD MSTORE PUSH1 0x11 PUSH1 0x24 DUP3 ADD MSTORE PUSH17 0x22B93937B910902A34B6B29022B93937B9 PUSH1 0x79 SHL PUSH1 0x44 DUP3 ADD MSTORE PUSH1 0x64 ADD PUSH2 0x820 JUMP JUMPDEST PUSH1 0xC DUP1 SLOAD PUSH1 0xFF NOT SWAP1 DUP2 AND PUSH1 0x1 SWAP1 DUP2 OR SWAP1 SWAP3 SSTORE PUSH1 0x0 DUP8 DUP2 MSTORE PUSH1 0xD PUSH1 0x20 SWAP1 DUP2 MSTORE PUSH1 0x40 SWAP2 DUP3 SWAP1 KECCAK256 PUSH1 0x7 DUP2 ADD DUP1 SLOAD SWAP1 SWAP5 AND SWAP1 SWAP5 OR SWAP1 SWAP3 SSTORE PUSH1 0x3 DUP4 ADD DUP8 SWAP1 SSTORE PUSH1 0x4 DUP4 ADD DUP7 SWAP1 SSTORE PUSH1 0x5 SWAP1 SWAP3 ADD DUP5 SWAP1 SSTORE DUP2 MLOAD DUP8 DUP2 MSTORE SWAP1 DUP2 ADD DUP3 SWAP1 MSTORE PUSH1 0xF DUP2 DUP4 ADD MSTORE PUSH15 0x20416363657074696E672042696473 PUSH1 0x88 SHL PUSH1 0x60 DUP3 ADD MSTORE SWAP1 MLOAD PUSH32 0xC1458FD10CAF8FC934090C8C5296E7AC0422A819BD7A6F4E3769A331F809201 SWAP2 DUP2 SWAP1 SUB PUSH1 0x80 ADD SWAP1 LOG1 POP POP POP POP POP JUMP JUMPDEST DUP1 PUSH1 0x0 DUP1 DUP3 DUP2 MSTORE PUSH1 0xD PUSH1 0x20 MSTORE PUSH1 0x40 SWAP1 KECCAK256 PUSH1 0x7 ADD SLOAD PUSH1 0xFF AND PUSH1 0x3 DUP2 GT ISZERO PUSH2 0x2190 JUMPI PUSH2 0x2190 PUSH2 0x2EAD JUMP JUMPDEST EQ PUSH2 0x21AD JUMPI PUSH1 0x40 MLOAD PUSH3 0x461BCD PUSH1 0xE5 SHL DUP2 MSTORE PUSH1 0x4 ADD PUSH2 0x820 SWAP1 PUSH2 0x34F8 JUMP JUMPDEST PUSH1 0xC DUP1 SLOAD PUSH1 0x2 PUSH1 0xFF NOT SWAP2 DUP3 AND DUP2 OR SWAP1 SWAP3 SSTORE PUSH1 0x0 DUP5 DUP2 MSTORE PUSH1 0xD PUSH1 0x20 MSTORE PUSH1 0x40 SWAP1 KECCAK256 PUSH1 0x7 ADD DUP1 SLOAD SWAP1 SWAP2 AND PUSH1 0x1 DUP4 MUL OR SWAP1 SSTORE POP PUSH32 0xC1458FD10CAF8FC934090C8C5296E7AC0422A819BD7A6F4E3769A331F809201 DUP3 PUSH1 0x40 MLOAD PUSH2 0x2233 SWAP2 DUP2 MSTORE PUSH1 0x40 PUSH1 0x20 DUP3 ADD DUP2 SWAP1 MSTORE PUSH1 0xE SWAP1 DUP3 ADD MSTORE PUSH14 0x416363657074696E672042696473 PUSH1 0x90 SHL PUSH1 0x60 DUP3 ADD MSTORE PUSH1 0x80 ADD SWAP1 JUMP JUMPDEST PUSH1 0x40 MLOAD DUP1 SWAP2 SUB SWAP1 LOG1 POP POP JUMP JUMPDEST PUSH2 0x2248 DUP3 PUSH2 0x1EAF JUMP JUMPDEST PUSH1 0x0 DUP3 DUP2 MSTORE PUSH1 0x8 PUSH1 0x20 SWAP1 DUP2 MSTORE PUSH1 0x40 DUP1 DUP4 KECCAK256 DUP2 MLOAD DUP1 DUP4 ADD DUP4 MSTORE SWAP1 SLOAD PUSH1 0x1 PUSH1 0x1 PUSH1 0xA0 SHL SUB DUP1 DUP3 AND DUP4 MSTORE PUSH3 0xFFFFFF PUSH1 0x1 PUSH1 0xA0 SHL SWAP1 SWAP3 DIV DUP3 AND DUP4 DUP7 ADD SWAP1 DUP2 MSTORE DUP9 DUP8 MSTORE PUSH1 0x10 DUP7 MSTORE DUP5 DUP8 KECCAK256 SLOAD SWAP1 MLOAD DUP5 MLOAD PUSH1 0x2 SWAP1 SWAP8 MSTORE SWAP5 SWAP1 SWAP7 KECCAK256 SLOAD SWAP3 SWAP6 PUSH2 0x22AE SWAP6 SWAP1 SWAP5 SWAP1 SWAP3 AND SWAP3 AND PUSH2 0x19F7 JUMP JUMPDEST PUSH2 0xFE6 DUP6 DUP6 DUP6 DUP6 PUSH2 0x29BA JUMP JUMPDEST DUP2 PUSH1 0x1 PUSH1 0x1 PUSH1 0xA0 SHL SUB AND DUP4 PUSH1 0x1 PUSH1 0x1 PUSH1 0xA0 SHL SUB AND SUB PUSH2 0x231B JUMPI PUSH1 0x40 MLOAD PUSH3 0x461BCD PUSH1 0xE5 SHL DUP2 MSTORE PUSH1 0x20 PUSH1 0x4 DUP3 ADD MSTORE PUSH1 0x19 PUSH1 0x24 DUP3 ADD MSTORE PUSH32 0x4552433732313A20617070726F766520746F2063616C6C657200000000000000 PUSH1 0x44 DUP3 ADD MSTORE PUSH1 0x64 ADD PUSH2 0x820 JUMP JUMPDEST PUSH1 0x1 PUSH1 0x1 PUSH1 0xA0 SHL SUB DUP4 DUP2 AND PUSH1 0x0 DUP2 DUP2 MSTORE PUSH1 0x5 PUSH1 0x20 SWAP1 DUP2 MSTORE PUSH1 0x40 DUP1 DUP4 KECCAK256 SWAP5 DUP8 AND DUP1 DUP5 MSTORE SWAP5 DUP3 MSTORE SWAP2 DUP3 SWAP1 KECCAK256 DUP1 SLOAD PUSH1 0xFF NOT AND DUP7 ISZERO ISZERO SWAP1 DUP2 OR SWAP1 SWAP2 SSTORE SWAP2 MLOAD SWAP2 DUP3 MSTORE PUSH32 0x17307EAB39AB6107E8899845AD3D59BD9653F200F220920489CA2B5937696C31 SWAP2 ADD PUSH1 0x40 MLOAD DUP1 SWAP2 SUB SWAP1 LOG3 POP POP POP JUMP JUMPDEST DUP2 PUSH1 0x1 PUSH1 0x0 DUP3 DUP2 MSTORE PUSH1 0xD PUSH1 0x20 MSTORE PUSH1 0x40 SWAP1 KECCAK256 PUSH1 0x7 ADD SLOAD PUSH1 0xFF AND PUSH1 0x3 DUP2 GT ISZERO PUSH2 0x23B1 JUMPI PUSH2 0x23B1 PUSH2 0x2EAD JUMP JUMPDEST EQ PUSH2 0x23CE JUMPI PUSH1 0x40 MLOAD PUSH3 0x461BCD PUSH1 0xE5 SHL DUP2 MSTORE PUSH1 0x4 ADD PUSH2 0x820 SWAP1 PUSH2 0x331F JUMP JUMPDEST PUSH1 0x0 DUP4 DUP2 MSTORE PUSH1 0xD PUSH1 0x20 MSTORE PUSH1 0x40 SWAP1 KECCAK256 PUSH1 0x4 ADD SLOAD DUP3 GT DUP1 ISZERO PUSH2 0x23FE JUMPI POP PUSH1 0x0 DUP4 DUP2 MSTORE PUSH1 0xD PUSH1 0x20 MSTORE PUSH1 0x40 SWAP1 KECCAK256 PUSH1 0x4 ADD SLOAD TIMESTAMP GT JUMPDEST PUSH2 0x243E JUMPI PUSH1 0x40 MLOAD PUSH3 0x461BCD PUSH1 0xE5 SHL DUP2 MSTORE PUSH1 0x20 PUSH1 0x4 DUP3 ADD MSTORE PUSH1 0x11 PUSH1 0x24 DUP3 ADD MSTORE PUSH17 0x54696D65205265736574204572726F7221 PUSH1 0x78 SHL PUSH1 0x44 DUP3 ADD MSTORE PUSH1 0x64 ADD PUSH2 0x820 JUMP JUMPDEST POP PUSH1 0x0 SWAP2 DUP3 MSTORE PUSH1 0xD PUSH1 0x20 MSTORE PUSH1 0x40 SWAP1 SWAP2 KECCAK256 PUSH1 0x4 ADD SSTORE JUMP JUMPDEST DUP2 PUSH1 0x2 PUSH1 0x0 DUP3 DUP2 MSTORE PUSH1 0xD PUSH1 0x20 MSTORE PUSH1 0x40 SWAP1 KECCAK256 PUSH1 0x7 ADD SLOAD PUSH1 0xFF AND PUSH1 0x3 DUP2 GT ISZERO PUSH2 0x247D JUMPI PUSH2 0x247D PUSH2 0x2EAD JUMP JUMPDEST EQ PUSH2 0x1B8F JUMPI PUSH1 0x40 MLOAD PUSH3 0x461BCD PUSH1 0xE5 SHL DUP2 MSTORE PUSH1 0x20 PUSH1 0x4 DUP3 ADD MSTORE PUSH1 0x26 PUSH1 0x24 DUP3 ADD MSTORE PUSH32 0x4572726F7221204E4654206973204E6F7420417661696C61626C6520666F7220 PUSH1 0x44 DUP3 ADD MSTORE PUSH6 0x426964696E67 PUSH1 0xD0 SHL PUSH1 0x64 DUP3 ADD MSTORE PUSH1 0x84 ADD PUSH2 0x820 JUMP JUMPDEST DUP1 ISZERO DUP1 ISZERO SWAP1 PUSH2 0x24F7 JUMPI POP CALLER PUSH1 0x0 SWAP1 DUP2 MSTORE PUSH1 0x9 PUSH1 0x20 MSTORE PUSH1 0x40 SWAP1 KECCAK256 SLOAD DUP2 GT ISZERO JUMPDEST PUSH2 0x254F JUMPI PUSH1 0x40 MLOAD PUSH3 0x461BCD PUSH1 0xE5 SHL DUP2 MSTORE PUSH1 0x20 PUSH1 0x4 DUP3 ADD MSTORE PUSH1 0x24 DUP1 DUP3 ADD MSTORE PUSH32 0x4572726F722120416D6F756E74206973207A65726F206F72204C6F772042616C PUSH1 0x44 DUP3 ADD MSTORE PUSH4 0x616E6365 PUSH1 0xE0 SHL PUSH1 0x64 DUP3 ADD MSTORE PUSH1 0x84 ADD PUSH2 0x820 JUMP JUMPDEST CALLER PUSH1 0x0 SWAP1 DUP2 MSTORE PUSH1 0x9 PUSH1 0x20 MSTORE PUSH1 0x40 DUP2 KECCAK256 DUP1 SLOAD DUP4 SWAP3 SWAP1 PUSH2 0x256E SWAP1 DUP5 SWAP1 PUSH2 0x33B3 JUMP JUMPDEST SWAP1 SWAP2 SSTORE POP POP PUSH1 0x40 MLOAD CALLER SWAP1 DUP3 ISZERO PUSH2 0x8FC MUL SWAP1 DUP4 SWAP1 PUSH1 0x0 DUP2 DUP2 DUP2 DUP6 DUP9 DUP9 CALL SWAP4 POP POP POP POP ISZERO DUP1 ISZERO PUSH2 0x98B JUMPI RETURNDATASIZE PUSH1 0x0 DUP1 RETURNDATACOPY RETURNDATASIZE PUSH1 0x0 REVERT JUMPDEST DUP1 PUSH1 0x1 PUSH1 0x0 DUP3 DUP2 MSTORE PUSH1 0xD PUSH1 0x20 MSTORE PUSH1 0x40 SWAP1 KECCAK256 PUSH1 0x7 ADD SLOAD PUSH1 0xFF AND PUSH1 0x3 DUP2 GT ISZERO PUSH2 0x25C9 JUMPI PUSH2 0x25C9 PUSH2 0x2EAD JUMP JUMPDEST EQ DUP1 PUSH2 0x25FA JUMPI POP PUSH1 0x2 PUSH1 0x0 DUP3 DUP2 MSTORE PUSH1 0xD PUSH1 0x20 MSTORE PUSH1 0x40 SWAP1 KECCAK256 PUSH1 0x7 ADD SLOAD PUSH1 0xFF AND PUSH1 0x3 DUP2 GT ISZERO PUSH2 0x25F8 JUMPI PUSH2 0x25F8 PUSH2 0x2EAD JUMP JUMPDEST EQ JUMPDEST DUP1 PUSH2 0x262A JUMPI POP PUSH1 0x3 PUSH1 0x0 DUP3 DUP2 MSTORE PUSH1 0xD PUSH1 0x20 MSTORE PUSH1 0x40 SWAP1 KECCAK256 PUSH1 0x7 ADD SLOAD PUSH1 0xFF AND PUSH1 0x3 DUP2 GT ISZERO PUSH2 0x2628 JUMPI PUSH2 0x2628 PUSH2 0x2EAD JUMP JUMPDEST EQ JUMPDEST PUSH2 0x2676 JUMPI PUSH1 0x40 MLOAD PUSH3 0x461BCD PUSH1 0xE5 SHL DUP2 MSTORE PUSH1 0x20 PUSH1 0x4 DUP3 ADD MSTORE PUSH1 0x19 PUSH1 0x24 DUP3 ADD MSTORE PUSH32 0x4572726F7221204E6674206973204E6F74206F6E2053616C6500000000000000 PUSH1 0x44 DUP3 ADD MSTORE PUSH1 0x64 ADD PUSH2 0x820 JUMP JUMPDEST PUSH1 0xC DUP1 SLOAD PUSH1 0xFF NOT SWAP1 DUP2 AND SWAP1 SWAP2 SSTORE PUSH1 0x0 DUP4 DUP2 MSTORE PUSH1 0xD PUSH1 0x20 SWAP1 DUP2 MSTORE PUSH1 0x40 SWAP2 DUP3 SWAP1 KECCAK256 PUSH1 0x7 ADD DUP1 SLOAD SWAP1 SWAP4 AND SWAP1 SWAP3 SSTORE DUP1 MLOAD DUP5 DUP2 MSTORE DUP1 DUP4 ADD DUP3 SWAP1 MSTORE SWAP1 DUP2 ADD SWAP2 SWAP1 SWAP2 MSTORE PUSH32 0x4572726F7221204E46542069732072656D6F7665642066726F6D2053616C6520 PUSH1 0x60 DUP3 ADD MSTORE PUSH32 0xD07E34E375E195F7168718A8625C1338C13BF1AC256818F9409ED36114B78755 SWAP1 PUSH1 0x80 ADD PUSH2 0x2233 JUMP JUMPDEST PUSH1 0x0 JUMPDEST PUSH1 0x0 DUP3 DUP2 MSTORE PUSH1 0xD PUSH1 0x20 MSTORE PUSH1 0x40 SWAP1 KECCAK256 PUSH1 0x1 ADD SLOAD DUP2 LT ISZERO PUSH2 0x98B JUMPI PUSH1 0x0 DUP3 DUP2 MSTORE PUSH1 0xD PUSH1 0x20 MSTORE PUSH1 0x40 SWAP1 KECCAK256 DUP1 SLOAD DUP3 SWAP1 DUP2 LT PUSH2 0x273E JUMPI PUSH2 0x273E PUSH2 0x32A8 JUMP JUMPDEST SWAP1 PUSH1 0x0 MSTORE PUSH1 0x20 PUSH1 0x0 KECCAK256 ADD SLOAD PUSH1 0xA PUSH1 0x0 PUSH1 0xD PUSH1 0x0 DUP7 DUP2 MSTORE PUSH1 0x20 ADD SWAP1 DUP2 MSTORE PUSH1 0x20 ADD PUSH1 0x0 KECCAK256 PUSH1 0x1 ADD DUP5 DUP2 SLOAD DUP2 LT PUSH2 0x2774 JUMPI PUSH2 0x2774 PUSH2 0x32A8 JUMP JUMPDEST PUSH1 0x0 SWAP2 DUP3 MSTORE PUSH1 0x20 DUP1 DUP4 KECCAK256 SWAP1 SWAP2 ADD SLOAD PUSH1 0x1 PUSH1 0x1 PUSH1 0xA0 SHL SUB AND DUP4 MSTORE DUP3 ADD SWAP3 SWAP1 SWAP3 MSTORE PUSH1 0x40 ADD DUP2 KECCAK256 DUP1 SLOAD SWAP1 SWAP2 SWAP1 PUSH2 0x27A8 SWAP1 DUP5 SWAP1 PUSH2 0x33B3 JUMP JUMPDEST SWAP1 SWAP2 SSTORE POP DUP2 SWAP1 POP PUSH2 0x27B8 DUP2 PUSH2 0x34DF JUMP JUMPDEST SWAP2 POP POP PUSH2 0x2705 JUMP JUMPDEST PUSH2 0x27CA DUP4 DUP4 PUSH2 0x29ED JUMP JUMPDEST PUSH2 0x27D7 PUSH1 0x0 DUP5 DUP5 DUP5 PUSH2 0x2B20 JUMP JUMPDEST PUSH2 0x955 JUMPI PUSH1 0x40 MLOAD PUSH3 0x461BCD PUSH1 0xE5 SHL DUP2 MSTORE PUSH1 0x4 ADD PUSH2 0x820 SWAP1 PUSH2 0x352F JUMP JUMPDEST PUSH1 0x0 DUP2 PUSH2 0x2802 PUSH2 0x2710 DUP3 PUSH2 0x3581 JUMP JUMPDEST PUSH2 0x280E SWAP1 PUSH2 0x2710 PUSH2 0x35A3 JUMP JUMPDEST EQ PUSH2 0x284E JUMPI PUSH1 0x40 MLOAD PUSH3 0x461BCD PUSH1 0xE5 SHL DUP2 MSTORE PUSH1 0x20 PUSH1 0x4 DUP3 ADD MSTORE PUSH1 0x10 PUSH1 0x24 DUP3 ADD MSTORE PUSH16 0x115C9C9BDC8848151BDBC81CDB585B1B PUSH1 0x82 SHL PUSH1 0x44 DUP3 ADD MSTORE PUSH1 0x64 ADD PUSH2 0x820 JUMP JUMPDEST PUSH2 0x3E8 PUSH2 0x285C DUP4 PUSH1 0x19 PUSH2 0x35A3 JUMP JUMPDEST PUSH2 0xE69 SWAP2 SWAP1 PUSH2 0x3581 JUMP JUMPDEST PUSH1 0x0 DUP1 PUSH1 0x64 PUSH2 0x2875 DUP6 DUP8 PUSH2 0x35A3 JUMP JUMPDEST PUSH2 0x287F SWAP2 SWAP1 PUSH2 0x3581 JUMP JUMPDEST PUSH1 0x40 MLOAD SWAP1 SWAP2 POP PUSH1 0x1 PUSH1 0x1 PUSH1 0xA0 SHL SUB DUP5 AND SWAP1 DUP3 ISZERO PUSH2 0x8FC MUL SWAP1 DUP4 SWAP1 PUSH1 0x0 DUP2 DUP2 DUP2 DUP6 DUP9 DUP9 CALL SWAP4 POP POP POP POP ISZERO DUP1 ISZERO PUSH2 0x28B8 JUMPI RETURNDATASIZE PUSH1 0x0 DUP1 RETURNDATACOPY RETURNDATASIZE PUSH1 0x0 REVERT JUMPDEST POP SWAP5 SWAP4 POP POP POP POP JUMP JUMPDEST PUSH1 0x40 MLOAD PUSH1 0x1 PUSH1 0x1 PUSH1 0xA0 SHL SUB DUP3 AND SWAP1 DUP4 ISZERO PUSH2 0x8FC MUL SWAP1 DUP5 SWAP1 PUSH1 0x0 DUP2 DUP2 DUP2 DUP6 DUP9 DUP9 CALL SWAP4 POP POP POP POP ISZERO DUP1 ISZERO PUSH2 0x955 JUMPI RETURNDATASIZE PUSH1 0x0 DUP1 RETURNDATACOPY RETURNDATASIZE PUSH1 0x0 REVERT JUMPDEST PUSH1 0x1 PUSH1 0x1 PUSH1 0xA0 SHL SUB DUP3 AND PUSH1 0x0 SWAP1 DUP2 MSTORE PUSH1 0xA PUSH1 0x20 MSTORE PUSH1 0x40 DUP2 KECCAK256 DUP1 SLOAD DUP4 SWAP3 SWAP1 PUSH2 0x1AEE SWAP1 DUP5 SWAP1 PUSH2 0x34CC JUMP JUMPDEST PUSH1 0x0 PUSH2 0x292A DUP3 PUSH2 0xDF2 JUMP JUMPDEST SWAP1 POP PUSH2 0x2937 PUSH1 0x0 DUP4 PUSH2 0x171B JUMP JUMPDEST PUSH1 0x1 PUSH1 0x1 PUSH1 0xA0 SHL SUB DUP2 AND PUSH1 0x0 SWAP1 DUP2 MSTORE PUSH1 0x3 PUSH1 0x20 MSTORE PUSH1 0x40 DUP2 KECCAK256 DUP1 SLOAD PUSH1 0x1 SWAP3 SWAP1 PUSH2 0x2960 SWAP1 DUP5 SWAP1 PUSH2 0x33B3 JUMP JUMPDEST SWAP1 SWAP2 SSTORE POP POP PUSH1 0x0 DUP3 DUP2 MSTORE PUSH1 0x2 PUSH1 0x20 MSTORE PUSH1 0x40 DUP1 DUP3 KECCAK256 DUP1 SLOAD PUSH1 0x1 PUSH1 0x1 PUSH1 0xA0 SHL SUB NOT AND SWAP1 SSTORE MLOAD DUP4 SWAP2 SWAP1 PUSH1 0x1 PUSH1 0x1 PUSH1 0xA0 SHL SUB DUP5 AND SWAP1 PUSH32 0xDDF252AD1BE2C89B69C2B068FC378DAA952BA7F163C4A11628F55A4DF523B3EF SWAP1 DUP4 SWAP1 LOG4 POP POP JUMP JUMPDEST PUSH2 0x29C5 DUP5 DUP5 DUP5 PUSH2 0x1D0F JUMP JUMPDEST PUSH2 0x29D1 DUP5 DUP5 DUP5 DUP5 PUSH2 0x2B20 JUMP JUMPDEST PUSH2 0xD38 JUMPI PUSH1 0x40 MLOAD PUSH3 0x461BCD PUSH1 0xE5 SHL DUP2 MSTORE PUSH1 0x4 ADD PUSH2 0x820 SWAP1 PUSH2 0x352F JUMP JUMPDEST PUSH1 0x1 PUSH1 0x1 PUSH1 0xA0 SHL SUB DUP3 AND PUSH2 0x2A43 JUMPI PUSH1 0x40 MLOAD PUSH3 0x461BCD PUSH1 0xE5 SHL DUP2 MSTORE PUSH1 0x20 PUSH1 0x4 DUP3 ADD DUP2 SWAP1 MSTORE PUSH1 0x24 DUP3 ADD MSTORE PUSH32 0x4552433732313A206D696E7420746F20746865207A65726F2061646472657373 PUSH1 0x44 DUP3 ADD MSTORE PUSH1 0x64 ADD PUSH2 0x820 JUMP JUMPDEST PUSH2 0x2A4C DUP2 PUSH2 0x16FE JUMP JUMPDEST ISZERO PUSH2 0x2A99 JUMPI PUSH1 0x40 MLOAD PUSH3 0x461BCD PUSH1 0xE5 SHL DUP2 MSTORE PUSH1 0x20 PUSH1 0x4 DUP3 ADD MSTORE PUSH1 0x1C PUSH1 0x24 DUP3 ADD MSTORE PUSH32 0x4552433732313A20746F6B656E20616C7265616479206D696E74656400000000 PUSH1 0x44 DUP3 ADD MSTORE PUSH1 0x64 ADD PUSH2 0x820 JUMP JUMPDEST PUSH1 0x1 PUSH1 0x1 PUSH1 0xA0 SHL SUB DUP3 AND PUSH1 0x0 SWAP1 DUP2 MSTORE PUSH1 0x3 PUSH1 0x20 MSTORE PUSH1 0x40 DUP2 KECCAK256 DUP1 SLOAD PUSH1 0x1 SWAP3 SWAP1 PUSH2 0x2AC2 SWAP1 DUP5 SWAP1 PUSH2 0x34CC JUMP JUMPDEST SWAP1 SWAP2 SSTORE POP POP PUSH1 0x0 DUP2 DUP2 MSTORE PUSH1 0x2 PUSH1 0x20 MSTORE PUSH1 0x40 DUP1 DUP3 KECCAK256 DUP1 SLOAD PUSH1 0x1 PUSH1 0x1 PUSH1 0xA0 SHL SUB NOT AND PUSH1 0x1 PUSH1 0x1 PUSH1 0xA0 SHL SUB DUP7 AND SWAP1 DUP2 OR SWAP1 SWAP2 SSTORE SWAP1 MLOAD DUP4 SWAP3 SWAP1 PUSH32 0xDDF252AD1BE2C89B69C2B068FC378DAA952BA7F163C4A11628F55A4DF523B3EF SWAP1 DUP3 SWAP1 LOG4 POP POP JUMP JUMPDEST PUSH1 0x0 PUSH1 0x1 PUSH1 0x1 PUSH1 0xA0 SHL SUB DUP5 AND EXTCODESIZE ISZERO PUSH2 0x2C16 JUMPI PUSH1 0x40 MLOAD PUSH4 0xA85BD01 PUSH1 0xE1 SHL DUP2 MSTORE PUSH1 0x1 PUSH1 0x1 PUSH1 0xA0 SHL SUB DUP6 AND SWAP1 PUSH4 0x150B7A02 SWAP1 PUSH2 0x2B64 SWAP1 CALLER SWAP1 DUP10 SWAP1 DUP9 SWAP1 DUP9 SWAP1 PUSH1 0x4 ADD PUSH2 0x35BA JUMP JUMPDEST PUSH1 0x20 PUSH1 0x40 MLOAD DUP1 DUP4 SUB DUP2 PUSH1 0x0 DUP8 GAS CALL SWAP3 POP POP POP DUP1 ISZERO PUSH2 0x2B9F JUMPI POP PUSH1 0x40 DUP1 MLOAD PUSH1 0x1F RETURNDATASIZE SWAP1 DUP2 ADD PUSH1 0x1F NOT AND DUP3 ADD SWAP1 SWAP3 MSTORE PUSH2 0x2B9C SWAP2 DUP2 ADD SWAP1 PUSH2 0x35F7 JUMP JUMPDEST PUSH1 0x1 JUMPDEST PUSH2 0x2BFC JUMPI RETURNDATASIZE DUP1 DUP1 ISZERO PUSH2 0x2BCD JUMPI PUSH1 0x40 MLOAD SWAP2 POP PUSH1 0x1F NOT PUSH1 0x3F RETURNDATASIZE ADD AND DUP3 ADD PUSH1 0x40 MSTORE RETURNDATASIZE DUP3 MSTORE RETURNDATASIZE PUSH1 0x0 PUSH1 0x20 DUP5 ADD RETURNDATACOPY PUSH2 0x2BD2 JUMP JUMPDEST PUSH1 0x60 SWAP2 POP JUMPDEST POP DUP1 MLOAD PUSH1 0x0 SUB PUSH2 0x2BF4 JUMPI PUSH1 0x40 MLOAD PUSH3 0x461BCD PUSH1 0xE5 SHL DUP2 MSTORE PUSH1 0x4 ADD PUSH2 0x820 SWAP1 PUSH2 0x352F JUMP JUMPDEST DUP1 MLOAD DUP2 PUSH1 0x20 ADD REVERT JUMPDEST PUSH1 0x1 PUSH1 0x1 PUSH1 0xE0 SHL SUB NOT AND PUSH4 0xA85BD01 PUSH1 0xE1 SHL EQ SWAP1 POP PUSH2 0x184B JUMP JUMPDEST POP PUSH1 0x1 SWAP5 SWAP4 POP POP POP POP JUMP JUMPDEST POP DUP1 SLOAD PUSH2 0x2C2D SWAP1 PUSH2 0x3206 JUMP JUMPDEST PUSH1 0x0 DUP3 SSTORE DUP1 PUSH1 0x1F LT PUSH2 0x2C3D JUMPI POP POP JUMP JUMPDEST PUSH1 0x1F ADD PUSH1 0x20 SWAP1 DIV SWAP1 PUSH1 0x0 MSTORE PUSH1 0x20 PUSH1 0x0 KECCAK256 SWAP1 DUP2 ADD SWAP1 PUSH2 0x14ED SWAP2 SWAP1 JUMPDEST DUP1 DUP3 GT ISZERO PUSH2 0x2C6B JUMPI PUSH1 0x0 DUP2 SSTORE PUSH1 0x1 ADD PUSH2 0x2C57 JUMP JUMPDEST POP SWAP1 JUMP JUMPDEST PUSH1 0x0 DUP2 MLOAD DUP1 DUP5 MSTORE PUSH1 0x0 JUMPDEST DUP2 DUP2 LT ISZERO PUSH2 0x2C95 JUMPI PUSH1 0x20 DUP2 DUP6 ADD DUP2 ADD MLOAD DUP7 DUP4 ADD DUP3 ADD MSTORE ADD PUSH2 0x2C79 JUMP JUMPDEST POP PUSH1 0x0 PUSH1 0x20 DUP3 DUP7 ADD ADD MSTORE PUSH1 0x20 PUSH1 0x1F NOT PUSH1 0x1F DUP4 ADD AND DUP6 ADD ADD SWAP2 POP POP SWAP3 SWAP2 POP POP JUMP JUMPDEST PUSH1 0x20 DUP2 MSTORE PUSH1 0x0 PUSH2 0x2CC8 PUSH1 0x20 DUP4 ADD DUP5 PUSH2 0x2C6F JUMP JUMPDEST SWAP4 SWAP3 POP POP POP JUMP JUMPDEST PUSH1 0x0 PUSH1 0x20 DUP3 DUP5 SUB SLT ISZERO PUSH2 0x2CE1 JUMPI PUSH1 0x0 DUP1 REVERT JUMPDEST POP CALLDATALOAD SWAP2 SWAP1 POP JUMP JUMPDEST PUSH1 0x1 PUSH1 0x1 PUSH1 0xA0 SHL SUB DUP2 AND DUP2 EQ PUSH2 0x14ED JUMPI PUSH1 0x0 DUP1 REVERT JUMPDEST PUSH1 0x0 DUP1 PUSH1 0x40 DUP4 DUP6 SUB SLT ISZERO PUSH2 0x2D10 JUMPI PUSH1 0x0 DUP1 REVERT JUMPDEST DUP3 CALLDATALOAD PUSH2 0x2D1B DUP2 PUSH2 0x2CE8 JUMP JUMPDEST SWAP5 PUSH1 0x20 SWAP4 SWAP1 SWAP4 ADD CALLDATALOAD SWAP4 POP POP POP JUMP JUMPDEST PUSH4 0x4E487B71 PUSH1 0xE0 SHL PUSH1 0x0 MSTORE PUSH1 0x41 PUSH1 0x4 MSTORE PUSH1 0x24 PUSH1 0x0 REVERT JUMPDEST PUSH1 0x0 DUP3 PUSH1 0x1F DUP4 ADD SLT PUSH2 0x2D50 JUMPI PUSH1 0x0 DUP1 REVERT JUMPDEST DUP2 CALLDATALOAD PUSH8 0xFFFFFFFFFFFFFFFF DUP1 DUP3 GT ISZERO PUSH2 0x2D6B JUMPI PUSH2 0x2D6B PUSH2 0x2D29 JUMP JUMPDEST PUSH1 0x40 MLOAD PUSH1 0x1F DUP4 ADD PUSH1 0x1F NOT SWAP1 DUP2 AND PUSH1 0x3F ADD AND DUP2 ADD SWAP1 DUP3 DUP3 GT DUP2 DUP4 LT OR ISZERO PUSH2 0x2D93 JUMPI PUSH2 0x2D93 PUSH2 0x2D29 JUMP JUMPDEST DUP2 PUSH1 0x40 MSTORE DUP4 DUP2 MSTORE DUP7 PUSH1 0x20 DUP6 DUP9 ADD ADD GT ISZERO PUSH2 0x2DAC JUMPI PUSH1 0x0 DUP1 REVERT JUMPDEST DUP4 PUSH1 0x20 DUP8 ADD PUSH1 0x20 DUP4 ADD CALLDATACOPY PUSH1 0x0 PUSH1 0x20 DUP6 DUP4 ADD ADD MSTORE DUP1 SWAP5 POP POP POP POP POP SWAP3 SWAP2 POP POP JUMP JUMPDEST PUSH1 0x0 DUP1 PUSH1 0x0 DUP1 PUSH1 0x0 DUP1 PUSH1 0xC0 DUP8 DUP10 SUB SLT ISZERO PUSH2 0x2DE5 JUMPI PUSH1 0x0 DUP1 REVERT JUMPDEST DUP7 CALLDATALOAD PUSH2 0x2DF0 DUP2 PUSH2 0x2CE8 JUMP JUMPDEST SWAP6 POP PUSH1 0x20 DUP8 ADD CALLDATALOAD SWAP5 POP PUSH1 0x40 DUP8 ADD CALLDATALOAD PUSH8 0xFFFFFFFFFFFFFFFF DUP2 GT ISZERO PUSH2 0x2E13 JUMPI PUSH1 0x0 DUP1 REVERT JUMPDEST PUSH2 0x2E1F DUP10 DUP3 DUP11 ADD PUSH2 0x2D3F JUMP JUMPDEST SWAP5 POP POP PUSH1 0x60 DUP8 ADD CALLDATALOAD PUSH2 0x2E30 DUP2 PUSH2 0x2CE8 JUMP JUMPDEST SWAP6 SWAP9 SWAP5 SWAP8 POP SWAP3 SWAP6 PUSH1 0x80 DUP2 ADD CALLDATALOAD SWAP5 PUSH1 0xA0 SWAP1 SWAP2 ADD CALLDATALOAD SWAP4 POP SWAP2 POP POP JUMP JUMPDEST PUSH1 0x0 DUP1 PUSH1 0x40 DUP4 DUP6 SUB SLT ISZERO PUSH2 0x2E5D JUMPI PUSH1 0x0 DUP1 REVERT JUMPDEST POP POP DUP1 CALLDATALOAD SWAP3 PUSH1 0x20 SWAP1 SWAP2 ADD CALLDATALOAD SWAP2 POP JUMP JUMPDEST PUSH1 0x0 DUP1 PUSH1 0x0 PUSH1 0x60 DUP5 DUP7 SUB SLT ISZERO PUSH2 0x2E81 JUMPI PUSH1 0x0 DUP1 REVERT JUMPDEST DUP4 CALLDATALOAD PUSH2 0x2E8C DUP2 PUSH2 0x2CE8 JUMP JUMPDEST SWAP3 POP PUSH1 0x20 DUP5 ADD CALLDATALOAD PUSH2 0x2E9C DUP2 PUSH2 0x2CE8 JUMP JUMPDEST SWAP3 SWAP6 SWAP3 SWAP5 POP POP POP PUSH1 0x40 SWAP2 SWAP1 SWAP2 ADD CALLDATALOAD SWAP1 JUMP JUMPDEST PUSH4 0x4E487B71 PUSH1 0xE0 SHL PUSH1 0x0 MSTORE PUSH1 0x21 PUSH1 0x4 MSTORE PUSH1 0x24 PUSH1 0x0 REVERT JUMPDEST PUSH1 0x20 DUP2 ADD PUSH1 0x4 DUP4 LT PUSH2 0x2EE5 JUMPI PUSH4 0x4E487B71 PUSH1 0xE0 SHL PUSH1 0x0 MSTORE PUSH1 0x21 PUSH1 0x4 MSTORE PUSH1 0x24 PUSH1 0x0 REVERT JUMPDEST SWAP2 SWAP1 MSTORE SWAP1 JUMP JUMPDEST PUSH1 0x0 PUSH1 0x20 DUP3 DUP5 SUB SLT ISZERO PUSH2 0x2EFD JUMPI PUSH1 0x0 DUP1 REVERT JUMPDEST DUP2 CALLDATALOAD PUSH2 0x2CC8 DUP2 PUSH2 0x2CE8 JUMP JUMPDEST PUSH1 0x0 DUP1 PUSH1 0x0 DUP1 PUSH1 0x80 DUP6 DUP8 SUB SLT ISZERO PUSH2 0x2F1E JUMPI PUSH1 0x0 DUP1 REVERT JUMPDEST POP POP DUP3 CALLDATALOAD SWAP5 PUSH1 0x20 DUP5 ADD CALLDATALOAD SWAP5 POP PUSH1 0x40 DUP5 ADD CALLDATALOAD SWAP4 PUSH1 0x60 ADD CALLDATALOAD SWAP3 POP SWAP1 POP JUMP JUMPDEST PUSH1 0x0 DUP1 PUSH1 0x0 DUP1 PUSH1 0x80 DUP6 DUP8 SUB SLT ISZERO PUSH2 0x2F50 JUMPI PUSH1 0x0 DUP1 REVERT JUMPDEST DUP5 CALLDATALOAD PUSH2 0x2F5B DUP2 PUSH2 0x2CE8 JUMP JUMPDEST SWAP4 POP PUSH1 0x20 DUP6 ADD CALLDATALOAD PUSH2 0x2F6B DUP2 PUSH2 0x2CE8 JUMP JUMPDEST SWAP3 POP PUSH1 0x40 DUP6 ADD CALLDATALOAD SWAP2 POP PUSH1 0x60 DUP6 ADD CALLDATALOAD PUSH8 0xFFFFFFFFFFFFFFFF DUP2 GT ISZERO PUSH2 0x2F8E JUMPI PUSH1 0x0 DUP1 REVERT JUMPDEST PUSH2 0x2F9A DUP8 DUP3 DUP9 ADD PUSH2 0x2D3F JUMP JUMPDEST SWAP2 POP POP SWAP3 SWAP6 SWAP2 SWAP5 POP SWAP3 POP JUMP JUMPDEST PUSH1 0x0 DUP1 PUSH1 0x0 DUP1 PUSH1 0x0 DUP1 PUSH1 0xC0 DUP8 DUP10 SUB SLT ISZERO PUSH2 0x2FBF JUMPI PUSH1 0x0 DUP1 REVERT JUMPDEST DUP7 CALLDATALOAD SWAP6 POP PUSH1 0x20 DUP8 ADD CALLDATALOAD PUSH8 0xFFFFFFFFFFFFFFFF DUP2 GT ISZERO PUSH2 0x2FDD JUMPI PUSH1 0x0 DUP1 REVERT JUMPDEST PUSH2 0x2FE9 DUP10 DUP3 DUP11 ADD PUSH2 0x2D3F JUMP JUMPDEST SWAP7 SWAP10 SWAP7 SWAP9 POP POP POP POP PUSH1 0x40 DUP6 ADD CALLDATALOAD SWAP5 PUSH1 0x60 DUP2 ADD CALLDATALOAD SWAP5 PUSH1 0x80 DUP3 ADD CALLDATALOAD SWAP5 POP PUSH1 0xA0 SWAP1 SWAP2 ADD CALLDATALOAD SWAP3 POP SWAP1 POP JUMP JUMPDEST PUSH1 0x0 DUP1 PUSH1 0x40 DUP4 DUP6 SUB SLT ISZERO PUSH2 0x3023 JUMPI PUSH1 0x0 DUP1 REVERT JUMPDEST DUP3 CALLDATALOAD PUSH2 0x302E DUP2 PUSH2 0x2CE8 JUMP JUMPDEST SWAP2 POP PUSH1 0x20 DUP4 ADD CALLDATALOAD DUP1 ISZERO ISZERO DUP2 EQ PUSH2 0x3043 JUMPI PUSH1 0x0 DUP1 REVERT JUMPDEST DUP1 SWAP2 POP POP SWAP3 POP SWAP3 SWAP1 POP JUMP JUMPDEST PUSH1 0x0 DUP1 PUSH1 0x0 DUP1 PUSH1 0x80 DUP6 DUP8 SUB SLT ISZERO PUSH2 0x3064 JUMPI PUSH1 0x0 DUP1 REVERT JUMPDEST DUP5 CALLDATALOAD SWAP4 POP PUSH1 0x20 DUP6 ADD CALLDATALOAD PUSH8 0xFFFFFFFFFFFFFFFF DUP2 GT ISZERO PUSH2 0x3082 JUMPI PUSH1 0x0 DUP1 REVERT JUMPDEST PUSH2 0x308E DUP8 DUP3 DUP9 ADD PUSH2 0x2D3F JUMP JUMPDEST SWAP5 SWAP8 SWAP5 SWAP7 POP POP POP POP PUSH1 0x40 DUP4 ADD CALLDATALOAD SWAP3 PUSH1 0x60 ADD CALLDATALOAD SWAP2 SWAP1 POP JUMP JUMPDEST PUSH1 0x0 DUP1 PUSH1 0x0 PUSH1 0x60 DUP5 DUP7 SUB SLT ISZERO PUSH2 0x30BA JUMPI PUSH1 0x0 DUP1 REVERT JUMPDEST DUP4 CALLDATALOAD SWAP3 POP PUSH1 0x20 DUP5 ADD CALLDATALOAD PUSH8 0xFFFFFFFFFFFFFFFF DUP2 GT ISZERO PUSH2 0x30D8 JUMPI PUSH1 0x0 DUP1 REVERT JUMPDEST PUSH2 0x30E4 DUP7 DUP3 DUP8 ADD PUSH2 0x2D3F JUMP JUMPDEST SWAP3 POP POP PUSH1 0x40 DUP5 ADD CALLDATALOAD SWAP1 POP SWAP3 POP SWAP3 POP SWAP3 JUMP JUMPDEST PUSH1 0x0 DUP1 PUSH1 0x0 DUP1 PUSH1 0x0 DUP1 PUSH1 0x0 DUP1 PUSH2 0x100 DUP10 DUP12 SUB SLT ISZERO PUSH2 0x3112 JUMPI PUSH1 0x0 DUP1 REVERT JUMPDEST DUP9 CALLDATALOAD PUSH2 0x311D DUP2 PUSH2 0x2CE8 JUMP JUMPDEST SWAP8 POP PUSH1 0x20 DUP10 ADD CALLDATALOAD SWAP7 POP PUSH1 0x40 DUP10 ADD CALLDATALOAD SWAP6 POP PUSH1 0x60 DUP10 ADD CALLDATALOAD SWAP5 POP PUSH1 0x80 DUP10 ADD CALLDATALOAD SWAP4 POP PUSH1 0xA0 DUP10 ADD CALLDATALOAD PUSH8 0xFFFFFFFFFFFFFFFF DUP2 GT ISZERO PUSH2 0x3155 JUMPI PUSH1 0x0 DUP1 REVERT JUMPDEST PUSH2 0x3161 DUP12 DUP3 DUP13 ADD PUSH2 0x2D3F JUMP JUMPDEST SWAP4 POP POP PUSH1 0xC0 DUP10 ADD CALLDATALOAD SWAP2 POP PUSH1 0xE0 DUP10 ADD CALLDATALOAD SWAP1 POP SWAP3 SWAP6 SWAP9 POP SWAP3 SWAP6 SWAP9 SWAP1 SWAP4 SWAP7 POP JUMP JUMPDEST PUSH1 0x0 DUP1 PUSH1 0x40 DUP4 DUP6 SUB SLT ISZERO PUSH2 0x3192 JUMPI PUSH1 0x0 DUP1 REVERT JUMPDEST DUP3 CALLDATALOAD PUSH2 0x319D DUP2 PUSH2 0x2CE8 JUMP JUMPDEST SWAP2 POP PUSH1 0x20 DUP4 ADD CALLDATALOAD PUSH2 0x3043 DUP2 PUSH2 0x2CE8 JUMP JUMPDEST PUSH1 0x0 DUP1 PUSH1 0x0 PUSH1 0x60 DUP5 DUP7 SUB SLT ISZERO PUSH2 0x31C2 JUMPI PUSH1 0x0 DUP1 REVERT JUMPDEST DUP4 CALLDATALOAD SWAP3 POP PUSH1 0x20 DUP5 ADD CALLDATALOAD PUSH2 0x31D4 DUP2 PUSH2 0x2CE8 JUMP JUMPDEST SWAP2 POP PUSH1 0x40 DUP5 ADD CALLDATALOAD PUSH8 0xFFFFFFFFFFFFFFFF DUP2 GT ISZERO PUSH2 0x31F0 JUMPI PUSH1 0x0 DUP1 REVERT JUMPDEST PUSH2 0x31FC DUP7 DUP3 DUP8 ADD PUSH2 0x2D3F JUMP JUMPDEST SWAP2 POP POP SWAP3 POP SWAP3 POP SWAP3 JUMP JUMPDEST PUSH1 0x1 DUP2 DUP2 SHR SWAP1 DUP3 AND DUP1 PUSH2 0x321A JUMPI PUSH1 0x7F DUP3 AND SWAP2 POP JUMPDEST PUSH1 0x20 DUP3 LT DUP2 SUB PUSH2 0x10BC JUMPI PUSH4 0x4E487B71 PUSH1 0xE0 SHL PUSH1 0x0 MSTORE PUSH1 0x22 PUSH1 0x4 MSTORE PUSH1 0x24 PUSH1 0x0 REVERT JUMPDEST PUSH1 0x20 DUP1 DUP3 MSTORE PUSH1 0x1C SWAP1 DUP3 ADD MSTORE PUSH32 0x4572726F7221204F6E6C79206F776E6572206861732041636365737300000000 PUSH1 0x40 DUP3 ADD MSTORE PUSH1 0x60 ADD SWAP1 JUMP JUMPDEST PUSH1 0x20 DUP1 DUP3 MSTORE PUSH1 0x19 SWAP1 DUP3 ADD MSTORE PUSH32 0x4572726F72212053616C65206973204E6F742041637469766500000000000000 PUSH1 0x40 DUP3 ADD MSTORE PUSH1 0x60 ADD SWAP1 JUMP JUMPDEST PUSH4 0x4E487B71 PUSH1 0xE0 SHL PUSH1 0x0 MSTORE PUSH1 0x32 PUSH1 0x4 MSTORE PUSH1 0x24 PUSH1 0x0 REVERT JUMPDEST PUSH1 0x20 DUP1 DUP3 MSTORE PUSH1 0x12 SWAP1 DUP3 ADD MSTORE PUSH18 0x53616C65206973204E6F7420416374697665 PUSH1 0x70 SHL PUSH1 0x40 DUP3 ADD MSTORE PUSH1 0x60 ADD SWAP1 JUMP JUMPDEST PUSH1 0x20 DUP1 DUP3 MSTORE DUP2 DUP2 ADD MSTORE PUSH32 0x4F776E61626C653A2063616C6C6572206973206E6F7420746865206F776E6572 PUSH1 0x40 DUP3 ADD MSTORE PUSH1 0x60 ADD SWAP1 JUMP JUMPDEST PUSH1 0x20 DUP1 DUP3 MSTORE DUP2 DUP2 ADD MSTORE PUSH32 0x4E6674206973204E6F7420417661696C61626C6520666F722041756374696F6E PUSH1 0x40 DUP3 ADD MSTORE PUSH1 0x60 ADD SWAP1 JUMP JUMPDEST PUSH1 0x20 DUP1 DUP3 MSTORE PUSH1 0x29 SWAP1 DUP3 ADD MSTORE PUSH32 0x4572726F7221204D6178696D756D204D696E74696E672050657263656E746167 PUSH1 0x40 DUP3 ADD MSTORE PUSH9 0x329034B9901A98129 PUSH1 0xBD SHL PUSH1 0x60 DUP3 ADD MSTORE PUSH1 0x80 ADD SWAP1 JUMP JUMPDEST PUSH4 0x4E487B71 PUSH1 0xE0 SHL PUSH1 0x0 MSTORE PUSH1 0x11 PUSH1 0x4 MSTORE PUSH1 0x24 PUSH1 0x0 REVERT JUMPDEST DUP2 DUP2 SUB DUP2 DUP2 GT ISZERO PUSH2 0xE69 JUMPI PUSH2 0xE69 PUSH2 0x339D JUMP JUMPDEST PUSH1 0x1F DUP3 GT ISZERO PUSH2 0x955 JUMPI PUSH1 0x0 DUP2 DUP2 MSTORE PUSH1 0x20 DUP2 KECCAK256 PUSH1 0x1F DUP6 ADD PUSH1 0x5 SHR DUP2 ADD PUSH1 0x20 DUP7 LT ISZERO PUSH2 0x33ED JUMPI POP DUP1 JUMPDEST PUSH1 0x1F DUP6 ADD PUSH1 0x5 SHR DUP3 ADD SWAP2 POP JUMPDEST DUP2 DUP2 LT ISZERO PUSH2 0xA3D JUMPI DUP3 DUP2 SSTORE PUSH1 0x1 ADD PUSH2 0x33F9 JUMP JUMPDEST DUP2 MLOAD PUSH8 0xFFFFFFFFFFFFFFFF DUP2 GT ISZERO PUSH2 0x3426 JUMPI PUSH2 0x3426 PUSH2 0x2D29 JUMP JUMPDEST PUSH2 0x343A DUP2 PUSH2 0x3434 DUP5 SLOAD PUSH2 0x3206 JUMP JUMPDEST DUP5 PUSH2 0x33C6 JUMP JUMPDEST PUSH1 0x20 DUP1 PUSH1 0x1F DUP4 GT PUSH1 0x1 DUP2 EQ PUSH2 0x346F JUMPI PUSH1 0x0 DUP5 ISZERO PUSH2 0x3457 JUMPI POP DUP6 DUP4 ADD MLOAD JUMPDEST PUSH1 0x0 NOT PUSH1 0x3 DUP7 SWAP1 SHL SHR NOT AND PUSH1 0x1 DUP6 SWAP1 SHL OR DUP6 SSTORE PUSH2 0xA3D JUMP JUMPDEST PUSH1 0x0 DUP6 DUP2 MSTORE PUSH1 0x20 DUP2 KECCAK256 PUSH1 0x1F NOT DUP7 AND SWAP2 JUMPDEST DUP3 DUP2 LT ISZERO PUSH2 0x349E JUMPI DUP9 DUP7 ADD MLOAD DUP3 SSTORE SWAP5 DUP5 ADD SWAP5 PUSH1 0x1 SWAP1 SWAP2 ADD SWAP1 DUP5 ADD PUSH2 0x347F JUMP JUMPDEST POP DUP6 DUP3 LT ISZERO PUSH2 0x34BC JUMPI DUP8 DUP6 ADD MLOAD PUSH1 0x0 NOT PUSH1 0x3 DUP9 SWAP1 SHL PUSH1 0xF8 AND SHR NOT AND DUP2 SSTORE JUMPDEST POP POP POP POP POP PUSH1 0x1 SWAP1 DUP2 SHL ADD SWAP1 SSTORE POP JUMP JUMPDEST DUP1 DUP3 ADD DUP1 DUP3 GT ISZERO PUSH2 0xE69 JUMPI PUSH2 0xE69 PUSH2 0x339D JUMP JUMPDEST PUSH1 0x0 PUSH1 0x1 DUP3 ADD PUSH2 0x34F1 JUMPI PUSH2 0x34F1 PUSH2 0x339D JUMP JUMPDEST POP PUSH1 0x1 ADD SWAP1 JUMP JUMPDEST PUSH1 0x20 DUP1 DUP3 MSTORE PUSH1 0x1D SWAP1 DUP3 ADD MSTORE PUSH32 0x4572726F7221204E667420697320416C7265616479206F6E2053616C65000000 PUSH1 0x40 DUP3 ADD MSTORE PUSH1 0x60 ADD SWAP1 JUMP JUMPDEST PUSH1 0x20 DUP1 DUP3 MSTORE PUSH1 0x32 SWAP1 DUP3 ADD MSTORE PUSH32 0x4552433732313A207472616E7366657220746F206E6F6E204552433732315265 PUSH1 0x40 DUP3 ADD MSTORE PUSH18 0x31B2B4BB32B91034B6B83632B6B2B73A32B9 PUSH1 0x71 SHL PUSH1 0x60 DUP3 ADD MSTORE PUSH1 0x80 ADD SWAP1 JUMP JUMPDEST PUSH1 0x0 DUP3 PUSH2 0x359E JUMPI PUSH4 0x4E487B71 PUSH1 0xE0 SHL PUSH1 0x0 MSTORE PUSH1 0x12 PUSH1 0x4 MSTORE PUSH1 0x24 PUSH1 0x0 REVERT JUMPDEST POP DIV SWAP1 JUMP JUMPDEST DUP1 DUP3 MUL DUP2 ISZERO DUP3 DUP3 DIV DUP5 EQ OR PUSH2 0xE69 JUMPI PUSH2 0xE69 PUSH2 0x339D JUMP JUMPDEST PUSH1 0x1 PUSH1 0x1 PUSH1 0xA0 SHL SUB DUP6 DUP2 AND DUP3 MSTORE DUP5 AND PUSH1 0x20 DUP3 ADD MSTORE PUSH1 0x40 DUP2 ADD DUP4 SWAP1 MSTORE PUSH1 0x80 PUSH1 0x60 DUP3 ADD DUP2 SWAP1 MSTORE PUSH1 0x0 SWAP1 PUSH2 0x35ED SWAP1 DUP4 ADD DUP5 PUSH2 0x2C6F JUMP JUMPDEST SWAP7 SWAP6 POP POP POP POP POP POP JUMP JUMPDEST PUSH1 0x0 PUSH1 0x20 DUP3 DUP5 SUB SLT ISZERO PUSH2 0x3609 JUMPI PUSH1 0x0 DUP1 REVERT JUMPDEST DUP2 MLOAD PUSH1 0x1 PUSH1 0x1 PUSH1 0xE0 SHL SUB NOT DUP2 AND DUP2 EQ PUSH2 0x2CC8 JUMPI PUSH1 0x0 DUP1 REVERT INVALID LOG2 PUSH5 0x6970667358 0x22 SLT KECCAK256 0xE4 ADD 0x4B TIMESTAMP DUP2 INVALID 0x2B RETURN PUSH25 0x13CB0856516A618845274D85876CD36D198376C3E758AA6473 PUSH16 0x6C634300081200330000000000000000 "
		},
		"gasEstimates": {
			"creation": {
				"codeDepositCost": "2782200",
				"executionCost": "infinite",
				"totalCost": "infinite"
			},
			"external": {
				"AcceptYourHighestBid(uint256)": "infinite",
				"AddAuctionBid(uint256,uint256)": "infinite",
				"AddOpenBids(uint256,uint256)": "126331",
				"BurnTokken(uint256)": "infinite",
				"CheckNftStatus(uint256)": "2631",
				"CurrentStatus()": "2462",
				"MintForFixedPrice(uint256,string,uint256,uint256)": "infinite",
				"MintForOpenBidding(uint256,string,uint256)": "infinite",
				"MintForTimedAuction(uint256,string,uint256,uint256,uint256,uint256)": "infinite",
				"MintTo(address,uint256,string,address,uint256,uint256)": "infinite",
				"PlaceNftForFixedPrice(uint256,uint256)": "infinite",
				"PlaceNftForOPenBidding(uint256)": "infinite",
				"PlaceNftForTimedAuction(uint256,uint256,uint256,uint256)": "infinite",
				"PurchaseNftFromFixedPrice(uint256,address,bytes)": "infinite",
				"RemoveNftFromSale(uint256)": "infinite",
				"SafeTransferFromDstage(address,address,uint256,bytes)": "infinite",
				"WithDrawAmount(uint256)": "infinite",
				"_simpleMint(uint256,string,uint256)": "infinite",
				"approve(address,uint256)": "infinite",
				"balanceOf(address)": "2717",
				"checkBalance(address)": "2577",
				"checkNftPrice(uint256)": "4758",
				"extendAuctionTime(uint256,uint256)": "infinite",
				"getApproved(uint256)": "4800",
				"getBalanceContract()": "2505",
				"getHighestBid(uint256)": "9115",
				"isApprovedForAll(address,address)": "infinite",
				"name()": "infinite",
				"owner()": "2420",
				"ownerOf(uint256)": "2624",
				"placeBidOnLazyMintedNFT(address,uint256,uint256,uint256,uint256,string,uint256,uint256)": "infinite",
				"provenanceHashValue()": "infinite",
				"renounceOwnership()": "28162",
				"saleIsActive()": "2354",
				"setApprovalForAll(address,bool)": "26789",
				"switchSaleState()": "28731",
				"symbol()": "infinite",
				"tokenURI(uint256)": "infinite",
				"transferFromDstage(address,address,uint256)": "infinite",
				"transferOwnership(address)": "infinite"
			},
			"internal": {
				"_removeNftFromSale(uint256)": "infinite",
				"_safeTransferFromDstage(address payable,address payable,uint256,bytes memory)": "infinite",
				"_setNftPrice(uint256,uint256)": "infinite",
				"_updateNftPrice(uint256)": "infinite"
			}
		},
		"methodIdentifiers": {
			"AcceptYourHighestBid(uint256)": "481ae382",
			"AddAuctionBid(uint256,uint256)": "425ef278",
			"AddOpenBids(uint256,uint256)": "d5b913ae",
			"BurnTokken(uint256)": "6e8846d3",
			"CheckNftStatus(uint256)": "5f404c69",
			"CurrentStatus()": "e3306a6f",
			"MintForFixedPrice(uint256,string,uint256,uint256)": "a30949c7",
			"MintForOpenBidding(uint256,string,uint256)": "b5edc9d7",
			"MintForTimedAuction(uint256,string,uint256,uint256,uint256,uint256)": "9e4b685f",
			"MintTo(address,uint256,string,address,uint256,uint256)": "18376e63",
			"PlaceNftForFixedPrice(uint256,uint256)": "5a1ae10d",
			"PlaceNftForOPenBidding(uint256)": "8eb78484",
			"PlaceNftForTimedAuction(uint256,uint256,uint256,uint256)": "8982fe56",
			"PurchaseNftFromFixedPrice(uint256,address,bytes)": "fcc56a1a",
			"RemoveNftFromSale(uint256)": "1183fae3",
			"SafeTransferFromDstage(address,address,uint256,bytes)": "8fe2ba49",
			"WithDrawAmount(uint256)": "e30a6214",
			"_simpleMint(uint256,string,uint256)": "d43bf330",
			"approve(address,uint256)": "095ea7b3",
			"balanceOf(address)": "70a08231",
			"checkBalance(address)": "5f515226",
			"checkNftPrice(uint256)": "ec4de038",
			"extendAuctionTime(uint256,uint256)": "acc7b0d1",
			"getApproved(uint256)": "081812fc",
			"getBalanceContract()": "66bd78fd",
			"getHighestBid(uint256)": "8f288644",
			"isApprovedForAll(address,address)": "e985e9c5",
			"name()": "06fdde03",
			"owner()": "8da5cb5b",
			"ownerOf(uint256)": "6352211e",
			"placeBidOnLazyMintedNFT(address,uint256,uint256,uint256,uint256,string,uint256,uint256)": "ca0d325b",
			"provenanceHashValue()": "af50191a",
			"renounceOwnership()": "715018a6",
			"saleIsActive()": "eb8d2444",
			"setApprovalForAll(address,bool)": "a22cb465",
			"switchSaleState()": "efc4f1dc",
			"symbol()": "95d89b41",
			"tokenURI(uint256)": "c87b56dd",
			"transferFromDstage(address,address,uint256)": "4e32804b",
			"transferOwnership(address)": "f2fde38b"
		}
	},
	"abi": [
		{
			"inputs": [
				{
					"internalType": "string",
					"name": "name",
					"type": "string"
				},
				{
					"internalType": "string",
					"name": "symbol",
					"type": "string"
				}
			],
			"stateMutability": "nonpayable",
			"type": "constructor"
		},
		{
			"anonymous": false,
			"inputs": [
				{
					"indexed": true,
					"internalType": "address",
					"name": "owner",
					"type": "address"
				},
				{
					"indexed": true,
					"internalType": "address",
					"name": "approved",
					"type": "address"
				},
				{
					"indexed": true,
					"internalType": "uint256",
					"name": "tokenId",
					"type": "uint256"
				}
			],
			"name": "Approval",
			"type": "event"
		},
		{
			"anonymous": false,
			"inputs": [
				{
					"indexed": true,
					"internalType": "address",
					"name": "owner",
					"type": "address"
				},
				{
					"indexed": true,
					"internalType": "address",
					"name": "operator",
					"type": "address"
				},
				{
					"indexed": false,
					"internalType": "bool",
					"name": "approved",
					"type": "bool"
				}
			],
			"name": "ApprovalForAll",
			"type": "event"
		},
		{
			"anonymous": false,
			"inputs": [
				{
					"indexed": true,
					"internalType": "address",
					"name": "previousOwner",
					"type": "address"
				},
				{
					"indexed": true,
					"internalType": "address",
					"name": "newOwner",
					"type": "address"
				}
			],
			"name": "OwnershipTransferred",
			"type": "event"
		},
		{
			"anonymous": false,
			"inputs": [
				{
					"indexed": false,
					"internalType": "uint256",
					"name": "DstageFee",
					"type": "uint256"
				},
				{
					"indexed": false,
					"internalType": "uint256",
					"name": "minterFee",
					"type": "uint256"
				},
				{
					"indexed": false,
					"internalType": "uint256",
					"name": "nftSellerAmount",
					"type": "uint256"
				}
			],
			"name": "RoyaltiesTransfer",
			"type": "event"
		},
		{
			"anonymous": false,
			"inputs": [
				{
					"indexed": true,
					"internalType": "address",
					"name": "from",
					"type": "address"
				},
				{
					"indexed": true,
					"internalType": "address",
					"name": "to",
					"type": "address"
				},
				{
					"indexed": true,
					"internalType": "uint256",
					"name": "tokenId",
					"type": "uint256"
				}
			],
			"name": "Transfer",
			"type": "event"
		},
		{
			"anonymous": false,
			"inputs": [
				{
					"indexed": false,
					"internalType": "uint256",
					"name": "",
					"type": "uint256"
				},
				{
					"indexed": false,
					"internalType": "string",
					"name": "",
					"type": "string"
				}
			],
			"name": "availableForBids",
			"type": "event"
		},
		{
			"anonymous": false,
			"inputs": [
				{
					"indexed": false,
					"internalType": "uint256",
					"name": "",
					"type": "uint256"
				},
				{
					"indexed": false,
					"internalType": "string",
					"name": "",
					"type": "string"
				}
			],
			"name": "removeFormSale",
			"type": "event"
		},
		{
			"inputs": [
				{
					"internalType": "uint256",
					"name": "nftId",
					"type": "uint256"
				}
			],
			"name": "AcceptYourHighestBid",
			"outputs": [],
			"stateMutability": "nonpayable",
			"type": "function"
		},
		{
			"inputs": [
				{
					"internalType": "uint256",
					"name": "nftId",
					"type": "uint256"
				},
				{
					"internalType": "uint256",
					"name": "_bidAmount",
					"type": "uint256"
				}
			],
			"name": "AddAuctionBid",
			"outputs": [],
			"stateMutability": "payable",
			"type": "function"
		},
		{
			"inputs": [
				{
					"internalType": "uint256",
					"name": "nftId",
					"type": "uint256"
				},
				{
					"internalType": "uint256",
					"name": "_bidAmount",
					"type": "uint256"
				}
			],
			"name": "AddOpenBids",
			"outputs": [],
			"stateMutability": "payable",
			"type": "function"
		},
		{
			"inputs": [
				{
					"internalType": "uint256",
					"name": "tokenID",
					"type": "uint256"
				}
			],
			"name": "BurnTokken",
			"outputs": [],
			"stateMutability": "nonpayable",
			"type": "function"
		},
		{
			"inputs": [
				{
					"internalType": "uint256",
					"name": "nftId",
					"type": "uint256"
				}
			],
			"name": "CheckNftStatus",
			"outputs": [
				{
					"internalType": "enum DstageNft721Auction.status",
					"name": "",
					"type": "uint8"
				}
			],
			"stateMutability": "view",
			"type": "function"
		},
		{
			"inputs": [],
			"name": "CurrentStatus",
			"outputs": [
				{
					"internalType": "enum DstageNft721Auction.status",
					"name": "",
					"type": "uint8"
				}
			],
			"stateMutability": "view",
			"type": "function"
		},
		{
			"inputs": [
				{
					"internalType": "uint256",
					"name": "NftId",
					"type": "uint256"
				},
				{
					"internalType": "string",
					"name": "tokenURI",
					"type": "string"
				},
				{
					"internalType": "uint256",
					"name": "minterPercentage",
					"type": "uint256"
				},
				{
					"internalType": "uint256",
					"name": "fixedPrice",
					"type": "uint256"
				}
			],
			"name": "MintForFixedPrice",
			"outputs": [],
			"stateMutability": "nonpayable",
			"type": "function"
		},
		{
			"inputs": [
				{
					"internalType": "uint256",
					"name": "NftId",
					"type": "uint256"
				},
				{
					"internalType": "string",
					"name": "tokenURI",
					"type": "string"
				},
				{
					"internalType": "uint256",
					"name": "minterPercentage",
					"type": "uint256"
				}
			],
			"name": "MintForOpenBidding",
			"outputs": [],
			"stateMutability": "nonpayable",
			"type": "function"
		},
		{
			"inputs": [
				{
					"internalType": "uint256",
					"name": "NftId",
					"type": "uint256"
				},
				{
					"internalType": "string",
					"name": "tokenURI",
					"type": "string"
				},
				{
					"internalType": "uint256",
					"name": "minterPercentage",
					"type": "uint256"
				},
				{
					"internalType": "uint256",
					"name": "startTime",
					"type": "uint256"
				},
				{
					"internalType": "uint256",
					"name": "endTime",
					"type": "uint256"
				},
				{
					"internalType": "uint256",
					"name": "minimumAmount",
					"type": "uint256"
				}
			],
			"name": "MintForTimedAuction",
			"outputs": [],
			"stateMutability": "nonpayable",
			"type": "function"
		},
		{
			"inputs": [
				{
					"internalType": "address payable",
					"name": "to",
					"type": "address"
				},
				{
					"internalType": "uint256",
					"name": "tokenId",
					"type": "uint256"
				},
				{
					"internalType": "string",
					"name": "TokenURI",
					"type": "string"
				},
				{
					"internalType": "address payable",
					"name": "localMinter",
					"type": "address"
				},
				{
					"internalType": "uint256",
					"name": "Percentage",
					"type": "uint256"
				},
				{
					"internalType": "uint256",
					"name": "NftPrice",
					"type": "uint256"
				}
			],
			"name": "MintTo",
			"outputs": [],
			"stateMutability": "payable",
			"type": "function"
		},
		{
			"inputs": [
				{
					"internalType": "uint256",
					"name": "nftId",
					"type": "uint256"
				},
				{
					"internalType": "uint256",
					"name": "Fixedprice",
					"type": "uint256"
				}
			],
			"name": "PlaceNftForFixedPrice",
			"outputs": [],
			"stateMutability": "nonpayable",
			"type": "function"
		},
		{
			"inputs": [
				{
					"internalType": "uint256",
					"name": "NftId",
					"type": "uint256"
				}
			],
			"name": "PlaceNftForOPenBidding",
			"outputs": [],
			"stateMutability": "nonpayable",
			"type": "function"
		},
		{
			"inputs": [
				{
					"internalType": "uint256",
					"name": "NftId",
					"type": "uint256"
				},
				{
					"internalType": "uint256",
					"name": "startTime",
					"type": "uint256"
				},
				{
					"internalType": "uint256",
					"name": "endTime",
					"type": "uint256"
				},
				{
					"internalType": "uint256",
					"name": "minimumAmount",
					"type": "uint256"
				}
			],
			"name": "PlaceNftForTimedAuction",
			"outputs": [],
			"stateMutability": "nonpayable",
			"type": "function"
		},
		{
			"inputs": [
				{
					"internalType": "uint256",
					"name": "nftId",
					"type": "uint256"
				},
				{
					"internalType": "address payable",
					"name": "to",
					"type": "address"
				},
				{
					"internalType": "bytes",
					"name": "data",
					"type": "bytes"
				}
			],
			"name": "PurchaseNftFromFixedPrice",
			"outputs": [],
			"stateMutability": "payable",
			"type": "function"
		},
		{
			"inputs": [
				{
					"internalType": "uint256",
					"name": "nftId",
					"type": "uint256"
				}
			],
			"name": "RemoveNftFromSale",
			"outputs": [],
			"stateMutability": "nonpayable",
			"type": "function"
		},
		{
			"inputs": [
				{
					"internalType": "address payable",
					"name": "from",
					"type": "address"
				},
				{
					"internalType": "address payable",
					"name": "to",
					"type": "address"
				},
				{
					"internalType": "uint256",
					"name": "tokenId",
					"type": "uint256"
				},
				{
					"internalType": "bytes",
					"name": "data",
					"type": "bytes"
				}
			],
			"name": "SafeTransferFromDstage",
			"outputs": [],
			"stateMutability": "nonpayable",
			"type": "function"
		},
		{
			"inputs": [
				{
					"internalType": "uint256",
					"name": "amount",
					"type": "uint256"
				}
			],
			"name": "WithDrawAmount",
			"outputs": [],
			"stateMutability": "nonpayable",
			"type": "function"
		},
		{
			"inputs": [
				{
					"internalType": "uint256",
					"name": "tokenId",
					"type": "uint256"
				},
				{
					"internalType": "string",
					"name": "tokenURI",
					"type": "string"
				},
				{
					"internalType": "uint256",
					"name": "minterPercentage",
					"type": "uint256"
				}
			],
			"name": "_simpleMint",
			"outputs": [],
			"stateMutability": "nonpayable",
			"type": "function"
		},
		{
			"inputs": [
				{
					"internalType": "address",
					"name": "to",
					"type": "address"
				},
				{
					"internalType": "uint256",
					"name": "tokenId",
					"type": "uint256"
				}
			],
			"name": "approve",
			"outputs": [],
			"stateMutability": "nonpayable",
			"type": "function"
		},
		{
			"inputs": [
				{
					"internalType": "address",
					"name": "owner",
					"type": "address"
				}
			],
			"name": "balanceOf",
			"outputs": [
				{
					"internalType": "uint256",
					"name": "",
					"type": "uint256"
				}
			],
			"stateMutability": "view",
			"type": "function"
		},
		{
			"inputs": [
				{
					"internalType": "address",
					"name": "_address",
					"type": "address"
				}
			],
			"name": "checkBalance",
			"outputs": [
				{
					"internalType": "uint256",
					"name": "",
					"type": "uint256"
				}
			],
			"stateMutability": "view",
			"type": "function"
		},
		{
			"inputs": [
				{
					"internalType": "uint256",
					"name": "nftId",
					"type": "uint256"
				}
			],
			"name": "checkNftPrice",
			"outputs": [
				{
					"internalType": "uint256",
					"name": "",
					"type": "uint256"
				}
			],
			"stateMutability": "view",
			"type": "function"
		},
		{
			"inputs": [
				{
					"internalType": "uint256",
					"name": "nftId",
					"type": "uint256"
				},
				{
					"internalType": "uint256",
					"name": "endTime",
					"type": "uint256"
				}
			],
			"name": "extendAuctionTime",
			"outputs": [],
			"stateMutability": "nonpayable",
			"type": "function"
		},
		{
			"inputs": [
				{
					"internalType": "uint256",
					"name": "tokenId",
					"type": "uint256"
				}
			],
			"name": "getApproved",
			"outputs": [
				{
					"internalType": "address",
					"name": "",
					"type": "address"
				}
			],
			"stateMutability": "view",
			"type": "function"
		},
		{
			"inputs": [],
			"name": "getBalanceContract",
			"outputs": [
				{
					"internalType": "uint256",
					"name": "",
					"type": "uint256"
				}
			],
			"stateMutability": "view",
			"type": "function"
		},
		{
			"inputs": [
				{
					"internalType": "uint256",
					"name": "nftId",
					"type": "uint256"
				}
			],
			"name": "getHighestBid",
			"outputs": [
				{
					"internalType": "uint256",
					"name": "",
					"type": "uint256"
				}
			],
			"stateMutability": "view",
			"type": "function"
		},
		{
			"inputs": [
				{
					"internalType": "address",
					"name": "owner",
					"type": "address"
				},
				{
					"internalType": "address",
					"name": "operator",
					"type": "address"
				}
			],
			"name": "isApprovedForAll",
			"outputs": [
				{
					"internalType": "bool",
					"name": "",
					"type": "bool"
				}
			],
			"stateMutability": "view",
			"type": "function"
		},
		{
			"inputs": [],
			"name": "name",
			"outputs": [
				{
					"internalType": "string",
					"name": "",
					"type": "string"
				}
			],
			"stateMutability": "view",
			"type": "function"
		},
		{
			"inputs": [],
			"name": "owner",
			"outputs": [
				{
					"internalType": "address",
					"name": "",
					"type": "address"
				}
			],
			"stateMutability": "view",
			"type": "function"
		},
		{
			"inputs": [
				{
					"internalType": "uint256",
					"name": "tokenId",
					"type": "uint256"
				}
			],
			"name": "ownerOf",
			"outputs": [
				{
					"internalType": "address",
					"name": "",
					"type": "address"
				}
			],
			"stateMutability": "view",
			"type": "function"
		},
		{
			"inputs": [
				{
					"internalType": "address",
					"name": "lazyMinter",
					"type": "address"
				},
				{
					"internalType": "uint256",
					"name": "minimumAmount",
					"type": "uint256"
				},
				{
					"internalType": "uint256",
					"name": "bidAmount",
					"type": "uint256"
				},
				{
					"internalType": "uint256",
					"name": "minterPercentage",
					"type": "uint256"
				},
				{
					"internalType": "uint256",
					"name": "tokenId",
					"type": "uint256"
				},
				{
					"internalType": "string",
					"name": "tokenURI",
					"type": "string"
				},
				{
					"internalType": "uint256",
					"name": "startTime",
					"type": "uint256"
				},
				{
					"internalType": "uint256",
					"name": "endTime",
					"type": "uint256"
				}
			],
			"name": "placeBidOnLazyMintedNFT",
			"outputs": [],
			"stateMutability": "payable",
			"type": "function"
		},
		{
			"inputs": [],
			"name": "provenanceHashValue",
			"outputs": [
				{
					"internalType": "string",
					"name": "",
					"type": "string"
				}
			],
			"stateMutability": "view",
			"type": "function"
		},
		{
			"inputs": [],
			"name": "renounceOwnership",
			"outputs": [],
			"stateMutability": "nonpayable",
			"type": "function"
		},
		{
			"inputs": [],
			"name": "saleIsActive",
			"outputs": [
				{
					"internalType": "bool",
					"name": "",
					"type": "bool"
				}
			],
			"stateMutability": "view",
			"type": "function"
		},
		{
			"inputs": [
				{
					"internalType": "address",
					"name": "operator",
					"type": "address"
				},
				{
					"internalType": "bool",
					"name": "approved",
					"type": "bool"
				}
			],
			"name": "setApprovalForAll",
			"outputs": [],
			"stateMutability": "nonpayable",
			"type": "function"
		},
		{
			"inputs": [],
			"name": "switchSaleState",
			"outputs": [],
			"stateMutability": "nonpayable",
			"type": "function"
		},
		{
			"inputs": [],
			"name": "symbol",
			"outputs": [
				{
					"internalType": "string",
					"name": "",
					"type": "string"
				}
			],
			"stateMutability": "view",
			"type": "function"
		},
		{
			"inputs": [
				{
					"internalType": "uint256",
					"name": "tokenId",
					"type": "uint256"
				}
			],
			"name": "tokenURI",
			"outputs": [
				{
					"internalType": "string",
					"name": "",
					"type": "string"
				}
			],
			"stateMutability": "view",
			"type": "function"
		},
		{
			"inputs": [
				{
					"internalType": "address payable",
					"name": "from",
					"type": "address"
				},
				{
					"internalType": "address payable",
					"name": "to",
					"type": "address"
				},
				{
					"internalType": "uint256",
					"name": "tokenId",
					"type": "uint256"
				}
			],
			"name": "transferFromDstage",
			"outputs": [],
			"stateMutability": "payable",
			"type": "function"
		},
		{
			"inputs": [
				{
					"internalType": "address",
					"name": "newOwner",
					"type": "address"
				}
			],
			"name": "transferOwnership",
			"outputs": [],
			"stateMutability": "nonpayable",
			"type": "function"
		}
	]
}